:020000042400D6
:10000000000002208D07002489070024B1BF0024CE
:1000100089070024890700248907002400000000C4
:10002000000000000000000000000000890700241C
:1000300089070024000000008907002435BF002440
:1000400089070024890700248907002489070024E0
:1000500089070024890700248907002489070024D0
:10006000890700248907002489070024B59D0024FE
:10007000C19D0024958B0024CD9D0024D99D002492
:10008000A9B9002445920024890700248907002487
:100090008907002489070024890700248907002490
:1000A0008907002489070024890700248907002480
:1000B000B17A0124BD7A0124C97A012485920024F1
:1000C00089070024919200248907002479A800243C
:1000D00085A80024B9B70024E9B7002421B800247A
:1000E00089070024890700240000000089070024F4
:1000F0008907002489070024890700248907002430
:100100008907002489070024D57A012491A80024B6
:1001100059B8002491B800248907002489070024D5
:100120008907002489070024B5A80024F5A8002425
:10013000E9B90024890700248907002489070024DD
:1001400000000000000000000000000000000000AF
:10015000890700248907002489070024C9B80024DE
:100160009D9200248907002445BF002469BF002414
:10017000890700248DBF00248907002489070024F3
:10018000890700248907002401B9002439B9002413
:100190009DA80024A9A80024890700248907002419
:1001A000890700248907002489070024890700247F
:1001B000059A002489070024890700248907002460
:1001C0008907002489070024A9860024B586002415
:1001D00089070024C1860024890700248907002498
:1001E000890700248907002489070024890700243F
:1001F000890700248907002489070024890700242F
:10020000890700248907002489070024890700241E
:10021000890700248907002489070024890700240E
:1002200089070024890700248907002400000000B2
:1002300089070024890700240000000089070024A2
:1002400089070024890700248907002489070024DE
:1002500089070024890700248907002489070024CE
:1002600089070024890700248907002489070024BE
:10027000890700248907002471B9002400000000C8
:100280008907002489070024890700240000000052
:080290000000000089070024B2
:1002A000034613F8012B002AFBD1181A01387047B6
:1002B00001F0FF01102A2BDB10F0070F08D010F817
:1002C000013B013A8B422DD010F0070F42B3F6D11B
:1002D000F0B441EA012141EA014122F007047FF034
:1002E00000070023F0E80256083C85EA010586EA8B
:1002F000010685FA47F5A3FA87F586FA47F6A5FAC7
:1003000087F68EB9EED1F0BC01F0FF0102F00702D2
:1003100032B110F8013B013A83EA010313B1F8D17D
:100320000020704701387047002D06BF354603385E
:10033000073815F0010F07D1013015F4807F02BF97
:10034000013015F4C03F0130F0BC0138704700BFE8
:1003500081F0004102E000BF83F0004330B54FEA76
:1003600041044FEA430594EA050F08BF90EA020FE3
:100370001FBF54EA000C55EA020C7FEA645C7FEA76
:10038000655C00F0E2804FEA5454D4EB5555B8BF99
:100390006D420CDD2C4480EA020281EA030382EA0A
:1003A000000083EA010180EA020281EA0303362D9C
:1003B00088BF30BD11F0004F4FEA01314FF4801C6F
:1003C0004CEA113102D0404261EB410113F0004F81
:1003D0004FEA03334CEA133302D0524263EB430338
:1003E00094EA050F00F0A780A4F10104D5F1200ED6
:1003F0000DDB02FA0EFC22FA05F2801841F1000131
:1004000003FA0EF2801843FA05F359410EE0A5F104
:1004100020050EF1200E012A03FA0EFC28BF4CF035
:10042000020C43FA05F3C01851EBE37101F00045EB
:1004300007D54FF0000EDCF1000C7EEB00006EEBF8
:100440000101B1F5801F1BD3B1F5001F0CD3490882
:100450005FEA30004FEA3C0C04F101044FEA4452D9
:1004600012F5800F80F09A80BCF1004F08BF5FEA60
:10047000500C50F1000041EB045141EA050130BD40
:100480005FEA4C0C404141EB0101013C28BFB1F552
:10049000801FE9D291F0000F04BF01460020B1FA9D
:1004A00081F308BF2033A3F10B03B3F120020CDA70
:1004B0000C3208DD02F1140CC2F10C0201FA0CF04E
:1004C00021FA02F10CE002F11402D8BFC2F1200CB3
:1004D00001FA02F120FA0CFCDCBF41EA0C01904069
:1004E000E41AA2BF01EB0451294330BD6FEA0404B2
:1004F0001F3C1CDA0C340EDC04F11404C4F120029D
:1005000020FA04F001FA02F340EA030021FA04F3AE
:1005100045EA030130BDC4F10C04C4F1200220FA05
:1005200002F001FA04F340EA0300294630BD21FA43
:1005300004F0294630BD94F0000F83F4801306BF09
:1005400081F480110134013D4EE77FEA645C18BFFD
:100550007FEA655C29D094EA050F08BF90EA020F94
:1005600005D054EA000C04BF1946104630BD91EA8C
:10057000030F1EBF0021002030BD5FEA545C05D18F
:100580004000494128BF41F0004130BD14F58004CE
:100590003CBF01F5801130BD01F0004545F0FE4142
:1005A00041F470014FF0000030BD7FEA645C1ABF77
:1005B000194610467FEA655C1CBF0B46024650EAAE
:1005C000013406BF52EA033591EA030F41F40021DA
:1005D00030BD00BF90F0000F04BF0021704730B560
:1005E0004FF4806404F132044FF000054FF0000135
:1005F00050E700BF90F0000F04BF0021704730B5F6
:100600004FF4806404F1320410F0004548BF4042CA
:100610004FF000013EE700BF42004FEAE2014FEA1F
:1006200031014FEA02701FBF12F07F4393F07F4FFA
:1006300081F06051704732F07F4208BF704793F0FD
:100640007F4F04BF41F40021704730B54FF4607410
:1006500001F0004521F000411CE700BF50EA010213
:1006600008BF704730B54FF000050AE050EA0102BC
:1006700008BF704730B511F0004502D5404261EB2C
:1006800041014FF4806404F132045FEA915C3FF46D
:10069000D8AE4FF003025FEADC0C18BF03325FEA0A
:1006A000DC0C18BF033202EBDC02C2F1200300FABB
:1006B00003FC20FA02F001FA03FE40EA0E0021FAE0
:1006C00002F11444BDE600BF53B94AB9002908BF7E
:1006D00000281CBF4FF0FF314FF0FF3000F00CB886
:1006E000ADF1080C6DE904CE19F03AFCDDF804E038
:1006F000DDE9022304B07047704700BF0348044B94
:10070000834202D0034B03B118477047E80600202C
:10071000E8060020000000000548064B1B1AD90F10
:1007200001EBA301491002D0034B03B118477047F6
:10073000E8060020E80600200000000010B5064C86
:10074000237843B9FFF7DAFF044B13B10448AFF342
:1007500000800123237010BDE80600200000000087
:1007600094B1012408B5054B1BB105490548AFF309
:100770000080BDE80840FFF7CFBF00BF00000000C9
:10078000EC06002094B10124FEE700BF0B4A0C4B9D
:10079000934204D0D21A0B49184618F010FC0A4AAA
:1007A0000A4B934204D0D21A0021184618F0C2FB1B
:1007B00018F0DEFB02F0FEFAFEE700BFE8060020BC
:1007C00000000020C8B10124589E0120E806002046
:1007D0009FED367A0022364BB0EE474AF0EE473AAC
:1007E00003F5C061F0EE474A13E0F4EEC37AF1EE90
:1007F00010FA2BDCF4EEC65ADFED2E7AF1EE10FA89
:1008000024DCB4EEE75AF1EE10FA1FDC30339942E3
:1008100020D0D3ED017AD3ED006AF4EEC77A9FEDD4
:10082000266A93ED045A74EEA64AD3ED065AF1EE09
:1008300010FA9FED223AF4EEC66A73EE853A37FE5F
:10084000877A34EE254AF1EE10FACEDD30330132EC
:100850009942DED1052A08DDDFED187AB4EEE77A99
:10086000F1EE10FA03DD0120704700207047DFED44
:10087000147A9FED117A64EEA74AF4EEC74AF1EEBE
:1008800010FAF0DC24EE274AB4EEC74AF1EE10FA73
:10089000E9DC63EEA73ADFED077AF4EEE73AF1EE32
:1008A00010FACCBF01200020704700BF00000000FC
:1008B00000EE05C0A69B443A3480B73952499D3AB0
:1008C0000000003DF0B5234887B004F0BBFE224B8A
:1008D000224E1C68634204F01F0403F01F0358BF3C
:1008E0005C4204F12005634204F01F0104F101049D
:1008F000184803F01F0358BF594201EB410106EBB2
:10090000011104F0A9FEA542EDD16D4611496846DA
:10091000134C05F06BFE134E134FDFF850E0B44656
:100920000FCD0FC42B68224642F810391346F7EE5C
:10093000007AB3EC017A9C42ACEC017A77EEC77A8C
:10094000A7EC017AEEEC017AF1D113690120336151
:1009500007B0F0BDC40800208408002000EE05C0E8
:100960003C0800205089002034070020400000206F
:10097000DFED6E2A2DE9F04F6D4FF0EE625AB0EECA
:10098000625A85B0F0EE624A814600263B4607F582
:10099000C062D3ED017A303313ED0C7AF4EEE27AD3
:1009A000DFED646A13ED084A74EE874A13ED066AB8
:1009B000F1EE10FADFED603AB4EEE67A35EE045A65
:1009C00077FEA22A75EE865AF1EE10FA10DCF4EEEC
:1009D000E37AF1EE10FA0BDCB4EEE66ADFED577A5B
:1009E000F1EE10FA04DCB4EEE74AF1EE10FA00DDA5
:1009F00001369A42CDD1DFED527A24EEA71A65EE88
:100A0000271A25EEA72AFFF7E3FE00286DD04D4BED
:100A10004D4D1C6809EB4903DFF840B105EB833508
:100A200063425BF829A004F01F0403F01F0358BFC2
:100A30005C420AEB4A0304F1200805EB43256342BC
:100A400004F01F0CAE4604F1010403F01F0305F18E
:100A5000300558BFC3F1000CA0450CEB4C0C07EB64
:100A60000C1CBCE80F00AEE80F00BCE80F00AEE8BD
:100A70000F009CE80F008EE80F00E0D10AF1010A98
:100A80003249DAF100020AF01F0302F01F0258BFD8
:100A9000534251F829201F2A4BF8293021DDDFED80
:100AA0002C7A334649462B4821EEA75A62EE275A44
:100AB00061EE274A62EEA72ABDEEC55AFDEEE55A61
:100AC000FDEEE44AFDEEE22A8DED035ACDED025A29
:100AD000CDED014ACDED002A07F01CFC05B0BDE8C4
:100AE000F08F013241F82920D9E7DFED197A31463C
:100AF000194861EE274A21EEA75A62EE275A62EEA4
:100B0000A72AFDEEE47ABDEEC55AFDEEE55A17EED2
:100B1000903AFDEEE27A8DED015ACDED005A17EED6
:100B2000902A07F0F7FB05B0BDE8F08F0000000049
:100B300000EE05C03480B73952499D3AA69B443A2D
:100B40000000003D8408002000EE02C06008002084
:100B500000247449B0A3012478A301247008002064
:100B600090ED006AF6EE081A9FED4A2A90ED043ADD
:100B7000D0ED052A26EE026A90ED074A9FED460A5F
:100B800062EEA12AD0ED016A24EE214A23EE003A5A
:100B9000DFED421A91ED000A66EE826A90ED027A6C
:100BA000A0EE216A91ED010ADFED3D5AE0EE216AE7
:100BB000D0ED037AD0ED063A27EE257AD0ED0A0A79
:100BC00067EEA57AD0ED084A63EE823A90ED095AB5
:100BD0009FED342A64EEA54A9FED331A25EE255A7F
:100BE00091ED040A60EE815AF5EE000A2DED028BBC
:100BF00081ED006A91ED026AC1ED016AD1ED036AEF
:100C0000A6EE027A91ED066AE6EE827AD1ED076AE7
:100C1000E6EE213A91ED058AB0EE446ADFED231A43
:100C2000E8EE202A81ED027AA6EEA06A91ED087A1C
:100C3000F0EE646AC1ED037ADFED1D7AC1ED063A8C
:100C4000E7EE026AC1ED052AB0EE457AA0EE273A3A
:100C5000D1ED097A91ED0A0AA7EE827A81ED076A51
:100C6000F0EE657AE0EE217A81ED043AC1ED086A92
:100C700081ED097A91ED0B7ABDEC028BC1ED0A7A18
:100C8000D0ED0B7A67EE817AE7EE217AC1ED0B7A2F
:100C9000704700BF6666263F3333333F3333B33E7E
:100CA000CDCC0C3F6666E63E9A99593F9A99193E1B
:100CB0009A99993E00210448044B4FF4C0620160A8
:100CC0000348196018F036B9840800208008002015
:100CD00000EE05C0F0B5124E8646124B3468124F36
:100CE00004EB440201343D6803EB021C634204F050
:100CF0001F0403F01F0358BF5C421F2DBEE80F0006
:100D0000ACE80F00BEE80F00ACE80F009EE80F0053
:100D100034608CE80F0001DC01353D60F0BD00BFA0
:100D20008408002000EE05C0800800200021154B3B
:100D3000154A164810B51960154C164B1170302223
:100D4000016015482160197018F0F4F84FF07E50DA
:100D5000124A0023124C10600021124A12482360EC
:100D60001060124C124A23601160124C1248134A50
:100D7000236001601160124C1248134A2160036025
:100D8000116010BDE4070020E8070020AC07002038
:100D9000E007002078070020B00700205400002062
:100DA00074070020500000200024744970070020C0
:100DB000680700206C0700206407002060070020FF
:100DC0005C0700205807002054070020784B90ED66
:100DD000006AD0ED016AD0ED021A90ED037A90ED31
:100DE000042AD0ED057AD3ED002A93ED013AD3ED34
:100DF000023A72EE862A93ED034A33EE263AD3ED99
:100E0000044A73EEA13A93ED055A34EE074A90ED89
:100E1000060A74EE824AD0ED070A35EE275A90EDA5
:100E2000081AD3ED065A93ED076AD3ED086A75EEFA
:100E3000805A93ED097A36EE206AD0ED091A76EEE3
:100E4000816AD3ED0A7A90ED0A2A37EE217AC3ED52
:100E5000086A77EE827AC3ED002A83ED097A83ED82
:100E6000013AC3ED023A83ED034AC3ED044A83ED30
:100E7000055AC3ED065A83ED076AC3ED0A7A93ED6E
:100E80000B7AD0ED0B6AD0ED007A37EE267ADFF8D8
:100E900058C1DCF8002083ED0B7A464B013293ED0C
:100EA000007ACCF80020F4EEC77AF1EE10FA01DDFA
:100EB000C3ED007A404B93ED007AF4EEC77AF1EE81
:100EC00010FA01D5C3ED007A3C4BD0ED037A93EDD7
:100ED000007AF4EEC77AF1EE10FA01DDC3ED007A84
:100EE000374B93ED007AF4EEC77AF1EE10FA01D5A4
:100EF000C3ED007A334BD0ED017A93ED007AF4EE36
:100F0000C77AF1EE10FA01DDC3ED007A9FED2E7A7B
:100F1000F4EEC77AF1EE10FA2FDDDFED2C7A90EDCA
:100F2000047AB4EEE77AF1EE10FA27DD2848036878
:100F300013B1CB1AB42B39D9DFF8B0C0DCF80030CC
:100F400030B573B3DFF8A8E0224CDEF8005094ED22
:100F5000007A4D1B204A07EE905AF8EE677A77EE3A
:100F6000877AC4ED007A1468013414600133CEF836
:100F700000100160CCF8003030BD7047DFED177A0B
:100F800090ED077AB4EEE77AF1EE10FACEDCDFED01
:100F9000147A90ED057AB4EEE77AF1EE10FAC5DC3A
:100FA0007047104ADFF848E01160DFE7704700BF84
:100FB000B0070020740700205400002070070020B4
:100FC000500000206C0700208FC2F53B295C0F3DCC
:100FD000640700205807002054070020A69B443CCB
:100FE0000AD7233C60070020AC07002068070020D8
:100FF0005C0700203022002108B517F09BFF424A11
:101000001268002A77DD03464049414807EE902ADE
:101010000968F7EE005A0268B8EEE76A9FED3D2ACC
:1010200091423D48C5EE866ADFF808C138BF1146D7
:10103000D0ED064A90ED044A8A1AD0ED033A90EDBD
:10104000023A07EE902AD0ED002A3448F8EE677A8B
:101050009FED337A90ED005A324887EE826A324A29
:10106000D0ED007ADCF80000D2ED005A58602F482D
:10107000F8EEE55A2E4A62EEA62AD0ED001A23EECB
:10108000263ADFF8B4C063EEA63A126877EEE17A4A
:101090009CED001A24EE264A501E64EEA64A75EE18
:1010A000416AC3ED097AC3ED002A83ED023AC3ED2C
:1010B000086AB4EEC67AC3ED033A83ED044AC3ED81
:1010C000064AF1EE10FA77FE067A8142C5EEA76A6B
:1010D00012D8C3ED0A5AC3ED056A83ED0B6A86EE9A
:1010E000277AF7EE007AB4EEE77AF1EE10FA77FE9F
:1010F000877AC3ED077A08BD891A07EE101AB8EE91
:10110000477A87EE026AE4E7AC070020E007002098
:10111000E407002000007A44B00700207407002094
:101120006F12833A700700206807002050000020EB
:10113000640700206C07002054000020032857D8C3
:10114000394B53F820301F2B00B583B067DCD1ED4D
:10115000006A9FED367AD1ED047AF4EEC76AF1EEBB
:1011600010FA12DD9FED327AF4EEC77AF1EE10FA42
:1011700008DCB7EE006A91ED0A7AB4EEC67AF1EEB9
:1011800010FA37DB012003B000BDD1ED015A9FED0D
:10119000296AF4EEC65AF1EE10FAE3DC91ED066A24
:1011A000B4EEC76AF1EE10FADCDC91ED0A7A9FED3D
:1011B000226A0146214867EE867A27EE067A66EEB5
:1011C000866AFDEEE77A65EE865ABDEEC77ACDED0A
:1011D000007AFDEEE67ABDEEE56A8DED017A17EE56
:1011E000902A16EE103A07F095F8002003B000BDE3
:1011F000002070479FED126AD1ED085AF4EEC65AEE
:10120000F1EE10FABEDCB3EE046AD1ED095AF4EE49
:10121000C65AF1EE10FAB5DCD1ED015AC7E709481C
:1012200007F078F8E1E700BF8808002017B7513AC7
:10123000A69B443B6F12033B00007A4438A4012470
:1012400017B751391CA401242DE9F043194E00EBC6
:10125000400391468E4656F820405B02DFF86080DE
:10126000054604EB4402013458F8207003EB0213E6
:10127000114A02EB030C634204F01F0403F01F0346
:1012800058BF5C421F2FBEE80F00ACE80F00BEE85D
:101290000F00ACE80F009EE80F0046F825408CE8F0
:1012A0000F0002DC013748F82570044B43F8259005
:1012B000BDE8F0839808002000F405C04407002032
:1012C000880800202DE9F0476D4E00276D4D8EB047
:1012D000302200216C48B246A946B84617F02AFED3
:1012E00030220021694817F025FE5AF8044B002CE3
:1012F0002FDD05EB070E04EB4403494664480EEB73
:10130000031E0A684B68029203938A68CB680492B2
:1013100005930A694B69069207938A69CB6908921B
:1013200009930A6A4B6A0A920B938A6ACB6A0C92F7
:1013300002AA0D93544BD3ED007AB2EC017A77EE0A
:10134000877AE3EC017A8342F5D130317145D8D107
:10135000A04407F5C06709F5C069B7F5C05FC4D1FF
:10136000B8F1000F7FD007EE908AB7EE007A464CB6
:10137000F8EEE77A04F13002234687EE276AD3EDD0
:10138000007A67EE867AE3EC017A9342F7D13D4F1B
:101390004FF0000956F8043B002B3EDD09EB050831
:1013A00003EB4303384608EB03184368D0F800A06A
:1013B0008168C26803934369D0F810E0CDF808A0B3
:1013C0000491D0F818A0016A05920793C269436A94
:1013D000CDF818E0CDF820A0D0F828E0D0F82CA067
:1013E000099202AA0A9121460B93284BCDF830E0CE
:1013F000CDF834A0F2EC017A0DF1380EF1EC016A6F
:1014000093ED007A724577EEE67AA7EEA77AA3EC21
:10141000017AEFD130304045C7D109F5C06907F5F1
:10142000C067B9F5C05FB5D1184C04F13005B4EC14
:10143000010A9FED187A20EE060AB5EE400AF1EE99
:1014400010FA14D4F1EEC07AF4EEC77AF1EE10FA85
:1014500001D5F7EE007AAC4244ED017AE7D10120E4
:101460000EB0BDE8F08740460EB0BDE8F0878DEDC8
:10147000016A17F021F99DED016AF0EE407AEAE782
:101480008808002000F405C00407002000000020A8
:1014900034070020BD3786352DE9F047714E4FF0F7
:1014A0000008302200217048B24645462DED028BDF
:1014B0008CB017F03FFD302200216C4817F03AFD48
:1014C0005AF8049BB9F1000F3BDD694C09EB490761
:1014D0006848444404EB4727A4F5C0614B680A6898
:1014E0000193CB68009203930A694B69D1F808C055
:1014F000049205930A6ACB69CDF808C00793D1F826
:1015000018C04B6A0892CA6ACDF818C00993D1F87E
:1015100028C00B926A46544BCDF828C0D3ED007A10
:10152000B2EC017A77EE877AE3EC017A8342F5D167
:101530003031A142D2D101F5C064BC42CCD105EB1F
:10154000491508F54048B8F5403FB9D1002D7DD088
:1015500007EE905AB7EE007A434DF8EEE77A05F1C0
:1015600030022B4687EE278AD3ED007A67EE887A21
:10157000E3EC017A9342F7D14FF0000A56F8043BAE
:10158000002B3DDD3A4A03EB430302EB0A0808EB6C
:101590004329A8F5C06002684368C168D0F808C054
:1015A00007694469009201938269C3690391416AA2
:1015B000CDF808C00497D0F820C0876A0594069239
:1015C0006A46C46A079309912946284BCDF820C082
:1015D0000A970B94F2EC017A0CACF1EC016A93EDF2
:1015E000007A944277EEE67AA7EEA77AA3EC017A26
:1015F000F0D130304045CED108F5C068C845C8D1DB
:101600000AF5404ABAF5403FB8D1184C04F130050C
:10161000B4EC010A9FED187A20EE080AB5EE400AF4
:10162000F1EE10FA18D4F1EEC07AF4EEC77AF1EECA
:1016300010FA01D5F7EE007AAC4244ED017AE7D119
:1016400001200CB0BDEC028BBDE8F08728460CB041
:10165000BDEC028BBDE8F08717F02EF8F0EE407A73
:10166000EAE700BF60080020040700200000002017
:1016700000F402C034070020BD3786352DE9F84F4D
:10168000234E002106F11000334653F8042B002AA4
:10169000C8BF01318342F8D1012903DDFFF712FEF3
:1016A000824620B94FF0000A5046BDE8F88F19482D
:1016B0004FF05A0902F054FE174A1849154802F033
:1016C000ADFEDFF86480B34600275BF8043B002BD7
:1016D0000EDD4546002429469FED110A3A460D4885
:1016E00002F094FF01345BF8043C30359C42F2DB9D
:1016F000013708F5C068042FE7D1B9F10109E0D13D
:101700000849044803F086F85046BDE8F88F00BF4A
:1017100088080020648900200000002004070020C1
:101720004260653BC086002000F405C02DE9F04F03
:10173000DFF88C81ADF2144D002308F11001424610
:1017400052F8040B0B28C8BF01338A42F8D1012B91
:1017500003DDFFF7A1FE074628B9002738460DF242
:10176000144DBDE8F08F514803F06CFE504A5149CA
:101770004E4804F0D9FF4D4803F064FFD8F8082024
:10178000D8E900318B42B8BF0B4623EAE37393429A
:10179000B8BF1346D8F80C209342B8BF1346002BAD
:1017A000DBD04FF0000ACDE90237029B54464FF0E0
:1017B000000B03EB0A0E4146002351F8042B002ACC
:1017C0000EDDBBF17F0F04AE84AD09DC46F82B3093
:1017D00094FBF2F002FB104245F82B200BF1010BB9
:1017E0000133042BE9D101347445E4D1BBF1010F7D
:1017F00057DD04AE84AD5C4606EB8B0905EB8B0729
:1018000017F046FA59F8041D57F8042D90FBF4F32D
:1018100003FB1400013C56F82030012CC9F80030BD
:1018200055F8203046F820103B6045F82020E7D1DD
:101830000027CDF804A056F804AB55F8044B0AEB8A
:101840004A091A4803F0FEFE1B4A04EB44034FEA20
:10185000893909EB4324914409EB4329A2F5C0637C
:101860001C4421463034114803F0F6FE4C45F8D1B3
:1018700001379FED120A51460C4804F037FFBB4573
:10188000D9D1DDF804A00AF1010ABAF5967F8CD10E
:10189000039F064803F0D6FE38460DF2144DBDE80E
:1018A000F08FF0D104AE84ADC2E700BFC4080020C1
:1018B000000000200407002000F402C06F12833AE9
:1018C0006008002017490023174A08681749DFF805
:1018D00080C010B41160164C51609160D160154AFF
:1018E000154910610861CCF80000C4E90033C4E96F
:1018F0000233C2E90033114CC2E902334FF07A528D
:1019000022606260A260E2600D4A0E4C13600E4AD3
:1019100020601360C1E90033C1E902330B4910BCF8
:101920000B607047EC07002040000020003C1C4684
:10193000340700203C08002050890020300000209F
:10194000B0080020B4080020A8080020AC0800203F
:10195000B80800208A4B30B51C78012C23D0B6EE95
:10196000007AD1ED0A7AF4EEC77AF1EE10FA40F17E
:101970009680D1ED077A9FED837AF4EEC77AF1EE87
:1019800010FA00F3D2809FED807AF4EEC77AF1EE80
:1019900010FA08D5DFED7D7A91ED0B7AB4EEE77A97
:1019A000F1EE10FA74D47A4BB7EE005ADFED795AA3
:1019B000012CD3F810E09C46DFED777A03EB8E0321
:1019C000764D45FEA75A35EE655AD3ED004A2A46B4
:1019D000734800239FED736A7349FCEC016A7345F9
:1019E000B7EE007A03F1010365EE267A05D0F4EE36
:1019F000C66AF1EE10FA36FE866AD2ED006A042B52
:101A0000E6EEA57A37EE677AE2EC017AE0EC017A4D
:101A1000A1EC017AE1D1D5ED006A0123634A0021EE
:101A20009FED607AF2EC017AF4EEE67AF1EE10FACC
:101A30002FDCF4EEC77AF1EE10FA37FE877A013325
:101A4000042BEFD1012C34EEC66A36EEC77A31D0C2
:101A5000DFED577AF4EEE74AF1EE10FA14DDDFED30
:101A6000557AB4EEE76AF1EE10FA0DDDDFED527A49
:101A7000F4EEE76AF1EE10FA06DDDFED437AB4EE3C
:101A8000E77AF1EE10FA31DC4C4A13680133136047
:101A900030BDB0EE667A1946F0EE676ACFE7B7EE72
:101AA000007AF4EEC77AF1EE10FA3FF67CAFD1ED92
:101AB000077A68E7DFED427AF4EEE74AF1EE10FAD2
:101AC000E2DDDFED407AB4EEE76AF1EE10FADBDD3D
:101AD000DFED3D7AF4EEE76AF1EE10FAD4DDDFEDEA
:101AE0003B7AB4EEE77AF1EE10FACDDD384B1A68A6
:101AF0008A4225D0DFED287A0122364CF4EEE76ADF
:101B0000354819602260F1EE10FA0260BCDDDFEDAD
:101B1000337AB4EEE77AF1EE10FAB5DD18680022F8
:101B20002F49264B08601A6030BDDFED2E7A91ED0B
:101B30000B7AB4EEE77AF1EE10FA7FF734AF30BDEE
:101B4000DFED157A244C2348F4EEE76A2268016839
:101B5000F1EE10FA02F1010201F1010122600160CF
:101B600003DC02218A42D9DA8EE7DFED1C7AB4EE7B
:101B7000E77AF1EE10FACCBF01210221F2E700BFB3
:101B8000500800206666663F8FC2753D0AD7233D28
:101B9000508900206666E63E9A99193F3000002081
:101BA0003407002000000000400000203400002026
:101BB0008FC2F53ECDCCCC3DEC51B83EAC080020F8
:101BC0009A99993E8FC2753C295C8F3E0AD7233C77
:101BD000B8080020A8080020B0080020EC51383ECA
:101BE000B40800203333B33E0138032838D8DFE887
:101BF00000F027170C0260EE007AB0EE087A27EEAC
:101C0000800A20EE070A16F07FBDB5EEC00AF1EE9D
:101C100010FA20DAF7EE087A20EE270A16F074BDE3
:101C2000F1EE607AB4EEE70AF1EE10FA10D4B4EEF9
:101C3000E00AF1EE10FA70FE807AB0EE670A7047A3
:101C4000F7EE007AB0EEC07A37EE277AC0EE077A68
:101C5000B0EE670A7047F0EE047A20EE270AD2E76A
:101C6000F0EE407AF4E700BF80F30200104B114A17
:101C700003EB4013104910B5106008700F4C586802
:101C800099680F4A206011600E481969D3F80CC09A
:101C90000D4AD3F814E011600C4C1A7F0C49C0F8BF
:101CA00000C098690B4BC4F800E008601A7010BDC2
:101CB00014A90124EC07002039080020900000201E
:101CC00098000020940000208C0000208800002054
:101CD0008400002058000020DB4A0023F0B5127871
:101CE0002DED048B85B0CDE90033CDE902334AB147
:101CF000D64B1B78012B0CBFD54BD64B1B78002B3A
:101D000040F05A82D44B4FF07E521D6885F3020595
:101D10000DEB85031A60DDED007A9FEDD07A9DED25
:101D2000015A77EE877ADDED025A9DED036ADFED09
:101D3000CC6A77EE857A77EEA57A77EE867AF4EE3E
:101D4000E67AF1EE10FA0FD5F7EE006A0DEB850397
:101D50008DED007A8DED017AF0EE667A8DED027AE6
:101D60008DED037AC3ED006A6C466B46D3ED006AD5
:101D700004AA86EEA77AA3EC017A9A42F6D1B94E6C
:101D8000B94ABA4F3570156033783A789A4210D014
:101D9000B74A0021B74817F0CDF8B74A0021002311
:101DA0001160B64A1360B64A1360B64A13603378BE
:101DB0003B70B54B9FEDA97A03EB4515B34AF0EEA6
:101DC000474AB0EE476A297FF0EE475AF0EE476A7D
:101DD0001170B0EE475AF4EC017A04AAD3ED011A5F
:101DE000203313ED062AA24253ED052AA7EEA15A8D
:101DF00013ED043AE7EE826A53ED033AE7EEA25A96
:101E000013ED024AA7EE836AE7EEA34AA7EE847AAF
:101E1000E1D19F4BD3ED007AF5EEC07AF1EE10FAE6
:101E200000F1CB82DFED9B3AF7EE040ADFED9A8AF0
:101E3000F4EEE37ADFED992A9FED993AF1EE10FA8C
:101E400073FEA77A87EEA34AD3ED017AF5EEC07A46
:101E5000F1EE10FAE4EE624AA4EE437A64EE288AC8
:101E600064EE200A00F1B782DFED8E3A9FED8E3AE4
:101E7000F4EEE37AF1EE10FA73FEA77A87EEA38A06
:101E8000D3ED043AF5EEC03AF1EE10FA28EE038AEB
:101E900000F1AB82DFED817A9FED7E1AF4EEE73A36
:101EA000F1EE10FA77FEA32A82EEA73A23EE011A8A
:101EB000D3ED071AF0EE002AD3ED057A71EEA77A7A
:101EC000E3EEA27AF5EEC07AF1EE10FA00F19D820F
:101ED000F7EE002AF4EEE27AF1EE10FA72FEA72A8B
:101EE000D3ED033A9FED712AF4EEC23AF1EE10FA07
:101EF00000F18682DFED6E7A9FED6E0AF4EEE73A2E
:101F0000F1EE10FA77FEA37A77EEC27ADFED6A3A45
:101F100087EEA32A22EE000AF5EEC01AF1EE10FABF
:101F200000F16B82F7EE003AF4EEE31AF1EE10FAEC
:101F300073FEA13AD3ED0B7AF5EEC07AF1EE10FA0A
:101F400000F15882B7EE089AF4EEC97AF1EE10FA71
:101F500079FE277AC7EE891A35EE285AF6EE007A0E
:101F6000B4EEE75AF1EE10FA00F1BA81F1EE0C7A14
:101F7000B4EEE75AF1EE10FA37FE855A76EEA06A13
:101F80004E4BF6EE007A83ED005A76EE886AF4EE58
:101F9000E76AF1EE10FA00F1A081F2EE007AF4EEB9
:101FA000E76AF1EE10FA77FEA66A75EE805ADFED69
:101FB000447A444BF4EEE75AC3ED006AF1EE10FAAE
:101FC00007D4DFED417AF4EEE75AF1EE10FA77FE2E
:101FD000A57A36EE016ADFED3A6A3C4BB4EEE66A6A
:101FE000C3ED007AF1EE10FA00F17481F7EE007A99
:101FF000B4EEE76AF1EE10FA77FE867ADFED346A26
:10200000344BF4EEE64AC3ED007AF1EE10FA00F13B
:102010005E81DFED316AF4EEE64AF1EE10FA36FE4B
:10202000A46ADFED2E6A2E4BB4EEE67A83ED006AE9
:10203000F1EE10FA56D4F0EE006AB4EEE67AF1EE64
:1020400010FA76FE876A4DE0C10800205008002093
:10205000C2080020C3080020BC08002000000000C7
:1020600017B7D13839080020EC07002038080020C5
:1020700000EE0200000000C034080020F00700203D
:10208000140800200008002014A901245800002092
:10209000F48B00200AD7A33D9A99993E8FC2F53D53
:1020A000CDCCCC3DEC51383ECDCC0C3F000048436C
:1020B000004083458FC2753E00007A4590000020A5
:1020C000CDCC4C3D980000209A99593F94000020B7
:1020D0003333B33E8C0000206666E63FCDCC4C3EE9
:1020E000880000203378CA4A012BC2ED006A00F054
:1020F000FA803378022B00F08F803378032B40F086
:10210000E2809FEDC46AF6EE001A9FEDC37ADFED20
:10211000C36AA7EE867A9FEDC25A9FEDC26ADFEDD1
:10212000C25AA7EEA65ADFEDC12AE7EE865ADFEDC6
:10213000C04ADFEDC06AB1EE026AF0EE477A9FED69
:10214000BE3ABE49A3EEA45ABD4AE3EEA27ABD4B05
:10215000B0EE657ADFEDBC4A91ED002AD2ED002A9F
:10216000A4EE217AD3ED003AF4EEE67AF1EE10FA1D
:10217000B4EEE65A76FEA77A67EE837AF1EE10FAAD
:10218000B4EEC67AE2EE247A76FE856A66EE836A5B
:10219000F1EE10FAE2EEA46A36FE076A26EE036A52
:1021A000C1ED007AA3EEA46AC2ED006A83ED006A75
:1021B00005B0BDEC048BF0BDA4496A46A44B0D6884
:1021C000DFEDA46A03F1100185F30205F3EC017A57
:1021D0009FEDA07AB4EEE77AF1EE10FA77FE277A57
:1021E000994276EEA76AE2EC017AEFD1DFED9A7AB6
:1021F000F4EEE76AF1EE10FA7FF58DAD4FF07E5206
:102200000DEB85038DED007A8DED017A8DED027A6F
:102210008DED037A1A607EE5B6EE007A9FED8F6A47
:10222000DFED824ADFED8E6AA7EE876A9FED8D5A59
:10223000DFED8D2AA7EEA65A9FED8C7ADFED7A5A54
:10224000DFED8B6AE7EE875A9FED8A1AA3EEA46A48
:102250009FED897AF1EE047A9FED773AA3EEA25AC8
:102260008649874A874BE4EE015ADFED774AA1EEB3
:10227000A26A91ED002AD2ED003A93ED004AB4EE45
:10228000E66AF1EE10FAB4EEC75A76FE866A66EE9A
:10229000836AF1EE10FAF4EEE75AE2EE246A37FEB2
:1022A000057A27EE037AF1EE10FAA3EEA47A77FE10
:1022B000A57A67EE837AC1ED006AE4EE247A82EDB6
:1022C000007AC3ED007A05B0BDEC048BF0BDB0EE32
:1022D000666AA6E6F0EE667A90E6F0EE676A64E675
:1022E000B0EE675A4AE69FED687AF0EE006A9FED1D
:1022F000676A9FED674AA7EE876ADFED665A9FED32
:10230000667AE3EE265ADFED564ADFED427AF6EEC4
:10231000086AE2EE874A9FED575A9FED547AA3EE82
:10232000046ADFED422A5D4AE2EE055ADFED5C3ACF
:10233000D2ED001A5B4B9FED5C4AB4EEE76A93ED79
:10234000002A5A489FED5A3AF1EE10FA90ED005AE1
:10235000F4EEE64A5749584837FE866A26EE226A66
:10236000F1EE10FA91ED001AF4EEC75A534CA1EEBB
:10237000236A76FEA46A66EEA26AF1EE10FAE1EE36
:10238000A36A77FE257A67EEA27A81ED006AE2EE13
:10239000237A26EE847AC2ED006AC7EE056AC3EDA1
:1023A000007A27EE855AC5EE037AC4ED006AC0EDC7
:1023B000007A05B0BDEC048BF0BDD3ED017ADFED02
:1023C000250AF5EEC07AF0EE608AB0EE604AF1EED2
:1023D00010FA7FF549ADD3ED043A9FED1E8AF5EE74
:1023E000C03AF1EE10FA7FF555AD9FED1A1AB0EE36
:1023F000413A5DE5DFED171AAEE5DFED163A99E5F6
:102400009FED140AB0EE402A86E5DFED122A67E55B
:1024100084000020CDCC0C3F9A99993ECDCC4C3E07
:102420000AD7233F666626403333B33F0AD7A33D1E
:102430008FC2753DD7A3703FCDCCCC3D6C00002042
:1024400068000020B40000206666663FB4080020E3
:10245000340700200000000017B7D138CDCCCC3EA7
:10246000EC51383E3333333FCDCC4C3DCDCC4C409A
:1024700048E17A3F9A99193F8FC2753F800000204A
:102480007C000020B80000203333B33EAE47613EED
:102490000AD7233DCDCC4C3F6666E63EC000002007
:1024A0001F856B3FC4000020DB0FC940CC0000201B
:1024B00000007A44BC0000202C08002024080020E2
:1024C00008B5244B2449D3ED007A244A244B2DED42
:1024D000028BB0EE408A91ED000A1878D2ED000A26
:1024E00067EE887A27EE800AFFF77EFBDFED1D7A24
:1024F00020EE270A16F008F91B4AB7EE006A1B4BBC
:10250000D2ED006AD2ED007A76EE666A93ED007A3B
:1025100067EE807A1649174ABFEE000AD1ED005ADD
:10252000E6EE887AD2ED006A77EEC77AA7EEA57A52
:1025300067EE267A83ED007AF4EEC07AF1EE10FAB7
:1025400005D4F4EEC67AF1EE10FA36FE270ABDEC99
:10255000028B08BDA8000020B00000209C000020D5
:1025600058000020CDCCAC3FA4000020F007002094
:10257000AC000020A0000020224BD3ED007AF8EE42
:10258000E77A77EEC07AF5EEC07AF1EE10FA08D568
:102590009FED1D7A77EE877AF5EEC07AF1EE10FAAC
:1025A000F6D49FED197AF4EEC77AF1EE10FA08DB53
:1025B0009FED157A77EEC77AF4EEC77AF1EE10FA4E
:1025C000F6DABDEEE77A114A11484BF6803C17EE79
:1025D000103AB8EEC77A02EB8301013377EEC77A7F
:1025E00091ED000A80FB0310D917C1EBA0210CFB71
:1025F000113302EB830292ED007A37EE407AA7EEB8
:10260000270A70473408002000803B47000000C0C4
:10261000F119760510B5454C2DED028B94ED008A2D
:10262000F0EE408AB0EE480A15F00AFE404A414BEF
:10263000B7EE006A92ED007AD3ED007ADFED3E4A04
:10264000E0EE077ADFED3D6A9FED3D5ADFED3D5A42
:10265000B0EE670AFFF790FF3B4B3C4A93ED007AE0
:10266000D2ED007A30EE474AA4EE247A67EE266A6D
:1026700083ED007AE0EE056A66EEA77AE8EEA57AC9
:10268000F4EEC67AF1EE10FA07DCBFEE006AB4EEA3
:10269000E76AF1EE10FA36FE276A2D4B2D4893EDCE
:1026A000007A2D4A036838EE077A2C4902EB830240
:1026B000DFED2B7A013382ED006AB4EEE77A81FB1D
:1026C0000321DA17C2EBA1224BF68031F1EE10FAAA
:1026D00001FB1233036001DB37EE677A2149B7EE65
:1026E000006A214ABFEE000AD1ED007A92ED005A4D
:1026F00076EE674A1D4B67EEA67A84ED007AD3ED3D
:10270000005AE4EEA87A67EE857A67EEA57AF4EED1
:10271000C07AF1EE10FA05D4F4EEC67AF1EE10FAB2
:1027200036FE270ABDEC028B10BD00BF100800204A
:1027300004080020080800200AD7233CCDCCCC3E5A
:102740009A99193F6666E63E140800207C00002036
:102750000C08002034080020000000C0F1197605A4
:10276000DB0FC94080000020B8000020A00000203E
:1027700008B53D4BF0EE405A9FED3C5AB7EE006A6B
:1027800093ED000AFFF7F8FE394BF0EE403A9FED6B
:10279000394A93ED000AFFF7EFFE374BF0EE406A3F
:1027A000DFED364A93ED000AFFF7E6FEDFED347AFF
:1027B000344B26EEA77A344AD3ED006AD2ED007A84
:1027C000A3EE857AA0EE047A37EE664AE4EE246A38
:1027D00066EEA77AC3ED006AE5EE857AF4EEC67A76
:1027E000F1EE10FA07DCBFEE006AB4EEE76AF1EE34
:1027F00010FA36FE276A254AF7EE006ADFF89CE0F9
:10280000BFEE000AD2ED007ADEED004A36EEE74A6E
:10281000DFF88CC067EE877A1D489CED005A4BF6B6
:10282000803C0368E4EE257A1A4A1B4902EB8302D6
:10283000013382ED006A81FB0321DA1767EEA47A87
:10284000C2EBA12267EE857A0CFB12330360F4EE33
:10285000C07AF1EE10FA05D4F4EEE67AF1EE10FA51
:1028600036FEA70A08BD00BFFC070020CDCC0C3FF8
:10287000F80700209A99193EF40700208FC2F53C12
:102880009A99993E00080020680000206C00002002
:1028900034080020000000C0F1197605B4000020C3
:1028A000A000002070B59F4C9F4EA04D2DED048BD5
:1028B00082B016F0EDF907EE900A2378F0EE006A88
:1028C000FAEEE07A96ED008ABFEE007A022BD5EDA3
:1028D000008AA7EEA67A00F0F48023788DED017AC5
:1028E000032B00F0A180B8EE000A28EE000A15F0D4
:1028F00033FCF0EE409AB0EE680A15F0A1FCB0EEA1
:10290000409A38EEA80A15F09BFC9FED896AF0EE1C
:10291000497AF0EE086AE0EE067A28EEA60ACDEDD6
:10292000007A15F08DFC9FED836AF1EE006ADDED13
:10293000007AE0EE067A28EEA60ACDED007A15F0D0
:102940007FFCB0EE409ABBEE040A28EE000A15F0B8
:1029500003FC9FED796ADDED007ADFED786AE9EE40
:10296000067A9DED017A27EE267AE7EE007A67EE89
:10297000A97AB0EE679A9FED720A28EE000A15F068
:102980005FFCF7EE007A9FED6F7A9FED6F6AE0EEE5
:10299000077A6E4BDFED6E6A93ED007A67EE867A0A
:1029A00087EE870A30EE280AB4EEE60AF1EE10FA56
:1029B00001DB30EE660AF7EE006A237885ED000A47
:1029C000022BC6EE877A77EE887AC6ED007A1ED0A3
:1029D0002378032B0ED0B7EE087AF4EEC77AF1EE27
:1029E00010FA01DB00233360B0EE490A02B0BDECFF
:1029F000048B70BDB0EE087AF4EEC77AF1EE10FAEF
:102A0000F0DAB0EE490A02B0BDEC048B70BDB1EE55
:102A1000047AF4EEC77AF1EE10FAE3DAB0EE490A7E
:102A200002B0BDEC048B70BD9FED4A0A28EE000A8F
:102A300015F092FBF0EE409AB0EE680A15F000FC3B
:102A4000B0EE409A38EEA80A15F0FAFB9FED426A04
:102A5000F0EE497AF0EE086AE0EE067A28EEA60A71
:102A6000CDED007A15F0ECFB9FED3C6AF1EE006ACB
:102A7000DDED007AE0EE067A28EEA60ACDED007ACA
:102A800015F0DEFBB0EE409ABAEE0E0A28EE000A10
:102A900015F062FBDFED325ADFED326A9FED326AEC
:102AA000DDED007A9DED017AE9EE257A27EE267AB2
:102AB00067EE867AE7EE007A67EEA97AB0EE679A5B
:102AC00059E79FED2A0A8DED017A28EE000A15F0EC
:102AD00043FBF0EE409AB0EE680A15F0B1FBB0EEA1
:102AE000409A38EEA80A15F0ABFB9FED1D6AF0EE98
:102AF000497AF0EE086AE0EE067A28EEA60ACDEDF5
:102B0000007A15F09DFBB0EE409ABAEE080A28EE66
:102B1000000A15F021FBDFED165ADFED166A9FED76
:102B2000166ABDE739080020180800201C0800209C
:102B3000AE47613ECDCCCC3D0AD7233DEC51383E6B
:102B40003333333F6F12033BA0C9AC44CC000020A9
:102B5000DB0FC9403333B3BE8FC2753DCDCCCC3C07
:102B60000AD7233C8FC2F53D6666E63E8FC2F5BDAF
:102B70000AD7A33B0AD7A33D3333B33E002A00F064
:102B8000AA802DE9F84F8A46804616460024524F07
:102B9000524D2DED028B20E0D8F800304B4493EDE0
:102BA000008AB0EE480A4E4801F050F92B78F3B194
:102BB0002B78012B22D02B78022B7ED02B78032B65
:102BC00000F082800134DAE90023A6424A444B44F3
:102BD00082ED008A83ED008A6BD03B784FEA84094E
:102BE000002BD9D0FFF75EFEB0EE408AD9E7B0EEF9
:102BF000480AFFF765FCB0EE408AE3E7DFF80CB166
:102C0000DBED008AB0EE680A15F01AFB354BF7EEE3
:102C1000006A9FED356A93ED007A344BD3ED007A6C
:102C2000E0EE077AB0EE670AFFF7A6FC304BBFEE86
:102C3000007AD3ED007A2F4B36EEE75A67EE807AB2
:102C4000D3ED005AE5EE087A67EEA57A67EE867A4C
:102C5000F4EEC77AF1EE10FA05D4F4EEE67AF1EE6E
:102C600010FA36FEA77A244B2448D3ED006A244A92
:102C7000036838EEA60ADFED237A02EB83022249CD
:102C80000133B4EEE70A82ED008A81FB0321DA17F3
:102C9000F1EE10FAC2EBA1224BF6803101FB1233A8
:102CA000036001DB30EE670AB0EE478A8BED000A65
:102CB00088E7BDEC028BBDE8F88FB0EE480AFFF75D
:102CC000A9FCB0EE408A7DE7B0EE480AFFF750FD60
:102CD000B0EE408A76E770472008002039080020CF
:102CE000548C00202C0800206666C63F3008002067
:102CF000BC000020A0000020240800203408002090
:102D0000000000C0DB0FC940F1197605280800203B
:102D1000FFF734BF08B5064B1B681F2B02DDFDF71C
:102D200057FD08B9002008BDBDE80840FDF7CABD41
:102D300080080020194B1B7830B587B003BB0246D2
:102D400017496846174D01F0C7FBEE46DFF860C033
:102D5000154CBEE80F00ACE80F00DEF8002063461B
:102D600043F81029F7EE007AB3EC017A6345A5EC3D
:102D7000017A77EEC77AE4EC017AF3D107B030BD7F
:102D80000A4B1B681F2BF9DDFDF722FD0028F5D04B
:102D900007B0BDE83040FDF795BD00BF50080020EA
:102DA00064890020340700204000002080080020B3
:102DB000508900202DE9F04F0021A3B0A1484FF029
:102DC000FF3403F0B3FD002005F006FB4FF47A70EA
:102DD00009F060F99C4805F09DFA9C4D01F06CFFEC
:102DE0009B4805F097FA002602F0F4F9994805F09F
:102DF00091FA30219348B14603F0BAFC032191487F
:102E0000274603F0C9FC9FED940A4FF48071934864
:102E100000F094FF924801F0A3FA924802F012FBEE
:102E2000914A92498F4803F07FFC914805F072FA6D
:102E30002868FEF719FFDFF80CA2FDF777FFDFF82F
:102E400094B2FEF73FFDFDF735FF8A4805F062FAC0
:102E50002B68894A5B018948D15805F05BFA88499B
:102E6000784803F083FC874805F054FA2B68864DB8
:102E700013930B940D9608940C940E96CDE9094487
:102E8000CDE91144CDE90F446E4803F099FC6D483B
:102E900003F0A2FC9AF84430D3B1DAF86430002B86
:102EA00040F3188309F10109B9F1050FA8BF4FF0EC
:102EB00000094FF0FF377548494605F02BFA0C978B
:102EC000CDE90A77CDE90877CDE91177CDE90F771C
:102ED0009AF84C3023B19AF852307F2B00F03183AE
:102EE0006B4B139A6B495D481A6001F017F98046E5
:102EF000002840F0F18009F0CBF80D9B0446C31A7E
:102F00001D2B3DD9644B1878644B012893F8008041
:102F1000634B1B780D934D4B1B6800F04784614A4F
:102F20001168D2E901CED268149115920C9A91459C
:102F300000F06A845A01504989585B4A1278089215
:102F4000002840F04F84594E149A159F0992129010
:102F50000F93CDE90ACE0B9B324648460597049362
:102F60000A9B0393099B0293089B01930D9B00937B
:102F7000434602F03BF90D9BCDE90C94CDE910835B
:102F800009F086F80E9B0446C31AB3F57A7FFFF466
:102F90007BAF2E4B384A1B6845485B01454E007895
:102FA000D3583D4A1593DBF8103011781493424BF7
:102FB000374A1B6812680E93404B3668D3F800E01E
:102FC000374B93F80080002900F07F82012940F000
:102FD00082843B4B3B4993F800C00E9BCDF810E038
:102FE0000393149B00903848CDE9058CCDE901632B
:102FF000159B05F08FF99FED357ADBED037ADBED5C
:10300000025A67EE877A9BED016A65EE875ADBED1F
:10301000006A26EE076A2E48FDEEE77A26EE877AEA
:10302000CDED007AFDEEE57A17EE903AFDEEC67A28
:1030300017EE902AFDEEC77A17EE901A05F06AF99E
:103040000E9421E7E8B0002098A40124EC070020AA
:10305000B0A40124CCA4012400803B47548C002060
:1030600064890020C408002000000020040700201C
:10307000E8A4012404A5012414A9012410A5012415
:10308000112D00241CA50124F48B00202CA5012463
:10309000BC080020248C002050080020C00800201C
:1030A000C108002088080020C308002084A401244F
:1030B000E8070020AC070020B4080020B00800207A
:1030C000C208002090A4012438A7012400007A44FB
:1030D00098A7012450890020CD49CE48FDF740FD36
:1030E00095ED007AB5EEC07AF1EE10FA00F1C983E1
:1030F000F7EE007AB4EEE77AF1EE10FA77FE877A0F
:1031000095ED017AC5ED007AB5EEC07AF1EE10FAD0
:1031100000F1B483F7EE007AB4EEE77AF1EE10FA3C
:1031200077FE877A95ED027AC5ED017AB5EEC07A21
:10313000F1EE10FA00F19F83F7EE007AB4EEE77A31
:10314000F1EE10FA77FE877A95ED037AC5ED027AF3
:10315000B5EEC07AF1EE10FA00F18A83DFEDAE7AB7
:10316000B4EEE77AF1EE10FA77FE877A95ED047AFD
:10317000C5ED037AB5EEC07AF1EE10FA00F1758371
:10318000F1EE047AB4EEE77AF1EE10FA77FE877A80
:1031900095ED057AC5ED047AB5EEC07AF1EE10FA38
:1031A00000F16083F2EE047AB4EEE77AF1EE10FA01
:1031B00077FE877A95ED067AC5ED057AB5EEC07A89
:1031C000F1EE10FA00F14B83F7EE007AB4EEE77AF5
:1031D000F1EE10FA77FE877A95ED077AC5ED067A5B
:1031E000B5EEC07AF1EE10FA00F10B83F7EE007A3B
:1031F000B4EEE77AF1EE10FA77FE877A95ED087A69
:10320000C5ED077AB5EEC07AF1EE10FA00F1F6825C
:10321000F7EE007AB4EEE77AF1EE10FA77FE877AED
:1032200095ED097AC5ED087AB5EEC07AF1EE10FA9F
:1032300000F1E182DFED797AB4EEE77AF1EE10FA8F
:1032400077FE877A95ED0A7AC5ED097AB5EEC07AF0
:10325000F1EE10FA00F1CC82F2EE007AB4EEE77AE9
:10326000F1EE10FA77FE877A95ED0B7AC5ED0A7AC2
:10327000B5EEC07AF1EE10FA00F1B782F0EE007A06
:10328000B4EEE77AF1EE10FA77FE877A6048C5ED82
:103290000B7AFDF71FFD08F0FBFE614B06461B781D
:1032A000002B00F02D815F4B1B78012B00F0418338
:1032B000DFED5D7A95ED007A5C4BB4EEE77A1C7831
:1032C000F1EE10FA00F3DC809FED597AD5ED016A3A
:1032D000F4EEC76AF1EE10FA00F3D28095ED067AAB
:1032E000B4EEE77AF1EE10FA00F3CA80002C38D081
:1032F000504B1B68F31A642B40F2DE804E4B40F2B9
:103300008A221B68F31A934294BF4FF000084FF0D3
:10331000010816A80124FDF76DFE484B0DF1580E6B
:10332000DFF858C11C70464B1B681493BEE80F00B1
:10333000ACE80F00BEE80F00ACE80F009EE80F00FD
:103340008CE80F00149B022B09DD354B1B78002BFA
:1033500000F0FC82334B1B78002B00F01983FDF743
:10336000E5FCFEF7B9FC374B9FED377A93ED004A49
:10337000364A374B24EE074AD2ED004A354A93EDE0
:10338000006A64EE874ADFED347AD2ED006A334A90
:10339000A6EE274A26EE875AD2ED005A304A65EE4D
:1033A000875AD2ED006A2F4A26EE876A83ED004ADB
:1033B000D2ED006A2C4B26EE877AF0EE646A93ED2C
:1033C000004AE4EE276AC3ED006AF0EE456A274B37
:1033D000D3ED004AE4EEA76AC3ED006AF0EE656A39
:1033E000234B93ED005AE5EE276AC3ED006AF0EE39
:1033F000466A204BD3ED005AE5EEA76AC3ED006A9A
:103400001D4BD3ED006AA6EEA77A83ED007A72E534
:10341000F48B0020248C002000409C450024F448BC
:10342000C008002050080020A69B443BE80700206D
:10343000A69BC43BE0070020E4070020780700209B
:10344000AC07002098000020CDCC0C3F9400002059
:10345000B0000020900000206666E63E8C00002050
:103460008800002084000020AC000020A80000207C
:10347000A4000020A00000209C0000207C07002069
:10348000002C00F00182934B314693481E60FDF7FB
:103490009DFC924B1B7853B1914B1B783BB9914BE0
:1034A0001B7823B1904B1B68022B00F3A1828F4B3A
:1034B0001B78002B3FF455AF8D4B40F28A221B68DE
:1034C000F31A93423FF625AF4BE78A49854B93F8B1
:1034D00000C082E53FF4FCACB9F1010948BF4FF0F0
:1034E0000409E6E4844B1860844B1868032800F252
:1034F0002782834B19681F2940F31183FDF738FA9F
:10350000764B1B78002B3FF4D3AE754B1B78012B09
:103510007FF4CEAE7B4B1B78002B3FF4C9AE7A4BC9
:103520001B68F31AF92B7FF6C3AE774B1E60FFF7CB
:10353000F1FB00283FF4BCAE67490120FEF70AFA10
:10354000B6E6B9F1040F30D8DFE819F054003B00BB
:10355000120196000500624B1B78012B0CBF694BD2
:10356000604B1B78002B00F0C3825C4A137883F019
:103570000103137013B10023644A1370FEF7A2F91C
:10358000FDF7D4FB0021624B4FF4C0626148196023
:103590005B4B196015F0CEFC504B1B78002B00F0F4
:1035A000A5825D495D4804F0B5FE4FF0FF37CDE9D7
:1035B0000A77CDE90877CDE91177CDE90F770C9738
:1035C0008EE4474A1378002B40F0058201235449CA
:1035D00054481370544A03F0A7F8524802F032F8E6
:1035E000FEF770F9FDF7A2FBFDF764FB4F4804F00E
:1035F00091FEDAE7139A0024384B01323F4E1C70DB
:10360000A31A02F003024A4F03F00303494958BFCB
:103610005A42494B1392326022EAE2721A6007EB77
:1036200042130A705A6845490A609A6844490A6018
:10363000DA6844490A601A6943490A605A69434989
:103640000A609A6942491B7F0A60424A1370FEF77A
:1036500039F9FDF76BFB2E4B21464FF4C0621C601D
:10366000274B2C481C6015F065FC33683A485B0119
:10367000F95804F04FFE98E7194B1C78012C00F024
:103680000782364B002153F8042B002A344AC8BF66
:1036900001319A42F7D1012940F32482002C40F0F5
:1036A0000382FDF7EBFF002800F03182174B0D4A33
:1036B0001C7001232B491370084A2B48137001F02A
:1036C000F5F8FDF733FBFEF7FDF8284804F022FE7D
:1036D0006BE700BFE0070020F48B0020C10800204A
:1036E00050080020C3080020AC070020E807002095
:1036F000E407002084A4012458080020BC0800200E
:1037000080080020C208002054080020C0080020C3
:103710008408002000EE05C07CA401245CA60124DE
:1037200004070020C40800200000002048A5012450
:1037300014A9012439080020EC0700209000002083
:1037400098000020940000208C00002088000020B9
:10375000840000205800002034A50124880800209F
:1037600098080020C086002064890020C8A5012494
:10377000A54A137883F001031370002B00F0238116
:103780000023A24A1370FEF79DF8FDF7CFFAFDF76C
:1037900091FA08F07DFC9E4B9E4A18609E4B9F4814
:1037A00019684B01D25804F0B5FDFEE69C4802684A
:1037B000D0F80CE01492D0E901160C98814500F085
:1037C0008C80149A77460F9309925A01914BCDE958
:1037D0000A169958934B944E1B7808930123129321
:1037E000FFF7B9BB904EFFF7AFBBDFED907A4DE529
:1037F000DFED8E7A38E5DFED8D7A23E5DFED8B7A2C
:103800000EE5DFED8A7AF9E40F9A9A427FF492ABE3
:10381000109A42457FF48EAB119A0D998A427FF43B
:1038200089AB129A82427FF485AB814A089912785B
:1038300091427FF47FAB149A09998A427FF47AAB64
:10384000DDE90A218E4508BF94457FF473AB159AD4
:10385000BA4208BF0D947FF46DABFFF791BBDFED6B
:10386000737AB9E4DFED717AA4E4DFED707A8FE466
:10387000DFED6E7A7AE4DFED6D7A65E4DFED6B7A89
:1038800050E4DFED6A7A3BE46A4B21466A4A1E60E7
:103890006A4B6B481C6001231370302215F04AFB01
:1038A000684B694A1C60694B1C60694B1C60694B22
:1038B0001C60694B1C604FF07E5313600023674A05
:1038C0001360674A1360674A1360674A1360674B67
:1038D000674A1360D7E55449F8E50F9898427FF49A
:1038E00070AF109840457FF46CAF11980D9A9042DC
:1038F0007FF467AF129801287FF463AF494890F8CE
:1039000000C0089860457FF45CAF0998149A824221
:103910007FF457AFDDE90A20914208BF86427FF469
:1039200050AFBE457FF44DAF01230D941293FFF7C6
:1039300027BB374B1B68C31AB3F5FA7FBFF4D2AD70
:10394000324B1B78002B7FF4E5ADB1E42F4B1B7895
:10395000002B3FF404AD474B1B78002B7FF4FFACEA
:10396000334B1B78002B3FF4FAAC16A8FFF7E2F9B3
:1039700016A92046FDF7EEFF304B3F4ACDF80080F8
:10398000DBF810101B6812683C4804F0C3FCE6E446
:10399000214C16A932462068FDF7D0FB216800288B
:1039A00000F0AA803246084616A9FDF74DFC234BCD
:1039B00021681A68324B334853F82130CDF8008023
:1039C00004F0A8FCCBE4FDF7B1F9FDF773F92E483C
:1039D00004F0A0FCE9E50023264A1370FDF772FF0E
:1039E000FDF7A4F9FDF766F9284804F093FCDCE53F
:1039F00016A8FDF7FFFA16A8FFF79CF916A90120F3
:103A0000FDF7A8FF53E500BFC0080020C108002053
:103A10005808002014A90124BC08002070A5012426
:103A200060080020C208002090A4012400000000CB
:103A3000C3080020E4070020E8070020AC070020AE
:103A4000B007002068070020540000206407002011
:103A5000600700205C070020540700207407002046
:103A6000700700206C0700205807002000247449CC
:103A70005000002050080020B4080020F4A60124C3
:103A80008808002084A6012490A501245CA50124B7
:103A9000254B002153F8042B0B2A244AC8BF0131BF
:103AA0009A42F7D101291DDDFDF740FE002832D0F2
:103AB00001231F4A1F4913701F4A20481370002317
:103AC0001F4A13701F4A02F02FFE1C4801F0BAFD76
:103AD000FDF7F8FEFDF72AF9FDF7ECF81A4804F0B7
:103AE00019FC62E5194804F015FC5EE5184959E532
:103AF000184804F00FFC58E5174B184A53F82130CA
:103B00001748CDF80080126804F004FC27E415483B
:103B100004F000FC49E5144804F0FCFB45E52022D4
:103B2000124804F0F7FBEBE4600800207008002066
:103B3000C208002004070020C1080020C40800209B
:103B4000C00800200000002018A60124A0A5012420
:103B500080A401246CA6012488080020AC07002062
:103B6000BCA60124FCA5012444A60124F8A3012439
:103B700038B5574D002405F5C0702C606C612C627F
:103B8000EC6304F045FC534A4FF48070524992EDC7
:103B9000005A524B524AD1ED005A072193ED006A68
:103BA000C5F8392205F514724E4B85F83D12C3F85D
:103BB000000403F58161C5F8402240F201124A4831
:103BC000C5F844220022086003F20C4003F582612C
:103BD000DFED467A026003F214400A6003F591615A
:103BE000026065EEA75A0A6025EE275A404903F2A3
:103BF0008C434048D1ED007AD0ED006A27EE866A0A
:103C00009FED3D7A67EEA66A3C49C5EE274A43F828
:103C1000884C43F8344C43F8304C43F80C4C43F890
:103C2000084C85EEA75A1C711960354B354A364849
:103C3000C6EE075A02F5E041C5F89041C5F8484282
:103C4000C5F84C42314D86EE876AC2F80046C2F88C
:103C5000044681F8F84D2E4A2E4985ED005AC0EDF4
:103C6000005A2D4883ED006A2C4BC3ED004A2C4BC3
:103C700093ED005AD0ED005A2A4B27EE855A67EE95
:103C8000A55A91ED006AD3ED004AD2ED006A27EE05
:103C9000866A254B67EEA66A244867EEA47A244913
:103CA000C5EE074A234A85EE875AC6EE075A86EEC6
:103CB000876AC0ED004AC7EE876A83ED005A1E4B43
:103CC000C1ED005A82ED006AC3ED006A38BD00BF45
:103CD000E8B00020C000002078000020C4000020D0
:103CE00080707F0F54AC002000803B47DB0FC94041
:103CF000CC000020C800002000007A4400007AC4F4
:103D000030080020C40800202C0800200C080020E7
:103D100060000020640000207400002024080020BF
:103D2000700000205C00002004080020080800202B
:103D3000FC070020F8070020F4070020F8B500F584
:103D4000005300244FF4807E00F5105C03F581677A
:103D5000002242F2604500F5125187ED000A064646
:103D60004519CCE900E403F20C4C83F89044CCF8FC
:103D7000002003F5826CCCF8002003F2144CCCF840
:103D8000002045E90244C1E9004403F5916103F2D2
:103D90008C430A6021462A4A1A604FF4006215F0EB
:103DA000C9F84FF400622146B01815F0C3F8214657
:103DB0004FF4006206F5805015F0BCF821464FF430
:103DC000806206F5C05015F0B5F821464FF4006248
:103DD00006F5E05015F0AEF842F2184021462022D8
:103DE000301815F0A7F842F238402146202230184A
:103DF00015F0A0F8284641F604452146012420226A
:103E0000751915F097F807EE904A9FED0E7A9FED21
:103E10000E0A0134F8EEE77A67EE877A87EE800AB9
:103E200014F00EFBB4F5807FF7EE007AB6EE007A60
:103E300077EEC07A67EE877AE5EC017AE3D1F8BDD8
:103E400000007AC4DB0FC94000007F4300F5005337
:103E500010B593F8904482B064B9D3F80424511C8F
:103E600000EB8202C3F8041482ED000AD3F80024A8
:103E7000914201D202B010BD0146920000F50060EF
:103E8000019315F09CF8019B0122C3F8044483F8C8
:103E9000902402B010BD00BF10B5144600F50052CA
:103EA00086B0D2F8000400285FD09FED446A00235A
:103EB000F0EE464AF0EE466AF0EE465AF1EC017A30
:103EC000B0EEE77AE7EEA75AB4EEE67A36EE076A86
:103ED000F1EE10FA77FE266A63B111ED027AB7EEC1
:103EE000005A67EE877AF5EEC07AF1EE10FA01D546
:103EF00074EE854A01338342E0D107EE903A013BEC
:103F0000B8EEE77A07EE903A85EE870AB5EE400AFA
:103F1000F1EE10FA32D4F8EEE77AC6EE075A84EEE4
:103F2000A75AB1EEC06A02F20C4302F5826084ED3A
:103F3000006A93ED007AD0ED007A36EE477AC4ED50
:103F4000016A75EEE77A84ED025AC4ED065AB0EEC6
:103F5000C77AF0EEE77A84ED057AC4ED077A83ED4F
:103F6000006AC0ED005A06B010BD9FED145A85EEF0
:103F7000050AF0EE456AF0EE405AD2E705928DED63
:103F8000036ACDED024ACDED016A8DED007A04930E
:103F900014F092FBDDED047A9DED036AF8EEE77A0A
:103FA0009DED007ADDED024AC6EE075A059ADDED79
:103FB000016A84EEA75AB0EE406AB4E70000000040
:103FC0002DE9F84F00F500559146D5F800742DED18
:103FD0000A8B002F00F0908000F5805A00F5E05227
:103FE00001EB87045346F1EC017AB2EC017AA1426D
:103FF00067EE877AE3EC017AF5D1032F4FEA570396
:104000007AD907EE107A05F5816541F60408DFEDEF
:1040100040BAB8EEC7AAD5ED007A804400F5C0508A
:10402000F0EE6BAA0AEB870787EE8ACA00EB830BD8
:104030000126B0EE6BBA9FED369A55460024F0EE9D
:10404000499A07EE904A9FED337AB5EC018A3444E1
:10405000F8EEE77A67EE877AC7EE8A8AB0EE680AEA
:1040600014F0EEF9F0EE407AB0EE680AE8EE279A26
:1040700014F0E6F8AF42A8EE409AE2D129EE099A90
:10408000D8ED006A07EE906AA9EEA99AF8EEE77AF1
:1040900067EE8C7AB1EEC97A77EE666AA7EE27BA38
:1040A0007AEE87AAF5EEC06AF1EE10FA01DD7BEE3A
:1040B000A6BAA8EC017AD84506F10106BBD1DFED1E
:1040C000167AF4EEE7AAF1EE10FA12DD8BEE2A7AF8
:1040D00089ED037AF1EE047AF4EEE7BAF1EE10FA24
:1040E00001DDF0EE67BAC9ED04BABDEC0A8BBDE89C
:1040F000F88F9FED077AEBE7DFED05BA0023C9EDF6
:1041000004BAC9F80C30BDEC0A8BBDE8F88F00BFCB
:1041100000000000DB0FC94077CC2B3270B500F5F2
:10412000005482B094F8905415B9284602B070BD7E
:104130000A46064600F50061CDE90021FFF7ACFE16
:104140003046DDE90021FFF73BFFD4F85834009AF0
:10415000591C06EB8303D2F800E0484203F50053F4
:10416000D2F80CC001F0070100F0070058BF41422F
:1041700003F5836003F58763C0F800E0C3F800C06F
:10418000C4F85814D4F85C14072905DC013100295F
:10419000C4F85C1440F3C28042F21843DFED6B7A3E
:1041A000F318B0EE677A03EB810E9C46BCEC016A13
:1041B000DCED076AF44537EE067A77EEA67AF5D19C
:1041C00006EE901AF8EEE65ADFED606AB0EE666A27
:1041D000C7EE254A87EEA55AB3EC017AD3ED077AEC
:1041E000734537EE647A77EEC57AA7EE076AE7EE95
:1041F000A76AF1D1C6EE254A86EEA55A04F580637A
:1042000092ED016A9FED527AD3ED007A04F5816355
:10421000C2ED084AF8EE677AD3ED005A04F59163CF
:10422000B4EEC76A82ED095AC7EEA56AD3ED007AEB
:10423000D4F88414F1EE10FA76EEA76AC3ED006AA2
:104240000CDD04F214439FED437AD3ED007A76EE51
:10425000677AF4EEC77AF1EE10FA3ADC002962DDF3
:1042600042F260430020F31803EB8101F3EC017A82
:10427000B7EE007A76EEE77AF4EEC77AF1EE10FA4E
:1042800000D801309942F1D107EE900AF8EEE77AB2
:1042900004F28C439FED307AC2ED0A7AD3ED007AB6
:1042A000F4EEC77AF1EE10FA06DD76EEE76AF5EE87
:1042B000C06AF1EE10FA3ED54FF07E53D36204F29D
:1042C00014420023284682ED006A84F8903402B03C
:1042D00070BDDFED227A92ED077AB4EEE77AF1EE67
:1042E00010FABBDDD4F88004431C00F6181006EB6E
:1042F0008000C0ED006A584203F0070300F0070099
:1043000058BF43420729C4F880340FDC013104F25E
:104310008C43C4F88414C3ED006A9FE79FED0B5AE9
:10432000F0EE454A6AE7DFED097AB1E704F28C4323
:10433000C3ED006A94E7F0EE007AF4EEE76AF1EE7E
:1043400010FA77FEA67AC2ED0B7AB8E700000000FB
:104350000AD7A33CA69B443C00C079C46F12033C1F
:104360002DE9F04107460021302214F0E3FD07F16A
:10437000300307F160014FF07E5243F8042B8B426B
:10438000F9D107F5F07607F1900507F500780023DD
:10439000A5F1300446F8043B14F07AFC07EE100A4D
:1043A000FEEE007A9FED1B6AB8EEC77ADFED1A6A5F
:1043B000E7EE067A67EEA67AE4EC017AAC42EBD13E
:1043C000464504F13005E2D107F5207607F508757A
:1043D00007F524770023A5F1200446F8043B14F0E8
:1043E00057FC07EE100AFEEE007A9FED0A6AB8EE5F
:1043F000C77ADFED096AE7EE067A67EEA67AE4ECA3
:10440000017AAC42EBD1BE4204F12005E2D1BDE815
:10441000F08100BF00000030CDCCCC3D01F1300C6C
:1044200051F8043B9FED087A40F8043BF2EC017A26
:10443000F4EEC77AF1EE10FA01D5F7EE007A8C456A
:10444000C0ED0B7AECD17047BD37863500B5D1F899
:1044500000C08DB0D1F828E0CDF800C06B46D1F88F
:1044600004C0CDF828E0CDF804C0D1F808C0CDF8DC
:1044700008C0D1F80CC0CDF80CC0D1F810C0CDF8F0
:1044800010C0D1F814C0CDF814C0D1F818C0CDF8C0
:1044900018C0D1F81CC0CDF81CC0D1F820C0CDF890
:1044A00020C0D1F824C0CDF824C0D1F82CC000F130
:1044B0003001CDF82CC0B0EC017AF3EC017AD0EDEC
:1044C0000B6A884277EEC77A87EEA67AA2EC017A69
:1044D000F1D10DB000BD00BF2DE9F0410E460446FC
:1044E000114630462DED028B9CB010AAFFF7AEFFAF
:1044F00006F5F07006F1600106F5007C0DF1200E66
:10450000F0EC017A10AB0A46B3EC017A1CADF2EC88
:10451000016AAB42E6EE877AF6D1F5EEC07A9FEDFE
:104520003A7A3031F1EE10FA77FE877A6045EEEC98
:10453000017AE5D106F520706D4606F5247610A9BE
:104540006F46F0EC017A08AB6246B3EC017AF2EC0C
:10455000016A8B42E6EE877AF7D1B0420CF1200C6B
:10456000E7EC017AEDD1DDED006A04AE9DED017A54
:1045700005F11008DDED027A3746B4EEE67ADDED9E
:10458000038A9FED218AF1EE10FA37FE267AF4EEC7
:10459000C77AF1EE10FA77FE877AF4EEE78AF1EE49
:1045A00010FA78FEA78AB5EC010A30EE680A13F01B
:1045B000D3FD454538EE008AA7EC010AF3D100236C
:1045C000DFED116A1A4696ED007AC7EE087AF4EE2E
:1045D000E67AE6EC017AF1EE10FA02DDF0EE676AB7
:1045E0001A460133042BEED10498059B06992060EE
:1045F00020466360079B2261A160E3601CB0BDECB4
:10460000028BBDE8F08100BF000000002DE9F04FF3
:1046100004462DED048BB7B004F5F07504F1600786
:10462000B0EE408A0DF1680901922AAA0090264650
:10463000FFF70CFF04F50078CC46384612AC29464B
:10464000F1EC017A2AAB0246B3EC017A0DF1D80EF7
:10465000F2EC016A7345E6EE877AF5D1F5EEC07AA1
:104660009FED6B7AECEC017A3030F1EE10FA77FEC8
:10467000877A4145E4EC017AE2D1009A40460DF197
:10468000180E1AAC02F5207A02F5247C5146F1ECA2
:10469000017A12AA8346B2EC017AFBEC016AA242CB
:1046A000E6EE877AF7D1614500F12000EEEC017A61
:1046B000EDD1DDED066A0AA99DED077AE346DDED51
:1046C000087AB4EEE67A9DED099A059406ACDFED22
:1046D000508AF1EE10FA0491CDE9027537FE267A80
:1046E000F4EEC77A0D460AAFF1EE10FA77FE877A3C
:1046F000B4EEE79AF1EE10FA39FE279AB4EC010A0B
:1047000030EE490A13F028FDBC4278EE808AA5EC11
:10471000010AF3D10499DC46059C01F11003DDE99F
:10472000027591ED007AC7EE287AE1EC017A9942A0
:10473000F7D136AA019BB7EE007A414602EB83031C
:104740000A9A0EA80E920B9A0F920C9A10920D9A3A
:10475000119253ED287A77EEC77A43ED287AF0EC80
:10476000016A12AA0B4666EE886AD3ED007AB2ECB3
:10477000017AE6EEC77AA242E3EC017AF5D1DAEDEE
:10478000007A203177EEE67AEAEC017AE245E6D16A
:10479000009B22A812A903F1200C044632460EAB5E
:1047A000DFED1B7AF3EC016A203292ED787A8B42CE
:1047B000E6EE877AF6D1B9EC017AB5EEC07AF1EE81
:1047C00010FA01DCDFED127A0436E4EC017A66457A
:1047D000E4D1F0EC016A2AAA3B4666EE886AD3ED82
:1047E000007A36A9B2EC017AE6EEC77A8A42E3ECA7
:1047F000017AF4D1D5ED007A303777EEE67AE5EC40
:10480000017A4545E5D137B0BDEC048BBDE8F08FAA
:1048100000000000F0B50D46044600F130010346EB
:104820002A4653F804CB42F804CB8B42D3F82CC071
:10483000C2F82CC0F5D104F5F07005F5F07605F15D
:10484000600104F1900E04F5007750F804CBAEF14E
:1048500030030A4646F804CB53F804CB734542F8BC
:1048600004CBF9D1B84201F1300103F1300EECD1A3
:1048700004F5207004F5087C05F5207605F5007E2A
:1048800004F5247450F8041BACF12003724646F87A
:10489000041B53F8041B634542F8041BF9D1A042E2
:1048A0000EF1200E03F1200CECD1F0BDF0B50C465A
:1048B000054630310246234653F804CB42F804CB78
:1048C0008B42D3F82CC0C2F82CC0F5D104F5F0709F
:1048D00005F5F07605F1600104F1900E04F500771E
:1048E00050F804CBAEF130030A4646F804CB53F837
:1048F00004CB734542F804CBF9D1B84201F1300141
:1049000003F1300EECD104F5207604F5087005F5BE
:10491000207E05F5007C04F5247456F8041BA0F1F4
:10492000200362464EF8041B53F8041B834242F8EE
:10493000041BF9D1A6420CF1200C03F12000ECD1AC
:10494000F0BD00BF2DE9F0471C46831882B08046B9
:10495000F02B01EB04030F4600F1FF3AD4BF1546DC
:10496000C0F1F005B3F5A07F01F1FF395648AA4424
:10497000C8BFC1F5A0740021BDF8286004F02EFA6C
:104980002A23012201A951488DF80430642306F03E
:10499000F3F901214C48A14404F020FA01224FEA26
:1049A000182301A9494804FB05F58DF80430642358
:1049B00006F0E2F90121444804F010FA64230122D0
:1049C00001A942488DF8048006F0D6F901213E483D
:1049D00004F004FA01224FEA1A2301A93B488DF89A
:1049E0000430642306F0C8F90121374804F0F6F9D1
:1049F0006423012201A935488DF804A006F0BCF912
:104A00000021314804F0EAF92B23012201A98DF895
:104A1000043064232D4806F0AFF901212A4804F040
:104A2000DDF901223B0A01A928488DF804306423EE
:104A300006F0A2F90121244804F0D0F964230122F0
:104A400001A922488DF8047006F096F901211E484C
:104A500004F0C4F901224FEA192301A91B488DF87B
:104A60000430642306F088F90121174804F0B6F9F0
:104A70006423012201A915488DF8049006F07CF901
:104A80000021114804F0AAF92C23012201A98DF874
:104A9000043064230D4806F06FF901210A4804F040
:104AA0009DF9002D0CDD002476BA01346423022226
:104AB00001A90648ADF8046006F05EF9AC42F4D1F5
:104AC00002B0BDE8F08700BFDC430120F0430120C5
:104AD0002DE9F04F85B003921278002A3DD0984618
:104AE0000F460290203AD3B25F2B1D4B94BF02EBCE
:104AF000820A4FF09B0A9A44029B0AF1040B0AF1C6
:104B0000FF39A3EB0A0A19F8016F00240AEB090523
:104B100046FA04F20123E119013412F0010F28468C
:104B200014BF4246002200921A46FFF70BFF072CE3
:104B3000EED1CB45E7D123460025029C0122394620
:104B40000095601DFFF7FEFE039B13F8012F0393F2
:104B5000A31D02930AB1EA2BC4DD05B0BDE8F08FB6
:104B600094A901242DE9F04F9B46A2F12003884629
:104B700087B0D9B20746119A05465F293B49BDF86F
:104B8000409094BF03EB83039B2305900B4403F1F8
:104B9000FF3A0433CDE903231AF8016F0024039B85
:104BA00016F0010F0CBFCC46DC46012B35D002239A
:104BB000002D08EB440128461A4615DB0134CDF8D8
:104BC00000C0FFF7BFFE072C46FA04F331D013F004
:104BD000010F4FF0020308EB4401284614BFDC46E6
:104BE000CC46002D1A46E9DA0134072C46FA04F3C4
:104BF0001FD013F0010F0CBFCC46DC46D7E70134C1
:104C0000CDF800C0FFF79EFE072C46FA04F310D043
:104C100013F0010F14BFDC46CC460123002F04EB38
:104C2000080138461A46EADA1C44072C46FA04F30F
:104C3000EED1049B013702355345ADD1039A059E51
:104C4000012A0FD016F10A0009D40E230222414690
:104C5000CDF8409007B0BDE8F04FFFF773BE07B046
:104C6000BDE8F08F701DFAD40723F0E794A9012462
:104C700030B5002183B01F240546F02220230846CA
:104C80000094FFF75FFE2A789AB10A2400E082B10F
:104C90004FF0020E4FF01F0C20460C344FF6FF73FE
:104CA0000921CDE900CEFFF75DFFE52C15F8012FB6
:104CB000EDDD03B030BD00BFF0B54FF4407391B0EF
:104CC00000260122ADF81030012433460499DB4858
:104CD000C1270096642503F063FF4FF4A0623346BA
:104CE000D748ADF8142001220599009603F058FF2B
:104CF0000121D24804F072F80121D14804F06EF885
:104D00000823D04A06A90B930523CF480896CDE97E
:104D10000E63CE4BCDE90C66CDE90623CDE90966DD
:104D200005F08CFF3146C64804F058F8642007F0BF
:104D3000B1F90121C24804F051F8962007F0AAF910
:104D40003146BE4804F04AF8224664230DF10F01B3
:104D5000BD488DF80F4006F00FF8962007F09AF93D
:104D60003146B64804F03AF8112322460DF10F01FE
:104D70008DF80F306423B44805F0FEFF962007F04D
:104D800089F93146AD4804F029F8CF2322460DF1C8
:104D90000F018DF80F306423AB4805F0EDFF21467D
:104DA000A64804F01BF8224664230DF10F01A64823
:104DB0008DF80F6005F0E0FF2146A04804F00EF8E2
:104DC000224664230DF10F019F488DF80F7005F006
:104DD000D3FF2146994804F001F8302322460DF113
:104DE0000F018DF80F306423974805F0C5FF314659
:104DF000924803F0F3FFED2322460DF10F018DF8E9
:104E00000F306423904805F0B7FF21468B4803F02C
:104E1000E5FF2B4622460DF10F018B488DF80F5010
:104E200005F0AAFF2146854803F0D8FF0323224658
:104E30000DF10F018DF80F302B46834805F09CFFD4
:104E400021467E4803F0CAFF122322460DF10F01CE
:104E50008DF80F302B467C4805F08EFF21467748B1
:104E600003F0BCFF812322460DF10F018DF80F30B6
:104E70002B46754805F080FF3146704803F0AEFFC1
:104E8000E82322460DF10F018DF80F302B466E48B6
:104E900005F072FF2146694803F0A0FF85232246F2
:104EA0000DF10F018DF80F302B46674805F064FFB8
:104EB0002146624803F092FF2B4622460DF10F0176
:104EC00061488DF80F6005F057FF21465B4803F0FD
:104ED00085FF782322460DF10F018DF80F302B4608
:104EE000594805F049FF3146544803F077FFCB237A
:104EF00022460DF10F018DF80F302B46524805F078
:104F00003BFF21464D4803F069FF392322460DF14E
:104F10000F018DF80F302B464B4805F02DFF214631
:104F2000464803F05BFF2C2322460DF10F018DF85C
:104F30000F302B46444805F01FFF21463F4803F041
:104F40004DFF2B4622460DF10F013F488DF80F60B3
:104F500005F012FF2146394803F040FF3423224672
:104F60000DF10F018DF80F302B46374805F004FF87
:104F70002146324803F032FF022322460DF10F0191
:104F80008DF80F302B46304805F0F6FE31462B48A1
:104F900003F024FFF72322460DF10F018DF80F30A7
:104FA0002B46294805F0E8FE2146244803F016FF69
:104FB000202322460DF10F018DF80F302B46224899
:104FC00005F0DAFE31461D4803F008FFEA232246C9
:104FD0000DF10F018DF80F302B461B4805F0CCFE6C
:104FE0002146164803F0FAFE2B4622460DF10F012A
:104FF00015488DF80F6005F0BFFE21460F4803F0FD
:10500000EDFE2B4622460DF10F010F488DF80F6083
:1050100005F0B2FE3146094803F0E0FEC023224607
:105020000DF10F018DF80F302B46074805F0A4FE57
:105030002146024803F0D2FE232309E0DC4301208D
:10504000C8430120060B0104F043012001050BFFBA
:1050500022460DF10F018DF80F302B465B4805F00D
:105060008BFE31465A4803F0B9FE2B4622460DF11D
:105070000F0156488DF80F7005F07EFE214654480A
:1050800003F0ACFE102322460DF10F018DF80F3016
:105090002B464E4805F070FE31464D4803F09EFE0B
:1050A000C52322460DF10F018DF80F302B464748DE
:1050B00005F062FE2146464803F090FE3E2322465C
:1050C0000DF10F018DF80F302B46404805F054FECE
:1050D00021463F4803F082FE282322460DF10F01AE
:1050E0008DF80F302B46394805F046FE31463848DA
:1050F00003F074FEC72322460DF10F018DF80F3027
:105100002B46324805F038FE2146314803F066FE52
:10511000862322460DF10F018DF80F302B462B48C8
:1051200005F02AFE31462A4803F058FE362322466F
:105130000DF10F018DF80F302B46244805F01CFEB1
:105140002146234803F04AFE482322460DF10F0171
:105150008DF80F302B461D4805F00EFE31461C48D9
:1051600003F03CFE3A2322460DF10F018DF80F307B
:105170002B46164805F000FE2146154803F02EFE8A
:10518000552322460DF10F018DF80F302B460F48A5
:1051900005F0F2FD31460E4803F020FE2246292498
:1051A0002B460DF10F0109488DF80F4005F0E4FD85
:1051B000962006F06FFF4FF4A073F0223146304680
:1051C0000096FFF7BFFB11B0F0BD00BFF043012018
:1051D000DC43012000214FF4A073F022084600B503
:1051E00083B00091FFF7AEFB03B000BD2DE9F04F97
:1051F0007A4F97B081461C4609AE04910592229DD4
:105200000FCF0FC63B683360002C00F0BE80744B9C
:105210000693219B002B00F0B680724B0793209BD6
:10522000002B00F095806E4B6F4C08932378002B79
:1052300040F09580DFF8D4A10DF11008322400264B
:105240002295B14500F0A780DAF80030B34246D08D
:10525000013344D0013608F104082634052EF0D17C
:10526000624C229D2368624EAB4240F090803368CE
:10527000239A604F934200F0A280DFF894810020CF
:105280002323F022FA210090FFF75CFB4FF6E07336
:10529000594A4FF482710A20FFF71AFC259B574A9E
:1052A000202102930EA8249B0193239B00932B465D
:1052B00013F0BCFC4FF6FF730EAA4FF4827150201E
:1052C000FFF706FC239B25603360249B3B60259BF6
:1052D000C8F80030CAF8009017B0BDE8F08F00277A
:1052E0001C23F022A4F1080138460097FFF72AFB9F
:1052F00009AB53F826B09BF8002082B120254FF06F
:10530000020C28464FF6FF7321460C35CDE9007C90
:10531000FFF728FC1BF8012F0AB17C2DEFDDD8F830
:1053200000B09BF80020002A94D08C254FF0020C8E
:10533000284640F2FF7321460C35CDE9007CFFF78B
:1053400011FC1BF8012F002A84D0EA2DEEDD81E745
:105350002B4B254C08932378002B3FF46BAF002692
:105360004FF4A073F022DFF8A4A031463046009637
:10537000FFF7E8FA2348FFF77BFC4FF0FF33267076
:10538000CAF8003058E7204B48E71D4B40E7194F5B
:10539000DFF87C8073E71F27A4F108011C23F022AB
:1053A00000200097FFF7CEFA02233E222146019308
:1053B00008204FF6E0730097FFF7D4FB98E73B68AF
:1053C000249ADFF84C8093427FF459AFD8F800302C
:1053D000259A93427FF453AF7CE700BF20A30124BA
:1053E0007CA401241CA80124E4000020DC0000208F
:1053F000D8000020D400002034A8012440A80124B3
:1054000080A401242CA8012424A80124E000002069
:10541000D000002010B400230749084A4FF60B7053
:10542000074C0880236010804B608B60CB60D3609A
:1054300010BCC2E901337047DC430120C84301209E
:10544000F043012047F6985330220021C3182DE97C
:10545000F04F83B006461846019313F06BFD47F6F4
:10546000C85347F6F852F318B2184FF07E5143F87C
:10547000041B9342F9D141F2481841F2781906F51C
:10548000E0430022B044B14406F5E56783F8F82D07
:105490000023A7F1F00548F8043BA5F1300413F010
:1054A000F7FB07EE100AFEEE007A9FED646AB8EE95
:1054B000C77ADFED636AE7EE067A67EEA67AE4EC78
:1054C000017AAC42EBD104F13005BD42E5D1C845CB
:1054D00004F59077DCD146F2B87B46F2083946F203
:1054E000781341F278280422B344B144F318B0444D
:1054F00000921D46444603F150070022A4F5807A2D
:1055000045F8042B13F0C4FB07EE100AFEEE007AF8
:105510009FED4A6AB8EEC77ADFED496AE7EE067A90
:1055200067EEA67AEAEC017AA245EBD1BD420AF514
:105530008074E2D15D464C460BF1100A0022A4F1C2
:10554000500B45F8042B13F0A3FB07EE100AFEEEF8
:10555000007A9FED3A6AB8EEC77ADFED396AE7EE76
:10556000067A67EEA67AEBEC017AA345EBD15545B6
:105570000BF15004E2D1009B09F5A07908F5A05881
:10558000013B009302D03B46AB46B2E747F6F83703
:1055900046F6F80547F6484837447519B0440023E5
:1055A000A5F5807447F8043B13F072FB07EE100A70
:1055B000FEEE007A9FED216AB8EEC77ADFED206A31
:1055C000E7EE067A67EEA67AE4EC017AAC42EBD11C
:1055D000474504F58075E2D147F6885747F6984568
:1055E000374475190023A5F1500447F8043B13F024
:1055F0004FFB07EE100AFEEE007A9FED106AB8EE40
:10560000C77ADFED0F6AE7EE067A67EEA67AE4EC7A
:10561000017AAC42EBD1019B04F15005BB42E1D1D0
:1056200000214FF4C0623046C6F80016C6F80416D2
:1056300003B0BDE8F04F13F07DBC00BF00000030A8
:10564000CDCC4C3D00214FF4C062C0F80016C0F82C
:10565000041613F06FBC00BF70B5D0F800468E463C
:10566000D0F80466054604EB440C0134634200EBB9
:105670000C1C04F01F0403F01F0358BF5C421F2ED4
:10568000BEE80F00ACE80F00BEE80F00ACE80F006A
:105690009EE80F008CE80F00C5F8004602DC0136DA
:1056A000C5F8046670BD00BFD1F800C000F5E04346
:1056B000C2F800C0D1F804C093F8F83DC2F804C0A5
:1056C000D1F808C0C2F808C0D1F80CC0C2F80CC0AC
:1056D000D1F810C0C2F810C0D1F814C0C2F814C07C
:1056E000D1F818C0C2F818C0D1F81CC0C2F81CC04C
:1056F000D1F820C0C2F820C0D1F824C0C2F824C01C
:10570000D1F828C0C2F828C0C96AD1624BB347F6A5
:10571000985302F13001C3180AE0F4EEE57AF1EE95
:1057200010FA01D5F0EE657A914242ED017A18D077
:10573000F3EC017AF2EE006AB2EC017AFAEE005A6A
:1057400093ED0B6A37EE677AC7EE067AF4EEE67AE7
:10575000F1EE10FAE1DDF0EE667A914242ED017A67
:10576000E6D17047F8B50D4606464FF4C0620021F9
:10577000284613F0DFFBD6F80476002F26DDD6F896
:105780000036DC1B2034634204F01F0403F01F03C7
:1057900058BF5C42C7F1200303EB4303274405EBEA
:1057A0000315634204F01F0104F101042A4603F0CB
:1057B0001F03304605F1300558BF594201EB410146
:1057C00006EB0111FFF770FFA742EAD1F8BD00BF59
:1057D0002DE9F04FB7B0054641F2382B9946409C71
:1057E0000F469246419EAB4441F248184FF48072F6
:1057F00000212046A84413F09DFB07F1300305F576
:10580000DF6C224640944846351F51465C46029361
:10581000029E002305928E460746DFED8D6A9FEDBE
:105820008D6AACF1F0092A460193CDE90360D8ED09
:10583000007ACB463546A5F13000DA46B0EC017A65
:10584000FAEC015AA842E5EE877AF7D10BF1300B5A
:1058500000F13005E345EED1F5EEC07AEEEC017AC9
:10586000F1EE10FA03DC9FED7C7A67EE877AF4EEB6
:10587000C67AE7EC017A76EEA76AF1EE10FA02DD5D
:10588000B0EE676A0193013330361C2BCFD1DDE9CE
:1058900003B0F3EE0C5A15460346059A90ED1B7AB9
:1058A0000CF1F00CD3ED007A7030A2EC016A86EEB8
:1058B000A56ADDF804A0A44582ED177A01F1700114
:1058C00008F1040877EE677AC2ED237A82ED0B6A5D
:1058D00045F804AF9CD10DF178083022002106A8CC
:1058E000409C5D4613F026FB12AB42465B485C4988
:1058F00043F8040B434542F8041BF7D13022002142
:105900002AA813F017FB4094DDF800C100240DF124
:10591000180E0DF1A809A5F13006A5F160074B4658
:10592000404612A97246F6EC017AD1ED006A90ED7C
:10593000007AF4EEE67A92ED006A36EE276AF1EE2E
:1059400010FAB4EEE77AA2EC016A77FEA66AE1ECFF
:10595000016AF1EE10FA37FE877AA0EC017A5CB1A9
:10596000D7ED006A93ED007A77EEE67AF0EEE77A0B
:1059700077EE277AC3ED007AB54203F1040307F10D
:105980000407D0D101343035202CC0D1644612AB8D
:10599000B3EE0F6AD9ED005ADEED007ADFED316A21
:1059A00085EE867A67EEA67AEEEC017A7345A9EC6D
:1059B000017AEDD19DED187ADDED307ADDED124AF8
:1059C00077EE877A9DED165ADDED1E5A9DED136A2E
:1059D0009DED1F3A74EEE55ADDED156ADDED213AD5
:1059E00036EE436A9DED227A9DED244A76EEE36A17
:1059F000069935EE477A079A77EEC47A089B09989C
:105A0000C4F8C010C4F8CC202D990A9AC4F8D43038
:105A10002E9BC4ED314AC4F8EC30C4ED325A84ED0B
:105A2000346AC4F8D800C4F8DC10C4ED386AC4F88D
:105A3000E42084ED3A5A84ED3C7AC4ED3D7A109A24
:105A4000119BC4F8F820C4F8FC3037B0BDE8F08FE3
:105A500000000000286B6ECE0AD7233C286B6ECE68
:105A6000286B6E4E0000003D2DE9F04F2DED048BAC
:105A7000ADF5BF5D8046B0EE408A4FF0000B81B0BF
:105A800030ABE8AE0D920DF5026201930DF5566351
:105A900000963CAF0F91FFF79BFE46F2B87346F2BB
:105AA000083246F2781141F27810434442444044AF
:105AB00041449A460B930DF5DC630DF594640DF5A6
:105AC000B4650792049343460A91069003970990A0
:105AD000059208464FEA8B0205EB8B09DDF824C0DE
