:020000040800F2
:10000000000002205D03000859030008A9550008FC
:1000100059030008590300085903000800000000B4
:10002000000000000000000000000000590300086C
:100030005903000800000000590300082D5500086E
:100040005903000859030008590300085903000820
:100050005903000859030008590300085903000810
:1000600059030008590300085903000855410008C6
:1000700061410008012E00086D4100087941000827
:10008000A14F0008E535000859030008590300088E
:1000900059030008590300085903000859030008D0
:1000A00059030008590300085903000859030008C0
:1000B00091FF00089DFF0008A9FF000825360008F1
:1000C00059030008313600085903000821F80008D8
:1000D0002DF80008B14D0008E14D0008194E000848
:1000E00059030008590300080000000059030008E4
:1000F0005903000859030008590300085903000870
:100100005903000859030008B5FF000839F8000832
:10011000514E0008894E0008590300085903000891
:1001200059030008590300085DF800089DF800080D
:10013000E14F00085903000859030008590300085B
:1001400000000000000000000000000000000000AF
:10015000590300085903000859030008C14E00085C
:100160003D360008590300083D5500086155000858
:100170005903000885550008590300085903000871
:100180005903000859030008F94E0008314F0008D0
:1001900045F8000851F80008590300085903000801
:1001A00059030008590300085903000859030008BF
:1001B000A53D000859030008590300085903000829
:1001C000590300085903000859030008590300089F
:1001D000590300085903000859030008590300088F
:1001E000590300085903000859030008590300087F
:1001F000590300085903000859030008590300086F
:10020000590300085903000859030008590300085E
:10021000590300085903000859030008590300084E
:1002200059030008590300085903000800000000A2
:100230005903000859030008000000005903000892
:10024000590300085903000859030008590300081E
:10025000590300085903000859030008590300080E
:1002600059030008590300085903000859030008FE
:100270005903000859030008694F000800000000F6
:100280005903000859030008590300080000000042
:08029000000000005903000802
:1002980053B94AB9002908BF00281CBF4FF0FF31E5
:1002A8004FF0FF3000F00CB8ADF1080C6DE904CE4A
:1002B80011F06EFADDF804E0DDE9022304B07047BE
:1002C800704700BF0348044B834202D0034B03B17D
:1002D8001847704768C4002468C400240000000060
:1002E8000548064B1B1AD90F01EBA301491002D090
:1002F800034B03B11847704768C4002468C400243E
:100308000000000010B5064C237843B9FFF7DAFF68
:10031800044B13B10448AFF300800123237010BDD0
:1003280068C4002400000000B821010808B5054B86
:100338001BB105490548AFF30080BDE80840FFF749
:10034800CFBF00BF000000006CC40024B821010822
:10035800FEE700BF0C4A0D4B934204D0D21A0C4959
:10036800184611F007FA0B4A0B4B934204D0D21AE5
:100378000021184611F0CCF905F05EFB11F0D6F912
:1003880000F064FBFEE700BF68C4002400000024FE
:10039800E821010898C6012468C40024404A43F2B1
:1003A80039034049B6EE005ADFF81CC1B0EE004AE6
:1003B8000968F1EE0C6ADFED3C4ADFED3C5ADFEDEF
:1003C8003C3A10B5D2F800E003FB01F2044603FB07
:1003D8000EF30CFB0E220CFB0133364922F00042CF
:1003E80023F00043A1FB03C0A1FB02C14FF47A7CB8
:1003F800800989090CFB10330CFB112207EE902AA7
:10040800B8EEE77A07EE903AF8EEE77A87EE246AD4
:1004180087EEA47A36EE456A77EE457A26EE257A97
:1004280067EEA57AA7EE230AE7EE846AB5EEC00A5E
:10043800F1EE10FA30D4B7EE006AB4EEC60AF1EE67
:1004480010FA36FE006A1C4A00231C49D2ED005AF5
:1004580007EE903A9FED1A7A002C4FF00100F8EE63
:10046800E77A1A46D8BFC3F10502034467EEA67AB5
:1004780002F1020C01EB820E8854062B67EE877A94
:100488008EED086A67EEA57AFCEEE77A17EE902AF9
:1004980041F82C20DCD110BD9FED0A6AD3E700BFDC
:1004A800D8040124DC04012400007A448FC2753D7D
:1004B8008FC2F53DD34D62109CC0002488040124EE
:1004C8006F12833A000000006D4EC641104B1B6846
:1004D80070B503EB43030F4D0F4C05EBC30504F157
:1004E8001806F5EC017AF2EE080A9FED0C7AB0EEE8
:1004F800000A77EEC77AC7EEA00A10F02DFFDFEDED
:10050800087A20EE270AA4EC010AB442E9D170BDAA
:10051800D8040124FC1A0108C004012400008A42FE
:100528000000DC432DE9F04FD84C8846154620469C
:100538002DED028B87B000F03FFB204600F048FB12
:1005480094F8B430002B40F05082D14F94F84430E6
:1005580003B1636ECF4C2268134483F30203236014
:10056800FFF7B4FFCC4802F0BDF8CC48B0EE408AA3
:1005780002F0B8F8DFEDCA6AB5EE002ADFEDC97AF5
:1005880043F23902C84BB0EE403AE8EE267A9FEDC6
:10059800C77AD3ED001ADFEDC66A21EE877A9FEDA0
:1005A800C51A9FEDC56A21EE822AA0EE261ADFED54
:1005B800C30A77EEA77A2368E0EE060AC04802FB72
:1005C80003F3C049C7EE276ABF4CC04A00F1180CB4
:1005D800FCEEE67A17EE906AC82E38BFC826059654
:1005E8000E6023F00046BA494FF47A7EDFEDB92A4F
:1005F800A1FB0691F6EE003A9FEDB74AF7EE007AB6
:100608008909DFEDB64AB0EC015A0EFB11669FED81
:10061800B46A07EE106AF0EE465AB8EEC77AC7EE2B
:10062800226A36EEE37A27EE047AE7EE247A67EE5A
:10063800857AF4EEC67AF1EE10FA05D4F4EEC27AB1
:10064800F1EE10FA72FE275AC1EEA57A40F2FF7158
:1006580003F18343C2ED020A82ED011A03F58C030C
:1006680003F59C436D33FDEEE77A17EE906A8E42F0
:10067800A8BF0E46022E3146B8BF0221844511603C
:1006880002F5005202F11802ABD13A78002D00F0C1
:100698008F81013DC1464FF0000B04F500586B08EF
:1006A8003AB19048059D01688D4240F2728101314E
:1006B8000160DFF860C24FF0000A8B4946460CF132
:1006C8000807554608689646CDF81080CDE902938C
:1006D8001CF8011B002960D03B68002B40F05081BA
:1006E80007EE905A9FED756A9FED807AF8EEE77AEB
:1006F800D7ED066AA7EEC67A27EE267AB5EEC07A57
:10070800F1EE10FA00F13F81F7EE007AB4EEE77AE5
:10071800F1EE10FA37FE877AB4EEE77AF1EE10FAC6
:10072800C8BF0123F7EE007A002BD6E9002307FEA5
:10073800277A86ED057AD21A48BF02F50062002BA7
:1007480040F3348103EB0209AA46CDE90071684DF4
:10075800B2F5006F674F134640F60601A8BFA2F531
:10076800006305FB0070013201FB0A33C0F34F251B
:10077800914504EB8303A5F5004507EE905AFAEE80
:10078800E87A67EE877AC3ED007AE0D15546DDE96D
:10079800007100238A460CF8013C013506F5005625
:1007A8000437062D06F1180692D104997246DDE940
:1007B8000293BAF1000F01D04B4D286000279FED3E
:1007C8004E6ABC4640F60605D1ED047AD1ED035ACF
:1007D80005FB0CF591ED027A0CF1010CD1E900064C
:1007E800861B00F10107284448BF06F50066B7F5E7
:1007F800006F04EB80003544A8BF0027BCF1060F4A
:1008080004EB8505D5ED006A36EEE75A36EE266A22
:10081800E5EE257A27EE277AC1ED047A80ED007A95
:100828000F6001F5005101F11801CBD1B7EE007A44
:10083800DFED325ADFED326ADFED327A37EE437A96
:100848009FED315A26EE056AE7EE256AF4EEE76A6F
:10085800F1EE10FA00F19A80DFED2C7AF4EEE76AF7
:10086800F1EE10FA77FEA67AFDEEE77A17EE901A07
:100878002748F5EE006ADFED117AB0EE465A0068B7
:1008880009F10809E7EE267A46E000BF540501247D
:1008980004000024D80401241C050124E4040124D4
:1008A8000000B44200008C429CC00024000070424A
:1008B8000AD7A33C9A99793F3333333FCDCCCC3D0B
:1008C800C004012400000024080000240C20002497
:1008D800D34D621000007A448FC2753D0AD7233B7E
:1008E80000002042E004012498C000246666863F88
:1008F8000D6619005FF36E3C0000000000003443F1
:10090800000002440000D243ABAA2A3E00002F4454
:1009180084C40024880401243E4E411AB7EE007AAC
:100928009FED3D4A00F1010548BF01F58051DFED1B
:100938003B5AB5F5805F06EB800006EB810177EE48
:10094800674AA8BF0025D1ED006A5B45344967EEC8
:10095800A67AA6EE845A0D60E6EE247A80ED005A57
:10096800F0EEE76A76EE876A87EEA67A67EE257A72
:1009780049ED027A49ED017A1AD00BF1010B8FE6A5
:10098800013B3B6009E79FED277ACBE64FF4D27134
:100998006EE70025244E25490560356851F8350075
:1009A800C0B9013505F00705356082E65146F0E625
:1009B80032B39FED1F1ADFED1F0A9FED1F0A1F4874
:1009C80001F01AFF1E4807B0BDEC028BBDE8F04FDE
:1009D80000F00EB901EBC50191ED010ACDE9003235
:1009E800FFF7DCFCDDE90032DBE794F8BA30154F9D
:1009F8007F2B7FF4ABAD3B7883F001033B70A5E51B
:100A08009FED081A9FED100AF0EE410A0B4801F01D
:100A1800F3FED7E788C400243333333F3333B33E80
:100A280084C4002400000000DC0401245C1B0108CD
:100A38000AD7233CCDCC4C3DCDCC4C3E2C060124D2
:100A480054050124040000240AD7A33C00B5002162
:100A580089B02B4800F072F9302129486D4600F022
:100A680091F8274800F0A2F8264C274BF7EE000A29
:100A780083ED000A9FED250A0FCC0FC594E80F00FF
:100A8800103485E80F0000226946214801F0FCFD7A
:100A9800EC46F7EE000A9FED1D0A0FCCACE80F00FC
:100AA80094E80F0085E80F001A480022694601F013
:100AB800EBFD194B19481A491A4A59601A6003F58F
:100AC800005318338342F6D100214FF48042164870
:100AD80010F01EFE154B00221A60FFF7F7FCB7EE68
:100AE800000A0120FFF75AFC114A124B1268044809
:100AF8001A6000F05DF81049014800F041F8FEE77F
:100B080054050124BC0501249CC0002400000000F9
:100B18001C050124E404012410200024A0E0002482
:100B2800B91E053F09AC7C3F88C4002484C4002456
:100B380000000024E00401242D05000838B50E4CFF
:100B4800002504F5C070256065612562E56301F044
:100B580081FD0723094904F51472C4F8905184F8FB
:100B68003D3240F20113C4F83912C4F84022C4F8E7
:100B78004432C4E9925538BD5405012480707F0F72
:100B880000F06EB9F8B5054600F072F905F1A40455
:100B980005F1AC0754F8046F284600F085F9304693
:100BA80001F0BEFCBC42F5D1F8BD00BF00F05CB955
:100BB800183002F0B3B800BF10B50446683001F031
:100BC8008BFC04F18800BDE8104001F085BC00BF33
:100BD80010B50446403001F0FBFC04F1B00001F010
:100BE8005FFE04F1C000BDE8104001F059BE00BF2F
:100BF80010B50446D83001F02DFE04F59670BDE816
:100C0800104001F027BE00BF70B54FF481718AB063
:100C18004FF4C0624FF4E06300F1D8060124ADF848
:100C28000C1000F59675ADF810203046ADF81C3064
:100C3800049A079B0399009401F0B2FD4FF4807366
:100C480040F201120094ADF810304FF4806304AC08
:100C58002846ADF81C30079BADF80C20DDE90312DF
:100C680001F09EFD2046072105F014F807AB94E833
:100C7800070083E807001946304601F0D5FD07ABA9
:100C880094E8070083E807001946284601F0CCFDE0
:100C9800304601F0DFFD28460AB0BDE8704001F09B
:100CA800D9BD00BF2DE9F04340F2024302250446B6
:100CB80002222DED028B8BB004F118079FED1E8ADE
:100CC80004F1A406ADF8003001A8009901F01CFE5B
:100CD800ADF800502A4600990DF1160001F014FEF7
:100CE80004232A4638460DEB0301002501F01EFEB9
:100CF80004F1680204F18803C4F8A820C4F8AC30F1
:100D08002946384656F8048F02F01CF881462046DA
:100D180000F0CAF80023F0EE480A49461A46404651
:100D280001F0ACFB6B1C0125022BE9D10BB0BDEC2B
:100D3800028BBDE8F08300BF6F12033BF0B5044699
:100D48000D4695B0002700F089F82946204604F1A1
:100D5800B00600F061F940F6061330469FED3E0AF2
:100D6800ADF8343004F1C0050D9901F081FD4FF460
:100D7800007328469FED380AADF834300D9901F01C
:100D880077FD40F60333ADF8247004F14000ADF868
:100D9800143040F20163099AADF834300D9B05997F
:100DA8009FED2D0AC4F8D06009AEC4F8D45001AD47
:100DB80001F0DEFB2046FFF727FF2046FFF772FF12
:100DC800284601F047FC01230DF1140E04F5C07C00
:100DD8000F93129347F6122310971393022311933C
:100DE80095E80F008CE80F008EE80F0086E80F00EA
:100DF800BDF828300E90ADF83630BDF82A30D4E969
:100E0800625EADF83430C4E9655EBEF1000F1CD1F6
:100E18000DA904F5C87004F099F904F1A40504F5C6
:100E2800D27004F1AC0701F029FC3021204600F013
:100E38001FF855F8046F204600F036F8304601F0E8
:100E48006FFBAF42F5D115B0F0BD72463946284662
:100E580010F05EFCDCE700BF00000000704700BF38
:100E6800143001F0E5BA00BF143001F0DDBA00BF5C
:100E780030B5054683B0143001F0C8FA05F1140006
:100E880001F0D2FA05F114008DED010A01F0BAFA69
:100E9800D0ED007A9DED010AF8EE677A80EE277AA8
:100EA80085ED0E7A03B030BD90ED0E0A704700BF95
:100EB80000B540F203308FB000224FF60B7340F2BA
:100EC8000341ADF80800009209A8ADF81030ADF85C
:100ED80024300123ADF80C10029907920C92CDE949
:100EE8000522CDE90A2202F027F8002204A80123EE
:100EF8000399009202F020F809A802F02FF910B91E
:100F080001200FB000BD04A802F028F980F001000C
:100F1800C0B240000FB000BD70B53C4B9CB0012280
:100F280000240321139340F20453054616911294AA
:100F38001992ADF85030CDE91724FFF7B9FF012811
:100F480041D002284FF001022FD1314B40F6013138
:100F58000DAE0094CDF852304FF60B73ADF820105B
:100F680030460899ADF8343023461094CDE91A423A
:100F7800CDE90E4401F0E0FF2146304602F0FAF8D0
:100F880012A905F13C0003F06FF9302003224FF05D
:100F98007E5331460F931093CDE90D02EA6B05F1AC
:100FA800140001F0F5F91CB070BD40F60131184B82
:100FB8000DAEADF834100D98CDF85230CDE91A4287
:100FC80000F0A4F8DCE71022114908900DAE8DF866
:100FD8003020104ACDF8521008A90A9003900992BF
:100FE8000B940494CDE91A0404A802F029FB082103
:100FF800039B3046079105A9049AADF814308DF883
:10100800164006930D9400F0BDF8B9E704020404F5
:10101800040604030704010BF0B53A4B044685B0F7
:1010280040F20112A36003F581333748012503F527
:101038008073ADF80C2040F202726060E36040F605
:1010480006630020A4F82520A4F82930271D25824E
:1010580084F8275084F82B5002918DF80E0004F084
:10106800A9FC064604F010FB034610BB0EB302A908
:1010780004F130008DF80E5004F024FC072E38D10E
:101088002046FFF749FF04F1140001F0CDF904F1FF
:1010980014008DED010A01F0B5F9D0ED007A9DED4F
:1010A800010AF8EE677A80EE277A84ED0E7A05B0A9
:1010B800F0BD02A904F13000019304F003FC072EEF
:1010C800019B02D1002BDBD006E039462046019374
:1010D80002F0EEFC019B8BB104F1250002F054F8FC
:1010E80004F1290002F050F804F1120000F068F948
:1010F800C6E73946204602F0DBFCC1E7002EEBD0FC
:10110800BEE700BF050705060508050910B584B048
:101118000124ADF80C0003A8ADF80E4002F034F835
:10112800214603A802F01CF9204604F0ABFA00217E
:1011380003A802F015F9204604F0A4FA214603A8F2
:1011480002F00EF904B010BDC2F3002CFA2300B56A
:1011580087B04CEA410C017C8DF8152005AA009354
:1011680002238DF814C002F005FB18B101231846BC
:1011780007B000BD03900A2004F084FA039B1846C8
:1011880007B000BD034630B5044685B043F8042BCC
:10119800FA2507C983E80700A1791E23009503AA49
:1011A8001A31ADF80C3020460223C9B2217402F07E
:1011B800E1FA10B1012005B030BD0A2004F062FA4E
:1011C8004FF4B85200950223ADF80C20204603AA2C
:1011D800217C02F0CFFA0028ECD10A2004F052FA60
:1011E80041F2027200950223ADF80C20204603AAB2
:1011F800217C02F0BFFA0028DCD10A2004F042FA70
:10120800042200950223ADF80C20204603AA217C75
:1012180002F0B0FA0028CDD10A2004F033FA0622F1
:1012280000950223ADF80C20204603AA217C02F089
:10123800A1FA0028BED10A2004F024FA41F20822BB
:1012480000950223ADF80C20204603AA217C02F069
:1012580091FA0028AED10A2004F014FA4FF00A02DD
:1012680000950223ADF80C20204603AA217C02F049
:1012780081FA00289ED10A2004F004FA23790C226E
:101288000095002B217C8DF80C20204614BF62238A
:1012980042236A448DF80D30022302F06BFA0028CD
:1012A80088D10A2004F0EEF9A36800952046E26888
:1012B800217C1343627943EA4213227982F00102C6
:1012C80043EA82130E228DF80D3002238DF80C208C
:1012D80003AA02F04FFA00287FF46CAF0A2004F04A
:1012E800D1F9102200950223ADF80C20204603AA5C
:1012F800217C02F03FFA00287FF45CAF0A2004F05A
:10130800C1F9122100950223ADF80C1003AA217C23
:10131800204602F02FFA00287FF44CAF0A2004F090
:10132800B1F901220921204605B0BDE83040FFF798
:101338000BBF00BF70B586B000240125102602A996
:101348004FF480521C480194CDE90256CDE904546B
:101358000BF088FC642004F0D9FD022302A94FF4A5
:101368008052154802930594CDE903650BF07AFC89
:10137800042302A94FF480520F480396CDE90434A0
:10138800032302930BF06EFC40F23223042202A9DD
:101398000948019310230495CDE90223019B4FF4DA
:1013A800805205930BF05EFC40F6060102480BF0F4
:1013B8007BFC204606B070BD3C980124000000006C
:1013C80030B51F4B89B00822DFF878C000214FF4F0
:1013D80000641A614FF0020E03920A22C3F804C097
:1013E8004FF0200C069240220546996003201962AE
:1013F80010215C620124C3E905C24FF4C072DC60AD
:10140800DA6107229FED0C7BCDE900E20422CDE9E9
:1014180004016946181D029283ED0A7B0BF0F8FB64
:1014280028B9284609B0BDE83040FFF783BF2046F9
:1014380009B030BDAFF300800010000000000000CC
:1014480038980124404100525E4A0023F0B51468E0
:101458008FB00A93002C40F0B2805B4B0121032629
:101468000C2511600227D3F8D420584842F4805242
:10147800C3F8D420D3F8D42002F480520092009A02
:10148800D3F8E02042F01002C3F8E020D3F8E020BF
:1014980002F010020192019AD3F8E02042F04002D3
:1014A800C3F8E020D3F8E02002F040020292029A4A
:1014B800D3F8E02042F00802C3F8E020D3F8E02097
:1014C80002F008020392039AD3F8E02042F48072F3
:1014D800C3F8E020D3F8E02002F480720492049A62
:1014E800D3F8E02042F08002C3F8E020D3F8E020EF
:1014F80002F080020592059AD3F8E02042F020021B
:10150800C3F8E020D3F8E02002F020020692069A01
:10151800D3F8E02042F00402C3F8E0204FF68372CB
:10152800D3F8E0300B9603F004030C9507930223DD
:10153800079908A9CDE9082306F0AAFB48F2371352
:1015480008A9234808930C950997CDE90A4606F09F
:101558009FFB4CF2037308A91E480893CDE9097450
:10156800CDE90B6506F094FB40F2FF6308A91A4821
:101578000893CDE90974CDE90B6506F089FB4FF6B0
:101588000C7308A915480893CDE90974CDE90B65D2
:1015980006F07EFB4FF63F0308A911480893CDE9F2
:1015A8000974CDE90B6506F073FB202308A90B48E5
:1015B80009970C950893CDE90A4606F069FB0FB028
:1015C800F0BD00BF349801240044025800100258AE
:1015D80000180258000C025800200258001C02583B
:1015E800001402582DE9F04F8BB08346C8480D46C9
:1015F80000AF144602F036FFC64BD3E90621002A95
:1016080000F00A82002940F09280D3F80480082173
:101618004FF002094269B8F1000F00F09280A10072
:10162800EA46012A01F1070121F00701ADEB010D9E
:101638006846ADEB010D694600F0F581022A00F01D
:101648007382002A40F0E581002C00F0E281D3ED9E
:101658000C6A86469FEDB07A0BF1040C5E4636F9AB
:1016680022900EF1080E07EE909A3CF92290023271
:10167800F8EEE77A944267EE877A67EEA67A4EED3F
:10168800027A07EE909AF8EEE77A67EE877A67EEC5
:10169800A67A4EED017AE2D822467962C0479D4B80
:1016A8000022796A93ED0D6A281DDFED9C6A9C4E35
:1016B8009FED9C7ADFED9C5AD1ED007A334666EEB9
:1016C800277AF4EEE67AF1EE10FA0CD9F4EEC77A3E
:1016D800F1EE10FA67FE277A67EEA57AFDEEE77A53
:1016E80017EE903A1BB2D1ED017A45F8223066EE3A
:1016F800277AF4EEE67AF1EE10FA40F20682F4EE7A
:10170800C77A0831F1EE10FA67FE277A67EEA57AF4
:10171800FDEEE77A17EE903A1BB240F8223002321B
:101728009442C9D8D5462C37BD46BDE8F08FD3F8CA
:10173800048010214FF004094269B8F1000F7FF4CA
:101748006EAF1868F8610028EDD07848C7F818D04F
:10175800C7E9081202F0F4FEB9F1020F6D4BF86008
:10176800D7E9081200F069826846C4F35D0C012AC3
:10177800A0EBC40085464FEA5400EE46B860AEEBD5
:10178800C40085460EEB8C006E46ADEB010DC7E933
:1017980000E006EB8C003E616E46ADEB010D786112
:1017A8000EEB8C003146C6F800E0706000EB8C064A
:1017B800796278698E60396900EB8C0A06EB8C00D7
:1017C800C7F820D0009179693861CDE9011A0AEB90
:1017D8008C010391796AC86000F03484022A00F011
:1017E8002F83002A40F01382002C00F09984B9F16D
:1017F800020F00F09B84601EFE683A610BF1040C36
:101808004008DFED456A01304FEA800A586A00EB6C
:1018180086007E6AB268F6687A61021DD7F814807D
:10182800C7F81490B1465E46AB46D7E900E17A6046
:101838003A693C616446D7F804C036F9125093ED12
:101848000C6A07EE905A34F91250F8EEE77A67EE10
:10185800A67A67EE867AEEEC017A07EE905A30F9AE
:101868001250F8EEE77A07EE105A3CF9125067EE7C
:10187800A67AB8EEC77A67EE867A27EE267AE1EC82
:10188800017A07EE905A27EE067A08EB0205F8EE81
:10189800E77A85ED007A09EB020567EEA67A93ED03
:1018A8000C7A043267EE877A5245C5ED007AC4D1C6
:1018B800D7F814905D463C69BA68FB69D7E9081007
:1018C8009847144B3A6AB9F1020F93ED0D7AD2E9B1
:1018D800006100F0798404F1FF3CDB6AFA68344661
:1018E8004FEA5C0CDFED0D6A03EB82093B6A0CF1F1
:1018F800010C9FED0C6ADFED0C5A09F1040E4FEA5A
:101908008C0C0022281D064ED3E902839A4675E006
:1019180088980124709801240000003804FF7FBFD4
:101928000280FFFF04FF7F3F00FEFF468C980124E2
:1019380000000034F4EEC67AF1EE10FA66FE277A5B
:1019480067EEA57AFDEEE77A17EE903A1BB2D1ED75
:10195800007A45F8123067EE277AF4EEE67AF1EE6F
:1019680010FA40F26881F4EEC67AF1EE10FA66FEDB
:10197800277A67EEA57AFDEEE77A17EE903A1BB262
:1019880040F8123008EB0203D3ED007A67EE277AAD
:10199800F4EEE67AF1EE10FA40F24B81F4EEC67AF4
:1019A800F1EE10FA66FE277A67EEA57AFDEEE77A81
:1019B80017EE903A1BB249F812300AEB0203D3ED46
:1019C800007A67EE277AF4EEE67AF1EE10FA40F242
:1019D8002981F4EEC67AF1EE10FA66FE277A67EEF0
:1019E800A57AFDEEE77A17EE903A1BB24EF8123060
:1019F8000432624500F0108104340431D4ED007AD9
:101A080067EE277AF4EEE67AF1EE10FA92D83346CA
:101A18009DE72246C04785E600297FF4F6AD2C37BE
:101A2800BD46BDE8F08F002CF3D0D3ED0C6A81469B
:101A38001FED417A4FF0000E0BF1040C5E4656F88C
:101A48002E2009F1080982F40002A2F5000207EE2F
:101A5800902A5CF82E200EF1020EF8EEE77A82F456
:101A680000027445A2F5000267EE877A67EEA67A4F
:101A780049ED027A07EE902AF8EEE77A67EE877A60
:101A880067EEA67A49ED017AD9D822467962C0472D
:101A9800AC4B0022796A93ED0D6A281DDFEDAA6A26
:101AA800AA4E9FEDAB7AD1ED007A334666EE277ADF
:101AB800F4EEE67AF1EE10FA0BD9F4EEC77AF1EE0D
:101AC80010FA67FE277AF0EE675AFEEEE45A15EE32
:101AD800903AD1ED017A45F8223066EE277AF4EE95
:101AE800E67AF1EE10FA18D9F4EEC77A0831F1EE79
:101AF80010FA67FE277AFEEEE47A17EE903A40F87D
:101B0800223002329442CED80CE640F822600232EB
:101B1800083194423FF6D0AD04E640F82260023224
:101B280008319442BFD8FDE5002C3FF472AFD3EDE5
:101B38000C6A86469FED897A00220BF1040CE9466F
:101B48005E4656F822100EF1080E07EE901A5CF861
:101B580022100232F8EEE77A944267EE877A67EE4F
:101B6800A67A4EED027A07EE901AF8EEE77A67EE5B
:101B7800877A67EEA67A4EED017AE2D84946224680
:101B8800C7F82490C0476F4B0022796A93ED0D6A1D
:101B9800281DDFED6D6A6F4E9FED6D7AD1ED007AED
:101BA800334666EE277AF4EEE67AF1EE10FA0BD9B0
:101BB800F4EEC77AF1EE10FA67FE277AF0EE675A6C
:101BC800FEEEE05A15EE903AD1ED017A45F8223052
:101BD80066EE277AF4EEE67AF1EE10FA10D9F4EE12
:101BE800C77A0831F1EE10FA67FE277AFEEEE07A3E
:101BF80017EE903A40F822300232A242CED391E555
:101C080040F82260023208319442C7D88AE5BA689F
:101C1800FB69D7E908109847D7F818D02C37BD4684
:101C2800BDE8F08F4EF81260043262457FF4E4AEEE
:101C3800F2E73346BFE63346A2E6A000012A4FEAA0
:101C4800540E00F1070020F0070CADEB0C0D6846B0
:101C5800ADEB0C0DC7F808E0EC4600EB8E06ADEBDB
:101C6800010DC7E90006C7F824D06E46ADEB010D9B
:101C780031463060CDF800C000EB8E060CEB8E0CC0
:101C8800C7F820D04E60CDF804C07FF4A7AD002C73
:101C980000F04682D3ED0C6A024679680BF1040C19
:101CA8009FED2D7A5E4656F8280080F40000A0F5D6
:101CB800000007EE900A5CF8280008F10208F8EE28
:101CC800E77A80F400004445A0F5000067EE877AC3
:101CD80067EEA67AE2EC017A07EE900AF8EEE77A68
:101CE80067EE877A67EEA67AE1EC017ADBD872466E
:101CF800FB69D7E908109847124B396AB9F1020F06
:101D080093ED0D7AD1E9002100F0F98204F1FF3C4E
:101D1800DB6AF86814464FEA5C0CDFED0B6A03EBEC
:101D280080093B6A0CF1010C9FED096A09F1040E68
:101D3800281D4FEA8C0C054ED3E902839A460023EE
:101D480069E000BF7098012404FF7FBF7E0080FF18
:101D580004FF7F3F007E0080000000340000003058
:101D6800F4EEC67AF1EE10FA66FE277AF0EE675ABC
:101D7800FEEEE45A15EE902AD1ED007A45F81320CC
:101D880067EE277AF4EEE67AF1EE10FA56D9F4EE19
:101D9800C67AF1EE10FA66FE277AF0EE675AFEEE82
:101DA800E45A15EE902A40F8132008EB0302D2ED0E
:101DB800007A67EE277AF4EEE67AF1EE10FA3BD96C
:101DC800F4EEC67AF1EE10FA66FE277AF0EE675A5C
:101DD800FEEEE45A15EE902A49F813200AEB0302A6
:101DE800D2ED007A67EE277AF4EEE67AF1EE10FA91
:101DF8001CD9F4EEC67AF1EE10FA66FE277AFEEEEA
:101E0800E47A17EE902A4EF81320043363453FF422
:101E180003AF04340431D4ED007A67EE277AF4EE88
:101E2800E67AF1EE10FA9BD83246A5E74EF8136031
:101E380004336345EDD1EFE63246CDE73246B2E7EB
:101E4800002C00F06D81B9F1020F00F09581621E3F
:101E5800FE680BF1040C38685208C7F800905FED73
:101E6800416A01324FEA820A5A6A02EB86087A6AA4
:101E780008F10401D2E9026239617A61B646D7F8FD
:101E880014905E467C61002264467968AB46D7F8B8
:101E980010C056F8125093ED0C6A07EE905A54F899
:101EA8001250F8EEE77A67EEA67A67EE867AE0ECEB
:101EB800017A07EE905A58F81250F8EEE77A67EE72
:101EC800A67A67EE867AE1EC017A07EE905A5CF81A
:101ED8001250B8EEE77A07EE905A0EEB020527EE9D
:101EE800267AF8EEE77A27EE067A67EEA67A85ED87
:101EF800007A09EB020593ED0C7A043267EE877AD3
:101F08009245C5ED007AC4D1D7F800905D467C694A
:101F1800BA68FB69D7E908109847CF4B396AB9F115
:101F2800020F93ED0D7AD1E9002100F0A78104F1A9
:101F3800FF3CDB6AF86814464FEA5C0CDFEDCD6ABB
:101F480003EB80093B6A0CF1010C9FEDCB6A09F1A8
:101F5800040E281D4FEA8C0CC04ED3E902839A4622
:101F680000235AE0F4EEC67AF1EE10FA66FE277AFC
:101F7800F0EE675AFEEEE05A15EE902AD1ED007A9F
:101F880045F8132067EE277AF4EEE67AF1EE10FAB8
:101F980056D9F4EEC67AF1EE10FA66FE277AF0EE1C
:101FA800675AFEEEE05A15EE902A40F8132008EB27
:101FB8000302D2ED007A67EE277AF4EEE67AF1EEC4
:101FC80010FA3BD9F4EEC67AF1EE10FA66FE277ADB
:101FD800F0EE675AFEEEE05A15EE902A49F8132003
:101FE8000AEB0302D2ED007A67EE277AF4EEE67A7E
:101FF800F1EE10FA1CD9F4EEC67AF1EE10FA66FE8C
:10200800277AFEEEE07A17EE902A4EF81320043372
:1020180063453FF401AE04340431D4ED007A67EE31
:10202800277AF4EEE67AF1EE10FA9BD83246A5E765
:102038004EF8136004336345EDD1EDE53246CDE744
:102048003246B2E7002C6BD0611EF868F246424671
:1020580049080BF1040CC7F800900131DFED806AE4
:10206800D7F8109089007961596A01EB800E3046E3
:102078005E46AB460EF104085546A2467C6856F803
:10208800121093ED0C6A81F40001A1F5000107EE2E
:10209800901A5CF81210F8EEE77A81F40001A1F5C5
:1020A800000167EEA67A67EE867AE5EC017A07EE1C
:1020B800901A5EF81210F8EEE77A81F4000167EEE4
:1020C800A67AA1F5000167EE867AE4EC017A07EEBC
:1020D800901A58F81210B8EEE77A81F40001A1F5C9
:1020E800000127EE267A07EE901A811827EE067A65
:1020F800F8EEE77A81ED007A09EB020167EEA67A3D
:1021080093ED0C7A043267EE877AC1ED007A79692B
:102118009142B4D1D7F800905D465446BA68E7E5D5
:102128002246FB69D7E90810984775E5D3ED0C6A94
:102138000BF1040C9FED4B7A5E46D7E9000136F9A6
:1021480022E007EE90EA3CF922E00232F8EEE77A64
:10215800944267EE877A67EEA67AE0EC017A07EE9A
:1021680090EAF8EEE77A67EE877A67EEA67AE1EC0E
:10217800017AE4D8FFF7A0BBD3ED0C6A00229FEDEB
:102188003A7A0BF1040C5E46AE46D7E9000156F8E0
:10219800225007EE905A5CF822500232F8EEE77AA5
:1021A800944267EE877A67EEA67AE0EC017A07EE4A
:1021B800905AF8EEE77A67EE877A67EEA67AE1EC4E
:1021C800017AE4D87546A3E60022DFED2A6A9FED7E
:1021D8002A6A281DDFED255ADFF894C0D6ED007A6B
:1021E800634667EE277AF4EEE67AF1EE10FA0CD938
:1021F800F4EEC67AF1EE10FA66FE277A67EEA57A53
:10220800FDEEE77A17EE903A1BB2D1ED007A04366C
:10221800043145F8223067EE277AF4EEE67AF1EEDB
:1022280010FA12D9F4EEC67AF1EE10FA66FE277AA1
:1022380067EEA57AFDEEE77A17EE903A1BB240F802
:10224800223002329442C9D8E6E440F822C0023271
:102258009442C3D8E0E400BF70980124007E008057
:1022680000000034000000380000003000FEFF4687
:102278000280FFFF04FF7FBF04FF7F3F00235FED65
:10228800036A1FED036A281DDFF8FCC0D2ED007A4F
:10229800664667EE277AF4EEE67AF1EE10FA0BD985
:1022A800F4EEC67AF1EE10FA66FE277AF0EE675A77
:1022B800FEEEE05A15EE906AD1ED007A0432043150
:1022C80045F8236067EE277AF4EEE67AF1EE10FA25
:1022D8000FD9F4EEC67AF1EE10FA66FE277AFEEE12
:1022E800E07A17EE906A40F8236002339C42CDD81A
:1022F80092E440F823C002339C42C7D88CE4002300
:10230800DFED1F6A9FED1F6A281DDFF880C0D2ED40
:10231800007A664667EE277AF4EEE67AF1EE10FA6E
:102328000BD9F4EEC67AF1EE10FA66FE277AF0EED3
:10233800675AFEEEE45A15EE906AD1ED007A04323F
:10234800043145F8236067EE277AF4EEE67AF1EE79
:1023580010FA0FD9F4EEC67AF1EE10FA66FE277A73
:10236800FEEEE47A17EE906A40F8236002339C424E
:10237800CDD851E440F823C002339C42C7D84BE47F
:1023880004FF7FBF04FF7F3F007E00807E0080FF48
:1023980010B5194C84B09646046004F1080C0FC9B6
:1023A8008CE80F00D4ED047AF5EEC07A8DE80F00C2
:1023B800F1EE10FA1CDDB7EE006A94ED057A27EE0F
:1023C800277AC6EE276A84ED0D7AC4ED0C6ABEF151
:1023D800000F0DD0204640F818EF02F043F80749E7
:1023E80003690020064A2162A262E36004B010BDBE
:1023F800012004B010BD00BF7098012400200030F7
:102408000000003000680830704700BFB1F5807FD9
:1024180003680A4628BF4FF48072B1F5807F9A603E
:1024280094BF0020012070470068183002F076B889
:1024380030B5046883B008480D46A368A26A216ACB
:102448009B00009004F1180002F00EF80020C4E987
:10245800000503B030BD00BFED150008064B302065
:1024680003214FF07E52C3E90201002000211A61C6
:102478005A61C3E90601704770980124F6EE006AB4
:102488009FED146A20EE207A80ED020AF7EE007ABA
:1024980080ED036A016027EE267AC7EE876AF4EEBC
:1024A800E76AF1EE10FA05DCB4EEE66AF1EE10FA2E
:1024B80076FE267A4FF07E514FF0000C027600220D
:1024C800C0ED017AC0F814C0016143768276C0ED90
:1024D800070A7047000000000268037E128807EEB2
:1024E800902AFBEEC87A1BB1B7EE007A77EE677ACE
:1024F800D0ED056A90ED047A77EEE67A437E67EED2
:10250800877A0BB1F1EE677A90ED030A90ED017AC4
:1025180077EEC07AA7EE270A80ED030A704700BF5E
:10252800837E80ED020ADBB9D0ED077A27EE800AB8
:10253800B6EE007AF7EE007A20EE070A87EE807A88
:10254800B4EEE77AF1EE10FA07DCDFED077AF4EE85
:10255800C77AF1EE10FA77FE877AC0ED017A7047F4
:10256800DFED027AE2E700BF000000006F12033BD4
:1025780030B585B004460025ADF80C10ADF808203C
:10258800ADF8043003F07CF8BDF80C204FF48073EC
:10259800206004F118002283BDF808206383E383D8
:1025A800A283257100F0F0FD04F11C0000F0ECFDA1
:1025B8009FED060A019904F1080000F059F94FF659
:1025C800FF736562238405B030BD00BF00000000C2
:1025D80030B5044683B003F053F800232268237112
:1025E800824206D104F1080003B0BDE8304000F093
:1025F80057B9012194F82020206004F118002171B6
:10260800019200F09FFE019A94F8215040EA42029C
:1026180004F11C0084F8202000F094FE002340EA16
:1026280045000121636294F8203084F8210000F00D
:10263800030003F00303022B07D00228D2D1002B9A
:10264800D0D14FF0FF336362CCE70028CAD1616272
:10265800C8E700BF074B0021074AB3F800C08260F3
:102668009A884FF48073A0F804C00160C280C360E8
:10267800704700BFB81A01080040003000220A2342
:1026880002700371704700BFDFED157A8C46F4EED7
:10269800C07A10B5044682B08646C0ED090A80EDBE
:1026A800080AF1EE10FA80F83420CDED010A37FE61
:1026B800800ABCE80F00AEE80F009CE80F008EE827
:1026C8000F000EF0DDFDF0EE407A9DED010AC4ED3D
:1026D8000A7A0EF0D5FD84ED0B0A02B010BD00BFDA
:1026E80095BFD63390F8343000B583B0032B54D857
:1026F800DFE803F0412D18020190FFF7EDFE019885
:1027080060EE006AD0ED087A90ED097A66EE806A8C
:1027180037EE677AE6EE877AB0EE670AC0ED0C7A94
:1027280003B000BD0190FFF7D7FE019890ED0A7A3B
:10273800D0ED0B7A77EEC77AA0EE277AB0EE470A8B
:102748000EF02CFD019880ED0C0A03B000BD01903D
:10275800FFF7C2FE019820EE007AD0ED087AD0ED9E
:10276800096A76EEE76AE7EE267AB0EE670AC0ED08
:102778000C7A03B000BD0190FFF7AEFE0198D0EDD2
:10278800087A90ED097A37EE677AE0EE077AB0EECC
:10279800670AC0ED0C7A03B000BD90ED0C0ABFE7E4
:1027A80030B52DED028B85B09FED128A05469DF858
:1027B8002840B0EE480AADF80C100399ADF808208F
:1027C8002246ADF804300CF045FCB0EE480A22462B
:1027D800029905F11C000CF03DFCB0EE480A2246B7
:1027E800019905F1380005B0BDEC028BBDE8304019
:1027F8000CF030BC00007A4410B5044682B0CDED30
:10280800010A8DED001A0CF049FC9DED010A04F156
:102818001C000CF043FC9DED000A04F1380002B0E6
:10282800BDE810400CF03ABC38B50C46054691EDB1
:10283800000A0CF033FC94ED010A05F11C000CF0C1
:102848002DFC94ED020A05F13800BDE838400CF083
:1028580025BC00BF10B504460CF032FC04F11C0086
:102868000CF02EFC04F13800BDE810400CF028BC38
:1028780030B5044683B00D0A009102F001FF4FF411
:10288800807200994FF001232060A01DA171A280E1
:10289800E571A36003B0BDE8304000F075BC00BF2F
:1028A80010B5044682B002F0EBFE002223682271C4
:1028B800834210D00121A37AE27A2060A01D217101
:1028C800019352B900F03EFD019B40EA4300C0B2BB
:1028D8007F28A0720DD002B010BD00F033FDB0FA11
:1028E80080F0019B400940EA4300C0B27F28A072F3
:1028F800F1D102F0C5FE07EE900AF8EE677AC4ED52
:10290800037A02B010BD00BF00B583B04FF0000ECF
:102918004FF0030C4274ADF80410BDF8043080F891
:1029280010E0A0F802C0038003B000BD2DE9F04F0D
:102938004FF00008DFF8F4928FB0B74C03700646EA
:10294800B64B174642600D46202241464846C4F819
:102958006831C4F86491CDE90388CDE90588CDE9EB
:102968000788CDE90988CDE90B880EF0D1FE202231
:10297800414604F5A170C4F83181C4F83581C4F822
:102988003981C4F83D810EF0C3FE84F83071736854
:1029980084F84882002B00F084814346484604F5B9
:1029A800987E05F1100AC446019708E04FF001012E
:1029B800624503F1120384F8481264D90230E91819
:1029C80055F803B0E2180CF1010CCF68D1F8049067
:1029D800D1F8088044F803B0D7604FF00007C2F878
:1029E8000490C2F80880098A078011821AF8031037
:1029F8000EF8011F72680029D8D1624503F112034D
:102A0800DCD8019F94F84832FFB2002B3ED1012157
:102A1800032332780020C4F89831002384F8811108
:102A2800C4F874317E4984F8803184F88831C4F858
:102A38008471C4E967334FF48023C4E95B13082128
:102A48000123C4E95E310021C4E964019AB1002080
:102A58000121013A84F8A431C4E96C01082A0CD890
:102A6800DFE812F0FE00F900F400EF00EA00D500FC
:102A7800CF00C800C10084F8A4216A4803F094FE7E
:102A880030B1FFBEFEE7019F0021FFB20123C0E77E
:102A9800039003A9634804F017F8002840F0A180C8
:102AA800042340F2FF720B90CDE9092394F83031EA
:102AB800002B4BD0DFF878818146DFF878A14FF002
:102AC800070BA8F58E756B7B072B07D8DFE803F09B
:102AD8008386807A777D4104CDF820B0281F00F0E6
:102AE80053FB2B7B042B3CDC022B00F3D28000F041
:102AF800CC80002388F8003015F8043C002B42D025
:102B0800022B00F0B280012B07D115F8033C012BF2
:102B180000F0CB80002B00F0D6800023069306A996
:102B2800DAF800303F48079303F054FA002840F0E1
:102B3800C08009F1010994F830210AF1040A08F16A
:102B480001085FFA89F312359A42BCD80FB0BDE884
:102B5800F08F0623281F089300F016FB2B7B042B0D
:102B6800C2DD032388F800302F4600263846013698
:102B780000F00AFB98F800300437B342F6DC15F889
:102B8800043C002BBCD115F8032C062A00F08580E4
:102B9800072A00F09480022A00F09780032A00F0A8
:102BA8009680002A00F09580012A00F09480042A7B
:102BB80000F09380052A1C4A08BF1346AEE7042399
:102BC80008938BE70323089388E70523089385E791
:102BD8000223089382E7002308937FE701230893E1
:102BE8007CE7FFBEFEE740F2FF324FF4A073C4E972
:102BF8006A2342E740F2FF124FF49073C4E96A2354
:102C08003BE7FF224FF48073C4E96A2335E77F224C
:102C1800E023C4E96A2330E7A89801244041003042
:102C280000200240149A01240000B84F00410030EF
:102C3800C89901249C1B01083F22C023C4E96A23C8
:102C48001BE71F22A023C4E96A2316E70F2280236B
:102C5800C4E96A2311E707226023C4E96A230CE761
:102C680003224023C4E96A2307E715F8033C042B31
:102C780015D0052B1BD0F3B1012B1ED0022B20D071
:102C8800032B7FF44AAF164B48E7012388F800303E
:102C98006AE7022388F8003066E7124B3EE7124BDA
:102CA8003CE7FFB201210323B3E6104B36E7104B94
:102CB80034E7FFBEFEE70F4B30E70F4B2EE70F4B15
:102CC8002CE70F4B2AE70F4B28E70F4B26E70F4B54
:102CD80024E70F4B22E70F4B20E70F4B1EE700BFFF
:102CE800002090360800900C1000C0102000F0144E
:102CF800000180210004002A0008302E8000501DA9
:102D0800001060320002B0250040C03A0080F03E5A
:102D180000002143000052470000844B10B5084CC6
:102D280040F2FF724FF00111204603F06FFE14F8D5
:102D38003C2C54F8081C2046BDE8104003F0A2BB08
:102D4800149A0124044BD3F8643103EB41000F2992
:102D580088BF1846704700BFA8980124224B026814
:102D68009A4200D07047214A0021214BD2F8D8005E
:102D7800DFF880C040F0200000B583B0C3F8D0C1B0
:102D88004FF0090CC3E975C1C2F8D8004FF4806C44
:102D9800D2F8D80093F8482200F0200082F001020F
:102DA800019003F5E8701202C3E9771CC3F8EC211F
:102DB8004FF4006C019A4FF40052C3F8E4C1C3F811
:102DC800E821C3E97C1104F0ABF8094B08B1FFBE58
:102DD800FEE703F5B67203F5E871C3F80822C3F8F5
:102DE800B81103B000BD00BF0020024000440258E3
:102DF800A898012440000240014804F0E7BB00BF46
:102E0800789A0124464B02689A4200D07047F0B580
:102E1800444C85B094F848320BB905B0F0BD94F82D
:102E28003011002951D004F5A07504F10C0704F500
:102E38009876002215E003F001012B80A7F1080025
:102E480016F8113C0392019300F08AFA019B039A49
:102E5800012B22D894F830110132123793B29942DB
:102E680031D916F8013F0235002BF5D0D4F864317A
:102E78000021287833F812C0D4F8683103EB021324
:102E880023F810C02B8801339BB2D8B20290307857
:102E98009842D0D80B460291CFE7029B381F039285
:102EA800C3F3400100F05CFA019A029B022A039ADC
:102EB800C3F38001CED03846019200F051FA94F85D
:102EC8003011019AC8E794F8483283F00103164894
:102ED800092100221B024FF48065C4F8D821C4F8E8
:102EE800EC314FF40053C4F8DC21C4F8E831C4E9EC
:102EF80074014FF400610D48C4E97851C4E97C229B
:102F080004F00EF808B1FFBEFEE794F83021D4F8BB
:102F18006411074805B0BDE8F04003F0B3BA00BF3C
:102F280000200240A898012440000240789A012419
:102F3800149A0124704700BF00B593B00180ADF822
:102F48000410C9B2DDF850C00B29C0F80CC0C0E9A4
:102F580001233FD090F801E0BEF10F0F3AD8022AC2
:102F68003CD0032A04D0A2F10102B2FA82F252093B
:102F7800012B0E9205D0A3F10203B3FA83F35B0988
:102F88005B00BCF1020F0F9326D0BCF1030F23D0D6
:102F9800ACF10103B3FA83F35B090A2910930ED845
:102FA800624B4A1E03EB81230361092A00F2AE80BB
:102FB800DFE802F09D8E7F706152433425160023AE
:102FC8001A46036101230DA9104603FA0EF30D9367
:102FD80004F05EFE13B000BD6346DEE71122C7E7CA
:102FE800534B544AD3F8E01041F48061C3F8E01021
:102FF800D3F8E03003F480630C930C9BE2E74C4B6E
:103008004D4AD3F8E01041F40071C3F8E010D3F84A
:10301800E03003F400730B930B9BD3E7444B474A10
:10302800D3F8E01041F48071C3F8E010D3F8E03031
:1030380003F480730A930A9BC4E73D4B404AD3F8D4
:10304800E01041F08001C3F8E010D3F8E03003F05D
:1030580080030993099BB5E7354B3A4AD3F8E0104A
:1030680041F04001C3F8E010D3F8E03003F040032A
:103078000893089BA6E72E4B334AD3F8E01041F09B
:103088002001C3F8E010D3F8E03003F020030793E1
:10309800079B97E7264B2D4AD3F8E01041F0100123
:1030A800C3F8E010D3F8E03003F010030693069B52
:1030B80088E71F4B264AD3F8E01041F00801C3F80F
:1030C800E010D3F8E03003F008030593059B79E797
:1030D800174B204AD3F8E01041F00401C3F8E01080
:1030E800D3F8E03003F004030493049B6AE7104B21
:1030F800194AD3F8E01041F00201C3F8E010D3F800
:10310800E03003F002030393039B5BE7084B074A95
:10311800D3F8E01041F00101C3F8E010D3F8E03033
:1031280003F001030293029B4CE700BF0000025822
:10313800004402580028025800240258002002586F
:10314800001C0258001802580014025800100258B7
:10315800000C0258000802580004025808B5012162
:1031680043780069994089B205F0A8F8003818BF7B
:10317800012008BD90F801C001230A46006903FA3E
:103188000CF189B205F0A0B88378022B30B504465B
:103198008FB039D0032B00F0D180A3F10102B2FA2D
:1031A80082F25209E3780A92012B05D0A3F10203B7
:1031B800B3FA83F35B095B0000222046CDE90B32AA
:1031C80002F078FD0546204602F07CFD2378099040
:1031D800082B13D8DFE803F02D405366798C9F0540
:1031E8001A00574BD3F8E02042F08002C3F8E020E1
:1031F800D3F8E03003F080030793079B09A928461A
:1032080004F046FD0FB030BD1122CBE74C4B09A9A5
:103218002846D3F8E02042F48072C3F8E020D3F8BF
:10322800E03003F480730893089B04F031FD0FB07D
:1032380030BD434B09A92846D3F8E02042F00102EB
:10324800C3F8E020D3F8E03003F001030093009BBB
:1032580004F01EFD0FB030BD394B09A92846D3F83C
:10326800E02042F00202C3F8E020D3F8E03003F097
:1032780002030193019B04F00BFD0FB030BD304BEE
:1032880009A92846D3F8E02042F00402C3F8E02058
:10329800D3F8E03003F004030293029B04F0F8FC37
:1032A8000FB030BD264B09A92846D3F8E02042F0DC
:1032B8000802C3F8E020D3F8E03003F008030393D2
:1032C800039B04F0E5FC0FB030BD1D4B09A928464F
:1032D800D3F8E02042F01002C3F8E020D3F8E03041
:1032E80003F010030493049B04F0D2FC0FB030BD2C
:1032F800134B09A92846D3F8E02042F02002C3F86E
:10330800E020D3F8E03003F020030593059B04F098
:10331800BFFC0FB030BD0A4B09A92846D3F8E020FE
:1033280042F04002C3F8E020D3F8E03003F0400355
:103338000693069B04F0ACFC0FB030BD1A4631E78B
:103348000044025838B5054602F0B4FC0446284645
:1033580002F0B8FC01462046BDE8384004F0AEBF94
:1033680070B506460D4602F0A5FC0446304602F04C
:10337800A9FC2A1E0146204618BF0122BDE870405C
:1033880004F0A2BF026800231221032A70B586B098
:103398000446CDE90113039301D804230493201DA7
:1033A80002F088FC0646201D02F08CFC694600905D
:1033B800304604F06DFCA01D02F07CFC0546A01D03
:1033C80002F080FC69460090284604F061FC06B0D3
:1033D80070BD00BF684A0368934200B58DB029D01C
:1033E800664A93425CD0664A934200F09B80654AE5
:1033F800934201D00DB000BD634B6448D3F8E02080
:1034080042F00202C3F8E020D3F8E02002F0020202
:103418000A920A9AFFF7B6FF5B4BD3F8F42042F002
:103428008002C3F8F420D3F8F43003F080030B9340
:103438000B9BDFE7544B5648D3F8E02042F00202DA
:10344800C3F8E020D3F8E02002F002020192019ACA
:10345800FFF798FF4C4B00221F20D3F8E81041F4E7
:10346800001C1146C3F8E8C0D3F8E8C00CF4001CEF
:10347800CDF808C0DDF808C0D3F8D8C04CF0010C6E
:10348800C3F8D8C0D3F8D83003F001030393039BE3
:1034980003F09CFB1F200DB05DF804EB03F0C6BBE6
:1034A800394B3C48D3F8E02042F08002C3F8E020D2
:1034B800D3F8E02002F080020492049AD3F8E020C6
:1034C80042F00202C3F8E020D3F8E02002F0020242
:1034D8000592059AFFF756FF2B4B00222120D3F8BF
:1034E800E81041F4800C1146C3F8E8C0D3F8E8C0EE
:1034F8000CF4800CCDF818C0DDF818C0D3F8D8C08B
:103508004CF0010CC3F8D8C0D3F8D83003F001034D
:103518000793079B03F05AFB21200DB05DF804EBDD
:1035280003F084BB1C48FFF72DFF174B00224820EF
:10353800D3F8E8C011464CF4000CC3F8E8C0D3F83F
:10354800E8C00CF4000CCDF820C0DDF820C0D3F89A
:10355800D8C04CF0010CC3F8D8C0D3F8D83003F069
:1035680001030993099B03F031FB48200DB05DF876
:1035780004EB03F05BBB00BF005400400058004060
:10358800005C0040001C005800440258809D012443
:10359800F89A0124D09B0124A89C01240D4B0022F9
:1035A80010210D484FF0FF0C5A6019801A8180F8DD
:1035B80000C05A611983DA611A84DA6219865A637B
:1035C8001A875A64C3E90322C3E90922C3E90F220F
:1035D800704700BFA0C00024F49A0124EFF31082C2
:1035E80072B60C4B1978090603D50AB962B670474A
:1035F800704700B51B78D820074983B05BB20192A9
:1036080000FB031003F0E2FF019A02B962B603B0AF
:1036180000BD00BFF49A01240C9B0124014805F069
:103628009DBD00BF849B0124014805F097BD00BFE4
:103638005C9C0124014805F091BD00BF349D012424
:10364800F0B50C68D825414E87B004FB05F5032C6E
:1036580006EB050303605FDCCA68012A5CD857D013
:103668000F4608689C464968BA680DF1180EFB6851
:10367800ACE80F00D822364B02FB04613A7C01917A
:103688008CF80020D1F808C00FCB0EE90F000EEB24
:103698008403019ABCF1010F53F8103CC2F88C3036
:1036A80048D0BCF1020F3AD0BCF1000F09D102F0AA
:1036B8007FF9284B019A98420CBF274B274BC2F839
:1036C8009030D8233A7C2649012003FB04F45200A9
:1036D8008C3533199834C3F894200022C3E92602A4
:1036E800C3F8A020A8190A510C446260C3F8AC20A2
:1036F80005F016FB80B90146A81905F041FD58B937
:103708000146A81905F068FD003818BF012004E03B
:103718000A7C103A672AA3D9012007B0F0BD02F04D
:1037280047F90C4B019A98420CBF0E4B0E4BC2F84E
:103738009030C6E702F03CF9064B019A98420CBF5C
:103748000A4B0B4BC2F89030BBE700BFF89A012434
:10375800C01A0108000E27075F4390608A62E030B4
:10376800049B0124200BA0101A0980102D0FB030E3
:103778003211D0202DE9F041056882B088461646FE
:103788001F4605F18C04204605F0F6FC2028FAD1E6
:10379800EB687BB94FEA48012046089C3B46324615
:1037A80089B2009405F01CFB003818BF012002B054
:1037B800BDE8F081089B3A463146204605F0DEFB1D
:1037C800F2E700BF044B10221A7483F8E82083F84C
:1037D800C02183F898227047F89A012410B5002375
:1037E80096B04FF48071062204460D930892159303
:1037F800CDE90E13CDE91033CDE9133302F0DAF831
:1038080007282DD004F1100341F2883208A9184680
:10381800019306F085FB28B1012384F85C30012070
:1038280016B010BD022201234FF0100C08A9059311
:103838004FF480030198CDF810C0CDE90222002290
:10384800CDE9062305224FF08073089202AA11934E
:1038580041F2883306F0FAFC0028DDD116B010BD1D
:10386800032384F85C30DAE730B50023A7B04FF0C3
:1038780080724FF480750446ADF80E301D93259381
:10388800CDE920320122CDE91E53CDE9233322921E
:10389800002942D0F02200F1100518ABADF80E2037
:1038A800C02041F2883219461890284606F038FBA5
:1038B80028B1012384F85C30012027B030BD41F2E3
:1038C80088320DF10E01284606F0AAFB03460028AF
:1038D800EFD14FF480710522284601250A92102263
:1038E80012930F93179304930795CDE910139FED47
:1038F8001E7B4FF08071CDE91533139141F2883367
:103908000AA9CDE905526A448DED087B06F09EFCB4
:103918000028D2D084F85C50CEE718AB612100F1C2
:10392800100541F28832189119462846019306F08D
:10393800F7FA0028BDD141F288320DF10E01284670
:1039480006F0F4FB0028B4D1BDF80E20204622F082
:10395800780242F04002ADF80E20FFF73FFF019BCE
:1039680000289DD0A5E700BF00000000000040002F
:103978002DE9F04D0023AAB04FF4807501248DF88D
:1039880007304FF080782193074613931B932295B5
:103998001C94CDF89480CDE92333CDE92643CDE9B5
:1039A8002833CDE91453CDE91633CDE9193306236D
:1039B8000E9301F0FFFF072807D041F288320EA9C5
:1039C80007F1100006F0ACFA30B1012387F85C303B
:1039D80001202AB0BDE8F08D02234FF0000B4FF410
:1039E800800C08AA0EA907F110000B94CDF85C8092
:1039F800CDE9083310230A9305230E9341F2883347
:103A0800CDE90CBC06F022FC0028DED141F2883258
:103A180007F110001CA906F083FA0028D5D140232D
:103A280041F288320DF1070107F110008DF80730D7
:103A380006F0F6FA0028C8D1402305204FF0000A06
:103A48004FF4800B1C901CA902AA07F110000594E2
:103A5800CDF89480CDE902331023049341F28833E2
:103A6800CDE906AB06F0F2FB03460028ADD10520F0
:103A7800102213930EA90E9007F110000A9208AABB
:103A88001B931495CDF85C800B94CDE91533CDE9E3
:103A98001933CDE9083441F28833CDE90CAB06F08F
:103AA800D5FB002895D087F85C4091E7000000001E
:103AB8002DE9F0415E4CA4B00E46046001F07AFF97
:103AC800072800F0A680306825467168B26807C5E7
:103AD800B389284620F8043B237B94F80D80019392
:103AE80006F0FEF9D8B9019B0126E061012B514B84
:103AF800C4E9056623610CBF4FF400034FF480133B
:103B080093FAA3F3B3FA83F34FF48077013B676228
:103B1800C4E90B00281D236206F062F938B10123BD
:103B280084F85C300127384624B0BDE8F08166236C
:103B38000D90159041F2883208A90893CDE90E70CE
:103B4800CDE91000CDE91300281D06F0E9F9002899
:103B5800E5D1992341F2883208A9281D089306F077
:103B6800DFF90028DBD105231E901B9002AA1693CB
:103B78004FF08073239016A91F9310230596049382
:103B880041F288339FED267BCDE91C70CDE92100F9
:103B9800CDE90206281D8DED067B06F057FB0028AF
:103BA800BDD101992046FFF75FFE0028B7D1204616
:103BB800FFF7DEFE07460028B1D1B8F1000FB2D1F9
:103BC8004FF4807308AA16A9281D1C93EB231A9793
:103BD80016934FF440631D934FF4005319934FF419
:103BE80040431E93A023189306231B934FF0805342
:103BF8009FED0D7B23934FF04073CDE921771F9301
:103C08008DED087B06F0B6FB00288CD084F85C604C
:103C180088E7032384F85C3084E700BFAFF30080B3
:103C2800000000000000400000000000000000004C
:103C3800589E0124005000522DE9F0478CB03E4BAD
:103C48000024026800AF9A42FC62C7E90744C7E94A
:103C5800094403D03037BD46BDE8F087374B40F6FE
:103C680009213748EA46D3F8D42007F11405354E20
:103C780007F11A0842F48042C3F8D420D3F8D420BC
:103C880002F480423A603A68D3F8E02042F04002F9
:103C9800C3F8E020D3F8E02002F040027A607A68A6
:103CA800D3F8E02042F02002C3F8E020D3F8E02067
:103CB80002F02002BA60BA68D3F8E02042F010029D
:103CC800C3F8E020D3F8E02002F01002FA60FA68A6
:103CD800D3F8E02042F00202C3F8E020D3F8E03045
:103CE800786103F0020339833B613B6956F8040F9E
:103CF80001F0E0FF8146306801F0E4FF0223F8613B
:103D080007F11C014846C7E908340323BB6215F8CC
:103D1800013BFB6203F0BCFF4545E7D100225C2074
:103D2800114602F053FF5C2002F080FF3037D54681
:103D3800BD46BDE8F08700BF00500052004402585D
:103D48000A0A0909B49E0124114B02689A4200D05C
:103D58007047104A70B5D2F8D4300F4C23F4804322
:103D680004F11806C2F8D43054F8040F01F0A2FF89
:103D78000546206801F0A6FF0146284604F080F9B0
:103D8800B442F1D15C20BDE8704002F05DBF00BFD5
:103D98000050005200440258B49E0124014806F025
:103DA80073BB00BF689E0124074B1A1D03F1020C68
:103DB800981D03F108019A6603F10A02C3E9183C49
:103DC800C3E91B015A677047589E01242DE9F04149
:103DD800821D05468AB0031D05F10A010830CDE9A8
:103DE800052305F10C02AB69CDE907010992002B07
:103DF8003AD0EF69B7FA87F77F090123022205AEA7
:103E08004FF006080393CDE9012356F8044B2B79AC
:103E18002278934216D02B68EBB1012B02D1EAB17C
:103E28000A230493204601F04DFF0090204601F03C
:103E380041FF694603F02CFF0AAB9E42E5D10AB068
:103E4800BDE8F081697963789942E4D1002FF3D015
:103E58002B68002BE1D1CDF81080E3E76378022BC3
:103E68000CBF08230A23DCE70127C6E7AE49024650
:103E780003688B4200B58DB000F08A8020318B42F8
:103E880000F08680A9498B4204D020318B4201D0B2
:103E98000DB000BDA64B0092D3F8E010A54841F044
:103EA8000101C3F8E010D3F8E01001F00101079117
:103EB8000799D3F8E01041F00801C3F8E010D3F8EF
:103EC800E01001F0080108910899D3F8E01041F0DA
:103ED8004001C3F8E010D3F8E01001F04001099167
:103EE8000999D3F8F01041F40001C3F8F010D3F8A1
:103EF800F01001F400010A910A99FFF767FF8C4B53
:103F0800009AD3F8D800D2F800C08B4940F00102DB
:103F1800D1F85C02C3F8D820D3F8D83003F00103F5
:103F28000B93824B0B9A9C4500F0BB80D1F88032F2
:103F3800013B18BF01239A01002840F0E1807F4827
:103F480001F22C434FF0580C01F54771C1F81001EC
:103F58000020019100935862C3E901C24FF4806CBC
:103F68004FF48052C3E9030C5A614FF4804C4FF46C
:103F780080721846C3E906C24FF400321A6202F092
:103F8800CFFFDDE90031002800F0A180FFBEFEE789
:103F9800674B0092D3F8E010674841F00101C3F87D
:103FA800E010D3F8E01001F0010102910299D3F872
:103FB800E01041F01001C3F8E010D3F8E01001F070
:103FC800100103910399D3F8E01041F04001C3F8C0
:103FD800E010D3F8E01001F0400104910499D3F8FF
:103FE800F01041F48001C3F8F010D3F8F01001F498
:103FF800800105910599FFF7E9FE4D4B009AD3F82A
:10400800D810D2F800E041F00101DFF81CC14A489D
:10401800C3F8D810E645D3F8D830026803F0010396
:104028000693069B2DD0436A013B18BF01239901D3
:10403800002A5BD1414A4FF0580C00F5E873C0F8EC
:10404800D02100F1C0020020019200935862C3E918
:1040580001C14FF4806C4FF48051C3E9030C5961DE
:104068004FF4804C4FF480711846C3E906C14FF4F1
:104078000031196202F054FFDDE9003210B3FFBECF
:10408800FEE7036A013B18BF0123990122BB2C4AB2
:104098004FF0570C00F5AC73C0F8582100F1280216
:1040A800D1E7D1F87C32013B18BF01239A0188BBC4
:1040B800234801F56D734FF0570C01F52171C1F8D4
:1040C800300145E7C2E920339A630DB000BDC1E96C
:1040D800203399630DB000BD1A4A4FF0590C00F512
:1040E800AC73C0F8582100F12802ACE7164A4FF02B
:1040F8005A0C00F5E873C0F8D02100F1C002A2E71D
:10410800114801F22C434FF05A0C01F54771C1F8E0
:1041180010011DE70B4801F56D734FF0590C01F5BF
:104128002171C1F8300113E704580140045C0140D3
:10413800004402582CA10124D09E012428000240EA
:10414800100002405800024070000240014803F08D
:104158003DBA00BF28A00124014803F037BA00BFC8
:10416800A0A00124014803F031BA00BF84A20124B1
:10417800014803F02BBA00BFFCA201241A4A0368C5
:10418800934200B509D02032934206D0174A934291
:1041980015D02032934212D000BD154B0022D3F81F
:1041A80054E2C3F85822BEF1000FF5D0D3F8480204
:1041B800D3E9931273465DF804EB520818470C4B89
:1041C8000022D3F8B0E4C3F8B424BEF1000FE3D062
:1041D800D3F8AC24D3F8A814D3F8A404520873462F
:1041E8005DF804EB184700BF04580140045C014027
:1041F800D09E0124184A0368934200B509D02032A2
:10420800934206D0154A934216D02032934213D0D7
:1042180000BD134BD3E9942E5208C3F85822BEF1BF
:10422800000FF5D0D3E99201734601EB820100EB50
:1042380082005DF804EB1847094BD3F8AC24D3F897
:10424800B0E45208C3F8B424BEF1000FE0D0D3F8AC
:10425800A814D3F8A404E7E704580140045C01401B
:10426800D09E0124000000002DE9F047D1F800C0DD
:104278004FF41777764D86B007FB0CF7BCF1010FAA
:1042880005EB0708C0F8008000F39C804FF0000998
:1042980007F512730E460C4645F803902B44C646A4
:1042A800C3F80490C8F8509265A3D3E9002366A127
:1042B800D1E90001CDE902230DEB8C03CDE904011E
:1042C8009A681B69009201930FCCAEE80F000FCCDF
:1042D800AEE80F00009A019B94E80300C8F8282074
:1042E8008EE80300C8F8C0303369042B0DD8DFE826
:1042F80003F07D87910374004FF417734BF68032F7
:1043080003FB0C539A64C3F8E020B269316A002AAF
:1043180054D000294FF0010214BF032102214FF4A9
:10432800177303FB0C53C3E90B12F269716A002A75
:104338004CD1891A18BF012170694FF417730228EC
:1043480003FB0C53C3E9311206D8424B13F8009013
:10435800414B53F820309A464FF4177300223F49D7
:1043680007F1280003FB0CF3284403F1380403F198
:10437800500C03F1D0060A510C44626003F1E804C2
:104388002B445A645A6341F80C208C44CCF804201E
:10439800DA658A510E447260C3F8DC20C3F8CC2079
:1043A8000A510C4451466260C3F8F42002234A467D
:1043B80008F0D0F9002837D0FFBEFEE7891A18BFE9
:1043C8000121ACE7012006B0BDE8F08700294FF0D5
:1043D800010214BF03210221AEE74FF41773204AEC
:1043E80003FB0C539A64C3F8E0208EE74FF417736D
:1043F8004FF4FA5203FB0C539A64C3F8E02084E7A5
:104408004FF417734FF47A5203FB0C539A64C3F8B2
:10441800E0207AE74FF417734FF4FA4203FB0C538A
:104428009A64C3F8E02070E707F1C00002234A4607
:104438005146284408F08EF90028C4D0FFBEFEE794
:1044480004580140045C014024580140245C0140A8
:10445800D09E0124FC1B0108F01B0108D49E0124F6
:10446800007701000068704770B5046882B015468F
:104478000E46C4F85032C4E992129AB2069BC4F8A8
:104488005432A369012B24D0636A0192012B10D006
:10449800294604F1C00008F02BFA236A019A012B7F
:1044A8000FD0294604F1280008F022FA002002B0B3
:1044B80070BD04F1C00008F0A1FA236A019A012B2B
:1044C800EFD1314604F1280008F098FA002002B034
:1044D80070BD236A0192012B10D0294604F12800EF
:1044E80008F006FA636A019A012B0FD0294604F1F5
:1044F800C00008F0FDF9002002B070BD04F12800EA
:1045080008F07CFA636A019A012BEFD1314604F175
:10451800C00008F073FA002002B070BD03681B6980
:10452800042B05D8044A02EB830393ED000A704775
:104538009FED020A704700BFDC1B010800803B4763
:104548000368D3F858027047204B02680169F0B538
:10455800D3F88C5083B0C368ADB25D1BB2B1A94229
:1045680014D082680446174602EB010010D2691A7B
:10457800CDE9000100F0C0FF0023DDE90001D4E926
:104588000062B047E3682561AB421AD003B0F0BDC2
:10459800591ACDE9001000F0AFFF0023D4E90062FA
:1045A800DDE90010B0472946384600F0A5FF002392
:1045B8003846626829462668B047E3682561AB42F9
:1045C800E4D10023236103B0F0BD00BF0000024026
:1045D8002DE9F0470446884691461E4600F1340509
:1045E800284608F0C1FD2028FAD10023C4E9323357
:1045F800C4E93533C4F8DC30C4F8E430C4F84431D5
:10460800C4F85431C4F85C31C4E953334FF48063BF
:10461800C4F8D030C4F848314FF44033C4F8E0301F
:10462800C4F85831414BC4F8C03003F57A73C4F864
:1046380038314023C4F84031E369072B0BD8DFE851
:1046480003F00460444B5259676E2923C4F8C43000
:104658002A23C4F83C3104F59C77384602F060FC04
:1046680008B1FFBEFEE7C4F8A870C4F87051EFF3B4
:1046780010839A4672B62E4A94F91C302D4F137047
:10468800089B2D4C3B60099B23600EB11846B04730
:104698001FFA89F24146284608F024FB28B9BAF1E6
:1046A800000F00D162B6BDE8F087FF23204A1370DF
:1046B80000233B602360089B13B1012109989847A8
:1046C8000120BAF1000FEED1ECE72D23C4F8C43075
:1046D8002E23C4F83C31BEE73F23C4F8C43040233E
:1046E800C4F83C31B7E74123C4F8C4304223C4F8C6
:1046F8003C31B0E74723C4F8C4304823C4F83C3100
:10470800A9E72B23C4F8C4302C23C4F83C31A2E712
:104718004F23C4F8C4305023C4F83C319BE75123DD
:10472800C4F8C4305223C4F83C3194E788000240EE
:1047380090A301248CA3012488A301242DE9F04728
:104748000446884691461E4600F13405284608F07E
:104758000BFD2028FAD10023C4E93233C4E93533EC
:10476800C4F8DC30C4F8E430C4F84431C4F8543137
:10477800C4F85C31C4E953334FF48063C4F8D030D3
:10478800C4F848314FF44033C4F8E030C4F8583125
:10479800414BC4F8C03003F57A73C4F8383140236C
:1047A800C4F84031E369072B0BD8DFE803F0046055
:1047B800444B5259676E2923C4F8C4302A23C4F8DD
:1047C8003C3104F1C007384602F0AAFB08B1FFBE2D
:1047D800FEE7C4F8AC70C4F8F850EFF310839A46BB
:1047E80072B62E4A94F91C302D4F1370089B2D4C2D
:1047F8003B60099B23600EB11846B0471FFA89F247
:104808004146284608F0BAFA28B9BAF1000F00D193
:1048180062B6BDE8F087FF23204A137000233B608F
:104828002360089B13B10121099898470120BAF128
:10483800000FEED1ECE72D23C4F8C4302E23C4F8C2
:104848003C31BEE73F23C4F8C4304023C4F83C31B0
:10485800B7E74123C4F8C4304223C4F83C31B0E779
:104868004723C4F8C4304823C4F83C31A9E72B23B4
:10487800C4F8C4302C23C4F83C31A2E74F23C4F851
:10488800C4305023C4F83C319BE75123C4F8C430EA
:104898005223C4F83C3194E78800024090A30124D5
:1048A8008CA3012488A30124F0B585B0EFF310860A
:1048B80072B6002947D1FF23254A264C2370136876
:1048C80023B100201060244A1068984723781B06FB
:1048D80026D5224F0025224C05E001351C3407F56A
:1048E800D877092D1CD0A369012B1DD0002BF4D13A
:1048F800216838460029F0D02269E368039262698A
:104908000192039A00922289FFF718FF0028E4D148
:10491800C5EBC505124A02EB850342F8250058602D
:1049280006B962B605B0F0BD61680029D5D06369E3
:104938003846019323690093E3682289FFF748FE0C
:104948000028CAD1E4E7039109F008F90399B2E70E
:104958008CA3012490A3012488A30124C8A30124C3
:10496800E8C00024F0B50346002189B002201A7E71
:1049780005910B2ACDE90301D9694FEA410426467E
:1049880025D1997E0B2902D1002009B0F0BDDFF8AE
:1049980044C1721C4E485CF8222090F800C092F87E
:1049A80000E0DC7EF445264668D071457CD092F85C
:1049B80003E0F44573D0714500F0828092F806E078
:1049C800E64577D0714534D0012009B0F0BD4149A2
:1049D8003F4851F8241090F800C091F800E05D7E3F
:1049E800F4452F463AD072453ED091F803E0F4459D
:1049F8003FD072454DD091F806E0E64543D0724568
:104A0800E2D1CA79BA42DFD1063103F118028978B6
:104A1800019310460092069101F04CF90446009863
:104A280001F050F902A90290204603F031F9019BE8
:104A3800A7E7D179B142C7D106321A33927818461E
:104A48000093069201F036F90446009801F03AF90D
:104A580002A90290204603F01BF995E74C784578A7
:104A6800AC42C2D07245C0D191F801E0BE45BCD17C
:104A7800CBE70C794578AC42BBD1BCE74478557894
:104A8800AC4292D193E7407891F807C08445B6D1FB
:104A98009AE791F804E0BE45ADD10331B5E7147942
:104AA8004578AC4287D189E792F801E0B6457FF4B2
:104AB8007EAFC2E7407892F807C0844582D183E789
:104AC80092F804E0B6457FF479AF0332B5E700BF4A
:104AD800D4C20024E4C100247F4A0368934230B55D
:104AE8008FB000F0E580A2F54C42934200F0E280DE
:104AF80002F58062934200F0DF8002F58062934203
:104B080000F0DC8002F58062934200F0DB8002F561
:104B18004442934200F0D480A2F51C42934200F034
:104B2800D38002F58062934200F0D0806B4A9342B2
:104B380040F0CE8008256A4A4FF4D87303FB052459
:104B4800A07E01F0C7F8207E01F0C4F8E269082AC7
:104B580013D8DFE802F04B59677583919F053D0034
:104B6800604AD2F8E81041F00041C2F8E810D2F8E3
:104B7800E82002F000420792079A2046FFF7F2FE6B
:104B8800012801D1FFBEFEE74FF4D873544ADFF87D
:104B980058E10DF1240C03FB0524E3690DEB4305F3
:104BA800BEE80F00ACE80F00DEF800300022ACF8D9
:104BB80000301146B5F9240002F008F8E3690DEB5E
:104BC8004303B3F924000FB0BDE8304002F02EB81B
:104BD800444AD2F8F41041F00801C2F8F410D2F8AF
:104BE800F42002F008020892089AC6E73D4AD2F873
:104BF800F01041F01001C2F8F010D2F8F02002F0E5
:104C080010020092009AB8E7364AD2F8E81041F448
:104C18000031C2F8E810D2F8E82002F4003201921C
:104C2800019AAAE72F4AD2F8E81041F48021C2F885
:104C3800E810D2F8E82002F480220292029A9CE757
:104C4800284AD2F8E81041F40021C2F8E810D2F856
:104C5800E82002F400220392039A8EE7214AD2F850
:104C6800E81041F48011C2F8E810D2F8E82002F404
:104C780080120492049A80E71A4AD2F8F01041F0A0
:104C88002001C2F8F010D2F8F02002F020020592BC
:104C9800059A72E7134AD2F8E81041F08041C2F849
:104CA800E810D2F8E82002F080420692069A64E7FB
:104CB800002540E701253EE702253CE703253AE7C2
:104CC800052538E7042536E7062534E7072532E7C2
:104CD80000239B7EFFDE00BF00100140000C00583F
:104CE800C8A3012400440258D01A0108000000009B
:104CF8009FED297B2A4B002201212A484FF0FF0C07
:104D08001A819A84A3F84020A3F85C20A3F878209D
:104D1800C3F88C2080F800C083ED007BC3E9032230
:104D2800C3E90521C3E9072283ED0A7BC3E90C2106
:104D380083ED0E7BC3E91122C3E91321C3E91522D0
:104D480083ED187BC3E91A2183ED1C7BC3E91F227D
:104D5800C3E92121C3F89020A3F89420A3F8B02038
:104D6800A3F8CC20A3F8E82083ED267BC3E928210B
:104D780083ED2A7BC3E92D22C3E92F21C3E9312220
:104D880083ED347BC3E9362183ED387BC3E93B22CD
:104D9800C3E93D21704700BF00000000000000008B
:104DA800E8C0002490A30124094808B508F0B8F821
:104DB8000848037D1BB1436BDB69DB0600D408BDE3
:104DC800FFF7C2FB03481022436B1A6208BD00BFFD
:104DD800FCA30124C8A3012408B50B4808F0A0F8D7
:104DE8000A4B93F8C42122B1D3F8E421D269D20640
:104DF80000D408BD03F5D870FFF7A6FB034B1022BB
:104E0800D3F8E4311A6208BDACA50124C8A3012473
:104E180008B50B4808F084F80A4B93F8742322B1BC
:104E2800D3F89423D269D20600D408BD03F558708C
:104E3800FFF78AFB034B1022D3F894331A6208BD9C
:104E48005CA70124C8A3012408B50B4808F068F83A
:104E58000A4B93F8242522B1D3F84425D269D20607
:104E680000D408BD03F5A260FFF76EFB034B1022C8
:104E7800D3F844351A6208BD0CA90124C8A301243B
:104E880008B50B4808F04CF80A4B93F8D42622B121
:104E9800D3F8F426D269D20600D408BD03F5D86049
:104EA800FFF752FB034B1022D3F8F4361A6208BD01
:104EB800BCAA0124C8A3012408B50B4808F030F89F
:104EC8000A4B93F8842822B1D3F8A428D269D206D1
:104ED80000D408BD03F50760FFF736FB034B10222B
:104EE800D3F8A4381A6208BD6CAC0124C8A3012405
:104EF80008B50B4808F014F80A4B93F8342A22B185
:104F0800D3F8542AD269D20600D408BD03F522602A
:104F1800FFF71AFB034B1022D3F8543A1A6208BD64
:104F28001CAE0124C8A3012408B50B4807F0F8FFFC
:104F38000A4B93F8E42B22B1D3F8042CD269D20699
:104F480000D408BD03F53D60FFF7FEFA034B1022BD
:104F5800D3F8043C1A6208BDCCAF0124C8A30124CD
:104F680008B50B4807F0DCFF0A4B93F8942D22B1E3
:104F7800D3F8B42DD269D20600D408BD03F5586021
:104F8800FFF7E2FA034B1022D3F8B43D1A6208BDCA
:104F98007CB10124C8A30124EFF3108272B60C4B34
:104FA8001978090603D50AB962B67047704700B583
:104FB8001B784FF4D870074983B05BB2019200FBAD
:104FC800031002F003FB019A02B962B603B000BDF8
:104FD80090A3012488A40124EFF3108272B60C4B2D
:104FE8001978090603D50AB962B67047704700B543
:104FF8001B784FF4D870074983B05BB2019200FB6D
:10500800031002F0E3FA019A02B962B603B000BDD8
:1050180090A3012400A501240021FFF745BC00BF8F
:10502800214A036893422BD0A2F54C42934229D0DF
:1050380002F58062934227D002F58062934225D020
:1050480002F58062934223D002F54442934221D074
:10505800A2F51C4293421FD002F5806293421DD0F4
:10506800124A93421CD108224FF4D871104B01FB0D
:105078000233197D11B11846FFF766BAFFF714BC61
:105088000022F1E70122EFE70222EDE70322EBE736
:105098000422E9E70522E7E70622E5E70722E3E736
:1050A80000231B7DFFDE00BF00100140000C0058EC
:1050B800C8A30124204A0368934229D0A2F54C4290
:1050C800934227D002F58062934225D002F5806290
:1050D800934223D002F58062934221D002F54442E4
:1050E80093421FD0A2F51C4293421DD002F5806264
:1050F80093421BD0114A93421AD1082310484FF407
:10510800D87202FB0300037D03B97047FFF71CBA8E
:105118000023F3E70123F1E70223EFE70323EDE799
:105128000423EBE70523E9E70623E7E70723E5E799
:1051380000231B7DFFDE00BF00100140000C00585B
:10514800C8A301240121FFF7AFBB00BF2DE9F0413F
:10515800D1F804804FF4D874314F8E4604FB08F41C
:105168000E46B8F1080F04EB0705056005F1180CA9
:10517800BEE80F00ACE80F009EE807008CE80700C7
:1051880002D86B6A022B02D90120BDE8F0812A6A95
:10519800032AF9D8A86A0228F6D8D5F82CC0BCF199
:1051A800020FF1D8B16901301E4E8000A96356F88C
:1051B800233004F14001A86407F10C006B6404F18A
:1051C8003406194B3C4453F8223001222B64174B08
:1051D80053F82C30EB63164B53F828306B630023DD
:1051E80043500144F0194B606B650023C4E9162352
:1051F80008F0B4FC0028C7D10146F01908F008FDF2
:105208000028C1D10146F01908F052FD0028BBD191
:10521800F01908F0DDFC0028B6D12875B5E700BF05
:10522800C8A301241C1C01080C1C0108001C01084F
:10523800281C0108000000005D4B012147F61222DE
:105248005C48DFF89CC19FED587B00B5C3F8B02DD2
:10525800C3F84025C3F8F026C3F8A028C3F8502A9D
:10526800C3F8002CC3F8AC1DDFF878E1C3F83C158F
:10527800C3F8EC16C3F89C18C3F84C1AC3F8FC1B07
:10528800C3E90B12C3E97712C3E9E31203F5A66277
:10529800018882ED007B8278AEF806108EF808202F
:1052A80003F5DC6EACF806108EED007B03F5096E95
:1052B8008EED007B03F5246E83ED087B83ED747B14
:1052C80083EDE07B8EED007B03F53F6E03F55A63BB
:1052D8008EED007B83ED007B8CF80820364BDFF8E1
:1052E80008C10068A3F803105A71D9801A72ACF883
:1052F8000310324B8CF80520ACF806108CF8082007
:10530800DFF8E8C0A3F803105A71D9801A72ACF814
:1053180003102B4B8CF80520ACF806108CF80820ED
:105328004FEA104CA3F8031018805A71D9801A72EA
:1053380083F802C0234BDFF8B8E0A3F803105A71D2
:10534800D9801A72204BAEF80610A3F803108EF815
:1053580008205A71D9801A721C4B1880A3F80310C0
:105368005A71D9801A7283F802C0194B1880A3F8B1
:1053780003105A71D9801A7283F802C0154B18802D
:10538800A3F8031014485A71D9801A7283F802C01E
:10539800124BA0F803104271C1800272A3F80310E7
:1053A8005A71D9801A7200BD010000000000000087
:1053B800C8A30124D4C20024A4C200248CC200249F
:1053C800B8A3012450C2002444C20024ACA3012481
:1053D800A0A3012494A3012438C200242CC20024D1
:1053E800BCC20024C8C20024B0C2002498C2002451
:1053F80068C200243F4B00220B20D3F8D8C01146C6
:105408004CF0010C00B583B0C3F8D8C0D3F8D8C0AD
:105418000CF0010CCDF800C0DDF800C0D3F8D8C0FE
:105428004CF0020CC3F8D8C0D3F8D83003F002030C
:105438000193019B01F0CAFB0B2001F0F7FB00224E
:105448000C20114601F0C2FB0C2001F0EFFB0022FA
:105458000D20114601F0BAFB0D2001F0E7FB0022F8
:105468000E20114601F0B2FB0E2001F0DFFB0022F6
:105478000F20114601F0AAFB0F2001F0D7FB0022F4
:105488001020114601F0A2FB102001F0CFFB0022F2
:105498003C20114601F09AFB3C2001F0C7FB00229A
:1054A8001120114601F092FB112001F0BFFB0022F0
:1054B8003820114601F08AFB382001F0B7FB0022A2
:1054C8003920114601F082FB392001F0AFFB0022A0
:1054D8003A20114601F07AFB3A2001F0A7FB00229E
:1054E8003B20114601F072FB3B2003B05DF804EB52
:1054F80001F09CBB004402582031BFF34F8F0029B4
:1055080009DD20F01F00064A0144C2F85C02203081
:105518000B1A002BF9DCBFF34F8FBFF36F8F704767
:1055280000ED00E008B500F0DFFCBDE8084001F040
:1055380005BC00BF064808B503680BB102F0C8FEF9
:10554800044803681BB1BDE8084003F06FBE08BDFE
:1055580008B7012400B30124064808B503680BB155
:1055680002F0B6FE044803681BB1BDE8084003F02A
:105578005DBE08BD08B7012400B30124064808B57C
:1055880003680BB102F0A4FE044803681BB1BDE830
:10559800084003F04BBE08BD08B7012400B301243E
:1055A800364BDA6A520062D59A6A9A6A9A6A9B6A94
:1055B800180600D500BE314B9B6A990600D500BE7F
:1055C8002E4B9B6ADA0600D500BE2C4B9B6A1B0744
:1055D80000D500BE294B9B6A980700D500BE274B13
:1055E8009B6AD90700D500BE244B9B6A1A0400D5D4
:1055F80000BE224B9B6A9B0400D500BE1F4B9B6AD2
:10560800D80400D500BE1D4B9B6A190500D500BE05
:105618001A4B9B6A5A0500D500BE184B9B6A9B051E
:1056280000D500BE154B9B6AD80500D500BE134BAC
:105638009B6A990100D500BE104B9B6ADA0100D520
:1056480000BE0E4B9B6A1B0300D500BE0B4B9B6A2A
:10565800580300D500BE094B9B6A990300D500BECC
:10566800064B9B6ADA0306D400BE00BEFEE7DB6A7F
:105678009B07FAD5F8E700BEF6E700BF00ED00E0AB
:1056880000F03EBC00F042BC0A4B9B6803F1784333
:10569800B3F5003F0BD3084B986848B198680128C8
:1056A80006D09868022803D0986803207047012024
:1056B800704700BF00ED00E0000080382DE9F041A0
:1056C800CEB004464C2200210AA80CF021F8202272
:1056D800002102A80CF01CF8BC2200211EA80CF026
:1056E80017F8022004F076FA2368012B51D05249AA
:1056F800002202250192C86A504A20F00100C862BF
:10570800C820C96A01F001010191916941F4404141
:105718009161926902F440420192019B474A936960
:105728009904FCD546490224002201268B6A4FF0D1
:105738000408082723F0030323438B6205231690EC
:105748000AA818934FF48033109617941994CDF83B
:1057580054801A97CDE91B222122CDE91344CDE9C3
:105768000A2304F0B5FF00B1FEE7402329463F2293
:105778004FF480650993049002A805970895CDE930
:1057880006330323CDE9022305F0BEFA0346C8B168
:10579800FEE72A4900226B46042500928869264ABA
:1057A80040F440408861F020896901F4404100914B
:1057B800D16A41F00101D162D26A02F0010200927D
:1057C8001B68ABE74FF480324FF4805122941EA837
:1057D80046922F943394062435912197CDF8A880CA
:1057E8002C951F962396CDE92531CDE93032CDE9A8
:1057F8002D3300224FF48071CDE93B334FF4401331
:1058080043911021CDE93E2340F2271280232991AC
:10581800249334930C23CDE92742202220932B9202
:10582800084A1E9205F0B8FC00B1FEE704F0F8F94A
:105838004EB0BDE8F08100BF00040058004802588F
:10584800004402580F130F0370B584B0012401F00F
:1058580023FA4FF480764FF04052194B6846ADF862
:105868000040019200250293039601F033FA1923B0
:1058780068468DF80F408DF808304FF04043ADF87A
:105888000D6001938DF801408DF80A5001F022FA5D
:1058980002230B2268468DF80F508DF801304FF027
:1058A80062538DF808200193ADF80D408DF80A4039
:1058B80001F010FA042001F0FDF904B070BD00BF3A
:1058C8000E00010330B50C46054685B0D1E900014C
:1058D80085E8030000F0D2FAA379A3B3FFF78AFDA5
:1058E800FDF75CFE09F068FFFFF702FA23798BBB2E
:1058F80063799BB1BFF34F8FBFF36F8F2A4B0022A1
:10590800C3F85022BFF34F8FBFF36F8F5A6942F429
:1059180000325A61BFF34F8FBFF36F8F4FF0FF32E2
:105928000023002400256946204802928DF80C3097
:10593800CDE900450AF040FB1C480AF09FFB09F03E
:10594800E7FB05B030BD2846FFF7B8FE2846FFF74D
:105958007BFFC3E714480023C0F88430BFF34F8FA0
:10596800D0F8803043F6E075C3F34E3CC3F3C90E5C
:105978004FEA4C1C0CEA0501734641EA8372013B6D
:10598800C0F860225A1CF8D1ACF1200C1CF1200F91
:10599800F0D1BFF34F8F436943F480334361BFF3C2
:1059A8004F8FBFF36F8FA3E700ED00E0F8B201243B
:1059B80005F0D6BA1C4B9B6803F17842B2F5003F5C
:1059C80025D3B3F5803F20D303F16042B2F5003F01
:1059D8001FD303F15C42B2F5002F1CD303F17042D0
:1059E800B2F5902F19D303F14842B2F5803F16D390
:1059F80003F18042B2F1806F13D303F1E043B3F5B2
:105A0800000F34BF0720082070470120704700208E
:105A18007047022070470320704704207047052014
:105A280070470620704700BF00ED00E0014B0022E0
:105A38001A607047F8B20124DFF88CC082B01F4B9F
:105A48000022DCF888001E4940F47000CCF8880079
:105A58001868DFF878C040F0010018601A6118680B
:105A6800014019609A61DA611A629A62DA621A630D
:105A78005A639A63DA631A645A64196821F48021B4
:105A880019601A66D3F8DC2042F06042C3F8DC20C3
:105A9800D3F8DC300193019BDCF800306FF30F037F
:105AA800B3F1005F03D2074B0122C3F80821064B6C
:105AB8004FF000629A6002B0704700BF004402587D
:105AC8007FEDF6EA0080005100ED00E00010005C78
