:020000042400D6
:10000000000002208D07002489070024D9BA0024AB
:1000100089070024890700248907002400000000C4
:10002000000000000000000000000000890700241C
:100030008907002400000000890700245DBA00241D
:1000400089070024890700248907002489070024E0
:1000500089070024890700248907002489070024D0
:10006000890700248907002489070024DD980024DB
:10007000E9980024BD860024F59800240199002405
:10008000D1B400246D8D0024890700248907002441
:100090008907002489070024890700248907002490
:1000A0008907002489070024890700248907002480
:1000B000D9750124E5750124F1750124AD8D002465
:1000C00089070024B98D002489070024A1A30024F6
:1000D000ADA30024E1B2002411B3002449B30024ED
:1000E00089070024890700240000000089070024F4
:1000F0008907002489070024890700248907002430
:100100008907002489070024FD750124B9A3002470
:1001100081B30024B9B3002489070024890700248F
:100120008907002489070024DDA300241DA40024DE
:1001300011B50024890700248907002489070024B9
:1001400000000000000000000000000000000000AF
:10015000890700248907002489070024F1B30024BB
:10016000C58D0024890700246DBA002491BA0024AB
:1001700089070024B5BA00248907002489070024D0
:10018000890700248907002429B4002461B40024CD
:10019000C5A30024D1A300248907002489070024D3
:1001A000890700248907002489070024890700247F
:1001B0002D9500248907002489070024890700243D
:1001C0008907002489070024D1810024DD810024CF
:1001D00089070024E9810024890700248907002475
:1001E000890700248907002489070024890700243F
:1001F000890700248907002489070024890700242F
:10020000890700248907002489070024890700241E
:10021000890700248907002489070024890700240E
:1002200089070024890700248907002400000000B2
:1002300089070024890700240000000089070024A2
:1002400089070024890700248907002489070024DE
:1002500089070024890700248907002489070024CE
:1002600089070024890700248907002489070024BE
:10027000890700248907002499B4002400000000A5
:100280008907002489070024890700240000000052
:080290000000000089070024B2
:1002A000034613F8012B002AFBD1181A01387047B6
:1002B00001F0FF01102A2BDB10F0070F08D010F817
:1002C000013B013A8B422DD010F0070F42B3F6D11B
:1002D000F0B441EA012141EA014122F007047FF034
:1002E00000070023F0E80256083C85EA010586EA8B
:1002F000010685FA47F5A3FA87F586FA47F6A5FAC7
:1003000087F68EB9EED1F0BC01F0FF0102F00702D2
:1003100032B110F8013B013A83EA010313B1F8D17D
:100320000020704701387047002D06BF354603385E
:10033000073815F0010F07D1013015F4807F02BF97
:10034000013015F4C03F0130F0BC0138704700BFE8
:1003500081F0004102E000BF83F0004330B54FEA76
:1003600041044FEA430594EA050F08BF90EA020FE3
:100370001FBF54EA000C55EA020C7FEA645C7FEA76
:10038000655C00F0E2804FEA5454D4EB5555B8BF99
:100390006D420CDD2C4480EA020281EA030382EA0A
:1003A000000083EA010180EA020281EA0303362D9C
:1003B00088BF30BD11F0004F4FEA01314FF4801C6F
:1003C0004CEA113102D0404261EB410113F0004F81
:1003D0004FEA03334CEA133302D0524263EB430338
:1003E00094EA050F00F0A780A4F10104D5F1200ED6
:1003F0000DDB02FA0EFC22FA05F2801841F1000131
:1004000003FA0EF2801843FA05F359410EE0A5F104
:1004100020050EF1200E012A03FA0EFC28BF4CF035
:10042000020C43FA05F3C01851EBE37101F00045EB
:1004300007D54FF0000EDCF1000C7EEB00006EEBF8
:100440000101B1F5801F1BD3B1F5001F0CD3490882
:100450005FEA30004FEA3C0C04F101044FEA4452D9
:1004600012F5800F80F09A80BCF1004F08BF5FEA60
:10047000500C50F1000041EB045141EA050130BD40
:100480005FEA4C0C404141EB0101013C28BFB1F552
:10049000801FE9D291F0000F04BF01460020B1FA9D
:1004A00081F308BF2033A3F10B03B3F120020CDA70
:1004B0000C3208DD02F1140CC2F10C0201FA0CF04E
:1004C00021FA02F10CE002F11402D8BFC2F1200CB3
:1004D00001FA02F120FA0CFCDCBF41EA0C01904069
:1004E000E41AA2BF01EB0451294330BD6FEA0404B2
:1004F0001F3C1CDA0C340EDC04F11404C4F120029D
:1005000020FA04F001FA02F340EA030021FA04F3AE
:1005100045EA030130BDC4F10C04C4F1200220FA05
:1005200002F001FA04F340EA0300294630BD21FA43
:1005300004F0294630BD94F0000F83F4801306BF09
:1005400081F480110134013D4EE77FEA645C18BFFD
:100550007FEA655C29D094EA050F08BF90EA020F94
:1005600005D054EA000C04BF1946104630BD91EA8C
:10057000030F1EBF0021002030BD5FEA545C05D18F
:100580004000494128BF41F0004130BD14F58004CE
:100590003CBF01F5801130BD01F0004545F0FE4142
:1005A00041F470014FF0000030BD7FEA645C1ABF77
:1005B000194610467FEA655C1CBF0B46024650EAAE
:1005C000013406BF52EA033591EA030F41F40021DA
:1005D00030BD00BF90F0000F04BF0021704730B560
:1005E0004FF4806404F132044FF000054FF0000135
:1005F00050E700BF90F0000F04BF0021704730B5F6
:100600004FF4806404F1320410F0004548BF4042CA
:100610004FF000013EE700BF42004FEAE2014FEA1F
:1006200031014FEA02701FBF12F07F4393F07F4FFA
:1006300081F06051704732F07F4208BF704793F0FD
:100640007F4F04BF41F40021704730B54FF4607410
:1006500001F0004521F000411CE700BF50EA010213
:1006600008BF704730B54FF000050AE050EA0102BC
:1006700008BF704730B511F0004502D5404261EB2C
:1006800041014FF4806404F132045FEA915C3FF46D
:10069000D8AE4FF003025FEADC0C18BF03325FEA0A
:1006A000DC0C18BF033202EBDC02C2F1200300FABB
:1006B00003FC20FA02F001FA03FE40EA0E0021FAE0
:1006C00002F11444BDE600BF53B94AB9002908BF7E
:1006D00000281CBF4FF0FF314FF0FF3000F00CB886
:1006E000ADF1080C6DE904CE19F0CEF9DDF804E0A7
:1006F000DDE9022304B07047704700BF0348044B94
:10070000834202D0034B03B11847704738070020DB
:1007100038070020000000000548064B1B1AD90FBF
:1007200001EBA301491002D0034B03B118477047F6
:1007300038070020380700200000000010B5064CE4
:10074000237843B9FFF7DAFF044B13B10448AFF342
:1007500000800123237010BD380700200000000036
:100760003CAD012408B5054B1BB105490548AFF365
:100770000080BDE80840FFF7CFBF00BF00000000C9
:100780003C0700203CAD0124FEE700BF0B4A0C4BA8
:10079000934204D0D21A0B49184618F0A4F90A4A19
:1007A0000A4B934204D0D21A0021184618F056F989
:1007B00018F072F902F0CAFBFEE700BF380700200C
:1007C0000000002070AD01242855012038070020CA
:1007D0009FED4C6A00224C4BF0EE464AB0EE465A72
:1007E00003F54051F0EE465AF0EE462AB0EE462AA6
:1007F000F0EE461A13E0F4EEC16AF1EE10FA3FDCB7
:10080000F4EEC37ADFED416AF1EE10FA38DCB4EEB3
:10081000E67AF1EE10FA33DC30338B4234D0D3ED8C
:10082000016A93ED047AF4EEE56AD3ED0A3AD3ED6A
:10083000067A72EE872A93ED004AF1EE10FA9FEDE8
:10084000343AB4EEC57A9FED331A71EE841A76FE0F
:10085000A55A32EE272AF1EE10FAF4EEE43A37FE0A
:10086000055AF1EE10FAF4EEC67A73FEA44AF1EEE0
:1008700010FAB4EEC34A37FE866AF1EE10FABADD1A
:10088000303301328B42CAD1022A08DDDFED217AF2
:10089000F4EEE75AF1EE10FA03DD01207047002074
:1008A0007047DFED1A7AB4EEE75AF1EE10FAF4DC95
:1008B000DFED197AF4EEE74AF1EE10FAEDDC9FED88
:1008C000147AB4EEC76AF1EE10FAE6DCDFED137AC3
:1008D000DFED136A61EEA71AF4EEE61AF1EE10FAF4
:1008E000DBDC22EE272AB4EEE62AF1EE10FAD4DCA5
:1008F00062EEA72AF4EEC72AF1EE10FACCBF01206F
:10090000002070470000000000EE14C017B7D13976
:1009100017B7513952491D3ACDCC4C3D0000803BB0
:1009200082A8FB38144B15481B78154A012B0CBFC5
:10093000144B154B10B4D3E9004104601160134A05
:100940001348D3E9024111601A69124904600A6030
:1009500003F11402104824331049F7EE007AB2EC88
:10096000017A9A42A0EC017A77EEC77AE1EC017A3B
:10097000F3D110BC704700BFA00800200809002078
:10098000040900203000002058000020FC0800204E
:1009900000090020F8080020840700208C000020B7
:1009A00090ED006AF6EE081A9FED4A2A90ED043A9F
:1009B000D0ED052A26EE026A90ED074A9FED460A21
:1009C00062EEA12AD0ED016A24EE214A23EE003A1C
:1009D000DFED421A91ED000A66EE826A90ED027A2E
:1009E000A0EE216A91ED010ADFED3D5AE0EE216AA9
:1009F000D0ED037AD0ED063A27EE257AD0ED0A0A3B
:100A000067EEA57AD0ED084A63EE823A90ED095A76
:100A10009FED342A64EEA54A9FED331A25EE255A40
:100A200091ED040A60EE815AF5EE000A2DED028B7D
:100A300081ED006A91ED026AC1ED016AD1ED036AB0
:100A4000A6EE027A91ED066AE6EE827AD1ED076AA9
:100A5000E6EE213A91ED058AB0EE446ADFED231A05
:100A6000E8EE202A81ED027AA6EEA06A91ED087ADE
:100A7000F0EE646AC1ED037ADFED1D7AC1ED063A4E
:100A8000E7EE026AC1ED052AB0EE457AA0EE273AFC
:100A9000D1ED097A91ED0A0AA7EE827A81ED076A13
:100AA000F0EE657AE0EE217A81ED043AC1ED086A54
:100AB00081ED097A91ED0B7ABDEC028BC1ED0A7ADA
:100AC000D0ED0B7A67EE817AE7EE217AC1ED0B7AF1
:100AD000704700BF6666263F3333333F3333B33E40
:100AE000CDCC0C3F6666E63E9A99593F9A99193EDD
:100AF0009A99993E00210448044B4FF440520160FA
:100B00000348196017F0AABFD4080020D0080020BD
:100B100000EE14C0F0B5114E8646114B3468114FEB
:100B200004EB440201343D6803EB021C6342E4B26F
:100B3000DBB258BF5C42FF2DBEE80F00ACE80F00EF
:100B4000BEE80F00ACE80F009EE80F0034608CE8B0
:100B50000F0001DC01353D60F0BD00BFD40800206E
:100B600000EE14C0D0080020DFED227A90ED007A6C
:100B7000B4EEE77AF1EE10FA08DC9FED1F7AD0EDC3
:100B8000016AF4EEC76AF1EE10FA28DD0123DFED09
:100B9000197A90ED047AB4EEE77AF1EE10FA08DCF7
:100BA000DFED167A90ED0A7AB4EEE77AF1EE10FAFC
:100BB00001DD01207047DFED127A90ED057AB4EE89
:100BC000E77AF1EE10FAF4DC90ED077AB4EEE77A0A
:100BD000F1EE10FAD4BF184643F00100704790EDD3
:100BE000067AB4EEE77AF1EE10FACCBF01230023C7
:100BF000CDE700BF17B7513AA69BC43ACDCC4C3DC8
:100C00006F12833A032800F20881874B1968FF2985
:100C100040F30481DFED850A2DE9F047844FB0EE03
:100C2000600AB0EE604A8AB0F0EE604A0026F0EE4C
:100C3000603A3B4607F54052D3ED017A303353ED2D
:100C4000016AF4EEC07A13ED0C7A9FED7A6A53EDE7
:100C5000065A73EE873AF1EE10FA13ED085AF4EEE5
:100C6000E06A9FED753A74EEA54A37FE800A34EECD
:100C7000054AF1EE10FAB4EEC67A76FEA00AF1EE5D
:100C800010FA10DCF4EEC37AF1EE10FA0BDCF4EE9D
:100C9000C65ADFED6A7AF1EE10FA04DCB4EEE75AD8
:100CA000F1EE10FA00DD01369342C5D1DFED647A32
:100CB000814663EEA73A64EEA74A24EE274ACDEDBB
:100CC000093ACDED084A8DED074AFFF781FD9DED0C
:100CD000074ADDED084ADDED093A002874D0594B8A
:100CE000594D53F82920594B92461C6809EBC9030A
:100CF00005EBC3356342E4B2DBB258BF5C4202EBA2
:100D0000420304F5807805EB033563425FFA84FC07
:100D1000AE4604F10104DBB205F1300558BFC3F162
:100D2000000CA0450CEB4C0C07EB0C1CBCE80F00B6
:100D3000AEE80F00BCE80F00AEE80F009CE80F0023
:100D40008EE80F00E1D10AF10103414981FB032143
:100D5000DA17C2EBA1023F4902EB4202A3EBC20346
:100D6000384A42F8293051F82920172A02DC01328A
:100D700041F82920DFED387A33469FED387A49462D
:100D800024EE274A364860EE870A64EEA74A63EEEF
:100D9000A73A20EE270AFDEEE00ABDEEC44AFDEEBA
:100DA000E44AFDEEE33ACDED040ABDEEC00A8DED56
:100DB000034ACDED024ACDED013A8DED000A07F070
:100DC0003DF80AB0BDE8F087DFED237A31469FEDAC
:100DD000237A63EEA73A234820EE270A24EE274A17
:100DE00064EEA74AFDEEE37A60EE870ABDEEC44AE0
:100DF00017EE903AFDEEC07AFDEEE00AFDEEE44A11
:100E00008DED014A17EE902ACDED020ACDED004A94
:100E100007F014F80AB0BDE8F08770474FF480720D
:100E2000114807F00BB800BFD008002000000000F8
:100E300000EE14C017B7513952491D3A17B7D139CE
:100E40000000803BC008002000EE02C0D408002053
:100E5000ABAAAA2AB00800200024744900007A44F2
:100E6000009F0124C49E0124A09E01240021154B53
:100E7000154A164810B51960154C164B11703022E2
:100E8000016015482160197017F0E8FD4FF07E50A1
:100E9000124A0023124C10600021124A12482360AB
:100EA0001060124C124A23601160124C1248134A0F
:100EB000236001601160124C1248134A21600360E4
:100EC000116010BD3408002038080020FC07002005
:100ED00030080020C807002000080020A0000020E3
:100EE000C40700209C00002000247449C007002093
:100EF000B8070020BC070020B4070020B00700207E
:100F0000AC070020A8070020A4070020784B90ED34
:100F1000006AD0ED016AD0ED021A90ED037A90EDEF
:100F2000042AD0ED057AD3ED002A93ED013AD3EDF2
:100F3000023A72EE862A93ED034A33EE263AD3ED57
:100F4000044A73EEA13A93ED055A34EE074A90ED48
:100F5000060A74EE824AD0ED070A35EE275A90ED64
:100F6000081AD3ED065A93ED076AD3ED086A75EEB9
:100F7000805A93ED097A36EE206AD0ED091A76EEA2
:100F8000816AD3ED0A7A90ED0A2A37EE217AC3ED11
:100F9000086A77EE827AC3ED002A83ED097A83ED41
:100FA000013AC3ED023A83ED034AC3ED044A83EDEF
:100FB000055AC3ED065A83ED076AC3ED0A7A93ED2D
:100FC0000B7AD0ED0B6AD0ED007A37EE267ADFF897
:100FD00058C1DCF8002083ED0B7A464B013293EDCB
:100FE000007ACCF80020F4EEC77AF1EE10FA01DDB9
:100FF000C3ED007A404B93ED007AF4EEC77AF1EE40
:1010000010FA01D5C3ED007A3C4BD0ED037A93ED95
:10101000007AF4EEC77AF1EE10FA01DDC3ED007A42
:10102000374B93ED007AF4EEC77AF1EE10FA01D562
:10103000C3ED007A334BD0ED017A93ED007AF4EEF4
:10104000C77AF1EE10FA01DDC3ED007A9FED2E7A3A
:10105000F4EEC77AF1EE10FA2FDDDFED2C7A90ED89
:10106000047AB4EEE77AF1EE10FA27DD2848036837
:1010700013B1CB1AB42B39D9DFF8B0C0DCF800308B
:1010800030B573B3DFF8A8E0224CDEF8005094EDE1
:10109000007A4D1B204A07EE905AF8EE677A77EEF9
:1010A000877AC4ED007A1468013414600133CEF8F5
:1010B00000100160CCF8003030BD7047DFED177ACA
:1010C00090ED077AB4EEE77AF1EE10FACEDCDFEDC0
:1010D000147A90ED057AB4EEE77AF1EE10FAC5DCF9
:1010E0007047104ADFF848E01160DFE7704700BF43
:1010F00000080020C4070020A0000020C007002036
:101100009C000020BC0700208FC2F53B295C0F3DEE
:10111000B4070020A8070020A4070020A69B443C99
:101120000AD7233CB0070020FC070020B8070020A6
:10113000AC0700203022002108B517F08FFC424A8E
:101140001268002A77DD03464049414807EE902A9D
:101150000968F7EE005A0268B8EEE76A9FED3D2A8B
:1011600091423D48C5EE866ADFF808C138BF114696
:10117000D0ED064A90ED044A8A1AD0ED033A90ED7C
:10118000023A07EE902AD0ED002A3448F8EE677A4A
:101190009FED337A90ED005A324887EE826A324AE8
:1011A000D0ED007ADCF80000D2ED005A58602F48EC
:1011B000F8EEE55A2E4A62EEA62AD0ED001A23EE8A
:1011C000263ADFF8B4C063EEA63A126877EEE17A09
:1011D0009CED001A24EE264A501E64EEA64A75EED7
:1011E000416AC3ED097AC3ED002A83ED023AC3EDEB
:1011F000086AB4EEC67AC3ED033A83ED044AC3ED40
:10120000064AF1EE10FA77FE067A8142C5EEA76A29
:1012100012D8C3ED0A5AC3ED056A83ED0B6A86EE58
:10122000277AF7EE007AB4EEE77AF1EE10FA77FE5D
:10123000877AC3ED077A08BD891A07EE101AB8EE4F
:10124000477A87EE026AE4E7FC07002030080020B6
:101250003408002000007A4400080020C407002061
:101260006F12833AC0070020B80700209C000020BE
:10127000B4070020BC070020A0000020032857D896
:10128000394B53F820301F2B00B583B067DCD1ED0C
:10129000006A9FED367AD1ED047AF4EEC76AF1EE7A
:1012A00010FA12DD9FED327AF4EEC77AF1EE10FA01
:1012B00008DCB7EE006A91ED0A7AB4EEC67AF1EE78
:1012C00010FA37DB012003B000BDD1ED015A9FEDCC
:1012D000296AF4EEC65AF1EE10FAE3DC91ED066AE3
:1012E000B4EEC76AF1EE10FADCDC91ED0A7A9FEDFC
:1012F000226A0146214867EE867A27EE067A66EE74
:10130000866AFDEEE77A65EE865ABDEEC77ACDEDC8
:10131000007AFDEEE67ABDEEE56A8DED017A17EE14
:10132000902A16EE103A06F089FD002003B000BDA9
:10133000002070479FED126AD1ED085AF4EEC65AAC
:10134000F1EE10FABEDCB3EE046AD1ED095AF4EE08
:10135000C65AF1EE10FAB5DCD1ED015AC7E70948DB
:1013600006F06CFDE1E700BFD808002017B7513A3E
:10137000A69B443B6F12033B00007A446C9F012400
:1013800017B75139509F01242DE9F043194E00EB56
:10139000400391468E4656F820405B02DFF860809D
:1013A000054604EB4402013458F8207003EB0213A5
:1013B000114A02EB030C634204F01F0403F01F0305
:1013C00058BF5C421F2FBEE80F00ACE80F00BEE81C
:1013D0000F00ACE80F009EE80F0046F825408CE8AF
:1013E0000F0002DC013748F82570044B43F82590C4
:1013F000BDE8F083E8080020001E15C09407002017
:10140000D80800202DE9F0476D4E00276D4D8EB0B5
:10141000302200216C48B246A946B84617F01EFBA0
:1014200030220021694817F019FB5AF8044B002CB0
:101430002FDD05EB070E04EB4403494664480EEB31
:10144000031E0A684B68029203938A68CB68049271
:1014500005930A694B69069207938A69CB690892DA
:1014600009930A6A4B6A0A920B938A6ACB6A0C92B6
:1014700002AA0D93544BD3ED007AB2EC017A77EEC9
:10148000877AE3EC017A8342F5D130317145D8D1C6
:10149000A04407F5C06709F5C069B7F5C05FC4D1BE
:1014A000B8F1000F7FD007EE908AB7EE007A464C75
:1014B000F8EEE77A04F13002234687EE276AD3ED8F
:1014C000007A67EE867AE3EC017A9342F7D13D4FDA
:1014D0004FF0000956F8043B002B3EDD09EB0508F0
:1014E00003EB4303384608EB03184368D0F800A029
:1014F0008168C26803934369D0F810E0CDF808A072
:101500000491D0F818A0016A05920793C269436A52
:10151000CDF818E0CDF820A0D0F828E0D0F82CA025
:10152000099202AA0A9121460B93284BCDF830E08C
:10153000CDF834A0F2EC017A0DF1380EF1EC016A2D
:1015400093ED007A724577EEE67AA7EEA77AA3ECE0
:10155000017AEFD130304045C7D109F5C06907F5B0
:10156000C067B9F5C05FB5D1184C04F13005B4ECD3
:10157000010A9FED187A20EE060AB5EE400AF1EE58
:1015800010FA14D4F1EEC07AF4EEC77AF1EE10FA44
:1015900001D5F7EE007AAC4244ED017AE7D10120A3
:1015A0000EB0BDE8F08740460EB0BDE8F0878DED87
:1015B000016A16F015FE9DED016AF0EE407AEAE749
:1015C000D8080020001E15C054070020000000208D
:1015D00084070020BD3786352DE9F047704E00277F
:1015E000302200216F48B2463D462DED028B8CB073
:1015F00017F034FA302200216B4817F02FFA5AF80E
:10160000049BB9F1000F3BDD684C09EB49086848C1
:101610003C4404EB0838A4F540514B680A68019338
:10162000CB68009203930A694B69D1F808C0049211
:1016300005930A6ACB69CDF808C00793D1F818C0A2
:101640004B6A0892CA6ACDF818C00993D1F828C02D
:101650000B926A46534BCDF828C0D3ED007AB2EC1A
:10166000017A77EE877AE3EC017A8342F5D1303163
:10167000A142D2D101F540544445CCD105EB092516
:1016800007F59027B7F5901FB9D1002D7DD007EE53
:10169000905AB7EE007A434DF8EEE77A05F1300242
:1016A0002B4687EE278AD3ED007A67EE887AE3EC43
:1016B000017A9342F7D14FF0000A56F8043B002B11
:1016C0003DDD3A4A03EB430302EB0A0808EB03391A
:1016D000A8F5405002684368C168D0F808C007699F
:1016E0004469009201938269C3690391416ACDF80C
:1016F00008C00497D0F820C0876A059406926A460D
:10170000C46A079309912946274BCDF820C00A9750
:101710000B94F2EC017A0CACF1EC016A93ED007AD7
:10172000944277EEE67AA7EEA77AA3EC017AF0D19D
:1017300030304045CED108F54058C845C8D10AF5EB
:10174000902ABAF5901FB8D1174C04F13005B4ECCB
:10175000010A9FED187A20EE080AB5EE400AF1EE74
:1017600010FA18D4F1EEC07AF4EEC77AF1EE10FA5E
:1017700001D5F7EE007AAC4244ED017AE7D10120C1
:101780000CB0BDEC028BBDE8F08728460CB0BDEC78
:10179000028BBDE8F08716F023FDF0EE407AEAE711
:1017A000B00800205407002000000020001E03C0E5
:1017B00084070020BD3786352DE9F84F234E0021E0
:1017C00006F11000334653F8042B002AC8BF01313C
:1017D0008342F8D1012903DDFFF714FE824620B9C8
:1017E0004FF0000A5046BDE8F88F19484FF05A09EB
:1017F00002F0B6FE174A1849154802F00FFFDFF84D
:101800006480B34600275BF8043B002B0EDD4546A1
:10181000002429469FED110A3A460D4802F0F6FFD2
:1018200001345BF8043C30359C42F2DB013708F5AB
:10183000C068042FE7D1B9F10109E0D10849044893
:1018400003F0E8F85046BDE8F88F00BFD808002044
:101850003440002000000020540700204260653B17
:10186000903D0020001E15C02DE9F04FDFF8BC812F
:10187000ADF5457D002308F11001424652F8040BF6
:101880000728C8BF01338A42F8D1012B03DDFFF7D7
:10189000A3FE074628B9002738460DF5457DBDE86B
:1018A000F08F5A4803F0CEFE594A5A49574804F07F
:1018B00005F8564803F0F2FED8F80820D8E90031C0
:1018C0008B42B8BF0B4623EAE3739342B8BF13467B
:1018D000D8F80C209342B8BF13469B46002BDAD0B1
:1018E000002501974C4B4D4A05FB03F3B2EB730FF8
:1018F00080F082802C4600220BEB050E4046002330
:1019000050F8041B00290DDD5F2A0DF1100C64AFA7
:1019100008DC4CF8223094FBF1F601FB164147F845
:10192000221001320133042BEAD101347445E5D190
:10193000012A67DD64AE04AF0295144607EB820A04
:10194000354606EB8209009216F036FF5AF8046D10
:1019500059F8043D90FBF4F202FB1401013C57F8E6
:101960002120012CCAF8002055F8212047F82160D9
:10197000C9F8002045F82130E6D12E46009A029D94
:10198000DFF8ACA04FF000090092CDE9025B57F8F8
:1019900004BB1E4856F8044B03F080FE0BEBCB0350
:1019A0001F4A04EB4404DB0302EB043203EB043173
:1019B000D4180AEB010529463035144803F076FEA9
:1019C000A542F8D19FED170A5946104809F10109BF
:1019D00004F03EFC009B4B45D9D1DDE9025B0135AB
:1019E000462D7FF47FAF019F084803F057FE38462D
:1019F0000DF5457DBDE8F08F462229460A4806F0E0
:101A00001DFA77E7EBD104AF64AEB9E71409002003
:101A10000000002054070020CDCCCCCC9999991916
:101A2000001E03C00AD7233BB09F0124B00800204A
:101A300000EE02C0000000001D494FF07A531D481F
:101A4000002200B5D1F800E002618EF3020C1A49C1
:101A500043618361C36103620A614B618B61CB6146
:101A60000B629FED117BC0E900CCC1E900CC80ED99
:101A7000027B124881ED027BC0E90022C0E902220C
:101A80000F49C0F810E00F48C1E90022C1E9022265
:101A9000036043608360C360C1F810E05DF804EB4D
:101AA000FEF740BFAFF30080000000000000000020
:101AB0003C0800205800002030000020204000207A
:101AC0008C0800207C0000208C4B30B51D78012D47
:101AD00000F0B280B6EE007AD1ED0A7AF4EEC77A61
:101AE000F1EE10FA00F18680B7EE007AF4EEC77AD4
:101AF000F1EE10FA40F2FE80814B9FED826A1A6986
:101B0000814C82F3020EDFED815A03EB8E0393EDDD
:101B1000005A04F11402DFF834C2DFED7D6A0023BD
:101B20007C487749012D00F1040001F104010CBF4C
:101B300010ED017A11ED017A734503F1010366EEB0
:101B4000077A05D0B4EEE67AF1EE10FA77FE266A4F
:101B500092ED007A042BE7EE257AE2EC017AECECC8
:101B6000017ADFD1012D75EE666A73D094ED057AA6
:101B700004F1180201239FED666A0021F2EC017A5C
:101B8000B4EEE77AF1EE10FA50D4F4EEC67AF1EE44
:101B900010FA37FE866A0133042BEFD1DFED5E7A4F
:101BA000B4EEE75AF1EE10FA1DDDDFED5C7AF4EEEB
:101BB000E76AF1EE10FA16DDDFED597AB4EEE77A56
:101BC000F1EE10FA0FDD37EE467ADFED567AB4EE1D
:101BD000E77AF1EE10FA06DD23688B4268D0012324
:101BE00021602361A360E3680133E360BDE8304016
:101BF000FEF798BED1ED077A9FED4B7AF4EEC77AE7
:101C0000F1EE10FA49DC9FED477AF4EEC77AF1EE77
:101C100010FA7FF571AFDFED457A91ED0B7AB4EEF6
:101C2000E77AF1EE10FA7FF567AF30BDB0EE476AA4
:101C30001946B0EE677AAEE7364B9FED3D6A1A69FA
:101C40003C4C82F3020EDFED3C5A03EB8E0393ED26
:101C5000005A5EE7DFED397AB4EEE75AF1EE10FA9A
:101C6000C1DDDFED377AF4EEE76AF1EE10FABADDA6
:101C70002268724527D06368C4F800E07345256187
:101C8000A560B0D0DFED2F7AF4EEE76AF1EE10FA3E
:101C9000A9DD724600236260A7E7DFED2B7A91EDA4
:101CA0000B7AB4EEE77AF1EE10FA7FF725AF30BD8C
:101CB000A368226901330132012BA360226192DD06
:101CC0000023616091E72169A3680131013321613B
:101CD0006168A36071450BD0DFED1A7AF4EEE76A14
:101CE000F1EE10FACCBF012102218B42D2DA7AE761
:101CF0000221FAE7D1ED077A85E700BFA0080020AE
:101D000020400020CCCCCC3E580000209A99193FAE
:101D1000000000008C0800208FC2F53ECDCCCC3DE9
:101D2000EC51B83E8FC2753D6666663F0AD7233DCB
:101D3000CDCC4C3F30000020CDCC4C3E1F856B3EBF
:101D40006F12833B8FC2F53C3333B33E7C000020DF
:101D50000138032838D8DFE800F027170C0260EEBE
:101D6000007AB0EE087A27EE800A20EE070A16F015
:101D70005FBAB5EEC00AF1EE10FA20DAF7EE087A93
:101D800020EE270A16F054BAF1EE607AB4EEE70AB4
:101D9000F1EE10FA10D4B4EEE00AF1EE10FA70FE93
:101DA000807AB0EE670A7047F7EE007AB0EEC07A3C
:101DB00037EE277AC0EE077AB0EE670A7047F0EE8A
:101DC000047A20EE270AD2E7F0EE407AF4E700BF6B
:101DD00080F30200104B114A03EB4013104910B579
:101DE000106008700F4C586899680F4A20601160A5
:101DF0000E481969D3F80CC00D4AD3F814E01160ED
:101E00000C4C1A7F0C49C0F800C098690B4BC4F801
:101E100000E008601A7010BDC0A401243C08002036
:101E200089080020DC000020E4000020E000002001
:101E3000D8000020D4000020D0000020A400002002
:101E4000DB4A0023F0B512782DED048B85B0CDE987
:101E50000033CDE902334AB1D64B1B78012B00F099
:101E60005183D54B1B78002B40F08183D34B4FF02F
:101E70007E521D6885F302050DEB85031A60DDEDCA
:101E8000007A9FEDCF7A9DED015A77EE877ADDEDEE
:101E9000025A9DED036ADFEDCB6A77EE857A77EE25
:101EA000A57A77EE867AF4EEE67AF1EE10FA0FD59F
:101EB000F7EE006A0DEB85038DED007A8DED017A6A
:101EC000F0EE667A8DED027A8DED037AC3ED006A4D
:101ED0006C466B46D3ED006A04AA86EEA77AA3ECA3
:101EE000017A9A42F6D1B84EB84AB94F35701560AA
:101EF00033783A789A4210D0B64A0021B64816F0A4
:101F0000ADFDB64A002100231160B54A1360B54A01
:101F10001360B54A136033783B70B44B9FEDA87AD9
:101F200003EB4515B24AF0EE474AB0EE476A297F07
:101F3000F0EE475AF0EE476A1170B0EE475AF4ECF3
:101F4000017A04AAD3ED011A203313ED062AA24226
:101F500053ED052AA7EEA15A13ED043AE7EE826A83
:101F600053ED033AE7EEA25A13ED024AA7EE836A55
:101F7000E7EEA34AA7EE847AE1D19E4BD3ED007A37
:101F8000F5EEC07AF1EE10FA00F19E82DFED9A3A9A
:101F9000F7EE040ADFED992AF4EEE37A9FED983A22
:101FA000DFED988AF1EE10FA73FEA77A87EEA34A66
:101FB000E4EE624AA4EE437A64EE288A64EE200AD4
:101FC000D3ED017AF5EEC07AF1EE10FA00F16D82F0
:101FD000DFED8D3A9FED8D3AF4EEE37AF1EE10FAF3
:101FE00073FEA77A87EEA38AD3ED043AF5EEC03AE2
:101FF000F1EE10FA28EE038A00F16182DFED7F7ABC
:102000009FED7D1AF4EEE73AF1EE10FA77FEA32A7F
:1020100082EEA73A23EE011AD3ED071AF0EE002A5A
:10202000D3ED057A71EEA77AE3EEA27AF5EEC07AE7
:10203000F1EE10FA00F16382F7EE002AF4EEE27A94
:10204000F1EE10FA72FEA72AD3ED033A9FED702A43
:10205000F4EEC23AF1EE10FA00F14C82DFED6D7A47
:102060009FED6D0AF4EEE73AF1EE10FA77FEA37AEF
:1020700077EEC27ADFED693A87EEA32A22EE000AF4
:10208000F5EEC01AF1EE10FA00F13182F7EE003AE7
:10209000F4EEE31AF1EE10FA73FEA13AD3ED0B7AE7
:1020A000F5EEC07AF1EE10FA00F11E82B7EE089A52
:1020B000F4EEC97AF1EE10FA79FE277AC7EE891AA2
:1020C00035EE285AF6EE007AB4EEE75AF1EE10FA41
:1020D00000F10782F1EE0C7AB4EEE75AF1EE10FA55
:1020E00037FE855A76EEA06A4D4BF6EE007A83ED08
:1020F000005A76EE886AF4EEE76AF1EE10FA00F123
:10210000ED81F2EE007AF4EEE76AF1EE10FA77FE76
:10211000A66A75EE805ADFED437A434BF4EEE75A38
:10212000C3ED006AF1EE10FA07D4DFED407AF4EE69
:10213000E75AF1EE10FA77FEA57A36EE016ADFED86
:10214000396A3B4BB4EEE66AC3ED007AF1EE10FA61
:1021500000F1C181F7EE007AB4EEE76AF1EE10FA11
:1021600077FE867ADFED336A334BF4EEE64AC3ED51
:10217000007AF1EE10FA00F19581DFED306AF4EEAD
:10218000E64AF1EE10FA36FEA46ADFED2D6A2D4B19
:10219000B4EEE67A83ED006AF1EE10FA54D4F0EE74
:1021A000006AB4EEE67AF1EE10FA76FE876A4BE04A
:1021B00011090020A0080020130900200C090020AC
:1021C0000000000017B7D138890800203C08002023
:1021D0008808002000EE0200000000C084080020F3
:1021E000400800206408002050080020C0A40124FA
:1021F000A4000020C44200200AD7A33D8FC2F53DB1
:10220000CDCCCC3D9A99993EEC51383ECDCC0C3F8B
:1022100000004843004083458FC2753E00007A4568
:10222000DC000020CDCC4C3DE40000209A99593FC1
:10223000E00000203333B33ED80000206666E63F5E
:10224000CDCC4C3ED40000203378CA4A012BC2EDDD
:10225000006A00F0BD803378022B5ED03378032B08
:1022600040F0B2809FEDC46AF6EE001A9FEDC37A8B
:10227000DFEDC36AA7EE867A9FEDC25A9FEDC26A70
:10228000DFEDC25AA7EEA65ADFEDC12AE7EE865A65
:10229000DFEDC04ADFEDC06AB1EE026AF0EE477AC8
:1022A0009FEDBE3ABE49A3EEA45ABE4AE3EEA27A1F
:1022B000BD4BB0EE657ADFEDBD4A91ED002AD2ED5F
:1022C000002AA4EE217AD3ED003AF4EEE67AF1EE9C
:1022D00010FAB4EEE65A76FEA77A67EE837AF1EE4C
:1022E00010FAB4EEC67AE2EE247A76FE856A66EEDD
:1022F000836AF1EE10FAE2EEA46A36FE076A26EE71
:10230000036AC1ED007AA3EEA46AC2ED006A83ED10
:10231000006A05B0BDEC048BF0BDB6EE007A9FED0F
:10232000A46ADFED9B4ADFEDA36AA7EE876A9FED03
:10233000A25ADFEDA22AA7EEA65A9FEDA17ADFED01
:10234000935ADFEDA06AE7EE875A9FED9F1AA3EE3E
:10235000A46A9FED9E7AF1EE047A9FED903AA3EE87
:10236000A25A9B499B4A9C4BE4EE015ADFED8F4AEF
:10237000A1EEA26A91ED002AD2ED003A93ED004A57
:10238000B4EEE66AF1EE10FAB4EEC75A76FE866A4B
:1023900066EE836AF1EE10FAF4EEE75AE2EE246A92
:1023A00037FE057A27EE037AF1EE10FAA3EEA47A4F
:1023B00077FEA57A67EE837AC1ED006AE4EE247AAF
:1023C00082ED007AC3ED007A05B0BDEC048BF0BD60
:1023D0009FED827AF0EE006A9FED816A9FED814A5F
:1023E000A7EE876ADFED805A9FED807AE3EE265AEA
:1023F000DFED704ADFED607AF6EE086AE2EE874ABA
:102400009FED715A9FED6E7AA3EE046ADFED602AAC
:10241000774AE2EE055ADFED773AD2ED001A764BB5
:102420009FED764AB4EEE76A93ED002A74489FED7B
:10243000753AF1EE10FA90ED005AF4EEE64A724960
:10244000724837FE866A26EE226AF1EE10FA91EDA6
:10245000001AF4EEC75A6E4CA1EE236A76FEA46A07
:1024600066EEA26AF1EE10FAE1EEA36A77FE257A33
:1024700067EEA27A81ED006AE2EE237A26EE847A94
:10248000C2ED006AC7EE056AC3ED007A27EE855AF1
:10249000C5EE037AC4ED006AC0ED007A05B0BDEC6C
:1024A000048BF0BDB0EE666A6FE6D3ED043A9FEDA3
:1024B000598AF5EEC03AF1EE10FA7FF59FAD9FED27
:1024C000551AB0EE413AA7E5DFED520AF0EE608A08
:1024D000B0EE604A74E5F0EE667A43E6F0EE676AC5
:1024E00017E6B0EE675AFDE5DFED4A1AE8E5DFEDE5
:1024F000493AD3E59FED470AB0EE402AC0E5DFED4B
:10250000452AA1E5444B1B78002B3FF4AFAC434B6D
:102510005D686A46424BDFED3F6A85F3020503F1D1
:102520001001F3EC017A9FED3B7AB4EEE77AF1EE1D
:1025300010FA77FE277A994276EEA76AE2EC017AE2
:10254000EFD1DFED387AF4EEE76AF1EE10FA7FF5BD
:1025500096AC4FF07E520DEB85038DED007A8DED3C
:10256000017A8DED027A8DED037A1A6087E42E4BA5
:10257000CEE700BFD0000020CDCC0C3F9A99993E09
:10258000CDCC4C3E0AD7233F666626403333B33F5B
:102590000AD7A33D8FC2753DD7A3703FCDCCCC3DAC
:1025A000B8000020B4000020000100206666663FED
:1025B000CDCCCC3EEC51383E3333333FCDCC4C3DCB
:1025C000CDCC4C4048E17A3F9A99193F8FC2753F74
:1025D000CC000020C8000020040100203333B33EAB
:1025E000AE47613E0AD7233DCDCC4C3F6666E63E02
:1025F0000C0100201F856B3F10010020DB0FC9403C
:102600001801002000007A44080100207C08002006
:102610007408002000000000120900203000002093
:102620008407002017B7D1385800002008B5244B84
:102630002449D3ED007A244A244B2DED028BB0EED1
:10264000408A91ED000A1878D2ED000A67EE887A88
:1026500027EE800AFFF77CFBDFED1D7A20EE270ACC
:1026600015F0E6FD1B4AB7EE006A1B4BD2ED006A7F
:10267000D2ED007A76EE666A93ED007A67EE807AA4
:102680001649174ABFEE000AD1ED005AE6EE887AE5
:10269000D2ED006A77EEC77AA7EEA57A67EE267AC2
:1026A00083ED007AF4EEC07AF1EE10FA05D4F4EE80
:1026B000C67AF1EE10FA36FE270ABDEC028B08BD91
:1026C000F4000020FC000020E8000020A40000200E
:1026D000CDCCAC3FF000002040080020F8000020E6
:1026E000EC000020224BD3ED007AF8EEE77A77EE8B
:1026F000C07AF5EEC07AF1EE10FA08D59FED1D7A9A
:1027000077EE877AF5EEC07AF1EE10FAF6D49FED07
:10271000197AF4EEC77AF1EE10FA08DB9FED157A1C
:1027200077EEC77AF4EEC77AF1EE10FAF6DABDEE7C
:10273000E77A114A11484BF6803C17EE103AB8EE92
:10274000C77A02EB8301013377EEC77A91ED000A75
:1027500080FB0310D917C1EBA0210CFB113302EB56
:10276000830292ED007A37EE407AA7EE270A70478F
:102770008408002000803B47000000C0F119760566
:1027800010B5454C2DED028B94ED008AF0EE408A99
:10279000B0EE480A15F0E8FA404A414BB7EE006A3D
:1027A00092ED007AD3ED007ADFED3E4AE0EE077A53
:1027B000DFED3D6A9FED3D5ADFED3D5AB0EE670A11
:1027C000FFF790FF3B4B3C4A93ED007AD2ED007A45
:1027D00030EE474AA4EE247A67EE266A83ED007A4B
:1027E000E0EE056A66EEA77AE8EEA57AF4EEC67A20
:1027F000F1EE10FA07DCBFEE006AB4EEE76AF1EE24
:1028000010FA36FE276A2D4B2D4893ED007A2D4A9B
:10281000036838EE077A2C4902EB8302DFED2B7A4E
:10282000013382ED006AB4EEE77A81FB0321DA1707
:10283000C2EBA1224BF68031F1EE10FA01FB12330C
:10284000036001DB37EE677A2149B7EE006A214A5F
:10285000BFEE000AD1ED007A92ED005A76EE674A9B
:102860001D4B67EEA67A84ED007AD3ED005AE4EEB4
:10287000A87A67EE857A67EEA57AF4EEC07AF1EE73
:1028800010FA05D4F4EEC67AF1EE10FA36FE270AF5
:10289000BDEC028B10BD00BF600800205408002072
:1028A000580800200AD7233CCDCCCC3E9A99193F3A
:1028B0006666E63E64080020C80000205C08002030
:1028C00084080020000000C0F1197605DB0FC94024
:1028D000CC00002004010020EC00002008B53D4B96
:1028E000F0EE405A9FED3C5AB7EE006A93ED000AB5
:1028F000FFF7F8FE394BF0EE403A9FED394A93ED81
:10290000000AFFF7EFFE374BF0EE406ADFED364A84
:1029100093ED000AFFF7E6FEDFED347A344B26EE46
:10292000A77A344AD3ED006AD2ED007AA3EE857A15
:10293000A0EE047A37EE664AE4EE246A66EEA77AE1
:10294000C3ED006AE5EE857AF4EEC67AF1EE10FA90
:1029500007DCBFEE006AB4EEE76AF1EE10FA36FE6D
:10296000276A254AF7EE006ADFF89CE0BFEE000A0E
:10297000D2ED007ADEED004A36EEE74ADFF88CC091
:1029800067EE877A1D489CED005A4BF6803C036841
:10299000E4EE257A1A4A1B4902EB8302013382EDE9
:1029A000006A81FB0321DA1767EEA47AC2EBA12249
:1029B00067EE857A0CFB12330360F4EEC07AF1EE19
:1029C00010FA05D4F4EEE67AF1EE10FA36FEA70A14
:1029D00008BD00BF4C080020CDCC0C3F48080020AB
:1029E0009A99193E440800208FC2F53C9A99993E65
:1029F00050080020B4000020B80000208408002007
:102A0000000000C0F119760500010020EC00002054
:102A100070B59F4C9F4EA04D2DED048B82B015F0EC
:102A2000CBFE07EE900A2378F0EE006AFAEEE07A29
:102A300096ED008ABFEE007A022BD5ED008AA7EE54
:102A4000A67A00F0F48023788DED017A032B00F054
:102A5000A180B8EE000A28EE000A15F011F9F0EE98
:102A6000409AB0EE680A15F07FF9B0EE409A38EE61
:102A7000A80A15F079F99FED896AF0EE497AF0EE2F
:102A8000086AE0EE067A28EEA60ACDED007A15F087
:102A90006BF99FED836AF1EE006ADDED007AE0EEFE
:102AA000067A28EEA60ACDED007A15F05DF9B0EEB3
:102AB000409ABBEE040A28EE000A15F0E1F89FEDFB
:102AC000796ADDED007ADFED786AE9EE067A9DED50
:102AD000017A27EE267AE7EE007A67EEA97AB0EE61
:102AE000679A9FED720A28EE000A15F03DF9F7EE9D
:102AF000007A9FED6F7A9FED6F6AE0EE077A6E4B7A
:102B0000DFED6E6A93ED007A67EE867A87EE870ACC
:102B100030EE280AB4EEE60AF1EE10FA01DB30EEF0
:102B2000660AF7EE006A237885ED000A022BC6EEEE
:102B3000877A77EE887AC6ED007A1ED02378032B49
:102B40000ED0B7EE087AF4EEC77AF1EE10FA01DB98
:102B500000233360B0EE490A02B0BDEC048B70BDB7
:102B6000B0EE087AF4EEC77AF1EE10FAF0DAB0EED1
:102B7000490A02B0BDEC048B70BDB1EE047AF4EEEC
:102B8000C77AF1EE10FAE3DAB0EE490A02B0BDEC12
:102B9000048B70BD9FED4A0A28EE000A15F070F80C
:102BA000F0EE409AB0EE680A15F0DEF8B0EE409A0A
:102BB00038EEA80A15F0D8F89FED426AF0EE497A8F
:102BC000F0EE086AE0EE067A28EEA60ACDED007A6D
:102BD00015F0CAF89FED3C6AF1EE006ADDED007A6F
:102BE000E0EE067A28EEA60ACDED007A15F0BCF8E4
:102BF000B0EE409ABAEE0E0A28EE000A15F040F840
:102C0000DFED325ADFED326A9FED326ADDED007A98
:102C10009DED017AE9EE257A27EE267A67EE867A2F
:102C2000E7EE007A67EEA97AB0EE679A59E79FED72
:102C30002A0A8DED017A28EE000A15F021F8F0EE4F
:102C4000409AB0EE680A15F08FF8B0EE409A38EE70
:102C5000A80A15F089F89FED1D6AF0EE497AF0EEAA
:102C6000086AE0EE067A28EEA60ACDED007A15F0A5
:102C70007BF8B0EE409ABAEE080A28EE000A14F08B
:102C8000FFFFDFED165ADFED166A9FED166ABDE70E
:102C900089080020680800206C080020AE47613ECB
:102CA000CDCCCC3D0AD7233DEC51383E3333333FB6
:102CB0006F12033BA0C9AC4418010020DB0FC940D0
:102CC0003333B3BE8FC2753DCDCCCC3C0AD7233C49
:102CD0008FC2F53D6666E63E8FC2F5BD0AD7A33BBF
:102CE0000AD7A33D3333B33E002A00F0AA802DE972
:102CF000F84F8A46804616460024524F524D2DED1D
:102D0000028B20E0D8F800304B4493ED008AB0EEFF
:102D1000480A4E4801F09AF92B78F3B12B78012B31
:102D200022D02B78022B7ED02B78032B00F08280D0
:102D30000134DAE90023A6424A444B4482ED008A7A
:102D400083ED008A6BD03B784FEA8409002BD9D001
:102D5000FFF75EFEB0EE408AD9E7B0EE480AFFF713
:102D600065FCB0EE408AE3E7DFF80CB1DBED008AEA
:102D7000B0EE680A14F0F8FF354BF7EE006A9FEDED
:102D8000356A93ED007A344BD3ED007AE0EE077AA2
:102D9000B0EE670AFFF7A6FC304BBFEE007AD3ED2A
:102DA000007A2F4B36EEE75A67EE807AD3ED005A61
:102DB000E5EE087A67EEA57A67EE867AF4EEC77AD2
:102DC000F1EE10FA05D4F4EEE67AF1EE10FA36FEE2
:102DD000A77A244B2448D3ED006A244A036838EECE
:102DE000A60ADFED237A02EB830222490133B4EE17
:102DF000E70A82ED008A81FB0321DA17F1EE10FA6F
:102E0000C2EBA1224BF6803101FB1233036001DBE0
:102E100030EE670AB0EE478A8BED000A88E7BDEC1A
:102E2000028BBDE8F88FB0EE480AFFF7A9FCB0EEC0
:102E3000408A7DE7B0EE480AFFF750FDB0EE408AC9
:102E400076E770477008002089080020244300209E
:102E50007C0800206666C63F80080020080100202C
:102E6000EC0000207408002084080020000000C04E
:102E7000DB0FC940F119760578080020FFF734BF51
:102E80001D4B1B68FF2BF0B587B030DDFDF7A0FCB4
:102E9000064610B9304607B0F0BD184802F0FEFBF8
:102EA000174B184D1C686342E4B2DBB258BF5C425A
:102EB00004F580776342E1B204F101040F48DBB20C
:102EC00058BF594201EB410105EB011102F0EEFB45
:102ED000A742EFD16C466846084903F0DDF80A4D79
:102EE0000FCC0FC5304623682B6007B0F0BD00261D
:102EF000304607B0F0BD00BFD00800201409002004
:102F0000D408002000EE14C08C0800200C4B1B7865
:102F10009BB902460B4900B587B0684601F0DCFB5F
:102F2000EC46DFF824E0BCE80F00AEE80F00DCF868
:102F30000030CEF8003007B000BDFFF7A1BF00BFE2
:102F4000A008002034400020204000202DE9F04F50
:102F50000021A3B0A5484FF0FF3403F07BFA002016
:102F600004F0CEFF4FF47A7008F028FEA04804F079
:102F700065FFA04D01F0A0FF9F4804F05FFF002611
:102F800002F028FA9D4804F059FF30219748B146D5
:102F900003F082F903219548274603F091F99FED4C
:102FA000980A4FF48071974800F0C8FF964801F0E6
:102FB000D7FA964802F046FB954A9649934802F0A4
:102FC0007DFC954804F03AFF2868FEF701FFDFF822
:102FD0001CA2FDF74BFFDFF8A4B2FEF72DFDFDF7B5
:102FE00089FD8E4804F02AFF2B688D4A5B018D48CD
:102FF000D15804F023FF8C497C4803F04BF98B48EF
:1030000004F01CFF2B688A4D13930B940D960894C3
:103010000C940E96CDE90944CDE91144CDE90F4455
:10302000724803F061F9714803F06AF99AF8443084
:10303000D3B1DAF86430002B40F3208309F10109A1
:10304000B9F1050FA8BF4FF000094FF0FF377948DD
:10305000494604F0F3FE0C97CDE90A77CDE90877ED
:10306000CDE91177CDE90F779AF84C3023B19AF872
:1030700052307F2B00F034836F4B139A6F496148B5
:103080001A6001F04BF98046002840F0F98008F002
:1030900093FD0D9B0446C31A1D2B3ED9554A684B20
:1030A0001068684A1B781278012B0D92664A92F8D4
:1030B000008000F05084654A1168D2E901CED268E0
:1030C000149115920C9A914500F08884420154495C
:1030D00089585F4A12780892002B40F06A845D4E4E
:1030E000149A159F099211930F90CDE90ACE0B9B6C
:1030F00032464846059704930A9B0393099B029323
:10310000089B01930D9B0093434602F06FF90D9BC2
:10311000CDF840801293CDE90C9408F04DFD0E9B44
:103120000446C31AB3F57A7FFFF47AAF314B3C4AB9
:103130001B6849485B01494E0078D358404A1593B3
:10314000DBF8103011781493454B3B4A1B6812682A
:103150000E93444B3668D3F800E03A4B93F8008066
:10316000002900F08682012940F09C843E4B3F49B3
:1031700093F800C00E9B00900393149B3C48CDF83D
:1031800010E0CDE90163CDE9058C159B04F056FEF6
:103190002B4BDFED385A1B78012B00F0F8839BEDA9
:1031A000007ADBED016A27EE257A9BED026A66EE76
:1031B000A56ADBED037A26EE256ABDEEC77ADFED60
:1031C0002D5ABDEEC66AFDEEE66A17EE101A67EEDE
:1031D000A57A294816EE103A16EE902AFDEEE77A07
:1031E000CDED007A04F02AFE0E9419E7B8670020AE
:1031F000E89F01243C08002000A001241CA0012419
:1032000000803B4724430020344000201409002064
:10321000000000205407002038A0012454A00124FD
:10322000C0A4012460A001247D2E00246CA00124F0
:10323000C44200207CA001240C090020F44200209C
:10324000A00800201109002010090020D808002043
:1032500013090020D49F012438080020FC07002017
:10326000040900200009002012090020E09F012429
:10327000E4A2012400007A4444A301242040002059
:10328000CD49CE48FDF78CFB95ED007AB5EEC07ABE
:10329000F1EE10FA00F1DC83F7EE007AB4EEE77A93
:1032A000F1EE10FA77FE877A95ED017AC5ED007A96
:1032B000B5EEC07AF1EE10FA00F1C783F7EE007AAE
:1032C000B4EEE77AF1EE10FA77FE877A95ED027A9E
:1032D000C5ED017AB5EEC07AF1EE10FA00F1B283D5
:1032E000F7EE007AB4EEE77AF1EE10FA77FE877A1D
:1032F00095ED037AC5ED027AB5EEC07AF1EE10FADB
:1033000000F19D83DFEDAE7AB4EEE77AF1EE10FACC
:1033100077FE877A95ED047AC5ED037AB5EEC07A2B
:10332000F1EE10FA00F18883F1EE047AB4EEE77A58
:10333000F1EE10FA77FE877A95ED057AC5ED047AFD
:10334000B5EEC07AF1EE10FA00F17383F2EE047A72
:10335000B4EEE77AF1EE10FA77FE877A95ED067A09
:10336000C5ED057AB5EEC07AF1EE10FA00F13383BF
:10337000F7EE007AB4EEE77AF1EE10FA77FE877A8C
:1033800095ED077AC5ED067AB5EEC07AF1EE10FA42
:1033900000F11E83F7EE007AB4EEE77AF1EE10FA50
:1033A00077FE877A95ED087AC5ED077AB5EEC07A93
:1033B000F1EE10FA00F10983F7EE007AB4EEE77A45
:1033C000F1EE10FA77FE877A95ED097AC5ED087A65
:1033D000B5EEC07AF1EE10FA00F1F482DFED797A01
:1033E000B4EEE77AF1EE10FA77FE877A95ED0A7A75
:1033F000C5ED097AB5EEC07AF1EE10FA00F1DF8280
:10340000F2EE007AB4EEE77AF1EE10FA77FE877A00
:1034100095ED0B7AC5ED0A7AB5EEC07AF1EE10FAA9
:1034200000F1CA82F0EE007AB4EEE77AF1EE10FA1B
:1034300077FE877A6048C5ED0B7AFDF76BFB08F0E5
:10344000BBFB614B06461B78002B00F023815F4BD2
:103450001B78012B00F05483DFED5D7A95ED007A47
:103460005C4BB4EEE77A1C78F1EE10FA00F3DC80E6
:103470009FED597AD5ED016AF4EEC76AF1EE10FAC4
:1034800000F3D28095ED067AB4EEE77AF1EE10FA09
:1034900000F3CA80002C38D0504B1B68F31A642B01
:1034A00040F2DE804E4B40F28A221B68F31A9342B0
:1034B00094BF4FF000084FF0010816A80124FDF753
:1034C00039FE484B0DF1580EDFF858C11C70464BC1
:1034D0001B681493BEE80F00ACE80F00BEE80F00B5
:1034E000ACE80F009EE80F008CE80F00149B022B45
:1034F00009DD354B1B78002B00F01583334B1B780F
:10350000002B00F03283FDF7B1FCFEF799FC374B3E
:103510009FED377A93ED004A364A374B24EE074A3F
:10352000D2ED004A354A93ED006A64EE874ADFED3A
:10353000347AD2ED006A334AA6EE274A26EE875A3D
:10354000D2ED005A304A65EE875AD2ED006A2F4A12
:1035500026EE876A83ED004AD2ED006A2C4B26EEF8
:10356000877AF0EE646A93ED004AE4EE276AC3EDD1
:10357000006AF0EE456A274BD3ED004AE4EEA76AF5
:10358000C3ED006AF0EE656A234B93ED005AE5EE59
:10359000276AC3ED006AF0EE466A204BD3ED005A6D
:1035A000E5EEA76AC3ED006A1D4BD3ED006AA6EEF7
:1035B000A77A83ED007A6AE5C4420020F442002035
:1035C00000409C450024F44810090020A008002079
:1035D000A69B443B38080020A69BC43B3008002033
:1035E00034080020C8070020FC070020E400002069
:1035F000CDCC0C3FE0000020FC000020DC000020CF
:103600006666E63ED8000020D4000020D0000020EE
:10361000F8000020F4000020F0000020EC00002062
:10362000E8000020CC070020002C00F01482994B09
:10363000314699481E60FDF769FC984B1B7853B1E1
:10364000974B1B783BB9974B1B7823B1964B1B6864
:10365000022B00F30783954B1B78002B3FF455AFEB
:10366000934B40F28A221B68F31A93423FF625AF30
:103670004BE790498B4B93F800C07BE53FF4F4ACEB
:10368000B9F1010948BF4FF00409DEE48A4B18681C
:10369000FDF7B8FA814B1B78002B3FF4DDAE804B71
:1036A0001B78012B7FF4D8AE844B1B78002B3FF4A2
:1036B000D3AE834A1368F31ADB2B7FF6CDAE764880
:1036C0001660FDF751FA00283FF4C6AEFFF7D8FBAD
:1036D00000283FF4C1AE70490120FEF7F5F9BBE6C2
:1036E000B9F1040F30D8DFE819F03B001D01B60036
:1036F000890005006A4B1B78012B0CBF6F4B694B8F
:103700001B78002B00F0F082644A137883F00103E9
:10371000137013B100236B4A1370FEF78DF9FDF798
:10372000A5FB0021684B4FF4405268481960684B74
:10373000196015F093F9594B1B78002B00F0D282D9
:103740006449654804F07AFB4FF0FF37CDE90A770A
:10375000CDE90877CDE91177CDE90F770C978BE4A8
:10376000139A4E4B01321978534202F0030203F0D0
:10377000030358BF5A42504B13921A6049B1484B49
:103780001B78012B0CBF4D4B464B1B78002B40F098
:10379000BB82139B514C23EAE372514B51491A608F
:1037A00004EB42130A705A684F490A609A684F49FD
:1037B0000A60DA684E490A601A694E490A605A6915
:1037C0004D490A609A694D491B7F0A604C4A137043
:1037D000FEF732F9384B4B481B685B01E15804F0A7
:1037E0002DFBFDF743FB0021374B4FF44052374888
:1037F0001960374B196015F031F9A5E7284B1C7893
:10380000012C00F03A82404B002153F8042B002A8F
:103810003E4AC8BF01319A42F7D1012940F35E8286
:10382000002C40F03682FDF7C7FF002800F07882B8
:10383000244B1C4A1C70012335491370174A354824
:10384000137001F033F9FDF711FBFEF7F5F832487C
:1038500004F0F4FA78E71B4A137883F0010313703D
:10386000002B00F09D8100230C4A1370FEF7E4F852
:10387000FDF7FCFAFDF73EF908F09EF9274B174AD1
:1038800018600D4B264819684B01D25804F0D6FA3F
:103890005AE700BF30080020C44200201109002070
:1038A000A008002013090020FC0700203808002091
:1038B00034080020D49F01240C09002012090020A4
:1038C000A408002010090020D408002000EE14C035
:1038D000D0080020A8A0012408A20124C0A401242B
:1038E0003C08002089080020DC000020E4000020C3
:1038F000E0000020D8000020D4000020D0000020EC
:10390000A4000020ACA00124D8080020E808002072
:10391000903D00203440002040A10124A808002050
:10392000E8A00124A94A1378002B40F0418101232B
:10393000A749A8481370A84A01F0C0FFA54801F0A4
:10394000ADFEFEF779F8FDF791FAFDF7D3F8A3483D
:1039500004F074FAF8E6A2490B68D1F80CE014936D
:10396000D1E901260C99894500F09E80149B774689
:103970000F9009934301CDE90A269A4A9A4ED158ED
:103980009A4B1B78089301231193FFF7B0BB984B18
:1039900093ED007AD3ED016A27EE257A93ED026A62
:1039A00066EEA56AD3ED037A26EE256ABDEEC77AE8
:1039B00005E48D4EFFF794BBDFED8E7A3AE5DFED3F
:1039C0008D7A25E5DFED8B7A10E5DFED8A7AFBE471
:1039D000DFED887AE6E4DFED877AD1E40F9A824260
:1039E0007FF474AB109A90457FF470AB119A9342B8
:1039F0007FF46CAB129A0D9991427FF467AB7E4ACB
:103A00000899127891427FF461AB149A09998A421D
:103A10007FF45CABDDE90A218E4508BF94457FF455
:103A200055AB159ABA4208BF0D947FF44FABFFF720
:103A300074BBDFED707A91E4DFED6E7A7CE4DFED4C
:103A40006D7A67E4DFED6B7A52E4DFED6A7A3DE48C
:103A5000DFED687A28E4694B2146694A1E60694BAC
:103A600069481C6001231370302214F0F7FF674B84
:103A7000674A1C60674B1C60674B1C60674B1C608F
:103A8000674B1C604FF07E5313600023654A136040
:103A9000654A1360654A1360654A1360654B664A60
:103AA0001360C4E55049E5E50F9981427FF45EAFAC
:103AB000109988457FF45AAF119901297FF456AFC8
:103AC00012990D9B8B427FF451AF484991F800C089
:103AD000089961457FF44AAF0999149B8B427FF4A2
:103AE00045AFDDE90A139E4208BF8A427FF43EAF2C
:103AF000BE457FF43BAF01230D941193FFF70DBB3F
:103B00004E4A1368C31AB3F5E17F06D310604C48E0
:103B1000FDF72AF800287FF4B9AD4A4B1B78002B3B
:103B20007FF4C2AD98E4474B1B78002B3FF4EBAC1D
:103B3000264B1B78002B7FF4E6AC2F4B1B78002B19
:103B40003FF4E1AC16A8FFF7E1F916A92046FDF70E
:103B5000BBFF2C4B3C4ACDF80080DBF810101B68F3
:103B600012683A4804F06AF9CDE4394C16A9324695
:103B70002068FDF783FB2168002800F0B9803246F9
:103B8000084616A9FDF700FC1E4B21681A68314B48
:103B9000314853F82130CDF8008004F04FF9B2E4F9
:103BA000FDF764F9FCF7A6FF2C4804F047F9CBE5D4
:103BB0000023064A1370FDF73FFFFDF757F9FCF7A6
:103BC00099FF274804F03AF9BEE500BFA00800209D
:103BD000540700201409002000000020C0A0012488
:103BE000B0080020C0A40124E09F01241209002095
:103BF0008C08002000000000130900203408002079
:103C000038080020FC07002000080020B80700202A
:103C1000A0000020B4070020B0070020AC0700205F
:103C2000A4070020C4070020C0070020BC07002014
:103C3000A8070020002474499C000020A808002048
:103C4000C44200201109002004090020A0A2012480
:103C50000C090020D808002030A2012408A101246A
:103C6000D4A0012416A8FDF765FA16A8FFF74EF9AF
:103C700016A90120FDF728FFEDE42B4B002153F896
:103C8000042B072A294AC8BF01319A42F7D10129DA
:103C900024DD254A2648D36800930ECA04F0CEF8E6
:103CA000FDF7E2FD002837D00123224A2249137094
:103CB000224A234813700023224A1370224A01F03B
:103CC000FDFD1F4801F0EAFCFDF7B6FEFDF7CEF85A
:103CD000FCF710FF1D4804F0B1F835E51C4804F06E
:103CE000ADF831E51B492CE51B4804F0A7F82BE59E
:103CF0001A4B1B4A53F821301A48CDF8008012683D
:103D000004F09CF8FFF7FFBB139B174A5B011748B1
:103D1000D15804F093F864E5154804F08FF813E5E2
:103D2000144804F08BF80FE5B0080020C00800200C
:103D300090A101241209002054070020110900203D
:103D4000140900201009002000000020C4A1012453
:103D500018A10124D09F012418A20124D808002012
:103D6000FC07002068A20124C0A4012484A001242F
:103D7000F0A1012474A1012438B5554D002405F5A6
:103D8000C0702C606C612C62EC6304F0D5F8514A71
:103D90004FF48070504992ED005A504B504AD1ED8B
:103DA000005A072193ED006AC5F8392205F514720F
:103DB0004C4B85F83D12C3F8000403F58161C5F84A
:103DC000402240F201124848C5F84422002208600F
:103DD00003F20C4003F58261DFED447A026003F2E6
:103DE00014400A6003F59161026065EEA75A0A600B
:103DF00025EE275A3E4903F28C433E48D1ED007A26
:103E0000D0ED006A27EE866A9FED3B7A67EEA66AE0
:103E10003A49C5EE274A43F8884C43F8344C43F8F6
:103E2000304C43F80C4C43F8084C85EEA75A1C71F3
:103E3000334A1960334B1460C6EE075AC5F89041F7
:103E4000C5F84842C5F84C42546082F8784486EE82
:103E5000876A2D49C3ED004A2C4A2D4B2D4D2E4C1F
:103E600082ED005A2D4A2E48C5ED005A81ED006AB8
:103E700093ED005A2B492C4B27EE855AD4ED005A6E
:103E8000D3ED004A67EEA55A91ED006AD2ED006AC3
:103E900027EE866A254B67EEA66A254967EEA47A67
:103EA000244AC5EE074A85EE875AC6EE075A86EEC3
:103EB000876AC0ED004AC7EE876A83ED005A1E4B41
:103EC000C1ED005A82ED006AC3ED006A38BD00BF43
:103ED000B86700200C010020C40000201001002061
:103EE00080707F0F2463002000803B47DB0FC940B8
:103EF000180100201401002000007A4400007AC458
:103F00001439002074080020800800205C0800207C
:103F1000BC0000207C080020C0000020AC00002075
:103F200058080020B0000020A800002054080020FD
:103F30004C0800204808002044080020F8B500F58F
:103F4000005300244FF4807E00F5105C03F5816778
:103F5000002242F2604500F5125187ED000A064644
:103F60004519CCE900E403F20C4C83F89044CCF8FA
:103F7000002003F5826CCCF8002003F2144CCCF83E
:103F8000002045E90244C1E9004403F5916103F2D0
:103F90008C430A6021462A4A1A604FF4006214F0EA
:103FA0005DFD4FF400622146B01814F057FD214624
:103FB0004FF4006206F5805014F050FD21464FF496
:103FC000806206F5C05014F049FD21464FF40062AE
:103FD00006F5E05014F042FD42F21840214620223E
:103FE000301814F03BFD42F23840214620223018B0
:103FF00014F034FD284641F60445214601242022D0
:10400000751914F02BFD07EE904A9FED0E7A9FED87
:104010000E0A0134F8EEE77A67EE877A87EE800AB7
:1040200013F0A2FFB4F5807FF7EE007AB6EE007AC7
:1040300077EEC07A67EE877AE5EC017AE3D1F8BDD6
:1040400000007AC4DB0FC94000007F4300F5005335
:1040500010B593F8904482B064B9D3F80424511C8D
:1040600000EB8202C3F8041482ED000AD3F80024A6
:10407000914201D202B010BD0146920000F50060ED
:10408000019314F030FD019B0122C3F8044483F82E
:10409000902402B010BD00BF10B5144600F50052C8
:1040A00086B0D2F8000400285FD09FED446A002358
:1040B000F0EE464AF0EE466AF0EE465AF1EC017A2E
:1040C000B0EEE77AE7EEA75AB4EEE67A36EE076A84
:1040D000F1EE10FA77FE266A63B111ED027AB7EEBF
:1040E000005A67EE877AF5EEC07AF1EE10FA01D544
:1040F00074EE854A01338342E0D107EE903A013BEA
:10410000B8EEE77A07EE903A85EE870AB5EE400AF8
:10411000F1EE10FA32D4F8EEE77AC6EE075A84EEE2
:10412000A75AB1EEC06A02F20C4302F5826084ED38
:10413000006A93ED007AD0ED007A36EE477AC4ED4E
:10414000016A75EEE77A84ED025AC4ED065AB0EEC4
:10415000C77AF0EEE77A84ED057AC4ED077A83ED4D
:10416000006AC0ED005A06B010BD9FED145A85EEEE
:10417000050AF0EE456AF0EE405AD2E705928DED61
:10418000036ACDED024ACDED016A8DED007A04930C
:1041900014F026F8DDED047A9DED036AF8EEE77A77
:1041A0009DED007ADDED024AC6EE075A059ADDED77
:1041B000016A84EEA75AB0EE406AB4E7000000003E
:1041C0002DE9F84F00F500559146D5F800742DED16
:1041D0000A8B002F00F0908000F5805A00F5E05225
:1041E00001EB87045346F1EC017AB2EC017AA1426B
:1041F00067EE877AE3EC017AF5D1032F4FEA570394
:104200007AD907EE107A05F5816541F60408DFEDED
:1042100040BAB8EEC7AAD5ED007A804400F5C05088
:10422000F0EE6BAA0AEB870787EE8ACA00EB830BD6
:104230000126B0EE6BBA9FED369A55460024F0EE9B
:10424000499A07EE904A9FED337AB5EC018A3444DF
:10425000F8EEE77A67EE877AC7EE8A8AB0EE680AE8
:1042600013F082FEF0EE407AB0EE680AE8EE279A8C
:1042700013F07AFDAF42A8EE409AE2D129EE099AF6
:10428000D8ED006A07EE906AA9EEA99AF8EEE77AEF
:1042900067EE8C7AB1EEC97A77EE666AA7EE27BA36
:1042A0007AEE87AAF5EEC06AF1EE10FA01DD7BEE38
:1042B000A6BAA8EC017AD84506F10106BBD1DFED1C
:1042C000167AF4EEE7AAF1EE10FA12DD8BEE2A7AF6
:1042D00089ED037AF1EE047AF4EEE7BAF1EE10FA22
:1042E00001DDF0EE67BAC9ED04BABDEC0A8BBDE89A
:1042F000F88F9FED077AEBE7DFED05BA0023C9EDF4
:1043000004BAC9F80C30BDEC0A8BBDE8F88F00BFC9
:1043100000000000DB0FC94077CC2B3270B500F5F0
:10432000005482B094F8905415B9284602B070BD7C
:104330000A46064600F50061CDE90021FFF7ACFE14
:104340003046DDE90021FFF73BFFD4F85834009AEE
:10435000591C06EB8303D2F800E0484203F50053F2
:10436000D2F80CC001F0070100F0070058BF41422D
:1043700003F5836003F58763C0F800E0C3F800C06D
:10438000C4F85814D4F85C14072905DC013100295D
:10439000C4F85C1440F3C28042F21843DFED6B7A3C
:1043A000F318B0EE677A03EB810E9C46BCEC016A11
:1043B000DCED076AF44537EE067A77EEA67AF5D19A
:1043C00006EE901AF8EEE65ADFED606AB0EE666A25
:1043D000C7EE254A87EEA55AB3EC017AD3ED077AEA
:1043E000734537EE647A77EEC57AA7EE076AE7EE93
:1043F000A76AF1D1C6EE254A86EEA55A04F5806378
:1044000092ED016A9FED527AD3ED007A04F5816353
:10441000C2ED084AF8EE677AD3ED005A04F59163CD
:10442000B4EEC76A82ED095AC7EEA56AD3ED007AE9
:10443000D4F88414F1EE10FA76EEA76AC3ED006AA0
:104440000CDD04F214439FED437AD3ED007A76EE4F
:10445000677AF4EEC77AF1EE10FA3ADC002962DDF1
:1044600042F260430020F31803EB8101F3EC017A80
:10447000B7EE007A76EEE77AF4EEC77AF1EE10FA4C
:1044800000D801309942F1D107EE900AF8EEE77AB0
:1044900004F28C439FED307AC2ED0A7AD3ED007AB4
:1044A000F4EEC77AF1EE10FA06DD76EEE76AF5EE85
:1044B000C06AF1EE10FA3ED54FF07E53D36204F29B
:1044C00014420023284682ED006A84F8903402B03A
:1044D00070BDDFED227A92ED077AB4EEE77AF1EE65
:1044E00010FABBDDD4F88004431C00F6181006EB6C
:1044F0008000C0ED006A584203F0070300F0070097
:1045000058BF43420729C4F880340FDC013104F25C
:104510008C43C4F88414C3ED006A9FE79FED0B5AE7
:10452000F0EE454A6AE7DFED097AB1E704F28C4321
:10453000C3ED006A94E7F0EE007AF4EEE76AF1EE7C
:1045400010FA77FEA67AC2ED0B7AB8E700000000F9
:104550000AD7A33CA69B443C00C079C46F12033C1D
:104560002DE9F04107460021302214F077FA07F1D7
:10457000300307F160014FF07E5243F8042B8B4269
:10458000F9D107F5F07607F1900507F500780023DB
:10459000A5F1300446F8043B14F00EF907EE100ABA
:1045A000FEEE007A9FED1B6AB8EEC77ADFED1A6A5D
:1045B000E7EE067A67EEA67AE4EC017AAC42EBD13C
:1045C000464504F13005E2D107F5207607F5087578
:1045D00007F524770023A5F1200446F8043B14F0E6
:1045E000EBF807EE100AFEEE007A9FED0A6AB8EECD
:1045F000C77ADFED096AE7EE067A67EEA67AE4ECA1
:10460000017AAC42EBD1BE4204F12005E2D1BDE813
:10461000F08100BF00000030CDCCCC3D01F1300C6A
:1046200051F8043B9FED087A40F8043BF2EC017A24
:10463000F4EEC77AF1EE10FA01D5F7EE007A8C4568
:10464000C0ED0B7AECD17047BD37863500B5D1F897
:1046500000C08DB0D1F828E0CDF800C06B46D1F88D
:1046600004C0CDF828E0CDF804C0D1F808C0CDF8DA
:1046700008C0D1F80CC0CDF80CC0D1F810C0CDF8EE
:1046800010C0D1F814C0CDF814C0D1F818C0CDF8BE
:1046900018C0D1F81CC0CDF81CC0D1F820C0CDF88E
:1046A00020C0D1F824C0CDF824C0D1F82CC000F12E
:1046B0003001CDF82CC0B0EC017AF3EC017AD0EDEA
:1046C0000B6A884277EEC77A87EEA67AA2EC017A67
:1046D000F1D10DB000BD00BF2DE9F0410E460446FA
:1046E000114630462DED028B9CB010AAFFF7AEFFAD
:1046F00006F5F07006F1600106F5007C0DF1200E64
:10470000F0EC017A10AB0A46B3EC017A1CADF2EC86
:10471000016AAB42E6EE877AF6D1F5EEC07A9FEDFC
:104720003A7A3031F1EE10FA77FE877A6045EEEC96
:10473000017AE5D106F520706D4606F5247610A9BC
:104740006F46F0EC017A08AB6246B3EC017AF2EC0A
:10475000016A8B42E6EE877AF7D1B0420CF1200C69
:10476000E7EC017AEDD1DDED006A04AE9DED017A52
:1047700005F11008DDED027A3746B4EEE67ADDED9C
:10478000038A9FED218AF1EE10FA37FE267AF4EEC5
:10479000C77AF1EE10FA77FE877AF4EEE78AF1EE47
:1047A00010FA78FEA78AB5EC010A30EE680A13F019
:1047B00067FA454538EE008AA7EC010AF3D10023D9
:1047C000DFED116A1A4696ED007AC7EE087AF4EE2C
:1047D000E67AE6EC017AF1EE10FA02DDF0EE676AB5
:1047E0001A460133042BEED10498059B06992060EC
:1047F00020466360079B2261A160E3601CB0BDECB2
:10480000028BBDE8F08100BF000000002DE9F04FF1
:1048100004462DED048BB7B004F5F07504F1600784
:10482000B0EE408A0DF1680901922AAA009026464E
:10483000FFF70CFF04F50078CC46384612AC294649
:10484000F1EC017A2AAB0246B3EC017A0DF1D80EF5
:10485000F2EC016A7345E6EE877AF5D1F5EEC07A9F
:104860009FED6B7AECEC017A3030F1EE10FA77FEC6
:10487000877A4145E4EC017AE2D1009A40460DF195
:10488000180E1AAC02F5207A02F5247C5146F1ECA0
:10489000017A12AA8346B2EC017AFBEC016AA242C9
:1048A000E6EE877AF7D1614500F12000EEEC017A5F
:1048B000EDD1DDED066A0AA99DED077AE346DDED4F
:1048C000087AB4EEE67A9DED099A059406ACDFED20
:1048D000508AF1EE10FA0491CDE9027537FE267A7E
:1048E000F4EEC77A0D460AAFF1EE10FA77FE877A3A
:1048F000B4EEE79AF1EE10FA39FE279AB4EC010A09
:1049000030EE490A13F0BCF9BC4278EE808AA5EC7F
:10491000010AF3D10499DC46059C01F11003DDE99D
:10492000027591ED007AC7EE287AE1EC017A99429E
:10493000F7D136AA019BB7EE007A414602EB83031A
:104940000A9A0EA80E920B9A0F920C9A10920D9A38
:10495000119253ED287A77EEC77A43ED287AF0EC7E
:10496000016A12AA0B4666EE886AD3ED007AB2ECB1
:10497000017AE6EEC77AA242E3EC017AF5D1DAEDEC
:10498000007A203177EEE67AEAEC017AE245E6D168
:10499000009B22A812A903F1200C044632460EAB5C
:1049A000DFED1B7AF3EC016A203292ED787A8B42CC
:1049B000E6EE877AF6D1B9EC017AB5EEC07AF1EE7F
:1049C00010FA01DCDFED127A0436E4EC017A664578
:1049D000E4D1F0EC016A2AAA3B4666EE886AD3ED80
:1049E000007A36A9B2EC017AE6EEC77A8A42E3ECA5
:1049F000017AF4D1D5ED007A303777EEE67AE5EC3E
:104A0000017A4545E5D137B0BDEC048BBDE8F08FA8
:104A100000000000F0B50D46044600F130010346E9
:104A20002A4653F804CB42F804CB8B42D3F82CC06F
:104A3000C2F82CC0F5D104F5F07005F5F07605F15B
:104A4000600104F1900E04F5007750F804CBAEF14C
:104A500030030A4646F804CB53F804CB734542F8BA
:104A600004CBF9D1B84201F1300103F1300EECD1A1
:104A700004F5207004F5087C05F5207605F5007E28
:104A800004F5247450F8041BACF12003724646F878
:104A9000041B53F8041B634542F8041BF9D1A042E0
:104AA0000EF1200E03F1200CECD1F0BDF0B50C4658
:104AB000054630310246234653F804CB42F804CB76
:104AC0008B42D3F82CC0C2F82CC0F5D104F5F0709D
:104AD00005F5F07605F1600104F1900E04F500771C
:104AE00050F804CBAEF130030A4646F804CB53F835
:104AF00004CB734542F804CBF9D1B84201F130013F
:104B000003F1300EECD104F5207604F5087005F5BC
:104B1000207E05F5007C04F5247456F8041BA0F1F2
:104B2000200362464EF8041B53F8041B834242F8EC
:104B3000041BF9D1A6420CF1200C03F12000ECD1AA
:104B4000F0BD00BF2DE9F0471C46831882B08046B7
:104B5000F02B01EB04030F4600F1FF3AD4BF1546DA
:104B6000C0F1F005B3F5A07F01F1FF395648AA4422
:104B7000C8BFC1F5A0740021BDF8286003F0C2FED3
:104B80002A23012201A951488DF80430642305F03D
:104B900087FE01214C48A14403F0B4FE01224FEAF4
:104BA000182301A9494804FB05F58DF80430642356
:104BB00005F076FE0121444803F0A4FE642301229F
:104BC00001A942488DF8048005F06AFE01213E48A3
:104BD00003F098FE01224FEA1A2301A93B488DF801
:104BE0000430642305F05CFE0121374803F08AFE9F
:104BF0006423012201A935488DF804A005F050FE78
:104C00000021314803F07EFE2B23012201A98DF8FB
:104C1000043064232D4805F043FE01212A4803F0A7
:104C200071FE01223B0A01A928488DF80430642353
:104C300005F036FE0121244803F064FE64230122BE
:104C400001A922488DF8047005F02AFE01211E48B2
:104C500003F058FE01224FEA192301A91B488DF8E1
:104C60000430642305F01CFE0121174803F04AFEBE
:104C70006423012201A915488DF8049005F010FE67
:104C80000021114803F03EFE2C23012201A98DF8DA
:104C9000043064230D4805F003FE01210A4803F0A7
:104CA00031FE002D0CDD002476BA0134642302228B
:104CB00001A90648ADF8046005F0F2FDAC42F4D15C
:104CC00002B0BDE8F08700BFACFA0020C0FA0020B7
:104CD0002DE9F04F85B003921278002A3DD0984616
:104CE0000F460290203AD3B25F2B1D4B94BF02EBCC
:104CF000820A4FF09B0A9A44029B0AF1040B0AF1C4
:104D0000FF39A3EB0A0A19F8016F00240AEB090521
:104D100046FA04F20123E119013412F0010F28468A
:104D200014BF4246002200921A46FFF70BFF072CE1
:104D3000EED1CB45E7D123460025029C012239461E
:104D40000095601DFFF7FEFE039B13F8012F0393F0
:104D5000A31D02930AB1EA2BC4DD05B0BDE8F08FB4
:104D600040A501242DE9F04F9B46A2F1200388467F
:104D700087B0D9B20746119A05465F293B49BDF86D
:104D8000409094BF03EB83039B2305900B4403F1F6
:104D9000FF3A0433CDE903231AF8016F0024039B83
:104DA00016F0010F0CBFCC46DC46012B35D0022398
:104DB000002D08EB440128461A4615DB0134CDF8D6
:104DC00000C0FFF7BFFE072C46FA04F331D013F002
:104DD000010F4FF0020308EB4401284614BFDC46E4
:104DE000CC46002D1A46E9DA0134072C46FA04F3C2
:104DF0001FD013F0010F0CBFCC46DC46D7E70134BF
:104E0000CDF800C0FFF79EFE072C46FA04F310D041
:104E100013F0010F14BFDC46CC460123002F04EB36
:104E2000080138461A46EADA1C44072C46FA04F30D
:104E3000EED1049B013702355345ADD1039A059E4F
:104E4000012A0FD016F10A0009D40E23022241468E
:104E5000CDF8409007B0BDE8F04FFFF773BE07B044
:104E6000BDE8F08F701DFAD40723F0E740A50124B8
:104E700030B5002183B01F240546F02220230846C8
:104E80000094FFF75FFE2A789AB10A2400E082B10D
:104E90004FF0020E4FF01F0C20460C344FF6FF73FC
:104EA0000921CDE900CEFFF75DFFE52C15F8012FB4
:104EB000EDDD03B030BD00BFF0B54FF4407391B0ED
:104EC00000260122ADF81030012433460499DB4856
:104ED000C1270096642503F0F7FB4FF4A062334628
:104EE000D748ADF8142001220599009603F0ECFB99
:104EF0000121D24803F006FD0121D14803F002FD53
:104F00000823D04A06A90B930523CF480896CDE97C
:104F10000E63CE4BCDE90C66CDE90623CDE90966DB
:104F200005F020FC3146C64803F0ECFC642006F096
:104F300045FE0121C24803F0E5FC962006F03EFE46
:104F40003146BE4803F0DEFC224664230DF10F011A
:104F5000BD488DF80F4005F0A3FC962006F02EFE0C
:104F60003146B64803F0CEFC112322460DF10F0165
:104F70008DF80F306423B44805F092FC962006F0BB
:104F80001DFE3146AD4803F0BDFCCF2322460DF196
:104F90000F018DF80F306423AB4805F081FC2146EA
:104FA000A64803F0AFFC224664230DF10F01A6488A
:104FB0008DF80F6005F074FC2146A04803F0A2FCB8
:104FC000224664230DF10F019F488DF80F7005F004
:104FD00067FC2146994803F095FC302322460DF1E9
:104FE0000F018DF80F306423974805F059FC3146C6
:104FF000924803F087FCED2322460DF10F018DF856
:105000000F306423904805F04BFC21468B4803F099
:1050100079FC2B4622460DF10F018B488DF80F507D
:1050200005F03EFC2146854803F06CFC0323224634
:105030000DF10F018DF80F302B46834805F030FC41
:1050400021467E4803F05EFC122322460DF10F013B
:105050008DF80F302B467C4805F022FC214677481E
:1050600003F050FC812322460DF10F018DF80F3023
:105070002B46754805F014FC3146704803F042FC9D
:10508000E82322460DF10F018DF80F302B466E48B4
:1050900005F006FC2146694803F034FC85232246CE
:1050A0000DF10F018DF80F302B46674805F0F8FB26
:1050B0002146624803F026FC2B4622460DF10F01E3
:1050C00061488DF80F6005F0EBFB21465B4803F06B
:1050D00019FC782322460DF10F018DF80F302B4675
:1050E000594805F0DDFB3146544803F00BFCCB2357
:1050F00022460DF10F018DF80F302B46524805F076
:10510000CFFB21464D4803F0FDFB392322460DF12C
:105110000F018DF80F302B464B4805F0C1FB21469F
:10512000464803F0EFFB2C2322460DF10F018DF8CA
:105130000F302B46444805F0B3FB21463F4803F0AF
:10514000E1FB2B4622460DF10F013F488DF80F6021
:1051500005F0A6FB2146394803F0D4FB3423224650
:105160000DF10F018DF80F302B46374805F098FBF5
:105170002146324803F0C6FB022322460DF10F01FF
:105180008DF80F302B46304805F08AFB31462B480E
:1051900003F0B8FBF72322460DF10F018DF80F3015
:1051A0002B46294805F07CFB2146244803F0AAFB46
:1051B000202322460DF10F018DF80F302B46224897
:1051C00005F06EFB31461D4803F09CFBEA232246A6
:1051D0000DF10F018DF80F302B461B4805F060FBD9
:1051E0002146164803F08EFB2B4622460DF10F0197
:1051F00015488DF80F6005F053FB21460F4803F06A
:1052000081FB2B4622460DF10F010F488DF80F60F0
:1052100005F046FB3146094803F074FBC0232246E3
:105220000DF10F018DF80F302B46074805F038FBC4
:105230002146024803F066FB232309E0ACFA002074
:1052400098FA0020060B0104C0FA002001050BFFAC
:1052500022460DF10F018DF80F302B465B4805F00B
:105260001FFB31465A4803F04DFB2B4622460DF1F9
:105270000F0156488DF80F7005F012FB2146544877
:1052800003F040FB102322460DF10F018DF80F3083
:105290002B464E4805F004FB31464D4803F032FBE7
:1052A000C52322460DF10F018DF80F302B464748DC
:1052B00005F0F6FA2146464803F024FB3E23224639
:1052C0000DF10F018DF80F302B46404805F0E8FA3C
:1052D00021463F4803F016FB282322460DF10F011B
:1052E0008DF80F302B46394805F0DAFA3146384848
:1052F00003F008FBC72322460DF10F018DF80F3094
:105300002B46324805F0CCFA2146314803F0FAFA30
:10531000862322460DF10F018DF80F302B462B48C6
:1053200005F0BEFA31462A4803F0ECFA362322464D
:105330000DF10F018DF80F302B46244805F0B0FA1F
:105340002146234803F0DEFA482322460DF10F01DF
:105350008DF80F302B461D4805F0A2FA31461C4847
:1053600003F0D0FA3A2322460DF10F018DF80F30E9
:105370002B46164805F094FA2146154803F0C2FA68
:10538000552322460DF10F018DF80F302B460F48A3
:1053900005F086FA31460E4803F0B4FA2246292475
:1053A0002B460DF10F0109488DF80F4005F078FAF2
:1053B000962006F003FC4FF4A073F02231463046ED
:1053C0000096FFF7BFFB11B0F0BD00BFC0FA002090
:1053D000ACFA002000214FF4A073F022084600B57B
:1053E00083B00091FFF7AEFB03B000BD2DE9F04F95
:1053F0007A4F97B081461C4609AE04910592229DD2
:105400000FCF0FC63B683360002C00F0BE80744B9A
:105410000693219B002B00F0B680724B0793209BD4
:10542000002B00F095806E4B6F4C08932378002B77
:1054300040F09580DFF8D4A10DF110083224002649
:105440002295B14500F0A780DAF80030B34246D08B
:10545000013344D0013608F104082634052EF0D17A
:10546000624C229D2368624EAB4240F090803368CC
:10547000239A604F934200F0A280DFF894810020CD
:105480002323F022FA210090FFF75CFB4FF6E07334
:10549000594A4FF482710A20FFF71AFC259B574A9C
:1054A000202102930EA8249B0193239B00932B465B
:1054B00013F050F94FF6FF730EAA4FF4827150208B
:1054C000FFF706FC239B25603360249B3B60259BF4
:1054D000C8F80030CAF8009017B0BDE8F08F002778
:1054E0001C23F022A4F1080138460097FFF72AFB9D
:1054F00009AB53F826B09BF8002082B120254FF06D
:10550000020C28464FF6FF7321460C35CDE9007C8E
:10551000FFF728FC1BF8012F0AB17C2DEFDDD8F82E
:1055200000B09BF80020002A94D08C254FF0020C8C
:10553000284640F2FF7321460C35CDE9007CFFF789
:1055400011FC1BF8012F002A84D0EA2DEEDD81E743
:105550002B4B254C08932378002B3FF46BAF002690
:105560004FF4A073F022DFF8A4A031463046009635
:10557000FFF7E8FA2348FFF77BFC4FF0FF33267074
:10558000CAF8003058E7204B48E71D4B40E7194F59
:10559000DFF87C8073E71F27A4F108011C23F022A9
:1055A00000200097FFF7CEFA02233E222146019306
:1055B00008204FF6E0730097FFF7D4FB98E73B68AD
:1055C000249ADFF84C8093427FF459AFD8F800302A
:1055D000259A93427FF453AF7CE700BF489E012495
:1055E000A8A00124C8A30124300100202801002024
:1055F0002401002020010020E0A30124ECA30124C9
:10560000D09F0124D8A30124D0A301242C01002081
:105610001C01002010B400230749084A4FF60B7004
:10562000074C0880236010804B608B60CB60D36098
:1056300010BCC2E901337047ACFA002098FA002090
:10564000C0FA002038B5044643F218400021302249
:10565000201813F003FA43F2484343F27841E31869
:1056600061184FF07E5243F8042B8B42F9D1002190
:1056700004F5405543F208004FF4826285F878142F
:10568000201813F0EBF9002120464FF44052C5E9F1
:105690000011BDE8384013F0E1B900BF4FF44052AB
:1056A00000218318C3E9001113F0D8B970B500F5D3
:1056B00040558E462C686E6804EB4403013400EBC1
:1056C000031C6342E4B2DBB258BF5C42FF2EBEE86B
:1056D0000F00ACE80F00BEE80F00ACE80F009EE83A
:1056E0000F008CE80F002C6001DC01366E6070BD8D
:1056F000D1F800C000F54053C2F800C0D1F804C092
:1057000093F87834C2F804C0D1F808C0C2F808C0D1
:10571000D1F80CC0C2F80CC0D1F810C0C2F810C04B
:10572000D1F814C0C2F814C0D1F818C0C2F818C01B
:10573000D1F81CC0C2F81CC0D1F820C0C2F820C0EB
:10574000D1F824C0C2F824C0D1F828C0C2F828C0BB
:10575000C96AD1620BB343F2184302F13001C31896
:10576000F3EC016AFAEE007AB2EC017AB2EE006A6A
:10577000D3ED0B5A37EE667AC7EE256AF4EEE76A88
:10578000F1EE10FA05D4F4EEC66AF1EE10FA76FEE8
:10579000267A8A4242ED017AE2D17047F8B50D4689
:1057A00006464FF440520021284613F057F906F5FB
:1057B00040535F68002F22DD1C68E41B04F58074F1
:1057C0006342E4B2DBB258BF5C42C7F5807303EBBF
:1057D0004303274405EB03156342E1B204F10104DE
:1057E0002A46DBB2304605F1300558BF594201EB7D
:1057F000410106EB0111FFF77BFFA742ECD1F8BD99
:1058000070B543F2081C43F2084443F2184E1546A3
:1058100004198444864416462DED028BF4EC017A7B
:10582000ACF580730846F3EC016AB0EC017A63458D
:10583000E6EE877AF7D1744503F5807CE6EC017AD1
:10584000ECD1D2ED006A02F1100692ED017A144615
:10585000D2ED027AB4EEE67AD2ED038A9FED168A93
:10586000F1EE10FA37FE267AF4EEC77AF1EE10FA6E
:1058700077FE877AF4EEE78AF1EE10FA78FEA78ACF
:1058800094ED000A30EE680A12F0FAF9A4EC010A6D
:10589000A64238EE008AF3D1B5EEC08AF1EE10FAD6
:1058A00007DD95ED007AC7EE087AE5EC017AAE42A5
:1058B000F7D1BDEC028B70BD0000000043F218432D
:1058C00000B5C31801F1300E51F804CB9FED0B7AEF
:1058D00043F804CBF2EC017AF4EEC77AF1EE10FA59
:1058E00001D5F7EE007A7145C3ED0B7AECD100F5E6
:1058F0004050012380F8783400BD00BFBD378635A5
:1059000003EB430001EB0010072A00F2DF80DFE821
:1059100002F0CC1A6C304604B6820023DFED6D7ABB
:1059200004E090ED177A603077EE877A90ED0B7A8D
:10593000042B03F1020377EE877AF2D1B1EE047AF9
:1059400087EE870A70470023DFED627A04E090ED6E
:105950000D7A603077EE877A90ED017A042B03F1AF
:10596000020377EE877AF2D1B1EE047A87EE870AE6
:1059700070470023DFED577A04E090ED127A603033
:1059800077EE877A90ED067A042B03F1020377EE27
:10599000877AF2D1B1EE047A87EE870A7047002346
:1059A000DFED4C7A0AE090ED117A603050ED025A4A
:1059B00027EE067AA5EEA67A77EE277A90ED057A9D
:1059C000042B9FED456A03F10203D0ED0A5A27EE3E
:1059D000067ADFED426AA5EEA67A77EE277AE2D163
:1059E000B1EE047A87EE870A70470023DFED397A3B
:1059F00004E090ED107A603077EE877A90ED047ACB
:105A0000042B03F1020377EE877AF2D1B1EE047A28
:105A100087EE870A704700229C469FED2E7A042A63
:105A200018D08AB9F6EE005A90ED045AD0ED067AF5
:105A3000012290ED016A3030E5EE257ADFED286A2B
:105A4000E6EE267A37EE677A01323030042A02EB2E
:105A5000030CE6D10CEB4C0CB6EE006ADFED207ABD
:105A600001EB0C11D1ED045A91ED060AD1ED016A5A
:105A7000A5EE860AA6EEA70A30EE070A70470023B5
:105A8000DFED147A04E090ED0F7A603077EE877ADC
:105A900090ED037A042B03F1020377EE877AF2D1BB
:105AA000B1EE047A87EE870A7047DFED0A7A04E0E8
:105AB00090ED0C7A603077EE877A90ED007A042AC8
:105AC00002F1020277EE877AF2D137E7DFED017A51
:105AD00034E700BF00000000CDCCCC3E9A99193FBE
