:020000042400D6
:10000000000002208D070024890700246963002472
:1000100089070024890700248907002400000000C4
:10002000000000000000000000000000890700241C
:10003000890700240000000089070024ED620024E5
:1000400089070024890700248907002489070024E0
:1000500089070024890700248907002489070024D0
:10006000890700248907002489070024154F0024EC
:10007000214F0024F53C00242D4F0024394F00244B
:10008000615D0024A543002489070024890700241A
:100090008907002489070024890700248907002490
:1000A0008907002489070024890700248907002480
:1000B000D91C0124E51C0124F11C0124E543002482
:1000C00089070024F14300248907002469150124CD
:1000D00075150124715B0024A15B0024D95B002409
:1000E00089070024890700240000000089070024F4
:1000F0008907002489070024890700248907002430
:100100008907002489070024FD1C0124811501248E
:10011000115C0024495C002489070024890700241D
:100120008907002489070024A5150124E515012469
:10013000A15D002489070024890700248907002481
:1001400000000000000000000000000000000000AF
:10015000890700248907002489070024815C002482
:10016000FD43002489070024FD620024216300244C
:100170008907002445630024890700248907002497
:100180008907002489070024B95C0024F15C00245D
:100190008D1501249915012489070024890700245D
:1001A000890700248907002489070024890700247F
:1001B000654B00248907002489070024890700244F
:1001C00089070024890700240938002415380024F1
:1001D0008907002421380024890700248907002486
:1001E000890700248907002489070024890700243F
:1001F000890700248907002489070024890700242F
:10020000890700248907002489070024890700241E
:10021000890700248907002489070024890700240E
:1002200089070024890700248907002400000000B2
:1002300089070024890700240000000089070024A2
:1002400089070024890700248907002489070024DE
:1002500089070024890700248907002489070024CE
:1002600089070024890700248907002489070024BE
:100270008907002489070024295D0024000000006C
:100280008907002489070024890700240000000052
:080290000000000089070024B2
:1002A000034613F8012B002AFBD1181A01387047B6
:1002B00001F0FF01102A2BDB10F0070F08D010F817
:1002C000013B013A8B422DD010F0070F42B3F6D11B
:1002D000F0B441EA012141EA014122F007047FF034
:1002E00000070023F0E80256083C85EA010586EA8B
:1002F000010685FA47F5A3FA87F586FA47F6A5FAC7
:1003000087F68EB9EED1F0BC01F0FF0102F00702D2
:1003100032B110F8013B013A83EA010313B1F8D17D
:100320000020704701387047002D06BF354603385E
:10033000073815F0010F07D1013015F4807F02BF97
:10034000013015F4C03F0130F0BC0138704700BFE8
:1003500081F0004102E000BF83F0004330B54FEA76
:1003600041044FEA430594EA050F08BF90EA020FE3
:100370001FBF54EA000C55EA020C7FEA645C7FEA76
:10038000655C00F0E2804FEA5454D4EB5555B8BF99
:100390006D420CDD2C4480EA020281EA030382EA0A
:1003A000000083EA010180EA020281EA0303362D9C
:1003B00088BF30BD11F0004F4FEA01314FF4801C6F
:1003C0004CEA113102D0404261EB410113F0004F81
:1003D0004FEA03334CEA133302D0524263EB430338
:1003E00094EA050F00F0A780A4F10104D5F1200ED6
:1003F0000DDB02FA0EFC22FA05F2801841F1000131
:1004000003FA0EF2801843FA05F359410EE0A5F104
:1004100020050EF1200E012A03FA0EFC28BF4CF035
:10042000020C43FA05F3C01851EBE37101F00045EB
:1004300007D54FF0000EDCF1000C7EEB00006EEBF8
:100440000101B1F5801F1BD3B1F5001F0CD3490882
:100450005FEA30004FEA3C0C04F101044FEA4452D9
:1004600012F5800F80F09A80BCF1004F08BF5FEA60
:10047000500C50F1000041EB045141EA050130BD40
:100480005FEA4C0C404141EB0101013C28BFB1F552
:10049000801FE9D291F0000F04BF01460020B1FA9D
:1004A00081F308BF2033A3F10B03B3F120020CDA70
:1004B0000C3208DD02F1140CC2F10C0201FA0CF04E
:1004C00021FA02F10CE002F11402D8BFC2F1200CB3
:1004D00001FA02F120FA0CFCDCBF41EA0C01904069
:1004E000E41AA2BF01EB0451294330BD6FEA0404B2
:1004F0001F3C1CDA0C340EDC04F11404C4F120029D
:1005000020FA04F001FA02F340EA030021FA04F3AE
:1005100045EA030130BDC4F10C04C4F1200220FA05
:1005200002F001FA04F340EA0300294630BD21FA43
:1005300004F0294630BD94F0000F83F4801306BF09
:1005400081F480110134013D4EE77FEA645C18BFFD
:100550007FEA655C29D094EA050F08BF90EA020F94
:1005600005D054EA000C04BF1946104630BD91EA8C
:10057000030F1EBF0021002030BD5FEA545C05D18F
:100580004000494128BF41F0004130BD14F58004CE
:100590003CBF01F5801130BD01F0004545F0FE4142
:1005A00041F470014FF0000030BD7FEA645C1ABF77
:1005B000194610467FEA655C1CBF0B46024650EAAE
:1005C000013406BF52EA033591EA030F41F40021DA
:1005D00030BD00BF90F0000F04BF0021704730B560
:1005E0004FF4806404F132044FF000054FF0000135
:1005F00050E700BF90F0000F04BF0021704730B5F6
:100600004FF4806404F1320410F0004548BF4042CA
:100610004FF000013EE700BF42004FEAE2014FEA1F
:1006200031014FEA02701FBF12F07F4393F07F4FFA
:1006300081F06051704732F07F4208BF704793F0FD
:100640007F4F04BF41F40021704730B54FF4607410
:1006500001F0004521F000411CE700BF50EA010213
:1006600008BF704730B54FF000050AE050EA0102BC
:1006700008BF704730B511F0004502D5404261EB2C
:1006800041014FF4806404F132045FEA915C3FF46D
:10069000D8AE4FF003025FEADC0C18BF03325FEA0A
:1006A000DC0C18BF033202EBDC02C2F1200300FABB
:1006B00003FC20FA02F001FA03FE40EA0E0021FAE0
:1006C00002F11444BDE600BF53B94AB9002908BF7E
:1006D00000281CBF4FF0FF314FF0FF3000F00CB886
:1006E000ADF1080C6DE904CE14F0D0FADDF804E0A9
:1006F000DDE9022304B07047704700BF0348044B94
:10070000834202D0034B03B11847704774060020A0
:1007100074060020000000000548064B1B1AD90F84
:1007200001EBA301491002D0034B03B118477047F6
:1007300074060020740600200000000010B5064C6E
:10074000237843B9FFF7DAFF044B13B10448AFF342
:1007500000800123237010BD7806002000000000F7
:100760001458012408B5054B1BB105490548AFF3E2
:100770000080BDE80840FFF7CFBF00BF00000000C9
:100780007C06002014580124FEE700BF0B4A0C4BE6
:10079000934204D0D21A0B49184613F0A6FA0A4A1B
:1007A0000A4B934204D0D21A0021184613F058FA8B
:1007B00013F074FA00F0A0FCFEE700BF74060020FE
:1007C0000000002044580124581801207806002019
:1007D000D0ED005A90ED016AD0ED026A90ED037AF7
:1007E000D0ED047A9FED1C5ADFED1C3A9FED1C4AB8
:1007F00065EE855ADFED1B4A26EE056A66EEA36AB2
:1008000091ED001A27EE047A9FED175A67EEA47A4D
:10081000D1ED011A91ED022AE1EE055A91ED033A6C
:10082000A1EE856A91ED044ADFED102ADFED103A62
:10083000DFED104AE2EE226AA3EE237AC1ED005A00
:10084000E4EE247A81ED016AC1ED026A81ED037A5A
:10085000C1ED047A704700BFCDCC4C3E9A99193E49
:10086000CDCCCC3DCDCC4C3DCDCC4C3F9A99593FD5
:100870006666663F3333733F0E4AD0F804C00E4BB2
:100880000E4900B5C2F800C08268D0F80CC01A60EA
:100890000B4B0269C1F800C01A608169094BDFF88F
:1008A0002CC01960D0F814E0027F074BCCF800E0B0
:1008B0001A7000BD340000203C00002038000020E9
:1008C0003000002028000020000000202C00002024
:1008D0003D49F0EE406A3D4BD1ED007A3C4A1B7831
:1008E00067EE807A92ED007A013B3A4A67EE877AAA
:1008F000D2ED005A00B583B0032B61D8DFE803F0D6
:100900005244320227EEA77A8DED010AB0EE080AB2
:1009100067EE277A27EE800A12F0BEFDB0EE406A3D
:10092000DDED016A2C4AB7EE007A2C4B92ED005AAD
:10093000D2ED007A37EE457A93ED000A67EE867ABB
:100940002749284AD1ED005AE7EE267A92ED007A3F
:1009500077EEC07AA7EEA50A83ED000A20EE070A1B
:1009600003B000BDF5EEC07AF1EE10FA23DAB7EE6F
:10097000087A27EE870ACDED016A12F08DFDDDEDD4
:10098000016AB0EE406ACDE7B1EE656AF4EEC67A70
:10099000F1EE10FAC6D4F4EEE57AF1EE10FA35FE77
:1009A000A76ABFE7B7EE006AB0EEE77A37EE067ADD
:1009B00087EE876AB6E7B0EE047A27EE870ADAE7B1
:1009C000B0EE676AAEE700BF5000002000000020D4
:1009D00058000020440000204C0000209806002011
:1009E0005400002048000020224BD3ED007AF8EE9E
:1009F000E77A77EEC07AF5EEC07AF1EE10FA08D514
:100A00009FED1D7A77EE877AF5EEC07AF1EE10FA57
:100A1000F6D49FED197AF4EEC77AF1EE10FA08DBFE
:100A20009FED157A77EEC77AF4EEC77AF1EE10FAF9
:100A3000F6DABDEEE77A114A11484BF6803C17EE24
:100A4000103AB8EEC77A02EB8301013377EEC77A2A
:100A500091ED000A80FB0310D917C1EBA0210CFB1C
:100A6000113302EB830292ED007A37EE407AA7EE63
:100A7000270A7047D806002000803B47000000C0CE
:100A8000F119760510B5384C2DED028B94ED008AE6
:100A9000F0EE408AB0EE480A12F09AFA334A344B2C
:100AA000B7EE006A92ED007AD3ED007ADFED314ABD
:100AB000E0EE077A9FED305ADFED305AB0EE670A6C
:100AC000FFF792FF2E4BDFED2F7AD3ED006A2E4A0F
:100AD00030EE664A92ED007AE4EE246A66EEA77A7A
:100AE000C3ED006AE0EE057A27EE877AA8EEA57AD4
:100AF000B4EEC67AF1EE10FA07DCBFEE006AB4EE8F
:100B0000C76AF1EE10FA36FE076A204B2048D3ED93
:100B1000006A204A036838EE260A1F4902EB830266
:100B20009FED1E7A013382ED006AB4EEC70A81FBA5
:100B30000321DA17C2EBA1224BF68031F1EE10FA55
:100B400001FB1233036001DB30EE470ADFED146A6C
:100B500084ED000A27EEA60A9FED127AA8EE870A16
:100B6000BDEC028B10BD00BFB8060020AC06002013
:100B7000B00600200AD7233C9A99193FCDCC4C3EB1
:100B8000BC060020CDCCCC3E24000020B4060020C2
:100B9000D8060020000000C0F1197605DB0FC9401F
:100BA0009A99593F9A99193E08B5334BF0EE405A3D
:100BB0009FED324AB7EE006A93ED000AFFF714FF8B
:100BC0002F4BF0EE403ADFED2F4A93ED000AFFF78E
:100BD0000BFF2D4BF0EE406A9FED2C5A93ED000A6F
:100BE000FFF702FFDFED2A7A9FED2A7A66EEA77AF9
:100BF000294B2A4AD3ED006AE3EE877A92ED007A18
:100C0000E0EE047A37EEE64AE4EE246A26EE877ACE
:100C1000C3ED006AA5EE857AB4EEC67AF1EE10FA5D
:100C200007DCBFEE006AB4EEC76AF1EE10FA36FEDA
:100C3000076ADFF878C0B7EE007A194BDCF80020BD
:100C400093ED000A1749531C174837EE407A81FB91
:100C500003E120EE270A00EB8200DA17A7EE250A4F
:100C600080ED006AC2EBA1224BF6803101FB12330A
:100C7000CCF8003008BD00BFA40600209A99193EA8
:100C8000A00600208FC2F53C9C0600203333B33E03
:100C90009A99993ECDCC0C3FA80600201000002068
:100CA00014000020F1197605000000C0D8060020CD
:100CB00070B59F4C9F4EA04D2DED048B82B012F06D
:100CC0007DFE07EE900A2378F0EE006AFAEEE07AF5
:100CD00096ED008ABFEE007A022BD5ED008AA7EED2
:100CE000A67A00F0F48023788DED017A032B00F0D2
:100CF000A180B8EE000A28EE000A12F0F7F8F0EE34
:100D0000409AB0EE680A12F063F9B0EE409A38EEFD
:100D1000A80A12F05DF99FED896AF0EE497AF0EECB
:100D2000086AE0EE067A28EEA60ACDED007A12F007
:100D30004FF99FED836AF1EE006ADDED007AE0EE97
:100D4000067A28EEA60ACDED007A12F041F9B0EE4F
:100D5000409ABBEE040A28EE000A12F0C7F89FED95
:100D6000796ADDED007ADFED786AE9EE067A9DEDCD
:100D7000017A27EE267AE7EE007A67EEA97AB0EEDE
:100D8000679A9FED720A28EE000A12F021F9F7EE39
:100D9000007A9FED6F7A9FED6F6AE0EE077A6E4BF7
:100DA000DFED6E6A93ED007A67EE867A87EE870A4A
:100DB00030EE280AB4EEE60AF1EE10FA01DB30EE6E
:100DC000660AF7EE006A237885ED000A022BC6EE6C
:100DD000877A77EE887AC6ED007A1ED02378032BC7
:100DE0000ED0B7EE087AF4EEC77AF1EE10FA01DB16
:100DF00000233360B0EE490A02B0BDEC048B70BD35
:100E0000B0EE087AF4EEC77AF1EE10FAF0DAB0EE4E
:100E1000490A02B0BDEC048B70BDB1EE047AF4EE69
:100E2000C77AF1EE10FAE3DAB0EE490A02B0BDEC8F
:100E3000048B70BD9FED4A0A28EE000A12F056F8A6
:100E4000F0EE409AB0EE680A12F0C2F8B0EE409AA6
:100E500038EEA80A12F0BCF89FED426AF0EE497A2B
:100E6000F0EE086AE0EE067A28EEA60ACDED007AEA
:100E700012F0AEF89FED3C6AF1EE006ADDED007A0B
:100E8000E0EE067A28EEA60ACDED007A12F0A0F880
:100E9000B0EE409ABAEE0E0A28EE000A12F026F8DA
:100EA000DFED325ADFED326A9FED326ADDED007A16
:100EB0009DED017AE9EE257A27EE267A67EE867AAD
:100EC000E7EE007A67EEA97AB0EE679A59E79FEDF0
:100ED0002A0A8DED017A28EE000A12F007F8F0EEEA
:100EE000409AB0EE680A12F073F8B0EE409A38EE0D
:100EF000A80A12F06DF89FED1D6AF0EE497AF0EE47
:100F0000086AE0EE067A28EEA60ACDED007A12F025
:100F10005FF8B0EE409ABAEE080A28EE000A11F027
:100F2000E5FFDFED165ADFED166A9FED166ABDE7A5
:100F3000DC060020C0060020C4060020AE47613E4B
:100F4000CDCCCC3D0AD7233DEC51383E3333333F33
:100F50006F12033BA0C9AC446C000020DB0FC940FA
:100F60003333B3BE8FC2753DCDCCCC3C0AD7233CC6
:100F70008FC2F53D6666E63E8FC2F5BD0AD7A33B3C
:100F80000AD7A33D3333B33E002A00F099802DE900
:100F9000F84F8A468046164600244A4F4A4D2DEDAA
:100FA000028B1FE0D8F800304B4493ED008AB0EE7E
:100FB000480A464800F02EFB2B78EBB12B78012B2A
:100FC00021D02B78022B6DD02B78032B71D00134DC
:100FD000DAE90023A6424A444B4482ED008A83EDBD
:100FE000008A5BD03B784FEA8409002BDAD0FFF708
:100FF0005FFEB0EE408ADAE7B0EE480AFFF768FC21
:10100000B0EE408AE3E7DFF8E8B0DBED008AB0EE4F
:10101000680A11F0DDFF2E4BDFED2E6AB7EE086A8D
:1010200093ED007A2C4BD3ED007AE0EE077AB0EE28
:10103000670AFFF7D9FC294BB7EE007A2848D3EDB1
:10104000007AD0F800C037EE677A264B67EE807AD8
:101050002549E7EE087A93ED007A0CF1010338EEAA
:10106000870A81FB0321DA17C2EBA1221F49B4EEE4
:10107000E60A01EB8C0167EE867A81ED008A4BF679
:101080008031F1EE10FA01FB1233036001DB30EE28
:10109000660AB0EE678A8BED000A98E7BDEC028B1A
:1010A000BDE8F88FB0EE480AFFF7ECFCB0EE408ADE
:1010B0008DE7B0EE480AFFF777FDB0EE408A86E78D
:1010C000704700BF40000020DC0600200807002019
:1010D000D0060020DB0FC940D40600205C000020B1
:1010E000D8060020C8060020F1197605000000C0CF
:1010F000CC060020FFF748BF2DE9F04F00218BB050
:10110000974800F0C3FC002002F016FA40F6B83011
:1011100005F09CF96021924800F0DAFB914C032124
:101120008F4800F0E9FB9FED900A4FF480718F48E3
:1011300000F01AFA8E4D2068DFF8249205EB40107B
:101140008C4FFFF799FB8C4802F094F92368002438
:101150008A485B01DFF88CB2A046DFF88CA2E95820
:1011600002F088F9864D87497D4800F0AFFB86483C
:1011700002F080F97A4800F0D3FB794800F0DCFBFC
:1011800099F8443063B1D9F86430002B40F3D6802D
:101190000134634204F0030403F0030358BF5C42CC
:1011A0007A4972483C7000F077FB002873D105F053
:1011B0004BF9A0EB08030646B3F57A7FDAD33B7808
:1011C000012B00F0C8803B78022B00F0C2803B78F6
:1011D000032B00F0C2806E496E4BB0469BED006A57
:1011E000DAED005A93ED005A6B4BD5ED017AD3ED51
:1011F000004A6A4BDFED6A3A93ED004A9FED693A87
:1012000067EEA37AD5ED046A65EEA35A95ED027AEE
:1012100064EE834A25EE035A524B24EE034AD5ED81
:10122000032A26EE036A95ED003A66EEA36A1B6870
:1012300027EE237A4E4A63EE233A5B01FDEEE77A0E
:101240005948BDEEC44AD258FDEEE44ABDEEC55A37
:10125000CDED007AFDEEE55A8DED084ABDEEC66A89
:10126000CDED074AFDEEE66A8DED065AFDEEE22A67
:10127000CDED055ABDEEC77A8DED046AFDEEE37A39
:10128000CDED036ACDED022A8DED017A17EE903A8D
:1012900002F0F0F86EE7454B39493C48FFF798FA01
:1012A000D3ED004A9FED424ADBED007A64EE844ABA
:1012B0009FED407A404BDFED416AE7EE874A93EDC0
:1012C000005A3F4B25EE265ADFED3E3AD3ED005A49
:1012D0003D4B65EE845ACBED004ADAED004A93EDC2
:1012E000006AA4EEA35A394B26EE046AD3ED006AD5
:1012F000374B66EE846AD3ED007A264B8AED005AAE
:1013000067EE847A93ED005AE5EE075AC3ED005A72
:10131000214BD3ED005AA5EE876A83ED006A1F4B7F
:1013200093ED006AE6EE076AC3ED006A294BD3ED40
:10133000006AE6EE877AC3ED007A38E73FF430AF13
:101340000334634204F0030403F0030358BF5C4218
:1013500026E7214940E721493EE721493CE700BF14
:10136000182B00209406002000803B47080700202F
:1013700000520124DC060020B4500124C050012496
:10138000E0060020F5100024CC500124F4060020D3
:10139000A0500124500000204C00002048000020F4
:1013A00000007A440000C842DC5001243C000020C8
:1013B000CDCCCC3D6666663F380000200AD7A33D01
:1013C000340000201F856B3F300000202C000020DF
:1013D000280000204400002098500124905001244F
:1013E000AC500124580000205400002038B5454C72
:1013F000002504F5C070256065612562E56302F093
:10140000B7F8414A04F51470404992ED004A91ED55
:10141000005A3F4A3F4992ED006A0722C4F8391248
:1014200040F2011184F83D223B4A9FED3C7AD2ED17
:10143000007A3B4A9FED3B2A27EE855AD2ED003ACF
:1014400027EE866A24EE024A374B63EE823AC4F8EE
:101450009051D3ED004A354B67EEA44AC4F8485288
:10146000D3ED005A324B67EEA55AC4F84C52D3ED77
:10147000006A304B67EEA66A03F58162C3F8045434
:1014800083F80C54C4E990012B482C49D0ED002A74
:101490004FF4807091ED003A67EEA22A284C27EEB7
:1014A000833A2849C3F8000482EE872A1160C3EE0C
:1014B000072A83EEA73AC4EE273A84ED002A224C8D
:1014C00084EE874AC4ED002A204CC5EE074A84ED1D
:1014D000003A1F4C85EE875AC4ED003A1D4CC6EE0B
:1014E000075A84ED004A1C4CC6EE877AC4ED004AC8
:1014F0001A4C84ED005A1A4CC4ED005A194CC4ED34
:10150000007A38BD182B0020200000201C0000208D
:101510000800002080707F0F6C00002000007A44DB
:1015200060000020DB0FC940180000200C000020E4
:10153000040000200827002068000020640000202C
:10154000D406002000803B47D0060020C8060020BB
:10155000B4060020B0060020AC060020A40600203F
:10156000A00600209C06002000F500534FF4807C6C
:101570004FF4006270B5002403F5816E00F510553C
:1015800006468EED000A2146C5E900C483F80C44E6
:1015900041F6044512F064FB4FF4006221467519D0
:1015A000B01812F05DFB21464FF4006206F5805042
:1015B00012F056FB21464FF4806206F5C05012F03F
:1015C0004FFB214601244FF4006206F5E05012F073
:1015D00047FB07EE904A9FED0D7A9FED0D0A01340F
:1015E000F8EEE77A67EE877A87EE800A11F0F0FD71
:1015F000B4F5807FF7EE007AB6EE007A77EEC07A27
:1016000067EE877AE5EC017AE3D170BDDB0FC94064
:1016100000007F4300F5005310B593F80C4482B0EE
:1016200064B9D3F80424511C00EB8202C3F80414FB
:1016300082ED000AD3F80024914201D202B010BD1D
:101640000146920000F50060019312F04EFB019BF1
:101650000122C3F8044483F80C2402B010BD00BF7B
:1016600000F50050DFED3A7AD0F8000400284AD0A7
:10167000F1EC016AB0EE676AB0EE675A0023B0EE93
:10168000E67AA6EEA66AB4EEE77AF1EE10FA37FE35
:10169000277A013383421BD0F1EC017AF0EEE76A3E
:1016A00051ED025AA7EEA76A67EEA57AF4EEC76A73
:1016B000F1EE10FAF5EEC07A36FE877AF1EE10FA06
:1016C000E7D50133F7EE007A834235EE275AE3D1AE
:1016D00007EE903A013BF8EEE76A07EE903A86EEA5
:1016E000260AB5EE400AF1EE10FA13D4F8EEE77AC6
:1016F000C5EE276A82ED017AC2ED026AB1EEC06AD8
:1017000082ED006A704787EEA70AF0EE676AB0EED6
:10171000677AEFE700B585B003928DED017A8DED24
:10172000005A029311F090FEDDED027A9DED005A11
:10173000F8EEE77A039A9DED017A82ED000AC5EE94
:10174000276A82ED017AC2ED026A05B000BD00BFD2
:10175000000000002DE9F84F00F500559146D5F83E
:1017600000742DED0A8B002F00F0848000F5805A64
:1017700000F5E05201EB87045346F1EC017AB2EC3C
:10178000017AA14267EE877AE3EC017AF5D1032F63
:101790004FEA570B6ED907EE107A05F58165DFED3C
:1017A0003BAA41F60408B8EEC7AAD5ED007AB0EE20
:1017B0006ABA0AEB8707F0EE6ABA804487EE8ACAF3
:1017C00001269FED329A55460024F0EE499A07EE25
:1017D000904A9FED2F7AB5EC018A3444F8EEE77A0F
:1017E00067EE877AC7EE8A8AB0EE680A11F0F0FCDD
:1017F000F0EE407AB0EE680AE8EE279A11F0E8FBC6
:10180000AF42A8EE409AE2D129EE099A07EE906A1B
:101810000136F8EEE76AD8ED007AA9EEA99A5E459E
:1018200066EE8C6AB1EEC97A77EE677AA8EC017A37
:10183000E7EE26BA3BEE07BAE7EEA7AAC1D1DFED85
:10184000157AB4EEE7BAF1EE10FA09DDCBEE8B7A39
:10185000C9ED04AABDEC0A8BC9ED037ABDE8F88F87
:10186000DFED0A7AC9ED04AAC9ED037ABDEC0A8B53
:10187000BDE8F88FDFED05AAF0EE6A7AC9ED04AA9B
:10188000BDEC0A8BC9ED037ABDE8F88F00000000BB
:10189000DB0FC94077CC2B3230B500F5005585B051
:1018A00095F80C447CB10A4600F50061CDE90220B0
:1018B0000191FFF7D5FE0398DDE90112FFF74AFF1A
:1018C000002385F80C34204605B030BD00F070B917
:1018D000F8B5054600F08CF905F1A40405F1AC0754
:1018E00054F8046F284600F09FF9304601F028FDB7
:1018F000BC42F5D1F8BD00BFF8B5054600F05CF973
:1019000005F1A40405F1AC0754F8046F284600F073
:101910008BF9304601F014FDBC42F5D1F8BD00BF93
:1019200010B50446683001F0E7FC04F18800BDE81A
:10193000104001F0E1BC00BF10B50446403001F09A
:1019400057FD04F1B00001F095FE04F1C000BDE8C0
:10195000104001F08FBE00BF70B54FF481718AB0A6
:101960004FF4C0624FF4E06300F1D8060124ADF8F3
:101970000C1000F59675ADF810203046ADF81C300F
:10198000049A079B0399009401F00CFE4FF48073B6
:1019900040F201120094ADF810304FF4806304ACB3
:1019A0002846ADF81C30079BADF80C20DDE903128A
:1019B00001F0F8FD2046072105F0A2FB07AB94E8F3
:1019C000070083E807001946304601F017FE07AB11
:1019D00094E8070083E807001946284601F00EFE48
:1019E000304601F021FE28460AB0BDE8704001F003
:1019F0001BBE00BF2DE9F04340F20243022504461E
:101A000002222DED028B8BB004F118079FED1E8A88
:101A100004F1A406ADF8003001A8009901F006FF1A
:101A2000ADF800502A4600990DF1160001F0FEFEB7
:101A300004232A4638460DEB0301002501F008FF78
:101A400004F1680204F18803C4F8A820C4F8AC309B
:101A50002946384656F8048F02F0F2F881462046AF
:101A600000F0E2F80023F0EE480A49461A464046E4
:101A700001F014FC6B1C0125022BE9D10BB0BDEC6D
:101A8000028BBDE8F08300BF6F12033BF0B5044644
:101A90000D4695B0002700F089F82946204604F14C
:101AA000B00600F079F940F6061330469FED3E0A85
:101AB000ADF8343004F1C0050D9901F0C3FD4FF4C9
:101AC000007328469FED380AADF834300D9901F0C7
:101AD000B9FD40F60333ADF8247004F14000ADF8D1
:101AE000143040F20163099AADF834300D9B05992A
:101AF0009FED2D0AC4F8D06009AEC4F8D45001ADF2
:101B000001F046FC2046FFF727FF2046FFF772FF53
:101B1000284601F02DFD01230DF1140E04F5C07CC3
:101B20000F93129347F612231097139302231193E6
:101B300095E80F008CE80F008EE80F0086E80F0094
:101B4000BDF828300E90ADF83630BDF82A30D4E913
:101B5000625EADF83430C4E9655EBEF1000F1CD1A1
:101B60000DA904F5C87004F0D5F904F1A40504F535
:101B7000D27004F1AC0701F00FFD3021204600F0D7
:101B800037F855F8046F204600F04EF8304601F063
:101B9000D7FBAF42F5D115B0F0BD724639462846A5
:101BA00012F05EF8DCE700BF00000000704700BFE5
:101BB000143001F041BB00BF30B5054683B014308E
:101BC00001F0F6FA05F1140001F0EEFA05F1140047
:101BD0008DED010A01F0D6FAD0ED007A9DED010AF3
:101BE000F8EE677A80EE277A85ED0E7A03B030BD85
:101BF00030B5054683B0143001F0C8FA05F1140081
:101C000001F0D2FA05F114008DED010A01F0BAFAE3
:101C1000D0ED007A9DED010AF8EE677A80EE277A22
:101C200085ED0E7A03B030BD90ED0E0A704700BF0F
:101C300000B540F203308FB000224FF60B7340F234
:101C40000341ADF80800009209A8ADF81030ADF8D6
:101C500024300123ADF80C10029907920C92CDE9C3
:101C60000522CDE90A2202F04BF8002204A8012344
:101C70000399009202F044F809A802F053F910B950
:101C800001200FB000BD04A802F04CF980F0010063
:101C9000C0B240000FB000BD70B53C4B9CB00122FB
:101CA00000240321139340F2045305461691129425
:101CB0001992ADF85030CDE91724FFF7B9FF01288C
:101CC00041D002284FF001022FD1314B40F60131B3
:101CD0000DAE0094CDF852304FF60B73ADF82010D6
:101CE00030460899ADF8343023461094CDE91A42B5
:101CF000CDE90E4402F004F82146304602F01EF908
:101D000012A905F13C0003F093F9302003224FF0B3
:101D10007E5331460F931093CDE90D02EA6B05F126
:101D2000140001F0F5F91CB070BD40F60131184BFC
:101D30000DAEADF834100D98CDF85230CDE91A4201
:101D400000F0A4F8DCE71022114908900DAE8DF8E0
:101D50003020104ACDF8521008A90A900390099239
:101D60000B940494CDE91A0404A802F04DFB082159
:101D7000039B3046079105A9049AADF814308DF8FD
:101D8000164006930D9400F0BDF8B9E70402040470
:101D9000040604030704010BF0B53A4B044685B072
:101DA00040F20112A36003F581333748012503F5A2
:101DB0008073ADF80C2040F202726060E36040F680
:101DC00006630020A4F82520A4F82930271D2582C9
:101DD00084F8275084F82B5002918DF80E0004F0FF
:101DE000CDFC064604F034FB034610BB0EB302A93B
:101DF00004F130008DF80E5004F048FC072E38D165
:101E00002046FFF749FF04F1140001F0CDF904F179
:101E100014008DED010A01F0B5F9D0ED007A9DEDC9
:101E2000010AF8EE677A80EE277A84ED0E7A05B023
:101E3000F0BD02A904F13000019304F027FC072E45
:101E4000019B02D1002BDBD006E0394620460193EE
:101E500002F012FD019B8BB104F1250002F078F82D
:101E600004F1290002F074F804F1120000F068F99E
:101E7000C6E73946204602F0FFFCC1E7002EEBD052
:101E8000BEE700BF050705060508050910B584B0C3
:101E90000124ADF80C0003A8ADF80E4002F058F88C
:101EA000214603A802F040F9204604F0CFFA0021B1
:101EB00003A802F039F9204604F0C8FA214603A825
:101EC00002F032F904B010BDC2F3002CFA2300B5C1
:101ED00087B04CEA410C017C8DF8152005AA0093CF
:101EE00002238DF814C002F029FB18B10123184613
:101EF00007B000BD03900A2004F0A8FA039B18461F
:101F000007B000BD034630B5044685B043F8042B46
:101F1000FA2507C983E80700A1791E23009503AAC3
:101F20001A31ADF80C3020460223C9B2217402F0F8
:101F300005FB10B1012005B030BD0A2004F086FA7F
:101F40004FF4B85200950223ADF80C20204603AAA6
:101F5000217C02F0F3FA0028ECD10A2004F076FA92
:101F600041F2027200950223ADF80C20204603AA2C
:101F7000217C02F0E3FA0028DCD10A2004F066FAA2
:101F8000042200950223ADF80C20204603AA217CF0
:101F900002F0D4FA0028CDD10A2004F057FA062224
:101FA00000950223ADF80C20204603AA217C02F004
:101FB000C5FA0028BED10A2004F048FA41F20822EE
:101FC00000950223ADF80C20204603AA217C02F0E4
:101FD000B5FA0028AED10A2004F038FA4FF00A0210
:101FE00000950223ADF80C20204603AA217C02F0C4
:101FF000A5FA00289ED10A2004F028FA23790C22A1
:102000000095002B217C8DF80C20204614BF622304
:1020100042236A448DF80D30022302F08FFA002823
:1020200088D10A2004F012FAA36800952046E268DD
:10203000217C1343627943EA4213227982F0010240
:1020400043EA82130E228DF80D3002238DF80C2006
:1020500003AA02F073FA00287FF46CAF0A2004F0A0
:10206000F5F9102200950223ADF80C20204603AAB2
:10207000217C02F063FA00287FF45CAF0A2004F0B0
:10208000E5F9122100950223ADF80C1003AA217C7A
:10209000204602F053FA00287FF44CAF0A2004F0E7
:1020A000D5F901220921204605B0BDE83040FFF7EF
:1020B0000BBF00BF70B586B000240125102602A911
:1020C0004FF480521C480194CDE90256CDE90454E6
:1020D0000BF0C0FF642005F04FF9022302A94FF472
:1020E0008052154802930594CDE903650BF0B2FFC9
:1020F000042302A94FF480520F480396CDE904341B
:10210000032302930BF0A6FF40F23223042202A91C
:102110000948019310230495CDE90223019B4FF454
:10212000805205930BF096FF40F6060102480BF033
:10213000B3FF204606B070BD04BE002000000000C2
:1021400030B51F4B89B00822DFF878C000214FF46A
:1021500000641A614FF0020E03920A22C3F804C011
:102160004FF0200C06924022054699600320196228
:1021700010215C620124C3E905C24FF4C072DC6027
:10218000DA6107229FED0C7BCDE900E20422CDE964
:1021900004016946181D029283ED0A7B0BF030FFA3
:1021A00028B9284609B0BDE83040FFF783BF204674
:1021B00009B030BDAFF30080001000000000000047
:1021C00000BE0020404100525E4A0023F0B5146872
:1021D0008FB00A93002C40F0B2805B4B01210326A4
:1021E0000C2511600227D3F8D420584842F48052BD
:1021F000C3F8D420D3F8D42002F480520092009A7D
:10220000D3F8E02042F01002C3F8E020D3F8E02039
:1022100002F010020192019AD3F8E02042F040024D
:10222000C3F8E020D3F8E02002F040020292029AC4
:10223000D3F8E02042F00802C3F8E020D3F8E02011
:1022400002F008020392039AD3F8E02042F480726D
:10225000C3F8E020D3F8E02002F480720492049ADC
:10226000D3F8E02042F08002C3F8E020D3F8E02069
:1022700002F080020592059AD3F8E02042F0200295
:10228000C3F8E020D3F8E02002F020020692069A7C
:10229000D3F8E02042F00402C3F8E0204FF6837246
:1022A000D3F8E0300B9603F004030C950793022358
:1022B000079908A9CDE9082306F048FD48F237132D
:1022C00008A9234808930C950997CDE90A4606F01A
:1022D0003DFD4CF2037308A91E480893CDE909742B
:1022E000CDE90B6506F032FD40F2FF6308A91A48FC
:1022F0000893CDE90974CDE90B6506F027FD4FF68B
:102300000C7308A915480893CDE90974CDE90B654C
:1023100006F01CFD4FF63F0308A911480893CDE9CC
:102320000974CDE90B6506F011FD202308A90B48BF
:1023300009970C950893CDE90A4606F007FD0FB002
:10234000F0BD00BFF8BD0020004402580010025844
:1023500000180258000C025800200258001C0258B5
:10236000001402582DE9F04F8BB08346C8480D4643
:1023700000AF144602F05AFFC64BD3E90621002AEB
:1023800000F00A82002940F09280D3F804800821EE
:102390004FF002094269B8F1000F00F09280A100ED
:1023A000EA46012A01F1070121F00701ADEB010D19
:1023B0006846ADEB010D694600F0F581022A00F098
:1023C0007382002A40F0E581002C00F0E281D3ED19
:1023D0000C6A86469FEDB07A0BF1040C5E4636F926
:1023E00022900EF1080E07EE909A3CF922900232EC
:1023F000F8EEE77A944267EE877A67EEA67A4EEDBA
:10240000027A07EE909AF8EEE77A67EE877A67EE3F
:10241000A67A4EED017AE2D822467962C0479D4BFA
:102420000022796A93ED0D6A281DDFED9C6A9C4EAF
:102430009FED9C7ADFED9C5AD1ED007A334666EE33
:10244000277AF4EEE67AF1EE10FA0CD9F4EEC77AB8
:10245000F1EE10FA67FE277A67EEA57AFDEEE77ACD
:1024600017EE903A1BB2D1ED017A45F8223066EEB4
:10247000277AF4EEE67AF1EE10FA40F20682F4EEF4
:10248000C77A0831F1EE10FA67FE277A67EEA57A6F
:10249000FDEEE77A17EE903A1BB240F82230023296
:1024A0009442C9D8D5462C37BD46BDE8F08FD3F845
:1024B000048010214FF004094269B8F1000F7FF445
:1024C0006EAF1868F8610028EDD07848C7F818D0CA
:1024D000C7E9081202F018FFB9F1020F6D4BF8605E
:1024E000D7E9081200F069826846C4F35D0C012A3E
:1024F000A0EBC40085464FEA5400EE46B860AEEB50
:10250000C40085460EEB8C006E46ADEB010DC7E9AD
:1025100000E006EB8C003E616E46ADEB010D78618C
:102520000EEB8C003146C6F800E0706000EB8C06C4
:10253000796278698E60396900EB8C0A06EB8C0051
:10254000C7F820D0009179693861CDE9011A0AEB0A
:102550008C010391796AC86000F03484022A00F08B
:102560002F83002A40F01382002C00F09984B9F1E7
:10257000020F00F09B84601EFE683A610BF1040CB0
:102580004008DFED456A01304FEA800A586A00EBE7
:1025900086007E6AB268F6687A61021DD7F81480F8
:1025A000C7F81490B1465E46AB46D7E900E17A60C1
:1025B0003A693C616446D7F804C036F9125093ED8D
:1025C0000C6A07EE905A34F91250F8EEE77A67EE8B
:1025D000A67A67EE867AEEEC017A07EE905A30F929
:1025E0001250F8EEE77A07EE105A3CF9125067EEF7
:1025F000A67AB8EEC77A67EE867A27EE267AE1ECFD
:10260000017A07EE905A27EE067A08EB0205F8EEFB
:10261000E77A85ED007A09EB020567EEA67A93ED7D
:102620000C7A043267EE877A5245C5ED007AC4D140
:10263000D7F814905D463C69BA68FB69D7E9081081
:102640009847144B3A6AB9F1020F93ED0D7AD2E92B
:10265000006100F0798404F1FF3CDB6AFA683446DB
:102660004FEA5C0CDFED0D6A03EB82093B6A0CF16B
:10267000010C9FED0C6ADFED0C5A09F1040E4FEAD4
:102680008C0C0022281D064ED3E902839A4675E081
:1026900050BE002038BE00200000003804FF7FBF7D
:1026A0000280FFFF04FF7F3F00FEFF4654BE002074
:1026B00000000034F4EEC67AF1EE10FA66FE277AD6
:1026C00067EEA57AFDEEE77A17EE903A1BB2D1EDF0
:1026D000007A45F8123067EE277AF4EEE67AF1EEEA
:1026E00010FA40F26881F4EEC67AF1EE10FA66FE56
:1026F000277A67EEA57AFDEEE77A17EE903A1BB2DD
:1027000040F8123008EB0203D3ED007A67EE277A27
:10271000F4EEE67AF1EE10FA40F24B81F4EEC67A6E
:10272000F1EE10FA66FE277A67EEA57AFDEEE77AFB
:1027300017EE903A1BB249F812300AEB0203D3EDC0
:10274000007A67EE277AF4EEE67AF1EE10FA40F2BC
:102750002981F4EEC67AF1EE10FA66FE277A67EE6A
:10276000A57AFDEEE77A17EE903A1BB24EF81230DA
:102770000432624500F0108104340431D4ED007A53
:1027800067EE277AF4EEE67AF1EE10FA92D8334645
:102790009DE72246C04785E600297FF4F6AD2C3739
:1027A000BD46BDE8F08F002CF3D0D3ED0C6A814616
:1027B0001FED417A4FF0000E0BF1040C5E4656F807
:1027C0002E2009F1080982F40002A2F5000207EEAA
:1027D000902A5CF82E200EF1020EF8EEE77A82F4D1
:1027E00000027445A2F5000267EE877A67EEA67ACA
:1027F00049ED027A07EE902AF8EEE77A67EE877ADB
:1028000067EEA67A49ED017AD9D822467962C047A7
:10281000AC4B0022796A93ED0D6A281DDFEDAA6AA0
:10282000AA4E9FEDAB7AD1ED007A334666EE277A59
:10283000F4EEE67AF1EE10FA0BD9F4EEC77AF1EE87
:1028400010FA67FE277AF0EE675AFEEEE45A15EEAC
:10285000903AD1ED017A45F8223066EE277AF4EE0F
:10286000E67AF1EE10FA18D9F4EEC77A0831F1EEF3
:1028700010FA67FE277AFEEEE47A17EE903A40F8F7
:10288000223002329442CED80CE640F82260023266
:10289000083194423FF6D0AD04E640F8226002329F
:1028A00008319442BFD8FDE5002C3FF472AFD3ED60
:1028B0000C6A86469FED897A00220BF1040CE946EA
:1028C0005E4656F822100EF1080E07EE901A5CF8DC
:1028D00022100232F8EEE77A944267EE877A67EECA
:1028E000A67A4EED027A07EE901AF8EEE77A67EED6
:1028F000877A67EEA67A4EED017AE2D849462246FB
:10290000C7F82490C0476F4B0022796A93ED0D6A97
:10291000281DDFED6D6A6F4E9FED6D7AD1ED007A67
:10292000334666EE277AF4EEE67AF1EE10FA0BD92A
:10293000F4EEC77AF1EE10FA67FE277AF0EE675AE6
:10294000FEEEE05A15EE903AD1ED017A45F82230CC
:1029500066EE277AF4EEE67AF1EE10FA10D9F4EE8C
:10296000C77A0831F1EE10FA67FE277AFEEEE07AB8
:1029700017EE903A40F822300232A242CED391E5CF
:1029800040F82260023208319442C7D88AE5BA681A
:10299000FB69D7E908109847D7F818D02C37BD46FF
:1029A000BDE8F08F4EF81260043262457FF4E4AE69
:1029B000F2E73346BFE63346A2E6A000012A4FEA1B
:1029C000540E00F1070020F0070CADEB0C0D68462B
:1029D000ADEB0C0DC7F808E0EC4600EB8E06ADEB56
:1029E000010DC7E90006C7F824D06E46ADEB010D16
:1029F00031463060CDF800C000EB8E060CEB8E0C3B
:102A0000C7F820D04E60CDF804C07FF4A7AD002CED
:102A100000F04682D3ED0C6A024679680BF1040C93
:102A20009FED2D7A5E4656F8280080F40000A0F550
:102A3000000007EE900A5CF8280008F10208F8EEA2
:102A4000E77A80F400004445A0F5000067EE877A3D
:102A500067EEA67AE2EC017A07EE900AF8EEE77AE2
:102A600067EE877A67EEA67AE1EC017ADBD87246E8
:102A7000FB69D7E908109847124B396AB9F1020F80
:102A800093ED0D7AD1E9002100F0F98204F1FF3CC9
:102A9000DB6AF86814464FEA5C0CDFED0B6A03EB67
:102AA00080093B6A0CF1010C9FED096A09F1040EE3
:102AB000281D4FEA8C0C054ED3E902839A46002369
:102AC00069E000BF38BE002004FF7FBF7E0080FFAA
:102AD00004FF7F3F007E00800000003400000030D3
:102AE000F4EEC67AF1EE10FA66FE277AF0EE675A37
:102AF000FEEEE45A15EE902AD1ED007A45F8132047
:102B000067EE277AF4EEE67AF1EE10FA56D9F4EE93
:102B1000C67AF1EE10FA66FE277AF0EE675AFEEEFC
:102B2000E45A15EE902A40F8132008EB0302D2ED88
:102B3000007A67EE277AF4EEE67AF1EE10FA3BD9E6
:102B4000F4EEC67AF1EE10FA66FE277AF0EE675AD6
:102B5000FEEEE45A15EE902A49F813200AEB030220
:102B6000D2ED007A67EE277AF4EEE67AF1EE10FA0B
:102B70001CD9F4EEC67AF1EE10FA66FE277AFEEE64
:102B8000E47A17EE902A4EF81320043363453FF49D
:102B900003AF04340431D4ED007A67EE277AF4EE03
:102BA000E67AF1EE10FA9BD83246A5E74EF81360AC
:102BB00004336345EDD1EFE63246CDE73246B2E766
:102BC000002C00F06D81B9F1020F00F09581621EBA
:102BD000FE680BF1040C38685208C7F800905FEDEE
:102BE000416A01324FEA820A5A6A02EB86087A6A1F
:102BF00008F10401D2E9026239617A61B646D7F878
:102C000014905E467C61002264467968AB46D7F832
:102C100010C056F8125093ED0C6A07EE905A54F813
:102C20001250F8EEE77A67EEA67A67EE867AE0EC65
:102C3000017A07EE905A58F81250F8EEE77A67EEEC
:102C4000A67A67EE867AE1EC017A07EE905A5CF894
:102C50001250B8EEE77A07EE905A0EEB020527EE17
:102C6000267AF8EEE77A27EE067A67EEA67A85ED01
:102C7000007A09EB020593ED0C7A043267EE877A4D
:102C80009245C5ED007AC4D1D7F800905D467C69C5
:102C9000BA68FB69D7E908109847CF4B396AB9F190
:102CA000020F93ED0D7AD1E9002100F0A78104F124
:102CB000FF3CDB6AF86814464FEA5C0CDFEDCD6A36
:102CC00003EB80093B6A0CF1010C9FEDCB6A09F123
:102CD000040E281D4FEA8C0CC04ED3E902839A469D
:102CE00000235AE0F4EEC67AF1EE10FA66FE277A77
:102CF000F0EE675AFEEEE05A15EE902AD1ED007A1A
:102D000045F8132067EE277AF4EEE67AF1EE10FA32
:102D100056D9F4EEC67AF1EE10FA66FE277AF0EE96
:102D2000675AFEEEE05A15EE902A40F8132008EBA1
:102D30000302D2ED007A67EE277AF4EEE67AF1EE3E
:102D400010FA3BD9F4EEC67AF1EE10FA66FE277A55
:102D5000F0EE675AFEEEE05A15EE902A49F813207D
:102D60000AEB0302D2ED007A67EE277AF4EEE67AF8
:102D7000F1EE10FA1CD9F4EEC67AF1EE10FA66FE06
:102D8000277AFEEEE07A17EE902A4EF813200433ED
:102D900063453FF401AE04340431D4ED007A67EEAC
:102DA000277AF4EEE67AF1EE10FA9BD83246A5E7E0
:102DB0004EF8136004336345EDD1EDE53246CDE7BF
:102DC0003246B2E7002C6BD0611EF868F2464246EC
:102DD00049080BF1040CC7F800900131DFED806A5F
:102DE000D7F8109089007961596A01EB800E30465E
:102DF0005E46AB460EF104085546A2467C6856F87E
:102E0000121093ED0C6A81F40001A1F5000107EEA8
:102E1000901A5CF81210F8EEE77A81F40001A1F53F
:102E2000000167EEA67A67EE867AE5EC017A07EE96
:102E3000901A5EF81210F8EEE77A81F4000167EE5E
:102E4000A67AA1F5000167EE867AE4EC017A07EE36
:102E5000901A58F81210B8EEE77A81F40001A1F543
:102E6000000127EE267A07EE901A811827EE067ADF
:102E7000F8EEE77A81ED007A09EB020167EEA67AB7
:102E800093ED0C7A043267EE877AC1ED007A7969A6
:102E90009142B4D1D7F800905D465446BA68E7E550
:102EA0002246FB69D7E90810984775E5D3ED0C6A0F
:102EB0000BF1040C9FED4B7A5E46D7E9000136F921
:102EC00022E007EE90EA3CF922E00232F8EEE77ADF
:102ED000944267EE877A67EEA67AE0EC017A07EE15
:102EE00090EAF8EEE77A67EE877A67EEA67AE1EC89
:102EF000017AE4D8FFF7A0BBD3ED0C6A00229FED66
:102F00003A7A0BF1040C5E46AE46D7E9000156F85A
:102F1000225007EE905A5CF822500232F8EEE77A1F
:102F2000944267EE877A67EEA67AE0EC017A07EEC4
:102F3000905AF8EEE77A67EE877A67EEA67AE1ECC8
:102F4000017AE4D87546A3E60022DFED2A6A9FEDF8
:102F50002A6A281DDFED255ADFF894C0D6ED007AE5
:102F6000634667EE277AF4EEE67AF1EE10FA0CD9B2
:102F7000F4EEC67AF1EE10FA66FE277A67EEA57ACD
:102F8000FDEEE77A17EE903A1BB2D1ED007A0436E7
:102F9000043145F8223067EE277AF4EEE67AF1EE56
:102FA00010FA12D9F4EEC67AF1EE10FA66FE277A1C
:102FB00067EEA57AFDEEE77A17EE903A1BB240F87D
:102FC000223002329442C9D8E6E440F822C00232EC
:102FD0009442C3D8E0E400BF38BE0020007E0080E9
:102FE00000000034000000380000003000FEFF4602
:102FF0000280FFFF04FF7FBF04FF7F3F00235FEDE0
:10300000036A1FED036A281DDFF8FCC0D2ED007AC9
:10301000664667EE277AF4EEE67AF1EE10FA0BD9FF
:10302000F4EEC67AF1EE10FA66FE277AF0EE675AF1
:10303000FEEEE05A15EE906AD1ED007A04320431CA
:1030400045F8236067EE277AF4EEE67AF1EE10FA9F
:103050000FD9F4EEC67AF1EE10FA66FE277AFEEE8C
:10306000E07A17EE906A40F8236002339C42CDD894
:1030700092E440F823C002339C42C7D88CE400237A
:10308000DFED1F6A9FED1F6A281DDFF880C0D2EDBB
:10309000007A664667EE277AF4EEE67AF1EE10FAE9
:1030A0000BD9F4EEC67AF1EE10FA66FE277AF0EE4E
:1030B000675AFEEEE45A15EE906AD1ED007A0432BA
:1030C000043145F8236067EE277AF4EEE67AF1EEF4
:1030D00010FA0FD9F4EEC67AF1EE10FA66FE277AEE
:1030E000FEEEE47A17EE906A40F8236002339C42C9
:1030F000CDD851E440F823C002339C42C7D84BE4FA
:1031000004FF7FBF04FF7F3F007E00807E0080FFC2
:1031100010B5194C84B09646046004F1080C0FC930
:103120008CE80F00D4ED047AF5EEC07A8DE80F003C
:10313000F1EE10FA1CDDB7EE006A94ED057A27EE89
:10314000277AC6EE276A84ED0D7AC4ED0C6ABEF1CB
:10315000000F0DD0204640F818EF02F067F807493D
:1031600003690020064A2162A262E36004B010BD38
:10317000012004B010BD00BF38BE00200020003088
:103180000000003000680830704700BFB1F5807F54
:1031900003680A4628BF4FF48072B1F5807F9A60B9
:1031A00094BF0020012070470068183002F09AB8E0
:1031B00070B504688AB0A369E160D3B104F1180066
:1031C00002F034F8E2688446EE461546BCE80F008B
:1031D000AEE80F00BCE80F00AEE80F009CE803006B
:1031E0008EE80300694604F11800049501F020FF01
:1031F000F0B9E369CBB104F11C05284602F016F8DA
:103200008446EE46E468BCE80F00AEE80F00BCE878
:103210000F00AEE80F009CE803008EE8030069464B
:103220002846049401F004FF10B900200AB070BDD4
:1032300001200AB070BD00BF30B5046883B00D46F0
:10324000E3694BB1A3680020E26A616A9B000090C9
:1032500004F11C0001F0ECFFA3680748A26A9B0080
:10326000216A009004F1180001F0E2FF0020C4E997
:10327000005003B030BD00BF65230024064B302052
:1032800003214FF07E52C3E90201002000211A61A0
:103290005A61C3E90601704738BE0020F6EE006AA5
:1032A0009FED146A20EE207A80ED020AF7EE007A94
:1032B00080ED036A016027EE267AC7EE876AF4EE96
:1032C000E76AF1EE10FA05DCB4EEE66AF1EE10FA08
:1032D00076FE267A4FF07E514FF0000C02760022E7
:1032E000C0ED017AC0F814C0016143768276C0ED6A
:1032F000070A7047000000000268037E128807EE8C
:10330000902AFBEEC87A1BB1B7EE007A77EE677AA7
:10331000D0ED056A90ED047A77EEE67A437E67EEAB
:10332000877A0BB1F1EE677A90ED030A90ED017A9E
:1033300077EEC07AA7EE270A80ED030A704700BF38
:10334000837E80ED020ADBB9D0ED077A27EE800A92
:10335000B6EE007AF7EE007A20EE070A87EE807A62
:10336000B4EEE77AF1EE10FA07DCDFED077AF4EE5F
:10337000C77AF1EE10FA77FE877AC0ED017A7047CE
:10338000DFED027AE2E700BF000000006F12033BAE
:1033900030B585B004460025ADF80C10ADF8082016
:1033A000ADF8043003F050F8BDF80C204FF48073F2
:1033B000206004F118002283BDF808206383E383B2
:1033C000A283257100F0C4FD04F11C0000F0C0FDD3
:1033D0009FED060A019904F1080000F033F94FF659
:1033E000FF736562238405B030BD00BF000000009C
:1033F00030B5044683B003F027F800232268237118
:10340000824206D104F1080003B0BDE8304000F06C
:1034100031B9012194F82020206004F118002171B5
:10342000019200F073FE019A94F8215040EA4202A2
:1034300004F11C0084F8202000F068FE002340EA1C
:1034400045000121636294F8203084F8210000F0E7
:10345000030003F00303022B07D00228D2D1002B74
:10346000D0D14FF0FF336362CCE70028CAD161624C
:10347000C8E700BF0FB470B582B02B4E2B4D06AB22
:10348000306853F8042BC0F180012844019310F0F8
:10349000A1FB3368C01840D02A1801E0013820D0C1
:1034A00012F8013D0A2BF9D00D2BF7D0841C7F2C8C
:1034B00018D9802342F224421C46A5F87E201C4DD8
:1034C00033602B68012B18D922461849194800F09F
:1034D00091F90028F8D1306002B0BDE8704004B026
:1034E000704702240D230A222B54054423466A7098
:1034F0000F4D33602B68012BE6D822460B490D484F
:1035000000F078F90028E7D12B68306001332B6098
:1035100002B0BDE8704004B070470D210A220223BA
:1035200029701C466A70CAE778BE00207CBE002065
:1035300074BE002070BE002010B50446002108486B
:1035400000F0CEF8074A630007481360FFF792FFC8
:103550000648FFF78FFF0A20BDE8104002F076BF53
:1035600070BE002074BE002048510124585101242F
:10357000074B0021074AB3F800C082609A884FF4D5
:103580008073A0F804C00160C280C360704700BFB0
:103590004C5001240040003000220A2302700371C5
:1035A000704700BF30B52DED028B85B09FED128ABC
:1035B00005469DF82840B0EE480AADF80C10039976
:1035C000ADF808202246ADF804300DF0EDFBB0EE6A
:1035D000480A2246029905F11C000DF0E5FBB0EE09
:1035E000480A2246019905F1380005B0BDEC028B6E
:1035F000BDE830400DF0D8BB00007A4438B50C4629
:10360000054691ED000A0DF0F3FB94ED010A05F17A
:103610001C000DF0EDFB94ED020A05F13800BDE849
:1036200038400DF0E5BB00BF10B504460DF0F2FBCD
:1036300004F11C000DF0EEFB04F13800BDE8104071
:103640000DF0E8BB30B5044683B00D0A009102F0DE
:10365000FBFE4FF4807200994FF001232060A01D03
:10366000A171A280E571A36003B0BDE8304000F015
:103670006FBC00BF10B5044682B002F0E5FE002228
:1036800023682271834210D00121A37AE27A20605C
:10369000A01D2171019352B900F038FD019B40EA51
:1036A0004300C0B27F28A0720DD002B010BD00F060
:1036B0002DFDB0FA80F0019B400940EA4300C0B202
:1036C0007F28A072F1D102F0BFFE07EE900AF8EE5B
:1036D000677AC4ED037A02B010BD00BF704700BF27
:1036E000012908B519D0022910D019B1BDE8084048
:1036F00007F08EBC364B0A46DFF8F4C03549364831
:10370000C3F800C00CF07EFED0B1FEE701223349C1
:1037100033480CF077FE68B1FEE70A4630482F497F
:103720000CF070FE00B1FEE72E492D480CF08CFE27
:10373000C0B1FEE72B492A480CF086FE60B1FEE7D7
:10374000284925480CF080FE00B1FEE726492248B2
:103750000CF00AFE18B3FEE7244921480CF004FEE1
:1037600060B1FEE721491E480CF0FEFD00B1FEE706
:103770001B480CF081FE0028B8D0FEE718480CF07A
:103780007BFE024650B9124BDFF864C01149124863
:10379000C3F800C00CF036FE38B1FEE7FEE70E4875
:1037A0000CF06AFE0028A1D0FEE70E490A480CF092
:1037B0004BFE00B1FEE70C4907480CF0D5FD00B107
:1037C000FEE705480CF058FE00288FD0FEE700BF4A
:1037D000FCBE00203C03002004BF00200C0300209E
:1037E000A0C1002094040020C8020020B8020020DC
:1037F000DD360024084691B208B503F0A7F800387A
:1038000018BF012008BD00BF014806F027BE00BF59
:10381000A8020120014806F021BE00BFA802012035
:10382000014806F01BBE00BFA802012000B583B00E
:103830004FF0000E4FF0030C4274ADF80410BDF8C9
:10384000043080F810E0A0F802C0038003B000BD8F
:103850002DE9F04F4FF00008DFF8F4928FB0B74C2D
:1038600003700646B64B174642600D46202241467D
:103870004846C4F86831C4F86491CDE90388CDE9BD
:103880000588CDE90788CDE90988CDE90B8810F0D6
:10389000E7F92022414604F5A170C4F83181C4F84B
:1038A0003581C4F83981C4F83D8110F0D9F984F824
:1038B0003071736884F84882002B00F0848143469D
:1038C000484604F5987E05F1100AC446019708E0C1
:1038D0004FF00101624503F1120384F8481264D9E4
:1038E0000230E91855F803B0E2180CF1010CCF686A
:1038F000D1F80490D1F8088044F803B0D7604FF0B5
:103900000007C2F80490C2F80880098A0780118273
:103910001AF803100EF8011F72680029D8D1624509
:1039200003F11203DCD8019F94F84832FFB2002B58
:103930003ED10121032332780020C4F898310023BE
:1039400084F88111C4F874317E4984F8803184F898
:103950008831C4F88471C4E967334FF48023C4E923
:103960005B1308210123C4E95E310021C4E964012D
:103970009AB100200121013A84F8A431C4E96C0114
:10398000082A0CD8DFE812F0FE00F900F400EF007E
:10399000EA00D500CF00C800C10084F8A4216A481D
:1039A00003F0BEFF30B1FFBEFEE7019F0021FFB272
:1039B0000123C0E7039003A9634804F0E3F800285B
:1039C00040F0A180042340F2FF720B90CDE909235F
:1039D00094F83031002B4BD0DFF878818146DFF846
:1039E00078A14FF0070BA8F58E756B7B072B07D8D6
:1039F000DFE803F08386807A777D4104CDF820B03C
:103A0000281F00F0A5FA2B7B042B3CDC022B00F3D3
:103A1000D28000F0CC80002388F8003015F8043CF8
:103A2000002B42D0022B00F0B280012B07D115F8F9
:103A3000033C012B00F0CB80002B00F0D68000234C
:103A4000069306A9DAF800303F48079303F0ACFC70
:103A5000002840F0C08009F1010994F830210AF1F2
:103A6000040A08F101085FFA89F312359A42BCD8BA
:103A70000FB0BDE8F08F0623281F089300F068FA06
:103A80002B7B042BC2DD032388F800302F46002651
:103A90003846013600F05CFA98F800300437B3423B
:103AA000F6DC15F8043C002BBCD115F8032C062AD3
:103AB00000F08580072A00F09480022A00F09780A9
:103AC000032A00F09680002A00F09580012A00F079
:103AD0009480042A00F09380052A1C4A08BF1346EC
:103AE000AEE7042308938BE70323089388E70523B5
:103AF000089385E70223089382E7002308937FE772
:103B0000012308937CE7FFBEFEE740F2FF324FF44B
:103B1000A073C4E96A2342E740F2FF124FF49073A6
:103B2000C4E96A233BE7FF224FF48073C4E96A23A8
:103B300035E77F22E023C4E96A2330E740C4002050
:103B40004041003000200240ACC500200000B84FCA
:103B50000041003060C50020205201243F22C023D4
:103B6000C4E96A231BE71F22A023C4E96A2316E7DE
:103B70000F228023C4E96A2311E707226023C4E9E6
:103B80006A230CE703224023C4E96A2307E715F8F8
:103B9000033C042B15D0052B1BD0F3B1012B1ED0F9
:103BA000022B20D0032B7FF44AAF164B48E70123AA
:103BB00088F800306AE7022388F8003066E7124B85
:103BC0003EE7124B3CE7FFB201210323B3E6104B63
:103BD00036E7104B34E7FFBEFEE70F4B30E70F4BE5
:103BE0002EE70F4B2CE70F4B2AE70F4B28E70F4B25
:103BF00026E70F4B24E70F4B22E70F4B20E70F4B35
:103C00001EE700BF002090360800900C1000C01086
:103C10002000F014000180210004002A0008302E4A
:103C20008000501D001060320002B0250040C03AF4
:103C30000080F03E00002143000052470000844B0A
:103C4000044BD3F8643103EB41000F2988BF1846B9
:103C5000704700BF40C40020224B02689A4200D047
:103C60007047214A0021214BD2F8D800DFF880C0EC
:103C700040F0200000B583B0C3F8D0C14FF0090C6C
:103C8000C3E975C1C2F8D8004FF4806CD2F8D800EF
:103C900093F8482200F0200082F00102019003F521
:103CA000E8701202C3E9771CC3F8EC214FF4006CF2
:103CB000019A4FF40052C3F8E4C1C3F8E821C3E904
:103CC0007C1104F08BF9094B08B1FFBEFEE703F548
:103CD000B67203F5E871C3F80822C3F8B81103B04F
:103CE00000BD00BF002002400044025840C4002034
:103CF00040000240014804F0C7BC00BF10C60020CD
:103D000000B593B00180ADF80410C9B2DDF850C021
:103D10000B29C0F80CC0C0E901233FD090F801E0A6
:103D2000BEF10F0F3AD8022A3CD0032A04D0A2F1E8
:103D30000102B2FA82F25209012B0E9205D0A3F1D0
:103D40000203B3FA83F35B095B00BCF1020F0F932C
:103D500026D0BCF1030F23D0ACF10103B3FA83F3F7
:103D60005B090A2910930ED8624B4A1E03EB81238C
:103D70000361092A00F2AE80DFE802F09D8E7F70B9
:103D800061524334251600231A46036101230DA90D
:103D9000104603FA0EF30D9304F0D8FF13B000BDE4
:103DA0006346DEE71122C7E7534B544AD3F8E010CD
:103DB00041F48061C3F8E010D3F8E03003F480638D
:103DC0000C930C9BE2E74C4B4D4AD3F8E01041F4C6
:103DD0000071C3F8E010D3F8E03003F400730B93E4
:103DE0000B9BD3E7444B474AD3F8E01041F4807172
:103DF000C3F8E010D3F8E03003F480730A930A9B11
:103E0000C4E73D4B404AD3F8E01041F08001C3F8CD
:103E1000E010D3F8E03003F080030993099BB5E785
:103E2000354B3A4AD3F8E01041F04001C3F8E010B6
:103E3000D3F8E03003F040030893089BA6E72E4B2D
:103E4000334AD3F8E01041F02001C3F8E010D3F872
:103E5000E03003F020030793079B97E7264B2D4A9A
:103E6000D3F8E01041F01001C3F8E010D3F8E030CF
:103E700003F010030693069B88E71F4B264AD3F8EE
:103E8000E01041F00801C3F8E010D3F8E03003F08F
:103E900008030593059B79E7174B204AD3F8E010F8
:103EA00041F00401C3F8E010D3F8E03003F004035C
:103EB0000493049B6AE7104B194AD3F8E01041F0D1
:103EC0000201C3F8E010D3F8E03003F002030393DB
:103ED000039B5BE7084B074AD3F8E01041F0010170
:103EE000C3F8E010D3F8E03003F001030293029B23
:103EF0004CE700BF00000258004402580028025856
:103F00000024025800200258001C025800180258D1
:103F10000014025800100258000C02580008025801
:103F20000004025808B5012143780069994089B21C
:103F300005F022FA003818BF012008BD90F801C032
:103F400001230A46006903FA0CF189B205F01ABA96
:103F50008378022B30B504468FB039D0032B00F0A4
:103F6000D180A3F10102B2FA82F25209E3780A92F7
:103F7000012B05D0A3F10203B3FA83F35B095B00C5
:103F800000222046CDE90B3203F0CAF80546204650
:103F900003F0CEF823780990082B13D8DFE803F05C
:103FA0002D405366798C9F051A00574BD3F8E020BB
:103FB00042F08002C3F8E020D3F8E03003F0800341
:103FC0000793079B09A9284604F0C0FE0FB030BD37
:103FD0001122CBE74C4B09A92846D3F8E02042F444
:103FE0008072C3F8E020D3F8E03003F480730893C4
:103FF000089B04F0ABFE0FB030BD434B09A9284627
:10400000D3F8E02042F00102C3F8E020D3F8E0301A
:1040100003F001030093009B04F098FE0FB030BD45
:10402000394B09A92846D3F8E02042F00202C3F830
:10403000E020D3F8E03003F002030193019B04F089
:1040400085FE0FB030BD304B09A92846D3F8E020DB
:1040500042F00402C3F8E020D3F8E03003F0040398
:104060000293029B04F072FE0FB030BD264B09A9EB
:104070002846D3F8E02042F00802C3F8E020D3F845
:10408000E03003F008030393039B04F05FFE0FB0DE
:1040900030BD1D4B09A92846D3F8E02042F010029C
:1040A000C3F8E020D3F8E03003F010030493049B3E
:1040B00004F04CFE0FB030BD134B09A92846D3F8CD
:1040C000E02042F02002C3F8E020D3F8E03003F013
:1040D00020030593059B04F039FE0FB030BD0A4B59
:1040E00009A92846D3F8E02042F04002C3F8E020B6
:1040F000D3F8E03003F040030693069B04F026FE5D
:104100000FB030BD1A4631E70044025838B50546B5
:1041100003F006F80446284603F00AF80146204654
:10412000BDE8384005F028B970B506460D4602F0E6
:10413000F7FF0446304602F0FBFF2A1E01462046E8
:1041400018BF0122BDE8704005F01CB902680023C9
:104150001221032A70B586B00446CDE901130393FA
:1041600001D804230493201D02F0DAFF0646201D27
:1041700002F0DEFF69460090304604F0E7FDA01D26
:1041800002F0CEFF0546A01D02F0D2FF6946009066
:10419000284604F0DBFD06B070BD00BF684A036826
:1041A000934200B58DB029D0664A93425CD0664AEE
:1041B000934200F09B80654A934201D00DB000BD50
:1041C000634B6448D3F8E02042F00202C3F8E020D9
:1041D000D3F8E02002F002020A920A9AFFF7B6FF33
:1041E0005B4BD3F8F42042F08002C3F8F420D3F8FC
:1041F000F43003F080030B930B9BDFE7544B5648DE
:10420000D3F8E02042F00202C3F8E020D3F8E02027
:1042100002F002020192019AFFF798FF4C4B002234
:104220001F20D3F8E81041F4001C1146C3F8E8C081
:10423000D3F8E8C00CF4001CCDF808C0DDF808C0C5
:10424000D3F8D8C04CF0010CC3F8D8C0D3F8D8309C
:1042500003F001030393039B03F016FD1F200DB031
:104260005DF804EB03F040BD394B3C48D3F8E02047
:1042700042F08002C3F8E020D3F8E02002F0800290
:104280000492049AD3F8E02042F00202C3F8E0203E
:10429000D3F8E02002F002020592059AFFF756FFDC
:1042A0002B4B00222120D3F8E81041F4800C11465A
:1042B000C3F8E8C0D3F8E8C00CF4800CCDF818C0FF
:1042C000DDF818C0D3F8D8C04CF0010CC3F8D8C042
:1042D000D3F8D83003F001030793079B03F0D4FC15
:1042E00021200DB05DF804EB03F0FEBC1C48FFF785
:1042F0002DFF174B00224820D3F8E8C011464CF49C
:10430000000CC3F8E8C0D3F8E8C00CF4000CCDF8FA
:1043100020C0DDF820C0D3F8D8C04CF0010CC3F8A1
:10432000D8C0D3F8D83003F001030993099B03F0F8
:10433000ABFC48200DB05DF804EB03F0D5BC00BF2A
:104340000054004000580040005C0040001C005831
:104350000044025818C9002090C6002068C70020F9
:1043600040C800200D4B002210210D484FF0FF0CDB
:104370005A6019801A8180F800C05A611983DA6185
:104380001A84DA6219865A631A875A64C3E90322C7
:10439000C3E90922C3E90F22704700BF7000002063
:1043A0008CC60020EFF3108272B60C4B1978090608
:1043B00003D50AB962B67047704700B51B78D8209C
:1043C000074983B05BB2019200FB031004F05CF973
:1043D000019A02B962B603B000BD00BF8CC60020CE
:1043E000A4C60020014805F017BF00BF1CC700206D
:1043F000014805F011BF00BFF4C70020014805F0D7
:104400000BBF00BFCCC80020F0B50C68D825414ECA
:1044100087B004FB05F5032C06EB050303605FDCA6
:10442000CA68012A5CD857D00F4608689C4649687C
:10443000BA680DF1180EFB68ACE80F00D822364BB5
:1044400002FB04613A7C01918CF80020D1F808C08D
:104450000FCB0EE90F000EEB8403019ABCF1010FA4
:1044600053F8103CC2F88C3048D0BCF1020F3AD05F
:10447000BCF1000F09D102F07FF9284B019A984254
:104480000CBF274B274BC2F89030D8233A7C2649E3
:10449000012003FB04F452008C3533199834C3F81F
:1044A00094200022C3E92602C3F8A020A8190A51CB
:1044B0000C446260C3F8AC2005F090FC80B9014662
:1044C000A81905F0BBFE58B90146A81905F0E2FE8F
:1044D000003818BF012004E00A7C103A672AA3D9EB
:1044E000012007B0F0BD02F047F90C4B019A984249
:1044F0000CBF0E4B0E4BC2F89030C6E702F03CF9F1
:10450000064B019A98420CBF0A4B0B4BC2F89030F5
:10451000BBE700BF90C6002054500124000E2707BF
:104520005F4390608A62E0309CC60020200BA010A0
:104530001A0980102D0FB0303211D0202DE9F04132
:10454000056882B0884616461F4605F18C04204651
:1045500005F070FE2028FAD1EB687BB94FEA4801DC
:104560002046089C3B46324689B2009405F096FCF2
:10457000003818BF012002B0BDE8F081089B3A4620
:104580003146204605F058FDF2E700BF044B1022EB
:104590001A7483F8E82083F8C02183F898227047C2
:1045A00090C6002010B5002396B04FF4807106220B
:1045B00004460D9308921593CDE90E13CDE91033FF
:1045C000CDE9133302F0DAF807282DD004F11003F7
:1045D00041F2883208A91846019306F099FE28B1E5
:1045E000012384F85C30012016B010BD02220123A3
:1045F0004FF0100C08A905934FF480030198CDF8F3
:1046000010C0CDE902220022CDE9062305224FF099
:104610008073089202AA119341F2883307F00EF8D2
:104620000028DDD116B010BD032384F85C30DAE732
:1046300030B50023A7B04FF080724FF48075044668
:10464000ADF80E301D932593CDE920320122CDE93E
:104650001E53CDE923332292002942D0F02200F1EB
:10466000100518ABADF80E20C02041F28832194673
:104670001890284606F04CFE28B1012384F85C30DF
:10468000012027B030BD41F288320DF10E012846DD
:1046900006F0BEFE03460028EFD14FF480710522DC
:1046A000284601250A92102212930F931793049320
:1046B0000795CDE910139FED1E7B4FF08071CDE97A
:1046C0001533139141F288330AA9CDE905526A44A2
:1046D0008DED087B06F0B2FF0028D2D084F85C5044
:1046E000CEE718AB612100F1100541F28832189134
:1046F00019462846019306F00BFE0028BDD141F271
:1047000088320DF10E01284606F008FF0028B4D1CA
:10471000BDF80E20204622F0780242F04002ADF8AB
:104720000E20FFF73FFF019B00289DD0A5E700BFAB
:1047300000000000000040002DE9F04D0023AAB069
:104740004FF4807501248DF807304FF08078219365
:10475000074613931B9322951C94CDF89480CDE9C2
:104760002333CDE92643CDE92833CDE91453CDE9F0
:104770001633CDE9193306230E9301F0FFFF072806
:1047800007D041F288320EA907F1100006F0C0FDF3
:1047900030B1012387F85C3001202AB0BDE8F08DEC
:1047A00002234FF0000B4FF4800C08AA0EA907F16A
:1047B00010000B94CDF85C80CDE9083310230A93E8
:1047C00005230E9341F28833CDE90CBC06F036FF89
:1047D0000028DED141F2883207F110001CA906F052
:1047E00097FD0028D5D1402341F288320DF1070111
:1047F00007F110008DF8073006F00AFE0028C8D136
:10480000402305204FF0000A4FF4800B1C901CA998
:1048100002AA07F110000594CDF89480CDE9023387
:104820001023049341F28833CDE906AB06F006FF6E
:1048300003460028ADD10520102213930EA90E9037
:1048400007F110000A9208AA1B931495CDF85C801A
:104850000B94CDE91533CDE91933CDE9083441F294
:104860008833CDE90CAB06F0E9FE002895D087F837
:104870005C4091E7000000002DE9F0415E4CA4B0DF
:104880000E46046001F07AFF072800F0A680306829
:1048900025467168B26807C5B389284620F8043BED
:1048A000237B94F80D80019306F012FDD8B9019B8B
:1048B0000126E061012B514BC4E9056623610CBF61
:1048C0004FF400034FF4801393FAA3F3B3FA83F386
:1048D0004FF48077013B6762C4E90B00281D236217
:1048E00006F076FC38B1012384F85C3001273846A5
:1048F00024B0BDE8F08166230D90159041F2883216
:1049000008A90893CDE90E70CDE91000CDE9130098
:10491000281D06F0FDFC0028E5D1992341F28832DC
:1049200008A9281D089306F0F3FC0028DBD1052315
:104930001E901B9002AA16934FF08073239016A925
:104940001F9310230596049341F288339FED267B35
:10495000CDE91C70CDE92100CDE90206281D8DEDC1
:10496000067B06F06BFE0028BDD101992046FFF7BB
:104970005FFE0028B7D12046FFF7DEFE074600287D
:10498000B1D1B8F1000FB2D14FF4807308AA16A9C3
:10499000281D1C93EB231A9716934FF440631D9325
:1049A0004FF4005319934FF440431E93A0231893E0
:1049B00006231B934FF080539FED0D7B23934FF005
:1049C0004073CDE921771F938DED087B06F0CAFE79
:1049D00000288CD084F85C6088E7032384F85C307E
:1049E00084E700BFAFF3008000000000000040003B
:1049F0000000000000000000F0C90020005000523C
:104A00002DE9F0478CB03E4B0024026800AF9A427B
:104A1000FC62C7E90744C7E9094403D03037BD4603
:104A2000BDE8F087374B40F609213748EA46D3F80E
:104A3000D42007F11405354E07F11A0842F48042DC
:104A4000C3F8D420D3F8D42002F480423A603A6804
:104A5000D3F8E02042F04002C3F8E020D3F8E02091
:104A600002F040027A607A68D3F8E02042F0200237
:104A7000C3F8E020D3F8E02002F02002BA60BA6860
:104A8000D3F8E02042F01002C3F8E020D3F8E02091
:104A900002F01002FA60FA68D3F8E02042F0020255
:104AA000C3F8E020D3F8E030786103F002033983E3
:104AB0003B613B6956F8040F02F032FB81463068D7
:104AC00002F036FB0223F86107F11C014846C7E9F2
:104AD00008340323BB6215F8013BFB6204F036F98E
:104AE0004545E7D100225C20114603F0CDF85C205B
:104AF00003F0FAF83037D546BD46BDE8F08700BF71
:104B000000500052004402580A0A09094CCA002009
:104B1000114B02689A4200D07047104A70B5D2F823
:104B2000D4300F4C23F4804304F11806C2F8D4307B
:104B300054F8040F02F0F4FA0546206802F0F8FA7F
:104B40000146284604F0FAFAB442F1D15C20BDE8EF
:104B5000704003F0D7B800BF005000520044025824
:104B60004CCA0020014806F087BE00BF00CA0020E2
:104B7000074B1A1D03F1020C981D03F108019A66F8
:104B800003F10A02C3E9183CC3E91B015A677047E5
:104B9000F0C900202DE9F041821D05468AB0031DB1
:104BA00005F10A010830CDE9052305F10C02AB69D6
:104BB000CDE907010992002B3AD0EF69B7FA87F7E0
:104BC0007F090123022205AE4FF006080393CDE9C9
:104BD000012356F8044B2B792278934216D02B6888
:104BE000EBB1012B02D1EAB10A230493204602F073
:104BF0009FFA0090204602F093FA694604F0A6F866
:104C00000AAB9E42E5D10AB0BDE8F08169796378CC
:104C10009942E4D1002FF3D02B68002BE1D1CDF8DD
:104C20001080E3E76378022B0CBF08230A23DCE73C
:104C30000127C6E7AE49024603688B4200B58DB036
:104C400000F08A8020318B4200F08680A9498B4297
:104C500004D020318B4201D00DB000BDA64B009294
:104C6000D3F8E010A54841F00101C3F8E010D3F8F3
:104C7000E01001F0010107910799D3F8E01041F02D
:104C80000801C3F8E010D3F8E01001F00801089122
:104C90000899D3F8E01041F04001C3F8E010D3F8D0
:104CA000E01001F0400109910999D3F8F01041F4A6
:104CB0000001C3F8F010D3F8F01001F400010A91DC
:104CC0000A99FFF767FF8C4B009AD3F8D800D2F807
:104CD00000C08B4940F00102D1F85C02C3F8D82033
:104CE000D3F8D83003F001030B93824B0B9A9C4509
:104CF00000F0BB80D1F88032013B18BF01239A013C
:104D0000002840F0E1807F4801F22C434FF0580C1E
:104D100001F54771C1F8100100200191009358621C
:104D2000C3E901C24FF4806C4FF48052C3E9030C15
:104D30005A614FF4804C4FF480721846C3E906C2A2
:104D40004FF400321A6203F049F9DDE9003100281E
:104D500000F0A180FFBEFEE7674B0092D3F8E010A1
:104D6000674841F00101C3F8E010D3F8E01001F00A
:104D7000010102910299D3F8E01041F01001C3F84B
:104D8000E010D3F8E01001F0100103910399D3F87B
:104D9000E01041F04001C3F8E010D3F8E01001F05A
:104DA000400104910499D3F8F01041F48001C3F854
:104DB000F010D3F8F01001F4800105910599FFF788
:104DC000E9FE4D4B009AD3F8D810D2F800E041F03C
:104DD0000101DFF81CC14A48C3F8D810E645D3F8F2
:104DE000D830026803F001030693069B2DD0436A76
:104DF000013B18BF01239901002A5BD1414A4FF0C2
:104E0000580C00F5E873C0F8D02100F1C002002072
:104E1000019200935862C3E901C14FF4806C4FF4D2
:104E20008051C3E9030C59614FF4804C4FF48071F9
:104E30001846C3E906C14FF40031196203F0CEF8F9
:104E4000DDE9003210B3FFBEFEE7036A013B18BF85
:104E50000123990122BB2C4A4FF0570C00F5AC738B
:104E6000C0F8582100F12802D1E7D1F87C32013B8B
:104E700018BF01239A0188BB234801F56D734FF0D9
:104E8000570C01F52171C1F8300145E7C2E9203323
:104E90009A630DB000BDC1E9203399630DB000BD28
:104EA0001A4A4FF0590C00F5AC73C0F8582100F1C4
:104EB0002802ACE7164A4FF05A0C00F5E873C0F828
:104EC000D02100F1C002A2E7114801F22C434FF0BB
:104ED0005A0C01F54771C1F810011DE70B4801F5A7
:104EE0006D734FF0590C01F52171C1F8300113E7D2
:104EF00004580140045C014000440258C4CC002026
:104F000068CA0020280002401000024058000240F9
:104F100070000240014803F0B7BB00BFC0CB0020C7
:104F2000014803F0B1BB00BF38CC0020014803F0BA
:104F3000ABBB00BF1CCE0020014803F0A5BB00BFE7
:104F400094CE00201A4A0368934200B509D020325B
:104F5000934206D0174A934215D02032934212D082
:104F600000BD154B0022D3F854E2C3F85822BEF11D
:104F7000000FF5D0D3F84802D3E9931273465DF8D9
:104F800004EB520818470C4B0022D3F8B0E4C3F8E6
:104F9000B424BEF1000FE3D0D3F8AC24D3F8A814A6
:104FA000D3F8A404520873465DF804EB184700BF19
:104FB00004580140045C014068CA0020184A036894
:104FC000934200B509D02032934206D0154A93424D
:104FD00016D02032934213D000BD134BD3E9942E48
:104FE0005208C3F85822BEF1000FF5D0D3E9920160
:104FF000734601EB820100EB82005DF804EB184779
:10500000094BD3F8AC24D3F8B0E45208C3F8B42465
:10501000BEF1000FE0D0D3F8A814D3F8A404E7E75A
:1050200004580140045C014068CA002000000000F0
:105030002DE9F047D1F800C04FF41777764D86B0D0
:1050400007FB0CF7BCF1010F05EB0708C0F8008067
:1050500000F39C804FF0000907F512730E460C46D2
:1050600045F803902B44C646C3F80490C8F8509204
:1050700065A3D3E9002366A1D1E90001CDE90223AC
:105080000DEB8C03CDE904019A681B690092019332
:105090000FCCAEE80F000FCCAEE80F00009A019BDA
:1050A00094E80300C8F828208EE80300C8F8C03050
:1050B0003369042B0DD8DFE803F07D87910374007A
:1050C0004FF417734BF6803203FB0C539A64C3F80A
:1050D000E020B269316A002A54D000294FF0010261
:1050E00014BF032102214FF4177303FB0C53C3E9D0
:1050F0000B12F269716A002A4CD1891A18BF01217A
:1051000070694FF41773022803FB0C53C3E9311283
:1051100006D8424B13F80090414B53F820309A4682
:105120004FF4177300223F4907F1280003FB0CF3EB
:10513000284403F1380403F1500C03F1D0060A515E
:105140000C44626003F1E8042B445A645A6341F84A
:105150000C208C44CCF80420DA658A510E4472602D
:10516000C3F8DC20C3F8CC200A510C4451466260DD
:10517000C3F8F42002234A4608F0E4FC002837D0A4
:10518000FFBEFEE7891A18BF0121ACE7012006B077
:10519000BDE8F08700294FF0010214BF032102216E
:1051A000AEE74FF41773204A03FB0C539A64C3F81D
:1051B000E0208EE74FF417734FF4FA5203FB0C53C1
:1051C0009A64C3F8E02084E74FF417734FF47A52DF
:1051D00003FB0C539A64C3F8E0207AE74FF417738B
:1051E0004FF4FA4203FB0C539A64C3F8E02070E7D3
:1051F00007F1C00002234A465146284408F0A2FCA9
:105200000028C4D0FFBEFEE704580140045C014002
:1052100024580140245C014068CA002080520124C7
:10522000745201246CCA00200077010000687047A6
:1052300070B5046882B015460E46C4F85032C4E911
:1052400092129AB2069BC4F85432A369012B24D05F
:10525000636A0192012B10D0294604F1C00008F0C6
:105260003FFD236A019A012B0FD0294604F1280043
:1052700008F036FD002002B070BD04F1C00008F057
:10528000B5FD236A019A012BEFD1314604F12800C4
:1052900008F0ACFD002002B070BD236A0192012B22
:1052A00010D0294604F1280008F01AFD636A019A1B
:1052B000012B0FD0294604F1C00008F011FD002099
:1052C00002B070BD04F1280008F090FD636A019AF5
:1052D000012BEFD1314604F1C00008F087FD00201A
:1052E00002B070BD03681B69042B05D8044A02EBA9
:1052F000830393ED000A70479FED020A704700BFD9
:105300006052012400803B470368D3F8580270477D
:10531000204B02680169F0B5D3F88C5083B0C368A4
:10532000ADB25D1BB2B1A94214D0826804461746E3
:1053300002EB010010D2691ACDE9000100F0C0FFB4
:105340000023DDE90001D4E90062B047E36825618C
:10535000AB421AD003B0F0BD591ACDE9001000F0ED
:10536000AFFF0023D4E90062DDE90010B047294611
:10537000384600F0A5FF00233846626829462668B3
:10538000B047E3682561AB42E4D10023236103B059
:10539000F0BD00BF000002402DE9F04704468846FA
:1053A00091461E4600F13405284609F0D5F820281C
:1053B000FAD10023C4E93233C4E93533C4F8DC3010
:1053C000C4F8E430C4F84431C4F85431C4F85C3152
:1053D000C4E953334FF48063C4F8D030C4F8483183
:1053E0004FF44033C4F8E030C4F85831414BC4F8AE
:1053F000C03003F57A73C4F838314023C4F8403123
:10540000E369072B0BD8DFE803F00460444B5259E3
:10541000676E2923C4F8C4302A23C4F83C3104F54C
:105420009C77384602F0DAFD08B1FFBEFEE7C4F80B
:10543000A870C4F87051EFF310839A4672B62E4AE2
:1054400094F91C302D4F1370089B2D4C3B60099B29
:1054500023600EB11846B0471FFA89F2414628462C
:1054600008F038FE28B9BAF1000F00D162B6BDE8E5
:10547000F087FF23204A137000233B602360089BC2
:1054800013B10121099898470120BAF1000FEED11C
:10549000ECE72D23C4F8C4302E23C4F83C31BEE71A
:1054A0003F23C4F8C4304023C4F83C31B7E741235C
:1054B000C4F8C4304223C4F83C31B0E74723C4F8F1
:1054C000C4304823C4F83C31A9E72B23C4F8C430C6
:1054D0002C23C4F83C31A2E74F23C4F8C430502336
:1054E000C4F83C319BE75123C4F8C4305223C4F8BC
:1054F0003C3194E78800024028CF002024CF0020D0
:1055000020CF00202DE9F0470446884691461E46EC
:1055100000F13405284609F01FF82028FAD10023AD
:10552000C4E93233C4E93533C4F8DC30C4F8E430BC
:10553000C4F84431C4F85431C4F85C31C4E953337D
:105540004FF48063C4F8D030C4F848314FF440338E
:10555000C4F8E030C4F85831414BC4F8C03003F50A
:105560007A73C4F838314023C4F84031E369072B1B
:105570000BD8DFE803F00460444B5259676E2923CF
:10558000C4F8C4302A23C4F83C3104F1C0073846BB
:1055900002F024FD08B1FFBEFEE7C4F8AC70C4F809
:1055A000F850EFF310839A4672B62E4A94F91C30E5
:1055B0002D4F1370089B2D4C3B60099B23600EB14F
:1055C0001846B0471FFA89F24146284608F0CEFD3A
:1055D00028B9BAF1000F00D162B6BDE8F087FF2309
:1055E000204A137000233B602360089B13B1012104
:1055F000099898470120BAF1000FEED1ECE72D236E
:10560000C4F8C4302E23C4F83C31BEE73F23C4F8AD
:10561000C4304023C4F83C31B7E74123C4F8C43058
:105620004223C4F83C31B0E74723C4F8C4304823D0
:10563000C4F83C31A9E72B23C4F8C4302C23C4F8A8
:105640003C31A2E74F23C4F8C4305023C4F83C31A6
:105650009BE75123C4F8C4305223C4F83C3194E78B
:105660008800024028CF002024CF002020CF002037
:10567000F0B585B0EFF3108672B6002947D1FF234D
:10568000254A264C2370136823B100201060244A59
:105690001068984723781B0626D5224F0025224CF8
:1056A00005E001351C3407F5D877092D1CD0A36916
:1056B000012B1DD0002BF4D1216838460029F0D0F1
:1056C0002269E368039262690192039A0092228937
:1056D000FFF718FF0028E4D1C5EBC505124A02EB1D
:1056E000850342F82500586006B962B605B0F0BDE2
:1056F00061680029D5D06369384601932369009316
:10570000E3682289FFF748FE0028CAD1E4E7039145
:1057100009F01CFC0399B2E724CF002028CF002019
:1057200020CF002060CF0020B8000020F0B5034655
:10573000002189B002201A7E05910B2ACDE90301D0
:10574000D9694FEA4104264625D1997E0B2902D119
:10575000002009B0F0BDDFF844C1721C4E485CF86F
:10576000222090F800C092F800E0DC7EF445264646
:1057700068D071457CD092F803E0F44573D0714550
:1057800000F0828092F806E0E64577D0714534D08B
:10579000012009B0F0BD41493F4851F8241090F86C
:1057A00000C091F800E05D7EF4452F463AD0724586
:1057B0003ED091F803E0F4453FD072454DD091F8CA
:1057C00006E0E64543D07245E2D1CA79BA42DFD15C
:1057D000063103F118028978019310460092069170
:1057E00001F09EFC0446009801F0A2FC02A9029080
:1057F000204603F0ABFA019BA7E7D179B142C7D1AC
:1058000006321A33927818460093069201F088FC0B
:105810000446009801F08CFC02A90290204603F097
:1058200095FA95E74C784578AC42C2D07245C0D124
:1058300091F801E0BE45BCD1CBE70C794578AC428C
:10584000BBD1BCE744785578AC4292D193E740781D
:1058500091F807C08445B6D19AE791F804E0BE45B7
:10586000ADD10331B5E714794578AC4287D189E7EA
:1058700092F801E0B6457FF47EAFC2E7407892F837
:1058800007C0844582D183E792F804E0B6457FF4EF
:1058900079AF0332B5E700BFA4020020B4010020B5
:1058A0007F4A0368934230B58FB000F0E580A2F5DF
:1058B0004C42934200F0E28002F58062934200F095
:1058C000DF8002F58062934200F0DC8002F58062A6
:1058D000934200F0DB8002F54442934200F0D48012
:1058E000A2F51C42934200F0D38002F580629342FD
:1058F00000F0D0806B4A934240F0CE8008256A4A7F
:105900004FF4D87303FB0524A07E01F019FC207E20
:1059100001F016FCE269082A13D8DFE802F04B59BF
:10592000677583919F053D00604AD2F8E81041F009
:105930000041C2F8E810D2F8E82002F000420792D5
:10594000079A2046FFF7F2FE012801D1FFBEFEE7CD
:105950004FF4D873544ADFF858E10DF1240C03FBDF
:105960000524E3690DEB4305BEE80F00ACE80F002A
:10597000DEF800300022ACF800301146B5F9240002
:1059800002F082F9E3690DEB4303B3F924000FB091
:10599000BDE8304002F0A8B9444AD2F8F41041F012
:1059A0000801C2F8F410D2F8F42002F008020892BC
:1059B000089AC6E73D4AD2F8F01041F01001C2F84B
:1059C000F010D2F8F02002F010020092009AB8E72E
:1059D000364AD2F8E81041F40031C2F8E810D2F8A3
:1059E000E82002F400320192019AAAE72F4AD2F885
:1059F000E81041F48021C2F8E810D2F8E82002F45F
:105A000080220292029A9CE7284AD2F8E81041F4D8
:105A10000021C2F8E810D2F8E82002F40022039234
:105A2000039A8EE7214AD2F8E81041F48011C2F8B7
:105A3000E810D2F8E82002F480120492049A80E779
:105A40001A4AD2F8F01041F02001C2F8F010D2F852
:105A5000F02002F020020592059A72E7134AD2F86C
:105A6000E81041F08041C2F8E810D2F8E82002F0D6
:105A700080420692069A64E7002540E701253EE74A
:105A800002253CE703253AE7052538E7042536E7F4
:105A9000062534E7072532E700239B7EFFDE00BFA3
:105AA00000100140000C005860CF00200044025854
:105AB00064500124000000009FED297B2A4B002246
:105AC00001212A484FF0FF0C1A819A84A3F8402044
:105AD000A3F85C20A3F87820C3F88C2080F800C0DD
