:020000042400D6
:10000000000002208D07002489070024C95900241C
:1000100089070024890700248907002400000000C4
:10002000000000000000000000000000890700241C
:100030008907002400000000890700244D5900248E
:1000400089070024890700248907002489070024E0
:1000500089070024890700248907002489070024D0
:100060008907002489070024890700247545002496
:1000700081450024713300248D45002499450024D6
:10008000C1530024053A002489070024890700246D
:100090008907002489070024890700248907002490
:1000A0008907002489070024890700248907002480
:1000B000391301244513012451130124453A002426
:1000C00089070024513A002489070024C90B012420
:1000D000D50B0124D15100240152002439520024AF
:1000E00089070024890700240000000089070024F4
:1000F0008907002489070024890700248907002430
:1001000089070024890700245D130124E10B0124E1
:1001100071520024A9520024890700248907002471
:100120008907002489070024050C0124450C0124BB
:10013000015400248907002489070024890700242A
:1001400000000000000000000000000000000000AF
:10015000890700248907002489070024E15200242C
:100160005D3A0024890700245D5900248159002448
:1001700089070024A5590024890700248907002441
:1001800089070024890700241953002451530024AF
:10019000ED0B0124F90B01248907002489070024B1
:1001A000890700248907002489070024890700247F
:1001B000C5410024890700248907002489070024F9
:1001C0008907002489070024852E0024912E00240D
:1001D000890700249D2E0024890700248907002414
:1001E000890700248907002489070024890700243F
:1001F000890700248907002489070024890700242F
:10020000890700248907002489070024890700241E
:10021000890700248907002489070024890700240E
:1002200089070024890700248907002400000000B2
:1002300089070024890700240000000089070024A2
:1002400089070024890700248907002489070024DE
:1002500089070024890700248907002489070024CE
:1002600089070024890700248907002489070024BE
:100270008907002489070024895300240000000016
:100280008907002489070024890700240000000052
:080290000000000089070024B2
:1002A000034613F8012B002AFBD1181A01387047B6
:1002B00001F0FF01102A2BDB10F0070F08D010F817
:1002C000013B013A8B422DD010F0070F42B3F6D11B
:1002D000F0B441EA012141EA014122F007047FF034
:1002E00000070023F0E80256083C85EA010586EA8B
:1002F000010685FA47F5A3FA87F586FA47F6A5FAC7
:1003000087F68EB9EED1F0BC01F0FF0102F00702D2
:1003100032B110F8013B013A83EA010313B1F8D17D
:100320000020704701387047002D06BF354603385E
:10033000073815F0010F07D1013015F4807F02BF97
:10034000013015F4C03F0130F0BC0138704700BFE8
:1003500081F0004102E000BF83F0004330B54FEA76
:1003600041044FEA430594EA050F08BF90EA020FE3
:100370001FBF54EA000C55EA020C7FEA645C7FEA76
:10038000655C00F0E2804FEA5454D4EB5555B8BF99
:100390006D420CDD2C4480EA020281EA030382EA0A
:1003A000000083EA010180EA020281EA0303362D9C
:1003B00088BF30BD11F0004F4FEA01314FF4801C6F
:1003C0004CEA113102D0404261EB410113F0004F81
:1003D0004FEA03334CEA133302D0524263EB430338
:1003E00094EA050F00F0A780A4F10104D5F1200ED6
:1003F0000DDB02FA0EFC22FA05F2801841F1000131
:1004000003FA0EF2801843FA05F359410EE0A5F104
:1004100020050EF1200E012A03FA0EFC28BF4CF035
:10042000020C43FA05F3C01851EBE37101F00045EB
:1004300007D54FF0000EDCF1000C7EEB00006EEBF8
:100440000101B1F5801F1BD3B1F5001F0CD3490882
:100450005FEA30004FEA3C0C04F101044FEA4452D9
:1004600012F5800F80F09A80BCF1004F08BF5FEA60
:10047000500C50F1000041EB045141EA050130BD40
:100480005FEA4C0C404141EB0101013C28BFB1F552
:10049000801FE9D291F0000F04BF01460020B1FA9D
:1004A00081F308BF2033A3F10B03B3F120020CDA70
:1004B0000C3208DD02F1140CC2F10C0201FA0CF04E
:1004C00021FA02F10CE002F11402D8BFC2F1200CB3
:1004D00001FA02F120FA0CFCDCBF41EA0C01904069
:1004E000E41AA2BF01EB0451294330BD6FEA0404B2
:1004F0001F3C1CDA0C340EDC04F11404C4F120029D
:1005000020FA04F001FA02F340EA030021FA04F3AE
:1005100045EA030130BDC4F10C04C4F1200220FA05
:1005200002F001FA04F340EA0300294630BD21FA43
:1005300004F0294630BD94F0000F83F4801306BF09
:1005400081F480110134013D4EE77FEA645C18BFFD
:100550007FEA655C29D094EA050F08BF90EA020F94
:1005600005D054EA000C04BF1946104630BD91EA8C
:10057000030F1EBF0021002030BD5FEA545C05D18F
:100580004000494128BF41F0004130BD14F58004CE
:100590003CBF01F5801130BD01F0004545F0FE4142
:1005A00041F470014FF0000030BD7FEA645C1ABF77
:1005B000194610467FEA655C1CBF0B46024650EAAE
:1005C000013406BF52EA033591EA030F41F40021DA
:1005D00030BD00BF90F0000F04BF0021704730B560
:1005E0004FF4806404F132044FF000054FF0000135
:1005F00050E700BF90F0000F04BF0021704730B5F6
:100600004FF4806404F1320410F0004548BF4042CA
:100610004FF000013EE700BF42004FEAE2014FEA1F
:1006200031014FEA02701FBF12F07F4393F07F4FFA
:1006300081F06051704732F07F4208BF704793F0FD
:100640007F4F04BF41F40021704730B54FF4607410
:1006500001F0004521F000411CE700BF50EA010213
:1006600008BF704730B54FF000050AE050EA0102BC
:1006700008BF704730B511F0004502D5404261EB2C
:1006800041014FF4806404F132045FEA915C3FF46D
:10069000D8AE4FF003025FEADC0C18BF03325FEA0A
:1006A000DC0C18BF033202EBDC02C2F1200300FABB
:1006B00003FC20FA02F001FA03FE40EA0E0021FAE0
:1006C00002F11444BDE600BF53B94AB9002908BF7E
:1006D00000281CBF4FF0FF314FF0FF3000F00CB886
:1006E000ADF1080C6DE904CE13F0F4FADDF804E086
:1006F000DDE9022304B07047704700BF0348044B94
:10070000834202D0034B03B1184770474C060020C8
:100710004C060020000000000548064B1B1AD90FAC
:1007200001EBA301491002D0034B03B118477047F6
:100730004C0600204C0600200000000010B5064CBE
:10074000237843B9FFF7DAFF044B13B10448AFF342
:1007500000800123237010BD50060020000000001F
:100760000446012408B5054B1BB105490548AFF304
:100770000080BDE80840FFF7CFBF00BF00000000C9
:100780005406002004460124FEE700BF0B4A0C4B30
:10079000934204D0D21A0B49184612F046FB0A4A7B
:1007A0000A4B934204D0D21A0021184612F0F8FAEC
:1007B00012F014FB00F04EF9FEE700BF4C060020DB
:1007C0000000002034460124F837012050060020A4
:1007D000D0ED005A90ED016AD0ED026A90ED037AF7
:1007E000D0ED047A9FED1C5ADFED1C3A9FED1C4AB8
:1007F00065EE855ADFED1B4A26EE056A66EEA36AB2
:1008000091ED001A27EE047A9FED175A67EEA47A4D
:10081000D1ED011A91ED022AE1EE055A91ED033A6C
:10082000A1EE856A91ED044ADFED102ADFED103A62
:10083000DFED104AE2EE226AA3EE237AC1ED005A00
:10084000E4EE247A81ED016AC1ED026A81ED037A5A
:10085000C1ED047A704700BFCDCC4C3E9A99193E49
:10086000CDCCCC3DCDCC4C3DCDCC4C3F9A99593FD5
:100870006666663F3333733F0E4AD0F804C00E4BB2
:100880000E4900B5C2F800C08268D0F80CC01A60EA
:100890000B4B0269C1F800C01A608169094BDFF88F
:1008A0002CC01960D0F814E0027F074BCCF800E0B0
:1008B0001A7000BD10000020180000201400002055
:1008C0000C00002004000020000000200800002090
:1008D000214BD3ED007AF8EEE77A77EEC07AF5EEA9
:1008E000C07AF1EE10FA08D59FED1C7A77EE877A80
:1008F000F5EEC07AF1EE10FAF6D49FED187AF4EE28
:10090000C77AF1EE10FA08DB9FED147A77EEC77A1A
:10091000F4EEC77AF1EE10FAF6DABDEEE77A104996
:1009200017EE102AB8EEC77A531C01EB820077EE5F
:10093000C77A5A42C3F30A0390ED000AC2F30A02CF
:1009400058BF534201EB830191ED007A37EE407AB4
:10095000A7EE270A704700BF800600200000004570
:1009600084060020002A62D0314B2DE9F04F056843
:100970001C68304E05EB8203DFF8C8A0DFF8C89092
:10098000DFF8C8802C4F2DED028BD1E9002B83B00E
:10099000019396ED008A0092B0EE480AF5EC018AC8
:1009A00011F0D6FD9AED007AD9ED007AB2EE006A28
:1009B000E0EE077AB0EE670AFFF78AFFB7EE007A3B
:1009C000D7ED007A04F1010CD8ED006A78EE277AB1
:1009D000DCF1000326EE800A184A37EE667ADFED76
:1009E000186AC3F30A0302EB840EF4EEE67ACCF342
:1009F0000A0420EE060A58BF5C420D4BF1EE10FAD5
:100A0000009AA7EE280ACEED008A1C6001DB77EE83
:100A1000E67A019BC6ED007AAB42A2EC010AABEC90
:100A2000010AB6D103B0BDEC028BBDE8F08F704770
:100A30008006002074060020700600208406002036
:100A4000DB0FC940780600207C060020340000201F
:100A5000FFF788BF2DE9F04F002189B07B480026C1
:100A600000F0ECFB002002F0D9F840F6B83005F0B9
:100A70001DF86021754800F01FFB754C0321734879
:100A800000F02EFB9FED730A4FF48071724800F066
:100A900085F9724D2068DFF81CB205EB4010DFF8D5
:100AA00018A2FFF7E9FE6E4802F056F823686D4879
:100AB0005B01DFF80892DFF80882E95802F04CF891
:100AC000694F6A4961486A4D00F0F4FA694802F0DA
:100AD00043F86949604800F0D3FA002866D104F071
:100AE000E3FF831BB3F57A7FF3D3D5ED027A064695
:100AF0009FED624A95ED013A67EE847ADBED006A7C
:100B0000DFED5F3A23EE043A9AED006AD9ED005A20
:100B1000FDEEE77A98ED005A66EEA36AD7ED004A3B
:100B200065EEA35A4A4B25EE235A95ED047A64EEFE
:100B3000A34AD5ED003A26EE046A1B6827EE047A34
:100B4000D5ED032A23EE844ACDED007AFDEEC37A7B
:100B50005B01424AFDEEE44A4A48D158BDEEC55A0F
:100B6000FDEEE55A17EE903ABDEEC66ACDED074AA6
:100B7000FDEEE66A8DED065ABDEEC77ACDED055A5B
:100B8000FDEEE22A8DED046AFDEEC47ACDED036A36
:100B90008DED027ACDED012A17EE902A01F0DCFFEF
:100BA00035492D4800F06CFA002898D0364B304972
:100BB0003148FFF70DFE9FED354AD3ED004ADBEDDE
:100BC000007A64EE844A9FED327A324BDFED326A6E
:100BD000E7EE874A93ED005ADFED303A25EE265ACC
:100BE0002F4BD3ED005A2F4BCBED004A65EE845AC4
:100BF000DAED004A93ED006AA4EEA35A2A4B26EEE2
:100C0000046AD3ED006A294B66EE846AD3ED007A5C
:100C10008AED005A99ED005A67EE847A244BE5EE8E
:100C2000075AC9ED005AD8ED005AA5EE876A88ED3B
:100C3000006A97ED006AE6EE076AC7ED006AD3ED39
:100C4000006AE6EE877AC3ED007A48E7BC4A0020E6
:100C50006C06002000803B47AC260020F8410124B0
:100C6000B4400124C040012420000020510A002487
:100C700084260020CC4001249826002000007A44DD
:100C80000000C842DC40012418000020CDCCCC3D3F
:100C90006666663F140000200AD7A33D1F856B3FA0
:100CA000100000200C00002008000020040000209C
:100CB0001C000020300000202C0000202800002014
:100CC0002400002038B5284C002504F5C0702560AC
:100CD00065612562E56301F0BDFF244A4FF4807031
:100CE0002349D2ED006A234A91ED007A0721C4F826
:100CF000392204F51472DFED207AC4F8402240F264
:100D0000011284F83D1266EEA76AC4F84422C4F8C2
:100D100090511A4AC4F84852C4F84C52184C92EDFB
:100D2000005AD4ED007A9FED176AC6EEA75A164B0B
:100D3000164A03F58161C3F800041548C3F804544A
:100D400027EE877A086067EE857A124983F80C549B
:100D5000C7EE066A104B87EE867AC1ED005AC2EDE7
:100D6000006A83ED007A38BDBC4A002038000020BC
:100D70003C00002080707F0FDB0FC9404000002046
:100D80004400002000007A44AC4600207806002091
:100D900000803B47700600207C06002000F50053D1
:100DA0004FF4807C4FF4006270B5002403F5816E2F
:100DB00000F5105506468EED000A2146C5E900C42F
:100DC00083F80C4441F6044511F0EAFF4FF4006249
:100DD00021467519B01811F0E3FF21464FF4006267
:100DE00006F5805011F0DCFF21464FF4806206F5D5
:100DF000C05011F0D5FF214601244FF4006206F5E2
:100E0000E05011F0CDFF07EE904A9FED0D7A9FED77
:100E10000D0A0134F8EEE77A67EE877A87EE800AEA
:100E200011F096FCB4F5807FF7EE007AB6EE007A0A
:100E300077EEC07A67EE877AE5EC017AE3D170BD90
:100E4000DB0FC94000007F4300F50050DFED3A7A28
:100E5000D0F8000400284AD0F1EC016AB0EE676ACD
:100E6000B0EE675A0023B0EEE67AA6EEA66AB4EEBC
:100E7000E77AF1EE10FA37FE277A013383421BD06E
:100E8000F1EC017AF0EEE76A51ED025AA7EEA76A9B
:100E900067EEA57AF4EEC76AF1EE10FAF5EEC07AC5
:100EA00036FE877AF1EE10FAE7D50133F7EE007AD5
:100EB000834235EE275AE3D107EE903A013BF8EE34
:100EC000E76A07EE903A86EE260AB5EE400AF1EEA2
:100ED00010FA13D4F8EEE77AC5EE276A82ED017AAC
:100EE000C2ED026AB1EEC06A82ED006A704787EE19
:100EF000A70AF0EE676AB0EE677AEFE700B585B053
:100F000003928DED017A8DED005A029311F03AFDB6
:100F1000DDED027A9DED005AF8EEE77A039A9DED39
:100F2000017A82ED000AC5EE276A82ED017AC2EDF0
:100F3000026A05B000BD00BF000000002DE9F84FB7
:100F400000F500559146D5F800742DED0A8B002F61
:100F500000F0848000F5805A00F5E05201EB870430
:100F60005346F1EC017AB2EC017AA14267EE877A3E
:100F7000E3EC017AF5D1032F4FEA570B6ED907EE58
:100F8000107A05F58165DFED3BAA41F60408B8EE5D
:100F9000C7AAD5ED007AB0EE6ABA0AEB8707F0EE81
:100FA0006ABA804487EE8ACA01269FED329A554676
:100FB0000024F0EE499A07EE904A9FED2F7AB5ECA7
:100FC000018A3444F8EEE77A67EE877AC7EE8A8AB8
:100FD000B0EE680A11F0BCFBF0EE407AB0EE680AA1
:100FE000E8EE279A11F0B4FAAF42A8EE409AE2D1A7
:100FF00029EE099A07EE906A0136F8EEE76AD8ED15
:10100000007AA9EEA99A5E4566EE8C6AB1EEC97ABD
:1010100077EE677AA8EC017AE7EE26BA3BEE07BADC
:10102000E7EEA7AAC1D1DFED157AB4EEE7BAF1EE8B
:1010300010FA09DDCBEE8B7AC9ED04AABDEC0A8B60
:10104000C9ED037ABDE8F88FDFED0A7AC9ED04AA8D
:10105000C9ED037ABDEC0A8BBDE8F88FDFED05AA78
:10106000F0EE6A7AC9ED04AABDEC0A8BC9ED037AE9
:10107000BDE8F88F00000000DB0FC94077CC2B32B1
:1010800030B500F5005585B095F80C447CB10A46A2
:1010900000F50061CDE902200191FFF7D5FE03982C
:1010A000DDE90112FFF74AFF002385F80C342046E2
:1010B00005B030BD00F054B9F8B5054600F070F940
:1010C00005F1A40405F1AC0754F8046F284600F0BC
:1010D00083F9304601F0E8FCBC42F5D1F8BD00BF11
:1010E000F8B5054600F040F905F1A40405F1AC0798
:1010F00054F8046F284600F06FF9304601F0D4FC34
:10110000BC42F5D1F8BD00BF70B54FF481718AB013
:101110004FF4C0624FF4E06300F1D8060124ADF84B
:101120000C1000F59675ADF810203046ADF81C3067
:10113000049A079B0399009401F0A6FD4FF4807375
:1011400040F201120094ADF810304FF4806304AC0B
:101150002846ADF81C30079BADF80C20DDE90312E2
:1011600001F092FD2046072105F0FAFA07AB94E85A
:10117000070083E807001946304601F0B1FD07ABD0
:1011800094E8070083E807001946284601F0A8FD07
:10119000304601F0BBFD28460AB0BDE8704001F0C2
:1011A000B5BD00BF2DE9F04340F2024302250446DD
:1011B00002222DED028B8BB004F118079FED1E8AE1
:1011C00004F1A406ADF8003001A8009901F06CFE0E
:1011D000ADF800502A4600990DF1160001F064FEAA
:1011E00004232A4638460DEB0301002501F06EFE6C
:1011F00004F1680204F18803C4F8A820C4F8AC30F4
:101200002946384656F8048F02F058F881462046A1
:1012100000F0E2F80023F0EE480A49461A4640463C
:1012200001F014FC6B1C0125022BE9D10BB0BDECC5
:10123000028BBDE8F08300BF6F12033BF0B504469C
:101240000D4695B0002700F089F82946204604F1A4
:10125000B00600F079F940F6061330469FED3E0ADD
:10126000ADF8343004F1C0050D9901F05DFD4FF487
:10127000007328469FED380AADF834300D9901F01F
:1012800053FD40F60333ADF8247004F14000ADF88F
:10129000143040F20163099AADF834300D9B059982
:1012A0009FED2D0AC4F8D06009AEC4F8D45001AD4A
:1012B00001F022FC2046FFF727FF2046FFF772FFD0
:1012C000284601F0C7FC01230DF1140E04F5C07C83
:1012D0000F93129347F6122310971393022311933F
:1012E00095E80F008CE80F008EE80F0086E80F00ED
:1012F000BDF828300E90ADF83630BDF82A30D4E96C
:10130000625EADF83430C4E9655EBEF1000F1CD1F9
:101310000DA904F5C87004F02DF904F1A40504F535
:10132000D27004F1AC0701F0A9FC3021204600F096
:1013300037F855F8046F204600F04EF8304601F0BB
:10134000B3FBAF42F5D115B0F0BD72463946284621
:1013500011F026FDDCE700BF00000000704700BF71
:10136000143001F041BB00BF30B5054683B01430E6
:1013700001F0F6FA05F1140001F0EEFA05F114009F
:101380008DED010A01F0D6FAD0ED007A9DED010A4B
:10139000F8EE677A80EE277A85ED0E7A03B030BDDD
:1013A00030B5054683B0143001F0C8FA05F11400D9
:1013B00001F0D2FA05F114008DED010A01F0BAFA3C
:1013C000D0ED007A9DED010AF8EE677A80EE277A7B
:1013D00085ED0E7A03B030BD90ED0E0A704700BF68
:1013E00000B540F203308FB000224FF60B7340F28D
:1013F0000341ADF80800009209A8ADF81030ADF82F
:1014000024300123ADF80C10029907920C92CDE91B
:101410000522CDE90A2201F0B1FF002204A8012330
:101420000399009201F0AAFF09A802F0B9F810B9D7
:1014300001200FB000BD04A802F0B2F880F0010056
:10144000C0B240000FB000BD70B53C4B9CB0012253
:1014500000240321139340F204530546169112947D
:101460001992ADF85030CDE91724FFF7B9FF0128E4
:1014700041D002284FF001022FD1314B40F601310B
:101480000DAE0094CDF852304FF60B73ADF820102E
:1014900030460899ADF8343023461094CDE91A420D
:1014A000CDE90E4401F06AFF2146304602F084F88F
:1014B00012A905F13C0003F0EBF8302003224FF0B5
:1014C0007E5331460F931093CDE90D02EA6B05F17F
:1014D000140001F0F5F91CB070BD40F60131184B55
:1014E0000DAEADF834100D98CDF85230CDE91A425A
:1014F00000F0A4F8DCE71022114908900DAE8DF839
:101500003020104ACDF8521008A90A900390099291
:101510000B940494CDE91A0404A802F0A5FA08215A
:10152000039B3046079105A9049AADF814308DF855
:10153000164006930D9400F0BDF8B9E704020404C8
:10154000040604030704010BF0B53A4B044685B0CA
:1015500040F20112A36003F581333748012503F5FA
:101560008073ADF80C2040F202726060E36040F6D8
:1015700006630020A4F82520A4F82930271D258221
:1015800084F8275084F82B5002918DF80E0004F057
:1015900025FC064604F08CFA034610BB0EB302A9E4
:1015A00004F130008DF80E5004F0A0FB072E38D166
:1015B0002046FFF749FF04F1140001F0CDF904F1D2
:1015C00014008DED010A01F0B5F9D0ED007A9DED22
:1015D000010AF8EE677A80EE277A84ED0E7A05B07C
:1015E000F0BD02A904F13000019304F07FFB072E47
:1015F000019B02D1002BDBD006E039462046019347
:1016000002F06AFC019B8BB104F1250001F0DEFFC2
:1016100004F1290001F0DAFF04F1120000F068F98A
:10162000C6E73946204602F057FCC1E7002EEBD052
:10163000BEE700BF050705060508050910B584B01B
:101640000124ADF80C0003A8ADF80E4001F0BEFF78
:10165000214603A802F098F8204604F027FA00215A
:1016600003A802F091F8204604F020FA214603A8CE
:1016700002F08AF804B010BDC2F3002CFA2300B5C2
:1016800087B04CEA410C017C8DF8152005AA009327
:1016900002238DF814C002F081FA18B10123184614
:1016A00007B000BD03900A2004F000FA039B18461F
:1016B00007B000BD034630B5044685B043F8042B9F
:1016C000FA2507C983E80700A1791E23009503AA1C
:1016D0001A31ADF80C3020460223C9B2217402F051
:1016E0005DFA10B1012005B030BD0A2004F0DEF92A
:1016F0004FF4B85200950223ADF80C20204603AAFF
:10170000217C02F04BFA0028ECD10A2004F0CEF93B
:1017100041F2027200950223ADF80C20204603AA84
:10172000217C02F03BFA0028DCD10A2004F0BEF94B
:10173000042200950223ADF80C20204603AA217C48
:1017400002F02CFA0028CDD10A2004F0AFF90622CD
:1017500000950223ADF80C20204603AA217C02F05C
:101760001DFA0028BED10A2004F0A0F941F2082297
:1017700000950223ADF80C20204603AA217C02F03C
:101780000DFA0028AED10A2004F090F94FF00A02B9
:1017900000950223ADF80C20204603AA217C02F01C
:1017A000FDF900289ED10A2004F080F923790C224B
:1017B0000095002B217C8DF80C20204614BF62235D
:1017C00042236A448DF80D30022302F0E7F9002825
:1017D00088D10A2004F06AF9A36800952046E268DF
:1017E000217C1343627943EA4213227982F0010299
:1017F00043EA82130E228DF80D3002238DF80C205F
:1018000003AA02F0CBF900287FF46CAF0A2004F0A1
:101810004DF9102200950223ADF80C20204603AAB2
:10182000217C02F0BBF900287FF45CAF0A2004F0B1
:101830003DF9122100950223ADF80C1003AA217C7A
:10184000204602F0ABF900287FF44CAF0A2004F0E8
:101850002DF901220921204605B0BDE83040FFF7EF
:101860000BBF00BF70B586B000240125102602A969
:101870004FF480521C480194CDE90256CDE904543E
:101880000BF018FF642005F0A7F8022302A94FF41B
:101890008052154802930594CDE903650BF00AFFC9
:1018A000042302A94FF480520F480396CDE9043473
:1018B000032302930BF0FEFE40F23223042202A91E
:1018C0000948019310230495CDE90223019B4FF4AD
:1018D000805205930BF0EEFE40F6060102480BF035
:1018E0000BFF204606B070BDA4DD00200000000004
:1018F00030B51F4B89B00822DFF878C000214FF4C3
:1019000000641A614FF0020E03920A22C3F804C069
:101910004FF0200C06924022054699600320196280
:1019200010215C620124C3E905C24FF4C072DC607F
:10193000DA6107229FED0C7BCDE900E20422CDE9BC
:1019400004016946181D029283ED0A7B0BF088FEA4
:1019500028B9284609B0BDE83040FFF783BF2046CC
:1019600009B030BDAFF3008000100000000000009F
:10197000A0DD0020404100525E4A0023F0B514680B
:101980008FB00A93002C40F0B2805B4B01210326FC
:101990000C2511600227D3F8D420584842F4805215
:1019A000C3F8D420D3F8D42002F480520092009AD5
:1019B000D3F8E02042F01002C3F8E020D3F8E02092
:1019C00002F010020192019AD3F8E02042F04002A6
:1019D000C3F8E020D3F8E02002F040020292029A1D
:1019E000D3F8E02042F00802C3F8E020D3F8E0206A
:1019F00002F008020392039AD3F8E02042F48072C6
:101A0000C3F8E020D3F8E02002F480720492049A34
:101A1000D3F8E02042F08002C3F8E020D3F8E020C1
:101A200002F080020592059AD3F8E02042F02002ED
:101A3000C3F8E020D3F8E02002F020020692069AD4
:101A4000D3F8E02042F00402C3F8E0204FF683729E
:101A5000D3F8E0300B9603F004030C9507930223B0
:101A6000079908A9CDE9082306F0A0FC48F237132E
:101A700008A9234808930C950997CDE90A4606F072
:101A800095FC4CF2037308A91E480893CDE909742C
:101A9000CDE90B6506F08AFC40F2FF6308A91A48FD
:101AA0000893CDE90974CDE90B6506F07FFC4FF68C
:101AB0000C7308A915480893CDE90974CDE90B65A5
:101AC00006F074FC4FF63F0308A911480893CDE9CE
:101AD0000974CDE90B6506F069FC202308A90B48C1
:101AE00009970C950893CDE90A4606F05FFC0FB004
:101AF000F0BD00BF9CDD00200044025800100258D9
:101B000000180258000C025800200258001C02580D
:101B1000001402582DE9F04F8BB08346C8480D469B
:101B200000AF144602F0B2FEC64BD3E90621002AEC
:101B300000F00A82002940F09280D3F80480082146
:101B40004FF002094269B8F1000F00F09280A10045
:101B5000EA46012A01F1070121F00701ADEB010D71
:101B60006846ADEB010D694600F0F581022A00F0F0
:101B70007382002A40F0E581002C00F0E281D3ED71
:101B80000C6A86469FEDB07A0BF1040C5E4636F97E
:101B900022900EF1080E07EE909A3CF92290023244
:101BA000F8EEE77A944267EE877A67EEA67A4EED12
:101BB000027A07EE909AF8EEE77A67EE877A67EE98
:101BC000A67A4EED017AE2D822467962C0479D4B53
:101BD0000022796A93ED0D6A281DDFED9C6A9C4E08
:101BE0009FED9C7ADFED9C5AD1ED007A334666EE8C
:101BF000277AF4EEE67AF1EE10FA0CD9F4EEC77A11
:101C0000F1EE10FA67FE277A67EEA57AFDEEE77A25
:101C100017EE903A1BB2D1ED017A45F8223066EE0C
:101C2000277AF4EEE67AF1EE10FA40F20682F4EE4C
:101C3000C77A0831F1EE10FA67FE277A67EEA57AC7
:101C4000FDEEE77A17EE903A1BB240F822300232EE
:101C50009442C9D8D5462C37BD46BDE8F08FD3F89D
:101C6000048010214FF004094269B8F1000F7FF49D
:101C70006EAF1868F8610028EDD07848C7F818D022
:101C8000C7E9081202F070FEB9F1020F6D4BF8605F
:101C9000D7E9081200F069826846C4F35D0C012A96
:101CA000A0EBC40085464FEA5400EE46B860AEEBA8
:101CB000C40085460EEB8C006E46ADEB010DC7E906
:101CC00000E006EB8C003E616E46ADEB010D7861E5
:101CD0000EEB8C003146C6F800E0706000EB8C061D
:101CE000796278698E60396900EB8C0A06EB8C00AA
:101CF000C7F820D0009179693861CDE9011A0AEB63
:101D00008C010391796AC86000F03484022A00F0E3
:101D10002F83002A40F01382002C00F09984B9F13F
:101D2000020F00F09B84601EFE683A610BF1040C08
:101D30004008DFED456A01304FEA800A586A00EB3F
:101D400086007E6AB268F6687A61021DD7F8148050
:101D5000C7F81490B1465E46AB46D7E900E17A6019
:101D60003A693C616446D7F804C036F9125093EDE5
:101D70000C6A07EE905A34F91250F8EEE77A67EEE3
:101D8000A67A67EE867AEEEC017A07EE905A30F981
:101D90001250F8EEE77A07EE105A3CF9125067EE4F
:101DA000A67AB8EEC77A67EE867A27EE267AE1EC55
:101DB000017A07EE905A27EE067A08EB0205F8EE54
:101DC000E77A85ED007A09EB020567EEA67A93EDD6
:101DD0000C7A043267EE877A5245C5ED007AC4D199
:101DE000D7F814905D463C69BA68FB69D7E90810DA
:101DF0009847144B3A6AB9F1020F93ED0D7AD2E984
:101E0000006100F0798404F1FF3CDB6AFA68344633
:101E10004FEA5C0CDFED0D6A03EB82093B6A0CF1C3
:101E2000010C9FED0C6ADFED0C5A09F1040E4FEA2C
:101E30008C0C0022281D064ED3E902839A4675E0D9
:101E4000F0DD0020D8DD00200000003804FF7FBF57
:101E50000280FFFF04FF7F3F00FEFF46F4DD00200D
:101E600000000034F4EEC67AF1EE10FA66FE277A2E
:101E700067EEA57AFDEEE77A17EE903A1BB2D1ED48
:101E8000007A45F8123067EE277AF4EEE67AF1EE42
:101E900010FA40F26881F4EEC67AF1EE10FA66FEAE
:101EA000277A67EEA57AFDEEE77A17EE903A1BB235
:101EB00040F8123008EB0203D3ED007A67EE277A80
:101EC000F4EEE67AF1EE10FA40F24B81F4EEC67AC7
:101ED000F1EE10FA66FE277A67EEA57AFDEEE77A54
:101EE00017EE903A1BB249F812300AEB0203D3ED19
:101EF000007A67EE277AF4EEE67AF1EE10FA40F215
:101F00002981F4EEC67AF1EE10FA66FE277A67EEC2
:101F1000A57AFDEEE77A17EE903A1BB24EF8123032
:101F20000432624500F0108104340431D4ED007AAB
:101F300067EE277AF4EEE67AF1EE10FA92D833469D
:101F40009DE72246C04785E600297FF4F6AD2C3791
:101F5000BD46BDE8F08F002CF3D0D3ED0C6A81466E
:101F60001FED417A4FF0000E0BF1040C5E4656F85F
:101F70002E2009F1080982F40002A2F5000207EE02
:101F8000902A5CF82E200EF1020EF8EEE77A82F429
:101F900000027445A2F5000267EE877A67EEA67A22
:101FA00049ED027A07EE902AF8EEE77A67EE877A33
:101FB00067EEA67A49ED017AD9D822467962C04700
:101FC000AC4B0022796A93ED0D6A281DDFEDAA6AF9
:101FD000AA4E9FEDAB7AD1ED007A334666EE277AB2
:101FE000F4EEE67AF1EE10FA0BD9F4EEC77AF1EEE0
:101FF00010FA67FE277AF0EE675AFEEEE45A15EE05
:10200000903AD1ED017A45F8223066EE277AF4EE67
:10201000E67AF1EE10FA18D9F4EEC77A0831F1EE4B
:1020200010FA67FE277AFEEEE47A17EE903A40F84F
:10203000223002329442CED80CE640F822600232BE
:10204000083194423FF6D0AD04E640F822600232F7
:1020500008319442BFD8FDE5002C3FF472AFD3EDB8
:102060000C6A86469FED897A00220BF1040CE94642
:102070005E4656F822100EF1080E07EE901A5CF834
:1020800022100232F8EEE77A944267EE877A67EE22
:10209000A67A4EED027A07EE901AF8EEE77A67EE2E
:1020A000877A67EEA67A4EED017AE2D84946224653
:1020B000C7F82490C0476F4B0022796A93ED0D6AF0
:1020C000281DDFED6D6A6F4E9FED6D7AD1ED007AC0
:1020D000334666EE277AF4EEE67AF1EE10FA0BD983
:1020E000F4EEC77AF1EE10FA67FE277AF0EE675A3F
:1020F000FEEEE05A15EE903AD1ED017A45F8223025
:1021000066EE277AF4EEE67AF1EE10FA10D9F4EEE4
:10211000C77A0831F1EE10FA67FE277AFEEEE07A10
:1021200017EE903A40F822300232A242CED391E527
:1021300040F82260023208319442C7D88AE5BA6872
:10214000FB69D7E908109847D7F818D02C37BD4657
:10215000BDE8F08F4EF81260043262457FF4E4AEC1
:10216000F2E73346BFE63346A2E6A000012A4FEA73
:10217000540E00F1070020F0070CADEB0C0D684683
:10218000ADEB0C0DC7F808E0EC4600EB8E06ADEBAE
:10219000010DC7E90006C7F824D06E46ADEB010D6E
:1021A00031463060CDF800C000EB8E060CEB8E0C93
:1021B000C7F820D04E60CDF804C07FF4A7AD002C46
:1021C00000F04682D3ED0C6A024679680BF1040CEC
:1021D0009FED2D7A5E4656F8280080F40000A0F5A9
:1021E000000007EE900A5CF8280008F10208F8EEFB
:1021F000E77A80F400004445A0F5000067EE877A96
:1022000067EEA67AE2EC017A07EE900AF8EEE77A3A
:1022100067EE877A67EEA67AE1EC017ADBD8724640
:10222000FB69D7E908109847124B396AB9F1020FD8
:1022300093ED0D7AD1E9002100F0F98204F1FF3C21
:10224000DB6AF86814464FEA5C0CDFED0B6A03EBBF
:1022500080093B6A0CF1010C9FED096A09F1040E3B
:10226000281D4FEA8C0C054ED3E902839A460023C1
:1022700069E000BFD8DD002004FF7FBF7E0080FF43
:1022800004FF7F3F007E008000000034000000302B
:10229000F4EEC67AF1EE10FA66FE277AF0EE675A8F
:1022A000FEEEE45A15EE902AD1ED007A45F813209F
:1022B00067EE277AF4EEE67AF1EE10FA56D9F4EEEC
:1022C000C67AF1EE10FA66FE277AF0EE675AFEEE55
:1022D000E45A15EE902A40F8132008EB0302D2EDE1
:1022E000007A67EE277AF4EEE67AF1EE10FA3BD93F
:1022F000F4EEC67AF1EE10FA66FE277AF0EE675A2F
:10230000FEEEE45A15EE902A49F813200AEB030278
:10231000D2ED007A67EE277AF4EEE67AF1EE10FA63
:102320001CD9F4EEC67AF1EE10FA66FE277AFEEEBC
:10233000E47A17EE902A4EF81320043363453FF4F5
:1023400003AF04340431D4ED007A67EE277AF4EE5B
:10235000E67AF1EE10FA9BD83246A5E74EF8136004
:1023600004336345EDD1EFE63246CDE73246B2E7BE
:10237000002C00F06D81B9F1020F00F09581621E12
:10238000FE680BF1040C38685208C7F800905FED46
:10239000416A01324FEA820A5A6A02EB86087A6A77
:1023A00008F10401D2E9026239617A61B646D7F8D0
:1023B00014905E467C61002264467968AB46D7F88B
:1023C00010C056F8125093ED0C6A07EE905A54F86C
:1023D0001250F8EEE77A67EEA67A67EE867AE0ECBE
:1023E000017A07EE905A58F81250F8EEE77A67EE45
:1023F000A67A67EE867AE1EC017A07EE905A5CF8ED
:102400001250B8EEE77A07EE905A0EEB020527EE6F
:10241000267AF8EEE77A27EE067A67EEA67A85ED59
:10242000007A09EB020593ED0C7A043267EE877AA5
:102430009245C5ED007AC4D1D7F800905D467C691D
:10244000BA68FB69D7E908109847CF4B396AB9F1E8
:10245000020F93ED0D7AD1E9002100F0A78104F17C
:10246000FF3CDB6AF86814464FEA5C0CDFEDCD6A8E
:1024700003EB80093B6A0CF1010C9FEDCB6A09F17B
:10248000040E281D4FEA8C0CC04ED3E902839A46F5
:1024900000235AE0F4EEC67AF1EE10FA66FE277ACF
:1024A000F0EE675AFEEEE05A15EE902AD1ED007A72
:1024B00045F8132067EE277AF4EEE67AF1EE10FA8B
:1024C00056D9F4EEC67AF1EE10FA66FE277AF0EEEF
:1024D000675AFEEEE05A15EE902A40F8132008EBFA
:1024E0000302D2ED007A67EE277AF4EEE67AF1EE97
:1024F00010FA3BD9F4EEC67AF1EE10FA66FE277AAE
:10250000F0EE675AFEEEE05A15EE902A49F81320D5
:102510000AEB0302D2ED007A67EE277AF4EEE67A50
:10252000F1EE10FA1CD9F4EEC67AF1EE10FA66FE5E
:10253000277AFEEEE07A17EE902A4EF81320043345
:1025400063453FF401AE04340431D4ED007A67EE04
:10255000277AF4EEE67AF1EE10FA9BD83246A5E738
:102560004EF8136004336345EDD1EDE53246CDE717
:102570003246B2E7002C6BD0611EF868F246424644
:1025800049080BF1040CC7F800900131DFED806AB7
:10259000D7F8109089007961596A01EB800E3046B6
:1025A0005E46AB460EF104085546A2467C6856F8D6
:1025B000121093ED0C6A81F40001A1F5000107EE01
:1025C000901A5CF81210F8EEE77A81F40001A1F598
:1025D000000167EEA67A67EE867AE5EC017A07EEEF
:1025E000901A5EF81210F8EEE77A81F4000167EEB7
:1025F000A67AA1F5000167EE867AE4EC017A07EE8F
:10260000901A58F81210B8EEE77A81F40001A1F59B
:10261000000127EE267A07EE901A811827EE067A37
:10262000F8EEE77A81ED007A09EB020167EEA67A0F
:1026300093ED0C7A043267EE877AC1ED007A7969FE
:102640009142B4D1D7F800905D465446BA68E7E5A8
:102650002246FB69D7E90810984775E5D3ED0C6A67
:102660000BF1040C9FED4B7A5E46D7E9000136F979
:1026700022E007EE90EA3CF922E00232F8EEE77A37
:10268000944267EE877A67EEA67AE0EC017A07EE6D
:1026900090EAF8EEE77A67EE877A67EEA67AE1ECE1
:1026A000017AE4D8FFF7A0BBD3ED0C6A00229FEDBE
:1026B0003A7A0BF1040C5E46AE46D7E9000156F8B3
:1026C000225007EE905A5CF822500232F8EEE77A78
:1026D000944267EE877A67EEA67AE0EC017A07EE1D
:1026E000905AF8EEE77A67EE877A67EEA67AE1EC21
:1026F000017AE4D87546A3E60022DFED2A6A9FED51
:102700002A6A281DDFED255ADFF894C0D6ED007A3D
:10271000634667EE277AF4EEE67AF1EE10FA0CD90A
:10272000F4EEC67AF1EE10FA66FE277A67EEA57A25
:10273000FDEEE77A17EE903A1BB2D1ED007A04363F
:10274000043145F8223067EE277AF4EEE67AF1EEAE
:1027500010FA12D9F4EEC67AF1EE10FA66FE277A74
:1027600067EEA57AFDEEE77A17EE903A1BB240F8D5
:10277000223002329442C9D8E6E440F822C0023244
:102780009442C3D8E0E400BFD8DD0020007E008082
:1027900000000034000000380000003000FEFF465A
:1027A0000280FFFF04FF7FBF04FF7F3F00235FED38
:1027B000036A1FED036A281DDFF8FCC0D2ED007A22
:1027C000664667EE277AF4EEE67AF1EE10FA0BD958
:1027D000F4EEC67AF1EE10FA66FE277AF0EE675A4A
:1027E000FEEEE05A15EE906AD1ED007A0432043123
:1027F00045F8236067EE277AF4EEE67AF1EE10FAF8
:102800000FD9F4EEC67AF1EE10FA66FE277AFEEEE4
:10281000E07A17EE906A40F8236002339C42CDD8EC
:1028200092E440F823C002339C42C7D88CE40023D2
:10283000DFED1F6A9FED1F6A281DDFF880C0D2ED13
:10284000007A664667EE277AF4EEE67AF1EE10FA41
:102850000BD9F4EEC67AF1EE10FA66FE277AF0EEA6
:10286000675AFEEEE45A15EE906AD1ED007A043212
:10287000043145F8236067EE277AF4EEE67AF1EE4C
:1028800010FA0FD9F4EEC67AF1EE10FA66FE277A46
:10289000FEEEE47A17EE906A40F8236002339C4221
:1028A000CDD851E440F823C002339C42C7D84BE452
:1028B00004FF7FBF04FF7F3F007E00807E0080FF1B
:1028C00010B5194C84B09646046004F1080C0FC989
:1028D0008CE80F00D4ED047AF5EEC07A8DE80F0095
:1028E000F1EE10FA1CDDB7EE006A94ED057A27EEE2
:1028F000277AC6EE276A84ED0D7AC4ED0C6ABEF124
:10290000000F0DD0204640F818EF01F0BFFF074937
:1029100003690020064A2162A262E36004B010BD90
:10292000012004B010BD00BFD8DD00200020003021
:102930000000003000680830704700BFB1F5807FAC
:1029400003680A4628BF4FF48072B1F5807F9A6011
:1029500094BF0020012070470068183001F0F2BFDA
:1029600070B504688AB0A369E160D3B104F11800BE
:1029700001F08CFFE2688446EE461546BCE80F0085
:10298000AEE80F00BCE80F00AEE80F009CE80300C3
:102990008EE80300694604F11800049501F078FE02
:1029A000F0B9E369CBB104F11C05284601F06EFFD4
:1029B0008446EE46E468BCE80F00AEE80F00BCE8D1
:1029C0000F00AEE80F009CE803008EE803006946A4
:1029D0002846049401F05CFE10B900200AB070BDD6
:1029E00001200AB070BD00BF30B5046883B00D4649
:1029F000E3694BB1A3680020E26A616A9B00009022
:102A000004F11C0001F044FFA3680748A26A9B0080
:102A1000216A009004F1180001F03AFF0020C4E997
:102A2000005003B030BD00BF151B0024064B302002
:102A300003214FF07E52C3E90201002000211A61F8
:102A40005A61C3E906017047D8DD0020F6EE006A3E
:102A50009FED146A20EE207A80ED020AF7EE007AEC
:102A600080ED036A016027EE267AC7EE876AF4EEEE
:102A7000E76AF1EE10FA05DCB4EEE66AF1EE10FA60
:102A800076FE267A4FF07E514FF0000C027600223F
:102A9000C0ED017AC0F814C0016143768276C0EDC2
:102AA000070A704700000000837E80ED020ADBB950
:102AB000D0ED077A27EE800AB6EE007AF7EE007ABC
:102AC00020EE070A87EE807AB4EEE77AF1EE10FA8C
:102AD00007DCDFED077AF4EEC77AF1EE10FA77FE45
:102AE000877AC0ED017A7047DFED027AE2E700BF36
:102AF000000000006F12033B30B585B0044600258E
:102B0000ADF80C10ADF80820ADF8043002F0CCFFA1
:102B1000BDF80C204FF48073206004F1180022836C
:102B2000BDF808206383E383A283257100F04EFD86
:102B300004F11C0000F04AFD9FED060A019904F122
:102B4000080000F0F1F84FF6FF736562238405B0CA
:102B500030BD00BF000000000FB470B582B02B4E36
:102B60002B4D06AB306853F8042BC0F1800128448C
:102B7000019310F0CFF83368C01840D02A1801E054
:102B8000013820D012F8013D0A2BF9D00D2BF7D0D7
:102B9000841C7F2C18D9802342F224421C46A5F8BD
:102BA0007E201C4D33602B68012B18D92246184912
:102BB000194800F05DF90028F8D1306002B0BDE896
:102BC000704004B0704702240D230A222B540544A0
:102BD00023466A700F4D33602B68012BE6D82246DE
:102BE0000B490D4800F044F90028E7D12B6830600C
:102BF00001332B6002B0BDE8704004B070470D2176
:102C00000A22022329701C466A70CAE718DE0020D7
:102C10001CDE002014DE002010DE002010B504466B
:102C20000021084800F09AF8074A6300074813603B
:102C3000FFF792FF0648FFF78FFF0A20BDE810401C
:102C400002F034BF10DE002014DE002040410124D9
:102C500050410124074B0021074AB3F800C08260AD
:102C60009A884FF48073A0F804C00160C280C360EA
:102C7000704700BF704001240040003000220A234A
:102C800002700371704700BF30B52DED028B85B027
:102C90009FED128A05469DF82840B0EE480AADF82F
:102CA0000C100399ADF808202246ADF804300DF061
:102CB000ABFBB0EE480A2246029905F11C000DF06C
:102CC000A3FBB0EE480A2246019905F1380005B091
:102CD000BDEC028BBDE830400DF096BB00007A449D
:102CE00038B50C46054691ED000A0DF0B1FB94EDA8
:102CF000010A05F11C000DF0ABFB94ED020A05F191
:102D00003800BDE838400DF0A3BB00BF10B5044645
:102D10000DF0B0FB04F11C000DF0ACFB04F1380029
:102D2000BDE810400DF0A6BB30B5044683B00D0AD7
:102D3000009102F0B9FE4FF4807200994FF0012328
:102D40002060A01DA171A280E571A36003B0BDE861
:102D5000304000F03BBC00BF704700BF012908B500
:102D600019D0022910D019B1BDE8084007F080BC85
:102D7000364B0A46DFF8F4C035493648C3F800C080
:102D80000CF070FED0B1FEE70122334933480CF05D
:102D900069FE68B1FEE70A4630482F490CF062FE32
:102DA00000B1FEE72E492D480CF07EFEC0B1FEE7D3
:102DB0002B492A480CF078FE60B1FEE728492548E7
:102DC0000CF072FE00B1FEE7264922480CF0FCFD33
:102DD00018B3FEE7244921480CF0F6FD60B1FEE788
:102DE00021491E480CF0F0FD00B1FEE71B480CF035
:102DF00073FE0028B8D0FEE718480CF06DFE0246BE
:102E000050B9124BDFF864C011491248C3F800C032
:102E10000CF028FE38B1FEE7FEE70E480CF05CFE31
:102E20000028A1D0FEE70E490A480CF03DFE00B193
:102E3000FEE70C4907480CF0C7FD00B1FEE7054866
:102E40000CF04AFE00288FD0FEE700BF9CDE002079
:102E500014030020A4DE0020E402002040E1002052
:102E60006C040020A002002090020020592D0024B4
:102E7000084691B208B503F099F8003818BF012050
:102E800008BD00BF014806F019BE00BF482201205E
:102E9000014806F013BE00BF48220120014806F099
:102EA0000DBE00BF4822012000B583B04FF0000ED8
:102EB0004FF0030C4274ADF80410BDF8043080F8F4
:102EC00010E0A0F802C0038003B000BD2DE9F04F70
:102ED0004FF00008DFF8F4928FB0B74C037006464D
:102EE000B64B174642600D46202241464846C4F87C
:102EF0006831C4F86491CDE90388CDE90588CDE94E
:102F00000788CDE90988CDE90B880FF049FF202219
:102F1000414604F5A170C4F83181C4F83581C4F884
:102F20003981C4F83D810FF03BFF84F8307173683C
:102F300084F84882002B00F084814346484604F51B
:102F4000987E05F1100AC446019708E04FF0010190
:102F5000624503F1120384F8481264D90230E9187B
:102F600055F803B0E2180CF1010CCF68D1F80490C9
:102F7000D1F8088044F803B0D7604FF00007C2F8DA
:102F80000490C2F80880098A078011821AF8031099
:102F90000EF8011F72680029D8D1624503F11203AF
:102FA000DCD8019F94F84832FFB2002B3ED10121BA
:102FB000032332780020C4F89831002384F881116B
:102FC000C4F874317E4984F8803184F88831C4F8BB
:102FD0008471C4E967334FF48023C4E95B1308218B
:102FE0000123C4E95E310021C4E964019AB10020E3
:102FF0000121013A84F8A431C4E96C01082A0CD8F3
:10300000DFE812F0FE00F900F400EF00EA00D5005E
:10301000CF00C800C10084F8A4216A4803F0B0FFC3
:1030200030B1FFBEFEE7019F0021FFB20123C0E7E0
:10303000039003A9634804F0D5F8002840F0A1806C
:10304000042340F2FF720B90CDE9092394F830314C
:10305000002B4BD0DFF878818146DFF878A14FF064
:10306000070BA8F58E756B7B072B07D8DFE803F0FD
:103070008386807A777D4104CDF820B0281F00F048
:10308000A5FA2B7B042B3CDC022B00F3D28000F052
:10309000CC80002388F8003015F8043C002B42D087
:1030A000022B00F0B280012B07D115F8033C012B55
:1030B00000F0CB80002B00F0D6800023069306A9F9
:1030C000DAF800303F48079303F09EFC002840F0F8
:1030D000C08009F1010994F830210AF1040A08F1CD
:1030E00001085FFA89F312359A42BCD80FB0BDE8E7
:1030F000F08F0623281F089300F068FA2B7B042B1F
:10310000C2DD032388F800302F46002638460136FA
:1031100000F05CFA98F800300437B342F6DC15F89A
:10312000043C002BBCD115F8032C062A00F0858046
:10313000072A00F09480022A00F09780032A00F00A
:103140009680002A00F09580012A00F09480042ADD
:1031500000F09380052A1C4A08BF1346AEE70423FB
:1031600008938BE70323089388E70523089385E7F3
:103170000223089382E7002308937FE70123089343
:103180007CE7FFBEFEE740F2FF324FF4A073C4E9D4
:103190006A2342E740F2FF124FF49073C4E96A23B6
:1031A0003BE7FF224FF48073C4E96A2335E77F22AF
:1031B000E023C4E96A2330E7E0E300204041003027
:1031C000002002404CE500200000B84F00410030D4
:1031D00000E50020184201243F22C023C4E96A23ED
:1031E0001BE71F22A023C4E96A2316E70F228023CE
:1031F000C4E96A2311E707226023C4E96A230CE7C4
:1032000003224023C4E96A2307E715F8033C042B93
:1032100015D0052B1BD0F3B1012B1ED0022B20D0D3
:10322000032B7FF44AAF164B48E7012388F80030A0
:103230006AE7022388F8003066E7124B3EE7124B3C
:103240003CE7FFB201210323B3E6104B36E7104BF6
:1032500034E7FFBEFEE70F4B30E70F4B2EE70F4B77
:103260002CE70F4B2AE70F4B28E70F4B26E70F4BB6
:1032700024E70F4B22E70F4B20E70F4B1EE700BF61
:10328000002090360800900C1000C0102000F014B0
:10329000000180210004002A0008302E8000501D0B
:1032A000001060320002B0250040C03A0080F03EBD
:1032B00000002143000052470000844B044BD3F828
:1032C000643103EB41000F2988BF1846704700BFE7
:1032D000E0E30020224B02689A4200D07047214A66
:1032E0000021214BD2F8D800DFF880C040F0200048
:1032F00000B583B0C3F8D0C14FF0090CC3E975C164
:10330000C2F8D8004FF4806CD2F8D80093F8482265
:1033100000F0200082F00102019003F5E870120233
:10332000C3E9771CC3F8EC214FF4006C019A4FF409
:103330000052C3F8E4C1C3F8E821C3E97C1104F0EA
:103340007DF9094B08B1FFBEFEE703F5B67203F540
:10335000E871C3F80822C3F8B81103B000BD00BF7C
:103360000020024000440258E0E3002040000240F8
:10337000014804F0B9BC00BFB0E5002000B593B02F
:103380000180ADF80410C9B2DDF850C00B29C0F8B7
:103390000CC0C0E901233FD090F801E0BEF10F0F4F
:1033A0003AD8022A3CD0032A04D0A2F10102B2FA90
:1033B00082F25209012B0E9205D0A3F10203B3FA57
:1033C00083F35B095B00BCF1020F0F9326D0BCF1C5
:1033D000030F23D0ACF10103B3FA83F35B090A298D
:1033E00010930ED8624B4A1E03EB81230361092A16
:1033F00000F2AE80DFE802F09D8E7F7061524334B0
:10340000251600231A46036101230DA9104603FA6D
:103410000EF30D9304F0CAFF13B000BD6346DEE760
:103420001122C7E7534B544AD3F8E01041F48061AE
:10343000C3F8E010D3F8E03003F480630C930C9BE6
:10344000E2E74C4B4D4AD3F8E01041F40071C3F869
:10345000E010D3F8E03003F400730B930B9BD3E739
:10346000444B474AD3F8E01041F48071C3F8E010B0
:10347000D3F8E03003F480730A930A9BC4E73D4B12
:10348000404AD3F8E01041F08001C3F8E010D3F8CF
:10349000E03003F080030993099BB5E7354B3A4AC6
:1034A000D3F8E01041F04001C3F8E010D3F8E03069
:1034B00003F040030893089BA6E72E4B334AD3F84A
:1034C000E01041F02001C3F8E010D3F8E03003F041
:1034D00020030793079B97E7264B2D4AD3F8E0106C
:1034E00041F01001C3F8E010D3F8E03003F010030E
:1034F0000693069B88E71F4B264AD3F8E01041F05D
:103500000801C3F8E010D3F8E03003F00803059396
:10351000059B79E7174B204AD3F8E01041F00401EE
:10352000C3F8E010D3F8E03003F004030493049BE5
:103530006AE7104B194AD3F8E01041F00201C3F8D2
:10354000E010D3F8E03003F002030393039B5BE742
:10355000084B074AD3F8E01041F00101C3F8E0102E
:10356000D3F8E03003F001030293029B4CE700BF65
:103570000000025800440258002802580024025853
:1035800000200258001C025800180258001402586B
:1035900000100258000C025800080258000402589B
:1035A00008B5012143780069994089B205F014FA01
:1035B000003818BF012008BD90F801C001230A4659
:1035C000006903FA0CF189B205F00CBA8378022B7A
:1035D00030B504468FB039D0032B00F0D180A3F171
:1035E0000102B2FA82F25209E3780A92012B05D065
:1035F000A3F10203B3FA83F35B095B0000222046C8
:10360000CDE90B3203F0BCF80546204603F0C0F8C4
:1036100023780990082B13D8DFE803F02D40536678
:10362000798C9F051A00574BD3F8E02042F08002B6
:10363000C3F8E020D3F8E03003F080030793079B42
:1036400009A9284604F0B2FE0FB030BD1122CBE725
:103650004C4B09A92846D3F8E02042F48072C3F805
:10366000E020D3F8E03003F480730893089B04F063
:103670009DFE0FB030BD434B09A92846D3F8E0208A
:1036800042F00102C3F8E020D3F8E03003F0010378
:103690000093009B04F08AFE0FB030BD394B09A99E
:1036A0002846D3F8E02042F00202C3F8E020D3F825
:1036B000E03003F002030193019B04F077FE0FB0AA
:1036C00030BD304B09A92846D3F8E02042F004026F
:1036D000C3F8E020D3F8E03003F004030293029B28
:1036E00004F064FE0FB030BD264B09A92846D3F87C
:1036F000E02042F00802C3F8E020D3F8E03003F005
:1037000008030393039B04F051FE0FB030BD1D4B23
:1037100009A92846D3F8E02042F01002C3F8E020BF
:10372000D3F8E03003F010030493049B04F03EFE52
:103730000FB030BD134B09A92846D3F8E02042F062
:103740002002C3F8E020D3F8E03003F02003059313
:10375000059B04F02BFE0FB030BD0A4B09A928468B
:10376000D3F8E02042F04002C3F8E020D3F8E03084
:1037700003F040030693069B04F018FE0FB030BD23
:103780001A4631E70044025870B506460D4602F06D
:10379000F7FF0446304602F0FBFF2A1E0146204692
:1037A00018BF0122BDE8704005F01CB90268002373
:1037B0001221032A70B586B00446CDE901130393A4
:1037C00001D804230493201D02F0DAFF0646201DD1
:1037D00002F0DEFF69460090304604F0E7FDA01DD0
:1037E00002F0CEFF0546A01D02F0D2FF6946009010
:1037F000284604F0DBFD06B070BD00BF684A0368D0
:10380000934200B58DB029D0664A93425CD0664A97
:10381000934200F09B80654A934201D00DB000BDF9
:10382000634B6448D3F8E02042F00202C3F8E02082
:10383000D3F8E02002F002020A920A9AFFF7B6FFDC
:103840005B4BD3F8F42042F08002C3F8F420D3F8A5
:10385000F43003F080030B930B9BDFE7544B564887
:10386000D3F8E02042F00202C3F8E020D3F8E020D1
:1038700002F002020192019AFFF798FF4C4B0022DE
:103880001F20D3F8E81041F4001C1146C3F8E8C02B
:10389000D3F8E8C00CF4001CCDF808C0DDF808C06F
:1038A000D3F8D8C04CF0010CC3F8D8C0D3F8D83046
:1038B00003F001030393039B03F016FD1F200DB0DB
:1038C0005DF804EB03F040BD394B3C48D3F8E020F1
:1038D00042F08002C3F8E020D3F8E02002F080023A
:1038E0000492049AD3F8E02042F00202C3F8E020E8
:1038F000D3F8E02002F002020592059AFFF756FF86
:103900002B4B00222120D3F8E81041F4800C114603
:10391000C3F8E8C0D3F8E8C00CF4800CCDF818C0A8
:10392000DDF818C0D3F8D8C04CF0010CC3F8D8C0EB
:10393000D3F8D83003F001030793079B03F0D4FCBE
:1039400021200DB05DF804EB03F0FEBC1C48FFF72E
:103950002DFF174B00224820D3F8E8C011464CF445
:10396000000CC3F8E8C0D3F8E8C00CF4000CCDF8A4
:1039700020C0DDF820C0D3F8D8C04CF0010CC3F84B
:10398000D8C0D3F8D83003F001030993099B03F0A2
:10399000ABFC48200DB05DF804EB03F0D5BC00BFD4
:1039A0000054004000580040005C0040001C0058DB
:1039B00000440258B8E8002030E6002008E7002064
:1039C000E0E700200D4B002210210D484FF0FF0CC6
:1039D0005A6019801A8180F800C05A611983DA612F
:1039E0001A84DA6219865A631A875A64C3E9032271
:1039F000C3E90922C3E90F22704700BF4800002035
:103A00002CE60020EFF3108272B60C4B19780906F1
:103A100003D50AB962B67047704700B51B78D82045
:103A2000074983B05BB2019200FB031004F05CF91C
:103A3000019A02B962B603B000BD00BF2CE60020B7
:103A400044E60020014805F017BF00BFBCE6002097
:103A5000014805F011BF00BF94E70020014805F0C0
:103A60000BBF00BF6CE80020F0B50C68D825414EB4
:103A700087B004FB05F5032C06EB050303605FDC50
:103A8000CA68012A5CD857D00F4608689C46496826
:103A9000BA680DF1180EFB68ACE80F00D822364B5F
:103AA00002FB04613A7C01918CF80020D1F808C037
:103AB0000FCB0EE90F000EEB8403019ABCF1010F4E
:103AC00053F8103CC2F88C3048D0BCF1020F3AD009
:103AD000BCF1000F09D102F07FF9284B019A9842FE
:103AE0000CBF274B274BC2F89030D8233A7C26498D
:103AF000012003FB04F452008C3533199834C3F8C9
:103B000094200022C3E92602C3F8A020A8190A5174
:103B10000C446260C3F8AC2005F090FC80B901460B
:103B2000A81905F0BBFE58B90146A81905F0E2FE38
:103B3000003818BF012004E00A7C103A672AA3D994
:103B4000012007B0F0BD02F047F90C4B019A9842F2
:103B50000CBF0E4B0E4BC2F89030C6E702F03CF99A
:103B6000064B019A98420CBF0A4B0B4BC2F890309F
:103B7000BBE700BF30E6002078400124000E270795
:103B80005F4390608A62E0303CE60020200BA0108A
:103B90001A0980102D0FB0303211D0202DE9F041DC
:103BA000056882B0884616461F4605F18C042046FB
:103BB00005F070FE2028FAD1EB687BB94FEA480186
:103BC0002046089C3B46324689B2009405F096FC9C
:103BD000003818BF012002B0BDE8F081089B3A46CA
:103BE0003146204605F058FDF2E700BF044B102295
:103BF0001A7483F8E82083F8C02183F8982270476C
:103C000030E6002010B5002396B04FF480710622F4
:103C100004460D9308921593CDE90E13CDE91033A8
:103C2000CDE9133302F0DAF807282DD004F11003A0
:103C300041F2883208A91846019306F099FE28B18E
:103C4000012384F85C30012016B010BD022201234C
:103C50004FF0100C08A905934FF480030198CDF89C
:103C600010C0CDE902220022CDE9062305224FF043
:103C70008073089202AA119341F2883307F00EF87C
:103C80000028DDD116B010BD032384F85C30DAE7DC
:103C900030B50023A7B04FF080724FF48075044612
:103CA000ADF80E301D932593CDE920320122CDE9E8
:103CB0001E53CDE923332292002942D0F02200F195
:103CC000100518ABADF80E20C02041F2883219461D
:103CD0001890284606F04CFE28B1012384F85C3089
:103CE000012027B030BD41F288320DF10E01284687
:103CF00006F0BEFE03460028EFD14FF48071052286
:103D0000284601250A92102212930F9317930493C9
:103D10000795CDE910139FED1E7B4FF08071CDE923
:103D20001533139141F288330AA9CDE905526A444B
:103D30008DED087B06F0B2FF0028D2D084F85C50ED
:103D4000CEE718AB612100F1100541F288321891DD
:103D500019462846019306F00BFE0028BDD141F21A
:103D600088320DF10E01284606F008FF0028B4D174
:103D7000BDF80E20204622F0780242F04002ADF855
:103D80000E20FFF73FFF019B00289DD0A5E700BF55
:103D900000000000000040002DE9F04D0023AAB013
:103DA0004FF4807501248DF807304FF0807821930F
:103DB000074613931B9322951C94CDF89480CDE96C
:103DC0002333CDE92643CDE92833CDE91453CDE99A
:103DD0001633CDE9193306230E9301F0FFFF0728B0
:103DE00007D041F288320EA907F1100006F0C0FD9D
:103DF00030B1012387F85C3001202AB0BDE8F08D96
:103E000002234FF0000B4FF4800C08AA0EA907F113
:103E100010000B94CDF85C80CDE9083310230A9391
:103E200005230E9341F28833CDE90CBC06F036FF32
:103E30000028DED141F2883207F110001CA906F0FB
:103E400097FD0028D5D1402341F288320DF10701BA
:103E500007F110008DF8073006F00AFE0028C8D1DF
:103E6000402305204FF0000A4FF4800B1C901CA942
:103E700002AA07F110000594CDF89480CDE9023331
:103E80001023049341F28833CDE906AB06F006FF18
:103E900003460028ADD10520102213930EA90E90E1
:103EA00007F110000A9208AA1B931495CDF85C80C4
:103EB0000B94CDE91533CDE91933CDE9083441F23E
:103EC0008833CDE90CAB06F0E9FE002895D087F8E1
:103ED0005C4091E7000000002DE9F0415E4CA4B089
:103EE0000E46046001F07AFF072800F0A6803068D3
:103EF00025467168B26807C5B389284620F8043B97
:103F0000237B94F80D80019306F012FDD8B9019B34
:103F10000126E061012B514BC4E9056623610CBF0A
:103F20004FF400034FF4801393FAA3F3B3FA83F32F
:103F30004FF48077013B6762C4E90B00281D2362C0
:103F400006F076FC38B1012384F85C30012738464E
:103F500024B0BDE8F08166230D90159041F28832BF
:103F600008A90893CDE90E70CDE91000CDE9130042
:103F7000281D06F0FDFC0028E5D1992341F2883286
:103F800008A9281D089306F0F3FC0028DBD10523BF
:103F90001E901B9002AA16934FF08073239016A9CF
:103FA0001F9310230596049341F288339FED267BDF
:103FB000CDE91C70CDE92100CDE90206281D8DED6B
:103FC000067B06F06BFE0028BDD101992046FFF765
:103FD0005FFE0028B7D12046FFF7DEFE0746002827
:103FE000B1D1B8F1000FB2D14FF4807308AA16A96D
:103FF000281D1C93EB231A9716934FF440631D93CF
:104000004FF4005319934FF440431E93A023189389
:1040100006231B934FF080539FED0D7B23934FF0AE
:104020004073CDE921771F938DED087B06F0CAFE22
:1040300000288CD084F85C6088E7032384F85C3027
:1040400084E700BFAFF300800000000000004000E4
:10405000000000000000000090E900200050005225
:104060002DE9F0478CB03E4B0024026800AF9A4225
:10407000FC62C7E90744C7E9094403D03037BD46AD
:10408000BDE8F087374B40F609213748EA46D3F8B8
:10409000D42007F11405354E07F11A0842F4804286
:1040A000C3F8D420D3F8D42002F480423A603A68AE
:1040B000D3F8E02042F04002C3F8E020D3F8E0203B
:1040C00002F040027A607A68D3F8E02042F02002E1
:1040D000C3F8E020D3F8E02002F02002BA60BA680A
:1040E000D3F8E02042F01002C3F8E020D3F8E0203B
:1040F00002F01002FA60FA68D3F8E02042F00202FF
:10410000C3F8E020D3F8E030786103F0020339838C
:104110003B613B6956F8040F02F032FB8146306880
:1041200002F036FB0223F86107F11C014846C7E99B
:1041300008340323BB6215F8013BFB6204F036F937
:104140004545E7D100225C20114603F0CDF85C2004
:1041500003F0FAF83037D546BD46BDE8F08700BF1A
:1041600000500052004402580A0A0909ECE90020F4
:10417000114B02689A4200D07047104A70B5D2F8CD
:10418000D4300F4C23F4804304F11806C2F8D43025
:1041900054F8040F02F0F4FA0546206802F0F8FA29
:1041A0000146284604F0FAFAB442F1D15C20BDE899
:1041B000704003F0D7B800BF0050005200440258CE
:1041C000ECE90020014806F087BE00BFA0E900200E
:1041D000074B1A1D03F1020C981D03F108019A66A2
:1041E00003F10A02C3E9183CC3E91B015A6770478F
:1041F00090E900202DE9F041821D05468AB0031D9B
:1042000005F10A010830CDE9052305F10C02AB697F
:10421000CDE907010992002B3AD0EF69B7FA87F789
:104220007F090123022205AE4FF006080393CDE972
:10423000012356F8044B2B792278934216D02B6831
:10424000EBB1012B02D1EAB10A230493204602F01C
:104250009FFA0090204602F093FA694604F0A6F80F
:104260000AAB9E42E5D10AB0BDE8F0816979637876
:104270009942E4D1002FF3D02B68002BE1D1CDF887
:104280001080E3E76378022B0CBF08230A23DCE7E6
:104290000127C6E7AE49024603688B4200B58DB0E0
:1042A00000F08A8020318B4200F08680A9498B4241
:1042B00004D020318B4201D00DB000BDA64B00923E
:1042C000D3F8E010A54841F00101C3F8E010D3F89D
:1042D000E01001F0010107910799D3F8E01041F0D7
:1042E0000801C3F8E010D3F8E01001F008010891CC
:1042F0000899D3F8E01041F04001C3F8E010D3F87A
:10430000E01001F0400109910999D3F8F01041F44F
:104310000001C3F8F010D3F8F01001F400010A9185
:104320000A99FFF767FF8C4B009AD3F8D800D2F8B0
:1043300000C08B4940F00102D1F85C02C3F8D820DC
:10434000D3F8D83003F001030B93824B0B9A9C45B2
:1043500000F0BB80D1F88032013B18BF01239A01E5
:10436000002840F0E1807F4801F22C434FF0580CC8
:1043700001F54771C1F810010020019100935862C6
:10438000C3E901C24FF4806C4FF48052C3E9030CBF
:104390005A614FF4804C4FF480721846C3E906C24C
:1043A0004FF400321A6203F049F9DDE900310028C8
:1043B00000F0A180FFBEFEE7674B0092D3F8E0104B
:1043C000674841F00101C3F8E010D3F8E01001F0B4
:1043D000010102910299D3F8E01041F01001C3F8F5
:1043E000E010D3F8E01001F0100103910399D3F825
:1043F000E01041F04001C3F8E010D3F8E01001F004
:10440000400104910499D3F8F01041F48001C3F8FD
:10441000F010D3F8F01001F4800105910599FFF731
:10442000E9FE4D4B009AD3F8D810D2F800E041F0E5
:104430000101DFF81CC14A48C3F8D810E645D3F89B
:10444000D830026803F001030693069B2DD0436A1F
:10445000013B18BF01239901002A5BD1414A4FF06B
:10446000580C00F5E873C0F8D02100F1C00200201C
:10447000019200935862C3E901C14FF4806C4FF47C
:104480008051C3E9030C59614FF4804C4FF48071A3
:104490001846C3E906C14FF40031196203F0CEF8A3
:1044A000DDE9003210B3FFBEFEE7036A013B18BF2F
:1044B0000123990122BB2C4A4FF0570C00F5AC7335
:1044C000C0F8582100F12802D1E7D1F87C32013B35
:1044D00018BF01239A0188BB234801F56D734FF083
:1044E000570C01F52171C1F8300145E7C2E92033CD
:1044F0009A630DB000BDC1E9203399630DB000BDD2
:104500001A4A4FF0590C00F5AC73C0F8582100F16D
:104510002802ACE7164A4FF05A0C00F5E873C0F8D1
:10452000D02100F1C002A2E7114801F22C434FF064
:104530005A0C01F54771C1F810011DE70B4801F550
:104540006D734FF0590C01F52171C1F8300113E77B
:1045500004580140045C01400044025864EC00200F
:1045600008EA0020280002401000024058000240E3
:1045700070000240014803F0B7BB00BF60EB0020B1
:10458000014803F0B1BB00BFD8EB0020014803F0A5
:10459000ABBB00BFBCED0020014803F0A5BB00BFD2
:1045A00034EE00201A4A0368934200B509D0203245
:1045B000934206D0174A934215D02032934212D02C
:1045C00000BD154B0022D3F854E2C3F85822BEF1C7
:1045D000000FF5D0D3F84802D3E9931273465DF883
:1045E00004EB520818470C4B0022D3F8B0E4C3F890
:1045F000B424BEF1000FE3D0D3F8AC24D3F8A81450
:10460000D3F8A404520873465DF804EB184700BFC2
:1046100004580140045C014008EA0020184A03687D
:10462000934200B509D02032934206D0154A9342F6
:1046300016D02032934213D000BD134BD3E9942EF1
:104640005208C3F85822BEF1000FF5D0D3E9920109
:10465000734601EB820100EB82005DF804EB184722
:10466000094BD3F8AC24D3F8B0E45208C3F8B4240F
:10467000BEF1000FE0D0D3F8A814D3F8A404E7E704
:1046800004580140045C014008EA002000000000DA
:104690002DE9F047D1F800C04FF41777764D86B07A
:1046A00007FB0CF7BCF1010F05EB0708C0F8008011
:1046B00000F39C804FF0000907F512730E460C467C
:1046C00045F803902B44C646C3F80490C8F85092AE
:1046D00065A3D3E9002366A1D1E90001CDE9022356
:1046E0000DEB8C03CDE904019A681B6900920193DC
:1046F0000FCCAEE80F000FCCAEE80F00009A019B84
:1047000094E80300C8F828208EE80300C8F8C030F9
:104710003369042B0DD8DFE803F07D879103740023
:104720004FF417734BF6803203FB0C539A64C3F8B3
:10473000E020B269316A002A54D000294FF001020A
:1047400014BF032102214FF4177303FB0C53C3E979
:104750000B12F269716A002A4CD1891A18BF012123
:1047600070694FF41773022803FB0C53C3E931122D
:1047700006D8424B13F80090414B53F820309A462C
:104780004FF4177300223F4907F1280003FB0CF395
:10479000284403F1380403F1500C03F1D0060A5108
:1047A0000C44626003F1E8042B445A645A6341F8F4
:1047B0000C208C44CCF80420DA658A510E447260D7
:1047C000C3F8DC20C3F8CC200A510C445146626087
:1047D000C3F8F42002234A4608F0E4FC002837D04E
:1047E000FFBEFEE7891A18BF0121ACE7012006B021
:1047F000BDE8F08700294FF0010214BF0321022118
:10480000AEE74FF41773204A03FB0C539A64C3F8C6
:10481000E0208EE74FF417734FF4FA5203FB0C536A
:104820009A64C3F8E02084E74FF417734FF47A5288
:1048300003FB0C539A64C3F8E0207AE74FF4177334
:104840004FF4FA4203FB0C539A64C3F8E02070E77C
:1048500007F1C00002234A465146284408F0A2FC52
:104860000028C4D0FFBEFEE704580140045C0140AC
:1048700024580140245C014008EA002078420124C9
:104880006C4201240CEA00200077010000687047A8
:1048900070B5046882B015460E46C4F85032C4E9BB
:1048A00092129AB2069BC4F85432A369012B24D009
:1048B000636A0192012B10D0294604F1C00008F070
:1048C0003FFD236A019A012B0FD0294604F12800ED
:1048D00008F036FD002002B070BD04F1C00008F001
:1048E000B5FD236A019A012BEFD1314604F128006E
:1048F00008F0ACFD002002B070BD236A0192012BCC
:1049000010D0294604F1280008F01AFD636A019AC4
:10491000012B0FD0294604F1C00008F011FD002042
:1049200002B070BD04F1280008F090FD636A019A9E
:10493000012BEFD1314604F1C00008F087FD0020C3
:1049400002B070BD03681B69042B05D8044A02EB52
:10495000830393ED000A70479FED020A704700BF82
:104960005842012400803B470368D3F8580270473F
:10497000204B02680169F0B5D3F88C5083B0C3684E
:10498000ADB25D1BB2B1A94214D08268044617468D
:1049900002EB010010D2691ACDE9000100F0C0FF5E
:1049A0000023DDE90001D4E90062B047E368256136
:1049B000AB421AD003B0F0BD591ACDE9001000F097
:1049C000AFFF0023D4E90062DDE90010B0472946BB
:1049D000384600F0A5FF002338466268294626685D
:1049E000B047E3682561AB42E4D10023236103B003
:1049F000F0BD00BF000002402DE9F04704468846A4
:104A000091461E4600F13405284609F0D5F82028C5
:104A1000FAD10023C4E93233C4E93533C4F8DC30B9
:104A2000C4F8E430C4F84431C4F85431C4F85C31FB
:104A3000C4E953334FF48063C4F8D030C4F848312C
:104A40004FF44033C4F8E030C4F85831414BC4F857
:104A5000C03003F57A73C4F838314023C4F84031CC
:104A6000E369072B0BD8DFE803F00460444B52598D
:104A7000676E2923C4F8C4302A23C4F83C3104F5F6
:104A80009C77384602F0DAFD08B1FFBEFEE7C4F8B5
:104A9000A870C4F87051EFF310839A4672B62E4A8C
:104AA00094F91C302D4F1370089B2D4C3B60099BD3
:104AB00023600EB11846B0471FFA89F241462846D6
:104AC00008F038FE28B9BAF1000F00D162B6BDE88F
:104AD000F087FF23204A137000233B602360089B6C
:104AE00013B10121099898470120BAF1000FEED1C6
:104AF000ECE72D23C4F8C4302E23C4F83C31BEE7C4
:104B00003F23C4F8C4304023C4F83C31B7E7412305
:104B1000C4F8C4304223C4F83C31B0E74723C4F89A
:104B2000C4304823C4F83C31A9E72B23C4F8C4306F
:104B30002C23C4F83C31A2E74F23C4F8C4305023DF
:104B4000C4F83C319BE75123C4F8C4305223C4F865
:104B50003C3194E788000240C8EE0020C4EE0020FB
:104B6000C0EE00202DE9F0470446884691461E46D7
:104B700000F13405284609F01FF82028FAD1002357
:104B8000C4E93233C4E93533C4F8DC30C4F8E43066
:104B9000C4F84431C4F85431C4F85C31C4E9533327
:104BA0004FF48063C4F8D030C4F848314FF4403338
:104BB000C4F8E030C4F85831414BC4F8C03003F5B4
:104BC0007A73C4F838314023C4F84031E369072BC5
:104BD0000BD8DFE803F00460444B5259676E292379
:104BE000C4F8C4302A23C4F83C3104F1C007384665
:104BF00002F024FD08B1FFBEFEE7C4F8AC70C4F8B3
:104C0000F850EFF310839A4672B62E4A94F91C308E
:104C10002D4F1370089B2D4C3B60099B23600EB1F8
:104C20001846B0471FFA89F24146284608F0CEFDE3
:104C300028B9BAF1000F00D162B6BDE8F087FF23B2
:104C4000204A137000233B602360089B13B10121AD
:104C5000099898470120BAF1000FEED1ECE72D2317
:104C6000C4F8C4302E23C4F83C31BEE73F23C4F857
:104C7000C4304023C4F83C31B7E74123C4F8C43002
:104C80004223C4F83C31B0E74723C4F8C43048237A
:104C9000C4F83C31A9E72B23C4F8C4302C23C4F852
:104CA0003C31A2E74F23C4F8C4305023C4F83C3150
:104CB0009BE75123C4F8C4305223C4F83C3194E735
:104CC00088000240C8EE0020C4EE0020C0EE0020A4
:104CD000F0B585B0EFF3108672B6002947D1FF23F7
:104CE000254A264C2370136823B100201060244A03
:104CF0001068984723781B0626D5224F0025224CA2
:104D000005E001351C3407F5D877092D1CD0A369BF
:104D1000012B1DD0002BF4D1216838460029F0D09A
:104D20002269E368039262690192039A00922289E0
:104D3000FFF718FF0028E4D1C5EBC505124A02EBC6
:104D4000850342F82500586006B962B605B0F0BD8B
:104D500061680029D5D063693846019323690093BF
:104D6000E3682289FFF748FE0028CAD1E4E70391EF
:104D700009F01CFC0399B2E7C4EE0020C8EE002045
:104D8000C0EE002000EF002090000020F0B50346A8
:104D9000002189B002201A7E05910B2ACDE903017A
:104DA000D9694FEA4104264625D1997E0B2902D1C3
:104DB000002009B0F0BDDFF844C1721C4E485CF819
:104DC000222090F800C092F800E0DC7EF4452646F0
:104DD00068D071457CD092F803E0F44573D07145FA
:104DE00000F0828092F806E0E64577D0714534D035
:104DF000012009B0F0BD41493F4851F8241090F816
:104E000000C091F800E05D7EF4452F463AD072452F
:104E10003ED091F803E0F4453FD072454DD091F873
:104E200006E0E64543D07245E2D1CA79BA42DFD105
:104E3000063103F118028978019310460092069119
:104E400001F09EFC0446009801F0A2FC02A9029029
:104E5000204603F0ABFA019BA7E7D179B142C7D155
:104E600006321A33927818460093069201F088FCB5
:104E70000446009801F08CFC02A90290204603F041
:104E800095FA95E74C784578AC42C2D07245C0D1CE
:104E900091F801E0BE45BCD1CBE70C794578AC4236
:104EA000BBD1BCE744785578AC4292D193E74078C7
:104EB00091F807C08445B6D19AE791F804E0BE4561
:104EC000ADD10331B5E714794578AC4287D189E794
:104ED00092F801E0B6457FF47EAFC2E7407892F8E1
:104EE00007C0844582D183E792F804E0B6457FF499
:104EF00079AF0332B5E700BF7C0200208C010020AF
:104F00007F4A0368934230B58FB000F0E580A2F588
:104F10004C42934200F0E28002F58062934200F03E
:104F2000DF8002F58062934200F0DC8002F580624F
:104F3000934200F0DB8002F54442934200F0D480BB
:104F4000A2F51C42934200F0D38002F580629342A6
:104F500000F0D0806B4A934240F0CE8008256A4A28
:104F60004FF4D87303FB0524A07E01F019FC207ECA
:104F700001F016FCE269082A13D8DFE802F04B5969
:104F8000677583919F053D00604AD2F8E81041F0B3
:104F90000041C2F8E810D2F8E82002F0004207927F
:104FA000079A2046FFF7F2FE012801D1FFBEFEE777
:104FB0004FF4D873544ADFF858E10DF1240C03FB89
:104FC0000524E3690DEB4305BEE80F00ACE80F00D4
:104FD000DEF800300022ACF800301146B5F92400AC
:104FE00002F082F9E3690DEB4303B3F924000FB03B
:104FF000BDE8304002F0A8B9444AD2F8F41041F0BC
:105000000801C2F8F410D2F8F42002F00802089265
:10501000089AC6E73D4AD2F8F01041F01001C2F8F4
:10502000F010D2F8F02002F010020092009AB8E7D7
:10503000364AD2F8E81041F40031C2F8E810D2F84C
:10504000E82002F400320192019AAAE72F4AD2F82E
:10505000E81041F48021C2F8E810D2F8E82002F408
:1050600080220292029A9CE7284AD2F8E81041F482
:105070000021C2F8E810D2F8E82002F400220392DE
:10508000039A8EE7214AD2F8E81041F48011C2F861
:10509000E810D2F8E82002F480120492049A80E723
:1050A0001A4AD2F8F01041F02001C2F8F010D2F8FC
:1050B000F02002F020020592059A72E7134AD2F816
:1050C000E81041F08041C2F8E810D2F8E82002F080
:1050D00080420692069A64E7002540E701253EE7F4
:1050E00002253CE703253AE7052538E7042536E79E
:1050F000062534E7072532E700239B7EFFDE00BF4D
:1051000000100140000C005800EF0020004402583D
:1051100088400124000000009FED297B2A4B0022DB
:1051200001212A484FF0FF0C1A819A84A3F84020ED
:10513000A3F85C20A3F87820C3F88C2080F800C086
:1051400083ED007BC3E90322C3E90521C3E90722FC
:1051500083ED0A7BC3E90C2183ED0E7BC3E91122A9
:10516000C3E91321C3E9152283ED187BC3E91A2192
:1051700083ED1C7BC3E91F22C3E92121C3F89020E2
:10518000A3F89420A3F8B020A3F8CC20A3F8E8203B
:1051900083ED267BC3E9282183ED2A7BC3E92D22F9
:1051A000C3E92F21C3E9312283ED347BC3E93621E2
:1051B00083ED387BC3E93B22C3E93D21704700BF43
:1051C000000000000000000090000020C8EE002059
:1051D000094808B508F0CCFB0848037D1BB1436BB8
:1051E000DB69DB0600D408BDFFF7C2FB03481022D1
:1051F000436B1A6208BD00BF34EF002000EF0020AF
:1052000008B50B4808F0B4FB0A4B93F8C42122B14F
:10521000D3F8E421D269D20600D408BD03F5D870D2
:10522000FFF7A6FB034B1022D3F8E4311A6208BD46
:10523000E4F0002000EF002008B50B4808F098FBD0
:105240000A4B93F8742322B1D3F89423D269D2067F
:1052500000D408BD03F55870FFF78AFB034B1022FA
:10526000D3F894331A6208BD94F2002000EF0020B6
:1052700008B50B4808F07CFB0A4B93F8242522B1B3
:10528000D3F84425D269D20600D408BD03F5A26044
:10529000FFF76EFB034B1022D3F844351A6208BDAA
:1052A00044F4002000EF002008B50B4808F060FB34
:1052B0000A4B93F8D42622B1D3F8F426D269D20649
:1052C00000D408BD03F5D860FFF752FB034B102252
:1052D000D3F8F4361A6208BDF4F5002000EF002080
:1052E00008B50B4808F044FB0A4B93F8842822B118
:1052F000D3F8A428D269D20600D408BD03F507600C
:10530000FFF736FB034B1022D3F8A4381A6208BD0E
:10531000A4F7002000EF002008B50B4808F028FB98
:105320000A4B93F8342A22B1D3F8542AD269D20610
:1053300000D408BD03F52260FFF71AFB034B1022CF
:10534000D3F8543A1A6208BD54F9002000EF002047
:1053500008B50B4808F00CFB0A4B93F8E42B22B17C
:10536000D3F8042CD269D20600D408BD03F53D6001
:10537000FFF7FEFA034B1022D3F8043C1A6208BD73
:1053800004FB002000EF002008B50B4808F0F0FAFD
:105390000A4B93F8942D22B1D3F8B42DD269D206DA
:1053A00000D408BD03F55860FFF7E2FA034B102262
:1053B000D3F8B43D1A6208BDB4FC002000EF002011
:1053C000EFF3108272B60C4B1978090603D50AB9AF
:1053D00062B67047704700B51B784FF4D870074924
:1053E00083B05BB2019200FB031002F07DFC019AD6
:1053F00002B962B603B000BDC8EE0020C0EF0020C5
:10540000EFF3108272B60C4B1978090603D50AB96E
:1054100062B67047704700B51B784FF4D8700749E3
:1054200083B05BB2019200FB031002F05DFC019AB5
:1054300002B962B603B000BDC8EE002038F000200B
:105440000021FFF745BC00BF214A036893422BD0DF
:10545000A2F54C42934229D002F58062934227D0B4
:1054600002F58062934225D002F58062934223D0F8
:1054700002F54442934221D0A2F51C4293421FD030
:1054800002F5806293421DD0124A93421CD1082239
:105490004FF4D871104B01FB0233197D11B118463E
:1054A000FFF766BAFFF714BC0022F1E70122EFE72D
:1054B0000222EDE70322EBE70422E9E70522E7E712
:1054C0000622E5E70722E3E700231B7DFFDE00BF9E
:1054D00000100140000C005800EF0020204A036833
:1054E000934229D0A2F54C42934227D002F5806224
:1054F000934225D002F58062934223D002F5806268
:10550000934221D002F5444293421FD0A2F51C429F
:1055100093421DD002F5806293421BD0114A934200
:105520001AD1082310484FF4D87202FB0300037D00
:1055300003B97047FFF71CBA0023F3E70123F1E733
:105540000223EFE70323EDE70423EBE70523E9E775
:105550000623E7E70723E5E700231B7DFFDE00BF07
:1055600000100140000C005800EF00200121FFF75F
:10557000AFBB00BF2DE9F041D1F804804FF4D874DF
:10558000314F8E4604FB08F40E46B8F1080F04EBC9
:105590000705056005F1180CBEE80F00ACE80F0028
:1055A0009EE807008CE8070002D86B6A022B02D93C
:1055B0000120BDE8F0812A6A032AF9D8A86A0228E6
:1055C000F6D8D5F82CC0BCF1020FF1D8B169013082
:1055D0001E4E8000A96356F8233004F14001A864F0
:1055E00007F10C006B6404F13406194B3C4453F88A
:1055F000223001222B64174B53F82C30EB63164BEF
:1056000053F828306B63002343500144F0194B607A
:105610006B650023C4E9162308F0C8FF0028C7D132
:105620000146F01909F01CF80028C1D10146F01913
:1056300009F066F80028BBD1F01908F0F1FF002846
:10564000B6D12875B5E700BF00EF002098420124CD
:10565000884201247C420124A4420124000000006D
:105660005D4B012147F612225C48DFF89CC19FED9B
:10567000587B00B5C3F8B02DC3F84025C3F8F02619
:10568000C3F8A028C3F8502AC3F8002CC3F8AC1DF7
:10569000DFF878E1C3F83C15C3F8EC16C3F89C18A2
:1056A000C3F84C1AC3F8FC1BC3E90B12C3E9771209
:1056B000C3E9E31203F5A662018882ED007B8278DC
:1056C000AEF806108EF8082003F5DC6EACF8061074
:1056D0008EED007B03F5096E8EED007B03F5246EE5
:1056E00083ED087B83ED747B83EDE07B8EED007BA7
:1056F00003F53F6E03F55A638EED007B83ED007B6F
:105700008CF80820364BDFF808C10068A3F80310B6
:105710005A71D9801A72ACF80310324B8CF80520FC
:10572000ACF806108CF80820DFF8E8C0A3F80310E6
:105730005A71D9801A72ACF803102B4B8CF80520E3
:10574000ACF806108CF808204FEA104CA3F80310B0
:1057500018805A71D9801A7283F802C0234BDFF87F
:10576000B8E0A3F803105A71D9801A72204BAEF832
:105770000610A3F803108EF808205A71D9801A7207
:105780001C4B1880A3F803105A71D9801A7283F841
:1057900002C0194B1880A3F803105A71D9801A72ED
:1057A00083F802C0154B1880A3F8031014485A71EF
:1057B000D9801A7283F802C0124BA0F8031042710C
:1057C000C1800272A3F803105A71D9801A7200BD09
:1057D000010000000000000000EF00207C0200201B
:1057E0004C02002034020020F0EE0020F8010020DE
:1057F000EC010020E4EE0020D8EE0020CCEE0020EA
:10580000E0010020D401002064020020700200208A
:105810005802002040020020100200203F4B0022CE
:105820000B20D3F8D8C011464CF0010C00B583B062
:10583000C3F8D8C0D3F8D8C00CF0010CCDF800C024
:10584000DDF800C0D3F8D8C04CF0020CC3F8D8C0C3
:10585000D3F8D83003F002030193019B01F044FD1B
:105860000B2001F071FD00220C20114601F03CFDDF
:105870000C2001F069FD00220D20114601F034FDDD
:105880000D2001F061FD00220E20114601F02CFDDB
:105890000E2001F059FD00220F20114601F024FDD9
:1058A0000F2001F051FD00221020114601F01CFDD7
:1058B000102001F049FD00223C20114601F014FDAA
:1058C0003C2001F041FD00221120114601F00CFDA9
:1058D000112001F039FD00223820114601F004FDAD
:1058E000382001F031FD00223920114601F0FCFC86
:1058F000392001F029FD00223A20114601F0F4FC84
:105900003A2001F021FD00223B20114601F0ECFC81
:105910003B2003B05DF804EB01F016BD00440258D3
:105920002031BFF34F8F002909DD20F01F00064A08
:105930000144C2F85C0220300B1A002BF9DCBFF3E3
:105940004F8FBFF36F8F704700ED00E008B501F097
:1059500031F8BDE8084001F07FBD00BF064808B53A
:1059600003680BB103F042F8044803681BB1BDE8BB
:10597000084004F0A3B808BD50280120401E0120B3
:10598000064808B503680BB103F030F80448036813
:105990001BB1BDE8084004F091B808BD50280120B3
:1059A000401E0120064808B503680BB103F01EF83D
:1059B000044803681BB1BDE8084004F07FB808BD87
:1059C00050280120401E0120364BDA6A520062D571
:1059D0009A6A9A6A9A6A9B6A180600D500BE314B89
:1059E0009B6A990600D500BE2E4B9B6ADA0600D54D
:1059F00000BE2C4B9B6A1B0700D500BE294B9B6A3F
:105A0000980700D500BE274B9B6AD90700D500BE7A
:105A1000244B9B6A1A0400D500BE224B9B6A9B0450
:105A200000D500BE1F4B9B6AD80400D500BE1D4B9D
:105A30009B6A190500D500BE1A4B9B6A5A0500D512
:105A400000BE184B9B6A9B0500D500BE154B9B6A98
:105A5000D80500D500BE134B9B6A990100D500BE46
:105A6000104B9B6ADA0100D500BE0E4B9B6A1B03EC
:105A700000D500BE0B4B9B6A580300D500BE094BF6
:105A80009B6A990300D500BE064B9B6ADA0306D4D5
:105A900000BE00BEFEE7DB6A9B07FAD5F8E700BE52
:105AA000F6E700BF00ED00E000F090BF00F094BF0B
:105AB0000A4B9B6803F17843B3F5003F0BD3084BC7
:105AC000986848B19868012806D09868022803D0E1
:105AD0009868032070470120704700BF00ED00E088
