:020000042400D6
:10000000000002208D07002489070024318300248A
:1000100089070024890700248907002400000000C4
:10002000000000000000000000000000890700241C
:10003000890700240000000089070024B5820024FD
:1000400089070024890700248907002489070024E0
:1000500089070024890700248907002489070024D0
:10006000890700248907002489070024DD6E002405
:10007000E96E0024BD5C0024F56E0024016F0024AD
:10008000297D00246D63002489070024890700244A
:100090008907002489070024890700248907002490
:1000A0008907002489070024890700248907002480
:1000B000A13C0124AD3C0124B93C0124AD630024E2
:1000C00089070024B96300248907002431350124FD
:1000D0003D350124397B0024697B0024A17B002469
:1000E00089070024890700240000000089070024F4
:1000F0008907002489070024890700248907002430
:100100008907002489070024C53C012449350124BE
:10011000D97B0024117C002489070024890700244E
:1001200089070024890700246D350124AD35012499
:10013000697D002489070024890700248907002499
:1001400000000000000000000000000000000000AF
:10015000890700248907002489070024497C00249A
:10016000C563002489070024C5820024E982002495
:10017000890700240D8300248907002489070024AF
:100180008907002489070024817C0024B97C00248D
:10019000553501246135012489070024890700248D
:1001A000890700248907002489070024890700247F
:1001B0002D6B002489070024890700248907002467
:1001C0008907002489070024D1570024DD57002423
:1001D00089070024E957002489070024890700249F
:1001E000890700248907002489070024890700243F
:1001F000890700248907002489070024890700242F
:10020000890700248907002489070024890700241E
:10021000890700248907002489070024890700240E
:1002200089070024890700248907002400000000B2
:1002300089070024890700240000000089070024A2
:1002400089070024890700248907002489070024DE
:1002500089070024890700248907002489070024CE
:1002600089070024890700248907002489070024BE
:100270008907002489070024F17C00240000000085
:100280008907002489070024890700240000000052
:080290000000000089070024B2
:1002A000034613F8012B002AFBD1181A01387047B6
:1002B00001F0FF01102A2BDB10F0070F08D010F817
:1002C000013B013A8B422DD010F0070F42B3F6D11B
:1002D000F0B441EA012141EA014122F007047FF034
:1002E00000070023F0E80256083C85EA010586EA8B
:1002F000010685FA47F5A3FA87F586FA47F6A5FAC7
:1003000087F68EB9EED1F0BC01F0FF0102F00702D2
:1003100032B110F8013B013A83EA010313B1F8D17D
:100320000020704701387047002D06BF354603385E
:10033000073815F0010F07D1013015F4807F02BF97
:10034000013015F4C03F0130F0BC0138704700BFE8
:1003500081F0004102E000BF83F0004330B54FEA76
:1003600041044FEA430594EA050F08BF90EA020FE3
:100370001FBF54EA000C55EA020C7FEA645C7FEA76
:10038000655C00F0E2804FEA5454D4EB5555B8BF99
:100390006D420CDD2C4480EA020281EA030382EA0A
:1003A000000083EA010180EA020281EA0303362D9C
:1003B00088BF30BD11F0004F4FEA01314FF4801C6F
:1003C0004CEA113102D0404261EB410113F0004F81
:1003D0004FEA03334CEA133302D0524263EB430338
:1003E00094EA050F00F0A780A4F10104D5F1200ED6
:1003F0000DDB02FA0EFC22FA05F2801841F1000131
:1004000003FA0EF2801843FA05F359410EE0A5F104
:1004100020050EF1200E012A03FA0EFC28BF4CF035
:10042000020C43FA05F3C01851EBE37101F00045EB
:1004300007D54FF0000EDCF1000C7EEB00006EEBF8
:100440000101B1F5801F1BD3B1F5001F0CD3490882
:100450005FEA30004FEA3C0C04F101044FEA4452D9
:1004600012F5800F80F09A80BCF1004F08BF5FEA60
:10047000500C50F1000041EB045141EA050130BD40
:100480005FEA4C0C404141EB0101013C28BFB1F552
:10049000801FE9D291F0000F04BF01460020B1FA9D
:1004A00081F308BF2033A3F10B03B3F120020CDA70
:1004B0000C3208DD02F1140CC2F10C0201FA0CF04E
:1004C00021FA02F10CE002F11402D8BFC2F1200CB3
:1004D00001FA02F120FA0CFCDCBF41EA0C01904069
:1004E000E41AA2BF01EB0451294330BD6FEA0404B2
:1004F0001F3C1CDA0C340EDC04F11404C4F120029D
:1005000020FA04F001FA02F340EA030021FA04F3AE
:1005100045EA030130BDC4F10C04C4F1200220FA05
:1005200002F001FA04F340EA0300294630BD21FA43
:1005300004F0294630BD94F0000F83F4801306BF09
:1005400081F480110134013D4EE77FEA645C18BFFD
:100550007FEA655C29D094EA050F08BF90EA020F94
:1005600005D054EA000C04BF1946104630BD91EA8C
:10057000030F1EBF0021002030BD5FEA545C05D18F
:100580004000494128BF41F0004130BD14F58004CE
:100590003CBF01F5801130BD01F0004545F0FE4142
:1005A00041F470014FF0000030BD7FEA645C1ABF77
:1005B000194610467FEA655C1CBF0B46024650EAAE
:1005C000013406BF52EA033591EA030F41F40021DA
:1005D00030BD00BF90F0000F04BF0021704730B560
:1005E0004FF4806404F132044FF000054FF0000135
:1005F00050E700BF90F0000F04BF0021704730B5F6
:100600004FF4806404F1320410F0004548BF4042CA
:100610004FF000013EE700BF42004FEAE2014FEA1F
:1006200031014FEA02701FBF12F07F4393F07F4FFA
:1006300081F06051704732F07F4208BF704793F0FD
:100640007F4F04BF41F40021704730B54FF4607410
:1006500001F0004521F000411CE700BF50EA010213
:1006600008BF704730B54FF000050AE050EA0102BC
:1006700008BF704730B511F0004502D5404261EB2C
:1006800041014FF4806404F132045FEA915C3FF46D
:10069000D8AE4FF003025FEADC0C18BF03325FEA0A
:1006A000DC0C18BF033202EBDC02C2F1200300FABB
:1006B00003FC20FA02F001FA03FE40EA0E0021FAE0
:1006C00002F11444BDE600BF53B94AB9002908BF7E
:1006D00000281CBF4FF0FF314FF0FF3000F00CB886
:1006E000ADF1080C6DE904CE16F0B4FADDF804E0C3
:1006F000DDE9022304B07047704700BF0348044B94
:10070000834202D0034B03B118477047D406002040
:10071000D4060020000000000548064B1B1AD90F24
:1007200001EBA301491002D0034B03B118477047F6
:10073000D4060020D40600200000000010B5064CAE
:10074000237843B9FFF7DAFF044B13B10448AFF342
:1007500000800123237010BDD80600200000000097
:10076000447B012408B5054B1BB105490548AFF38F
:100770000080BDE80840FFF7CFBF00BF00000000C9
:10078000DC060020447B0124FEE700BF0B4A0C4B33
:10079000934204D0D21A0B49184615F08AFA0A4A35
:1007A0000A4B934204D0D21A0021184615F03CFAA5
:1007B00015F058FA01F062FCFEE700BFD4060020F5
:1007C00000000020747B0124D0370120D8060020CF
:1007D00090ED006AF6EE081A9FED4A2A90ED043A71
:1007E000D0ED052A26EE026A90ED074A9FED460AF3
:1007F00062EEA12AD0ED016A24EE214A23EE003AEE
:10080000DFED421A91ED000A66EE826A90ED027AFF
:10081000A0EE216A91ED010ADFED3D5AE0EE216A7A
:10082000D0ED037AD0ED063A27EE257AD0ED0A0A0C
:1008300067EEA57AD0ED084A63EE823A90ED095A48
:100840009FED342A64EEA54A9FED331A25EE255A12
:1008500091ED040A60EE815AF5EE000A2DED028B4F
:1008600081ED006A91ED026AC1ED016AD1ED036A82
:10087000A6EE027A91ED066AE6EE827AD1ED076A7B
:10088000E6EE213A91ED058AB0EE446ADFED231AD7
:10089000E8EE202A81ED027AA6EEA06A91ED087AB0
:1008A000F0EE646AC1ED037ADFED1D7AC1ED063A20
:1008B000E7EE026AC1ED052AB0EE457AA0EE273ACE
:1008C000D1ED097A91ED0A0AA7EE827A81ED076AE5
:1008D000F0EE657AE0EE217A81ED043AC1ED086A26
:1008E00081ED097A91ED0B7ABDEC028BC1ED0A7AAC
:1008F000D0ED0B7A67EE817AE7EE217AC1ED0B7AC3
:10090000704700BF6666263F3333333F3333B33E11
:10091000CDCC0C3F6666E63E9A99593F9A99193EAE
:100920009A99993E0021154B154A164810B5196041
:10093000154C164B1170302201601548216019705A
:1009400015F072F94FF07E50124A0023124C1060DD
:100950000021124A124823601060124C124A236090
:100960001160124C1248134A236001601160124C4E
:100970001248134A21600360116010BDD4070020A3
:10098000D80700209C070020D0070020680700201F
:10099000A007002054000020640700205000002021
:1009A0000024744960070020580700205C070020DD
:1009B00054070020500700204C0700204807002063
:1009C00044070020784B90ED006AD0ED016AD0ED2D
:1009D000021A90ED037A90ED042AD0ED057AD3ED5A
:1009E000002A93ED013AD3ED023A72EE862A93ED96
:1009F000034A33EE263AD3ED044A73EEA13A93ED5F
:100A0000055A34EE074A90ED060A74EE824AD0ED9C
:100A1000070A35EE275A90ED081AD3ED065A93EDE2
:100A2000076AD3ED086A75EE805A93ED097A36EEBF
:100A3000206AD0ED091A76EE816AD3ED0A7A90ED3C
:100A40000A2A37EE217AC3ED086A77EE827AC3ED7F
:100A5000002A83ED097A83ED013AC3ED023A83ED72
:100A6000034AC3ED044A83ED055AC3ED065A83EDEC
:100A7000076AC3ED0A7A93ED0B7AD0ED0B6AD0EDDD
:100A8000007A37EE267ADFF858C1DCF8002083EDD3
:100A90000B7A464B013293ED007ACCF80020F4EE4D
:100AA000C77AF1EE10FA01DDC3ED007A404B93ED09
:100AB000007AF4EEC77AF1EE10FA01D5C3ED007AB0
:100AC0003C4BD0ED037A93ED007AF4EEC77AF1EE69
:100AD00010FA01DDC3ED007A374B93ED007AF4EEA6
:100AE000C77AF1EE10FA01D5C3ED007A334BD0EDA1
:100AF000017A93ED007AF4EEC77AF1EE10FA01DD97
:100B0000C3ED007A9FED2E7AF4EEC77AF1EE10FA7B
:100B10002FDDDFED2C7A90ED047AB4EEE77AF1EE7A
:100B200010FA27DD2848036813B1CB1AB42B39D942
:100B3000DFF8B0C0DCF8003030B573B3DFF8A8E000
:100B4000224CDEF8005094ED007A4D1B204A07EE4F
:100B5000905AF8EE677A77EE877AC4ED007A1468D7
:100B6000013414600133CEF800100160CCF800307D
:100B700030BD7047DFED177A90ED077AB4EEE77A73
:100B8000F1EE10FACEDCDFED147A90ED057AB4EEDA
:100B9000E77AF1EE10FAC5DC7047104ADFF848E05A
:100BA0001160DFE7704700BFA00700206407002046
:100BB0005400002060070020500000205C07002047
:100BC0008FC2F53B295C0F3D5407002048070020E9
:100BD00044070020A69B443C0AD7233C5007002032
:100BE0009C070020580700204C07002030220021DD
:100BF00008B515F019F8424A1268002A77DD034655
:100C00004049414807EE902A0968F7EE005A026809
:100C1000B8EEE76A9FED3D2A91423D48C5EE866AEF
:100C2000DFF808C138BF1146D0ED064A90ED044AFE
:100C30008A1AD0ED033A90ED023A07EE902AD0EDF1
:100C4000002A3448F8EE677A9FED337A90ED005A27
:100C5000324887EE826A324AD0ED007ADCF8000032
:100C6000D2ED005A58602F48F8EEE55A2E4A62EE4F
:100C7000A62AD0ED001A23EE263ADFF8B4C063EEC0
:100C8000A63A126877EEE17A9CED001A24EE264A25
:100C9000501E64EEA64A75EE416AC3ED097AC3EDB3
:100CA000002A83ED023AC3ED086AB4EEC67AC3EDBA
:100CB000033A83ED044AC3ED064AF1EE10FA77FEDB
:100CC000067A8142C5EEA76A12D8C3ED0A5AC3ED6F
:100CD000056A83ED0B6A86EE277AF7EE007AB4EEAA
:100CE000E77AF1EE10FA77FE877AC3ED077A08BD4E
:100CF000891A07EE101AB8EE477A87EE026AE4E71F
:100D00009C070020D0070020D407002000007A4470
:100D1000A0070020640700206F12833A60070020BC
:100D20005807002050000020540700205C070020D6
:100D300054000020944B53F820301F2B00B585B091
:100D400005DC032806D8DFE800F0BA2C68088F48D5
:100D500004F074FB002005B000BDD1ED007ADFED9A
:100D60008C6A91ED017AF4EEE67AF1EE10FA06DD86
:100D7000DFED886AB4EEE67AF1EE10FA4BDCDFEDD7
:100D8000866A864827EE267A67EEA67ABDEEC77A8F
:100D9000FDEEE77A17EE102A17EE901A04F04EFBDC
:100DA000D8E791ED005ADFED7E7A91ED044AB4EE7A
:100DB000E75A91ED0A7A91ED076AD1ED056AF1EEF5
:100DC00010FAD1ED014A40F3AD80DFED767AF4EE12
:100DD000E74AF1EE10FA40F3A580DFED737AB4EE46
:100DE000E74AF1EE10FA40F39D80F0EE007AB4EE9F
:100DF000E77AF1EE10FAC0F29580F4EEE76AF1EED0
:100E000010FA40F38F80DFED697AB4EEE76AF1EE15
:100E100010FA40F1878001209DE7D1ED005ADFED07
:100E2000647AD1ED0A4AF4EEE75A91ED077A91ED32
:100E3000015AF1EE10FA14DDDFED5E7AB4EEE75AF6
:100E4000F1EE10FA0DDDF0EE047AF4EEE74AF1EE81
:100E500010FA06D8DFED587AB4EEE77AF1EE10FA20
:100E6000D9DCDFED4D7A91ED0B6A64EEA74AD1ED46
:100E7000056A25EE275A514865EEA75A26EE276ADD
:100E800027EE277A66EEA76AFDEEE47ABDEEC66A23
:100E9000BDEEC77A17EE903AFDEEC57AFDEEE66A32
:100EA0008DED026A8DED017A17EE902AFDEEE57A5E
:100EB000CDED006A17EE901A04F0C0FA4AE7D1EDC2
:100EC000007A9FED3F6AD1ED046AF4EEC67A91EDA7
:100ED000017AF1EE10FA0DDD9FED3A6AB4EEC67AB2
:100EE000F1EE10FA06DD9FED386AF4EEC66AF1EE17
:100EF00010FA90DC9FED286A344866EE866A27EE89
:100F0000067A67EE867AFDEEE66ABDEEC77AFDEEFA
:100F1000E77A16EE903A17EE102A17EE901A04F0C0
:100F20008DFA17E7DFED1C7AD1ED0B5A24EE274A34
:100F3000274864EEA74A25EE275A65EEA75A26EE03
:100F4000276A66EEA76A27EE277AFDEEC47AFDEEE1
:100F5000E55ABDEEC66A17EE903AFDEEE47AFDEE74
:100F6000E66ACDED035ABDEEC77A8DED026A17EE43
:100F7000902AFDEEC57ACDED016A8DED007A17EE6F
:100F8000901A04F05BFAE5E630080020587001245E
:100F90000AD7233B0AD7A33B00007A4444710124BB
:100FA000A69BC43A4260653BA69B443C6666E63E0F
:100FB00017B7D1396F12833A8FC2F53DFC70012407
:100FC0006F12833B6F12033C0AD7233D74700124D8
:100FD000AC7001242DE9F04F30228FB000216B4816
:100FE00014F022FE6A4B03F130041A464FF07E5192
:100FF00042F8041BA242F9D1664A0026DFF8A0A1FC
:1010000091463746D046019359F8043B002B30DD1A
:101010000AEB060C03EB430140465F4D0CEB011C51
:1010200001680DF1080B02914168039181680491F8
:10103000C16805910169069141690791816908912B
:10104000C1690991016A0A91416A0B91816A0C9107
:10105000C16A0D914D49D1ED007ABBEC017A77EE72
:10106000877AE1EC017AA942F5D130306045D7D1D9
:101070001F4406F5C06608F5C068B6F5C05FC3D169
:10108000019B002F74D007EE907AB7EE007A3F4EA6
:10109000F8EEE77A06F130003146C7EE276AD1ED67
:1010A000007A67EEA67AE1EC017A8142F7D1DFF8A7
:1010B000F0904FF0000852F8041B002934DD08EBD3
:1010C0000A0C01EB41014F460CEB011C79683868B2
:1010D0000391F968BD680591796902900791F969F2
:1010E000386904950991BD69796A06900895386A4E
:1010F000BD6A0B91F96A0A9002A80C9535460D91CC
:101100001946F0EC017A0DF1380BB5EC016A91ED5E
:10111000007A584577EEC67AA7EEA77AA1EC017A55
:10112000EFD130376745D1D108F5C06809F5C069FE
:10113000B8F5C05FBFD11D46B5EC010A9FED177A27
:1011400020EE260AB5EE400AF1EE10FA14D4F1EEC4
:10115000C07AF4EEC77AF1EE10FA01D5F7EE007A14
:10116000A54245ED017AE7D101200FB0BDE8F08F2F
:1011700038460FB0BDE8F08FCDED016A14F048F9A4
:10118000DDED016AF0EE407AEAE700BFF4060020E8
:10119000000000203008002024070020BD378635DD
:1011A000500800202DE9F84F234E002106F11000D1
:1011B000334653F8042B002AC8BF01318342F8D1CB
:1011C000012903DDFFF706FF824620B94FF0000A30
:1011D0005046BDE8F88F19484FF05A0902F068F8F8
:1011E000174A1849154802F0C1F8DFF86480B34681
:1011F00000275BF8043B002B0EDD45460024294602
:101200009FED110A3A460D4802F0A8F901345BF847
:10121000043C30359C42F2DB013708F5C068042FEE
:10122000E7D1B9F10109E0D10849044802F09AFA7E
:101230005046BDE8F88F00BF300800201023002082
:1012400000000020F40600204260653B6C20002076
:101250005008002030B587B0024610496846104D4E
:1012600002F0E2F8EE46DFF840C00E4CBEE80F0098
:10127000ACE80F00DEF80020634643F81029F7EED3
:10128000007AB3EC017A6345A5EC017A77EEC77A70
:10129000E4EC017AF3D107B030BD00BF1023002089
:1012A0002407002040000020FC220020164A0023D2
:1012B0001648DFF878C01649DCF800C000B51060A9
:1012C00050609060D060134ADFF864E0C2F810C04C
:1012D0001148CEF800C0C0F800C0C1E90033C1E930
:1012E0000233C2E900330D49C2E902334FF07A52AA
:1012F0000A604A608A60CA60094A0A4913600A4A59
:101300000B60136000BD00BF40000020003C1C4685
:1013100024070020FC2200205C2000203000002058
:10132000582000205420002050200020DC070020FE
:1013300060200020F6EE007AD1ED0A4A70B5F4EE96
:10134000E74A0C460646F1EE10FA40F11681D1ED5F
:10135000077A9FEDBB7AF4EEC77AF1EE10FA00F34C
:10136000C7809FEDB87AF4EEC77AF1EE10FA09D58E
:10137000DFEDB57A94ED0B7AB4EEE77AF1EE10FA80
:1013800000F1B580B14BDFEDB26A1A4693ED006A09
:10139000043302F1100CF3EC017AF4EEC67AF1EEAC
:1013A00010FA00F3E580F4EEE67AF1EE10FA77FE3B
:1013B000A66A9C45EFD1A749DFF8DCC2A64801F137
:1013C000100E0B469FEDA57AF2EC017A93ED005AD0
:1013D00067EE877ADFEDA25AB7EE007AE5EE257A5E
:1013E00037EE677AE3EC017A9E45ECEC017AA0ECEB
:1013F000017AE7D1974B4FF0000CDFED955A93ED52
:10140000007A1A1D0123F2EC017AF4EEC77AF1EEAC
:1014100010FA00F3A780F4EEE57AF1EE10FA77FE09
:10142000A55A0133042BEED1DFED8E7AB4EEE76AD4
:10143000F1EE10FA40F3918076EE666ADFED8A7A7B
:10144000F4EEE76AF1EE10FA40F38780DFED877A79
:10145000B4EEE77AF1EE10FA7FDD77EE655ADFED54
:10146000797AF4EEE75AF1EE10FA76DD804B1A68DD
:10147000624500F0B3800122C3F800C07D487E4D74
:1014800013462A60BCF1020F7C4A036012683AD00E
:10149000002E7DD1944500F01C81DFED797AB4EE09
:1014A000E77AF1EE10FA00F1BB80012A4FF002005A
:1014B00000F0BB80BCF1010F00F0A88098424CDC2A
:1014C000944514D06D4B0022C3F800C06D4B1A60D8
:1014D000D1ED007ADFED6C6A67EEA67AE1EC017A75
:1014E0008E45F5D15B4B03EB8C0C8CED007A70BD17
:1014F000DFED657A91ED0B7AB4EEE77AF1EE10FA52
:101500007FF740AF70BDDFED617AF4EEE74AF1EEB0
:1015100010FA6BD8DFED5E7AD4ED055AF4EEE75A97
:10152000F1EE10FA62D5DFED587AD4ED075AF4EEF9
:10153000E75AF1EE10FA59DDD4ED0B5ADFED557A8A
:10154000F4EEE75AF1EE10FA50DD002E40F0FF8085
:10155000022A00F0DD80002BB4DC4A4A1368013314
:10156000136070BDF0EE475A9C46B0EE677A58E7BC
:10157000F0EE466AB0EE676A1BE7F7EE007AF4EE2B
:10158000E74AF1EE10FA3FF6FDAED1ED077AE8E654
:10159000F6EE087AB4EEE76AF1EE10FA4EDDDFED12
:1015A0003F7AF4EEE76AF1EE10FACCBF0120022098
:1015B000944500F09F800026DFED317AF4EEC77A83
:1015C000F1EE10FAC8BF0320012A00F08980BCF1B7
:1015D000010F1BD0002E18BF01206FE7264A2548B7
:1015E000154612680368013201334AE7002E57D1CD
:1015F000022A09D0DFED227AB4EEE77AF1EE10FA92
:1016000000F18F80012A71D0022057E7F0EE007AB6
:10161000F4EEE74AF1EE10FA7ED4002E9BD14DE7AE
:10162000012A4FF003007FF445AFBCF1010F67D0F2
:10163000002E90D198427FF745AF8EE70220B7E7A2
:101640006666663F8FC2753D0AD7233DFC220020A7
:10165000000000003000002040000020CDCCCC3E37
:101660009A99193F8FC2F53ECDCCCC3DEC51B83E96
:101670006020002058200020502000205C20002006
:101680003D0AD73E542000203333B33ECDCC4C3FEF
:101690006666E63FEC51383E24070020CDCC4C3E38
:1016A000F6EE087AB4EEE76AF1EE10FA0CDD5FEDC3
:1016B000057AF4EEE76AF1EE10FA05DD022A4FF042
:1016C00001007FF478AFF9E6022A9DD002200026BF
:1016D00072E7BCF1010F31D0012B7FF73EAF70BD37
:1016E000BCF1020FA1D1002E7FF435AF032B3FF7E1
:1016F000E9AE32E7BCF1010F4FF000067FF467AFAF
:10170000F0EE007AF4EEE74AF1EE10FA0CD58EB165
:10171000002B7FF722AF70BD002E7FF41CAF03209B
:10172000CCE6012AFBD1E1E7002EF1D198423FF748
:1017300014AF70BD022B7FF710AF70BDF0EE007AD2
:10174000F4EEE74AF1EE10FAF4D40220EEE7F6EEFA
:10175000087AB4EEE76AF1EE10FA0CDD5FED317A4B
:10176000F4EEE76AF1EE10FA05DD022A4FF001000F
:101770007FF422AF2EE7022A60467FF41DAF29E7EF
:101780000138032838D8DFE800F027170C0260EE94
:10179000007AB0EE087A27EE800A20EE070A13F0EE
:1017A0005FBEB5EEC00AF1EE10FA20DAF7EE087A65
:1017B00020EE270A13F054BEF1EE607AB4EEE70A89
:1017C000F1EE10FA10D4B4EEE00AF1EE10FA70FE69
:1017D000807AB0EE670A7047F7EE007AB0EEC07A12
:1017E00037EE277AC0EE077AB0EE670A7047F0EE60
:1017F000047A20EE270AD2E7F0EE407AF4E700BF41
:1018000080F30200104B114A03EB4013104910B54E
:10181000106008700F4C586899680F4A206011607A
:101820000E481969D3F80CC00D4AD3F814E01160C2
:101830000C4C1A7F0C49C0F800C098690B4BC4F8D7
:1018400000E008601A7010BDD0740124DC0700208D
:10185000280800209000002098000020940000201C
:101860008C00002088000020840000205800002008
:1018700008B5244B2449D3ED007A244A244B2DED9E
:10188000028BB0EE408A91ED000A1878D2ED000A82
:1018900067EE887A27EE800AFFF772FFDFED1D7A88
:1018A00020EE270A13F0DCFD1B4AB7EE006A1B4B43
:1018B000D2ED006AD2ED007A76EE666A93ED007A98
:1018C00067EE807A1649174ABFEE000AD1ED005A3A
:1018D000E6EE887AD2ED006A77EEC77AA7EEA57AAF
:1018E00067EE267A83ED007AF4EEC07AF1EE10FA14
:1018F00005D4F4EEC67AF1EE10FA36FE270ABDECF6
:10190000028B08BDA8000020B00000209C00002031
:1019100058000020CDCCAC3FA4000020E007002000
:10192000AC000020A0000020224BD3ED007AF8EE9E
:10193000E77A77EEC07AF5EEC07AF1EE10FA08D5C4
:101940009FED1D7A77EE877AF5EEC07AF1EE10FA08
:10195000F6D49FED197AF4EEC77AF1EE10FA08DBAF
:101960009FED157A77EEC77AF4EEC77AF1EE10FAAA
:10197000F6DABDEEE77A114A11484BF6803C17EED5
:10198000103AB8EEC77A02EB8301013377EEC77ADB
:1019900091ED000A80FB0310D917C1EBA0210CFBCD
:1019A000113302EB830292ED007A37EE407AA7EE14
:1019B000270A70472408002000803B47000000C031
:1019C000F119760510B5424C2DED028B94ED008A8D
:1019D000F0EE408AB0EE480A13F0DEFA3D4A3E4B84
:1019E000B7EE006A92ED007AD3ED007ADFED3B4A64
:1019F000E0EE077A9FED3A5ADFED3A5AB0EE670A09
:101A0000FFF792FF384B9FED397AD3ED006A384AE1
:101A100030EE664AD2ED007AE4EE246A26EE877A4A
:101A2000C3ED006AA0EE057A67EE277AE8EEA57AA4
:101A3000F4EEC67AF1EE10FA07DCBFEE006AB4EEFF
:101A4000E76AF1EE10FA36FE276A2A4B2A48D3EDF0
:101A5000006A2A4A036878EE266A294902EB830263
:101A6000DFED287A013382ED006AF4EEE76A81FB4C
:101A70000321DA17C2EBA1224BF68031F1EE10FA06
:101A800001FB1233036001DB76EEE76A1E4AB7EE14
:101A9000006A1E4BBFEE000AD2ED007AC4ED006A68
:101AA00076EE675AD3ED006A67EE877AE5EEA87A9C
:101AB00067EEA67AF4EEC07AF1EE10FA05D4F4EEF1
:101AC000C67AF1EE10FA36FE270ABDEC028B10BD85
:101AD00000080020F4070020F80700200AD7233C64
:101AE0009A99193F6666E63E04080020CDCCCC3EAC
:101AF0007C000020FC07002024080020000000C01B
:101B0000F1197605DB0FC94080000020B8000020E5
:101B100008B53A4BF0EE405A9FED395AB7EE006ADD
:101B200093ED000AFFF700FF364BF0EE403A9FEDD1
:101B3000364A93ED000AFFF7F7FE344BF0EE406AA9
:101B4000DFED334A93ED000AFFF7EEFEDFED317A69
:101B5000314B26EEA77A314AD3ED006AD2ED007AF6
:101B6000A3EE857AA0EE047A37EE664AE4EE246AA4
:101B700066EEA77AC3ED006AE5EE857AF4EEC67AE2
:101B8000F1EE10FA07DCBFEE006AB4EEE76AF1EEA0
:101B900010FA36FE276A224AF7EE006ADFF890C094
:101BA000BFEE000AD2ED007A1E4876EEE74A9CEDC1
:101BB000005A67EE877A03681B4A1C49E4EEA57A4F
:101BC00002EB8302013382ED006A81FB03C1DA1765
:101BD0004BF6803CC2EBA12267EE857A0CFB1233F8
:101BE000F4EEC07A0360F1EE10FA05D4F4EEE67A72
:101BF000F1EE10FA36FEA70A08BD00BFEC07002080
:101C0000CDCC0C3FE80700209A99193EE40700204C
:101C10008FC2F53C9A99993EF00700206800002099
:101C20006C00002024080020000000C0F119760597
:101C3000B400002070B59F4C9F4EA04D2DED048B3D
:101C400082B013F09FFE07EE900A2378F0EE006A50
:101C5000FAEEE07A96ED008ABFEE007A022BD5ED1F
:101C6000008AA7EEA67A00F0F48023788DED017A41
:101C7000032B00F0A180B8EE000A28EE000A13F052
:101C800019F9F0EE409AB0EE680A13F085F9B0EE5B
:101C9000409A38EEA80A13F07FF99FED896AF0EEBA
:101CA000497AF0EE086AE0EE067A28EEA60ACDED53
:101CB000007A13F071F99FED836AF1EE006ADDEDB1
:101CC000007AE0EE067A28EEA60ACDED007A13F04F
:101CD00063F9B0EE409ABBEE040A28EE000A13F056
:101CE000E9F89FED796ADDED007ADFED786AE9EEDB
:101CF000067A9DED017A27EE267AE7EE007A67EE06
:101D0000A97AB0EE679A9FED720A28EE000A13F0E6
:101D100043F9F7EE007A9FED6F7A9FED6F6AE0EE80
:101D2000077A6E4BDFED6E6A93ED007A67EE867A86
:101D300087EE870A30EE280AB4EEE60AF1EE10FAD2
:101D400001DB30EE660AF7EE006A237885ED000AC3
:101D5000022BC6EE877A77EE887AC6ED007A1ED01F
:101D60002378032B0ED0B7EE087AF4EEC77AF1EEA3
:101D700010FA01DB00233360B0EE490A02B0BDEC7B
:101D8000048B70BDB0EE087AF4EEC77AF1EE10FA6B
:101D9000F0DAB0EE490A02B0BDEC048B70BDB1EED2
:101DA000047AF4EEC77AF1EE10FAE3DAB0EE490AFB
:101DB00002B0BDEC048B70BD9FED4A0A28EE000A0C
:101DC00013F078F8F0EE409AB0EE680A13F0E4F8F9
:101DD000B0EE409A38EEA80A13F0DEF89FED426AA2
:101DE000F0EE497AF0EE086AE0EE067A28EEA60AEE
:101DF000CDED007A13F0D0F89FED3C6AF1EE006A69
:101E0000DDED007AE0EE067A28EEA60ACDED007A46
:101E100013F0C2F8B0EE409ABAEE0E0A28EE000AAD
:101E200013F048F8DFED325ADFED326A9FED326A87
:101E3000DDED007A9DED017AE9EE257A27EE267A2E
:101E400067EE867AE7EE007A67EEA97AB0EE679AD7
:101E500059E79FED2A0A8DED017A28EE000A13F06A
:101E600029F8F0EE409AB0EE680A13F095F8B0EE5B
:101E7000409A38EEA80A13F08FF89FED1D6AF0EE35
:101E8000497AF0EE086AE0EE067A28EEA60ACDED71
:101E9000007A13F081F8B0EE409ABAEE080A28EE04
:101EA000000A13F007F8DFED165ADFED166A9FED12
:101EB000166ABDE728080020080800200C0800204A
:101EC000AE47613ECDCCCC3D0AD7233DEC51383EE8
:101ED0003333333F6F12033BA0C9AC44CC00002026
:101EE000DB0FC9403333B3BE8FC2753DCDCCCC3C84
:101EF0000AD7233C8FC2F53D6666E63E8FC2F5BD2C
:101F00000AD7A33B0AD7A33D3333B33E002A00F0E0
:101F100099802DE9F84F8A468046164600244A4F9C
:101F20004A4D2DED028B1FE0D8F800304B4493ED65
:101F3000008AB0EE480A464800F030FF2B78EBB13B
:101F40002B78012B21D02B78022B6DD02B78032BF3
:101F500071D00134DAE90023A6424A444B4482EDB1
:101F6000008A83ED008A5BD03B784FEA8409002B1E
:101F7000DAD0FFF75FFEB0EE408ADAE7B0EE480A4B
:101F8000FFF776FCB0EE408AE3E7DFF8E8B0DBED80
:101F9000008AB0EE680A12F0FFFF2E4BDFED2E6ACA
:101FA000B7EE086A93ED007A2C4BD3ED007AE0EEA1
:101FB000077AB0EE670AFFF7B7FC294BB7EE007A55
:101FC0002848D3ED007AD0F800C037EE677A264B68
:101FD00067EE807A2549E7EE087A93ED007A0CF1F6
:101FE000010338EE870A81FB0321DA17C2EBA12235
:101FF0001F49B4EEE60A01EB8C0167EE867A81EDAB
:10200000008A4BF68031F1EE10FA01FB12330360C7
:1020100001DB30EE660AB0EE678A8BED000A98E7C6
:10202000BDEC028BBDE8F88FB0EE480AFFF7CAFCA2
:10203000B0EE408A8DE7B0EE480AFFF769FDB0EEDA
:10204000408A86E7704700BF10080020280800205B
:10205000002600201C080020DB0FC94020080020BB
:10206000BC0000202408002014080020F119760587
:10207000000000C018080020FFF748BF2DE9F04F0E
:102080000021C1484FF0000ABF4DDFF88C83DFF814
:102090008C93BE4FDFF888B32DED028B9FB001F01B
:1020A000D9FC002003F02CFA40F6B83006F0B2F963
:1020B0003021B54801F0F0FB0321B34801F000FCEA
:1020C0009FEDB30A4FF48071B24800F0DFFDB248D3
:1020D00001F0EEF8B14B1C461868FFF791FBFEF7D4
:1020E00021FCFFF7E3F8AE4803F0A8F92368AD4AF6
:1020F0005B01AD48AD4CD15803F0A0F9AC49A24802
:1021000001F0C8FBAB4803F099F9CDF834A09E4824
:1021100001F0EAFB9C4801F0F3FB95F8B43023B1E1
:1021200095F8BA307F2B00F07C8395F8C43023B14A
:1021300095F8CA307F2B00F0E18395F844306BB1FD
:102140006B6E002B40F360830AF10102534202F0F0
:10215000030A03F0030358BFC3F1000A96498D48F0
:10216000C9F800A000F082FF0E90002840F06081C6
:10217000924B1B783BB9924B1B7823B1914B1B7848
:10218000002B40F06583D9F8002082F30202834BD4
:102190008D491A60834B0A7003EB42138B495A68CE
:1021A0000A609A688A490A60DA688A490A601A6984
:1021B00089490A605A6989490A609A6988491B7F76
:1021C0000A60884A137006F023F90D9B0646C31A6D
:1021D000B3F57A7F9BD3714B724A1B68D9F8001014
:1021E0005B0181489FED818AD258814B1B68039324
:1021F000804B1B680293804B1B6901937F4B1B68CC
:1022000000937F4B1B7803F019F9D4ED0A7AD4EDD3
:10221000045A67EE887A94ED016A65EE885A94ED67
:102220000B7AD4ED006A26EE086AFDEEE77A75486F
:1022300066EE886A27EE087ACDED007AFDEEE57A43
:10224000BDEEC77A17EE903AFDEEC67A8DED017AB3
:1022500017EE902AFDEEE67A17EE901A03F0EEF8EC
:10226000D7ED0A7AD7ED044A67EE887A97ED015ADE
:1022700064EE884A97ED0B6A25EE085AD7ED076A97
:10228000FDEEE77A97ED057AD7ED005A26EE086A5B
:1022900066EE886A5C48CDED007AFDEEE47A65EE84
:1022A000885A27EE087A17EE903AFDEEC57ABDEE11
:1022B000C66AFDEEE66ABDEEC77A17EE902AFDEE1D
:1022C000E57A8DED036ACDED026A8DED017A17EEA8
:1022D000901A03F0B3F84D4BDFED4D7A93ED037A8E
:1022E0009BED035ADBED025A27EE277A9BED016A3C
:1022F00025EE275ADBED006A65EEA75A26EE276A1F
:10230000D3ED023A66EEA76A93ED014ABDEEC55AD7
:10231000D3ED004AFDEEE55A294BBDEEC66A3D48B5
:10232000FDEEE66A8DED045ABDEEC77ACDED035A97
:102330008DED026A63EEA73ACDED016A24EE274ADD
:102340008DED007A64EEA77A1B78BDEEE37A0B93ED
:10235000FDEEE77A1B4B1B7817EE901A0A93D8F81C
:102360000C300993D8F808300893D8F80430079354
:10237000D8F800300693114B1B78059317EE103AEE
:10238000BDEEC47A4EE000BF944A00206C070020E6
:1023900000803B470026002010230020DC0700209F
:1023A00070710124D07401247C710124A0250020C7
:1023B0007920002488710124D02500206820002085
:1023C000692000206A2000202808002090000020BA
:1023D00098000020940000208C000020880000203D
:1023E0008400002058000020E072012400007A449C
:1023F000582000205C200020FC2200209C070020A8
:10240000D8070020247301244873012440000020D1
:102410000000C84288730124300800206420002096
:102420002407002017EE102A03F008F80D966EE638
:10243000C749C848FEF7CCF994ED007AB5EEC07AEA
:10244000F1EE10FA00F11082F7EE007AB4EEE77ABE
:10245000F1EE10FA77FE877A94ED017AC4ED007AF6
:10246000B5EEC07AF1EE10FA00F1FB81F7EE007ADA
:10247000B4EEE77AF1EE10FA77FE877A94ED027AFD
:10248000C4ED017AB5EEC07AF1EE10FA00F10482E3
:10249000F7EE007AB4EEE77AF1EE10FA77FE877A7B
:1024A00094ED037AC4ED027AB5EEC07AF1EE10FA3B
:1024B00000F1EF81DFEDA87AB4EEE77AF1EE10FAE1
:1024C00077FE877A94ED047AC4ED037AB5EEC07A8C
:1024D000F1EE10FA00F1DA81F1EE047AB4EEE77A67
:1024E000F1EE10FA77FE877A94ED057AC4ED047A5E
:1024F000B5EEC07AF1EE10FA00F1C581F2EE047A81
:10250000B4EEE77AF1EE10FA77FE877A94ED067A68
:10251000C4ED057AB5EEC07AF1EE10FA00F1B081A3
:10252000F7EE007AB4EEE77AF1EE10FA77FE877AEA
:1025300094ED077AC4ED067AB5EEC07AF1EE10FAA2
:1025400000F19B81F7EE007AB4EEE77AF1EE10FA33
:1025500077FE877A94ED087AC4ED077AB5EEC07AF3
:10256000F1EE10FA00F18681F7EE007AB4EEE77A28
:10257000F1EE10FA77FE877A94ED097AC4ED087AC5
:10258000B5EEC07AF1EE10FA00F17181DFED737AE9
:10259000B4EEE77AF1EE10FA77FE877A94ED0A7AD4
:1025A000C4ED097AB5EEC07AF1EE10FA00F1568169
:1025B000F2EE007AB4EEE77AF1EE10FA77FE877A5F
:1025C00094ED0B7AC4ED0A7AB5EEC07AF1EE10FA0A
:1025D00000F14181F0EE007AB4EEE77AF1EE10FA04
:1025E00077FE877AC4ED0B7A05F012FFDFED5C7A97
:1025F00094ED007A5B4BB4EEE77A0F901978F1EE28
:1026000010FA00F3DF809FED587AD4ED016AF4EE02
:10261000C76AF1EE10FA00F3D58094ED067AB4EEB5
:10262000E77AF1EE10FA00F3CD8000293AD04F4B53
:102630000F9A1B68D31AA02B40F2DD804C4B0F9AE7
:102640001B68D31AB3F5966F94BF002301230E9332
:1026500012A8FEF7CBFA474B4FF001020DF1480EDE
:10266000DFF85CC11A70444B1E68BEE80F00ACE88E
:102670000F00BEE80F00022EACE80F009EE80F002E
:102680008CE80F000CDD3D4B1B78002B40F05B818C
:102690003B4B1B7823B13B4B1B78002B40F0B9819F
:1026A000FEF740F9384B9FED397A93ED004A384AEE
:1026B000384B24EE074AD2ED006A374A93ED006AA0
:1026C00066EE874ADFED357A92ED005A344AA6EE7F
:1026D000274A25EE075AD2ED005A324A65EE875A4C
:1026E000D2ED006A304A26EE876A83ED004AD2EDC9
:1026F000006A2E4B26EE877AF0EE646A93ED004A6C
:10270000E4EE276AC3ED006AF0EE456A284BD3ED8C
:10271000004AE4EEA76AC3ED006AF0EE656A254B55
:1027200093ED005AE5EE276AC3ED006AF0EE466AC3
:10273000214BD3ED005AE5EEA76AC3ED006A1F4BAB
:10274000D3ED006AA6EEA77A83ED007A10E500BF0C
:10275000A0250020D025002000409C450024F448FE
:10276000A69B443BD8070020A69BC43BD007002073
:10277000D4070020680700209C0700206820002064
:10278000692000206A200020980000209A99993E34
:1027900094000020B0000020900000203333333F2D
:1027A0008C0000208800002084000020AC00002065
:1027B000A8000020A4000020A00000209C00002011
:1027C0006C07002000296AD00F9B9B4A19469B4842
:1027D0001360FEF7F7F89A4B1B783BB1994B1B78C7
:1027E00023B1994B1B68012B00F3F880974B1B78A2
:1027F000002B3FF457AF964B0F9A1B68D31AB3F5D3
:10280000966F3FF625AF4DE73FF4A8AC0AF10302FF
:10281000534202F0030A03F0030358BFC3F1000A56
:102820009CE48C4A137883F001031370002B5FD073
:102830000023834A1370FEF775F8FEF737FDD9F8C9
:102840000010854A4B018548D25802F0F7FD6CE430
:10285000834B1A6899E4DFED837AC3E6DFED817A72
:10286000AEE6DFED807A09E6DFED7E7AF4E5DFEDB6
:102870007D7A93E6DFED7B7A7EE6DFED7A7A69E6B4
:10288000DFED787A54E6DFED777A3FE6DFED757AB3
:102890002AE6DFED747A15E6DFED727A00E60F9A2C
:1028A0006B4B71481A60684B684A1960012310919C
:1028B0001370302213F0B8F910996C4B6C4A196000
:1028C0006C4B19606C4B19606C4B19606C4B196048
:1028D0004FF07E53136000236A4A13606A4A136004
:1028E0006A4A13606A4A13606A4B6B4A13606BE76B
:1028F000FEF718F8694802F0A1FD16E4684B0021C4
:1029000053F8042B002A674AC8BF01319342F7D11C
:1029100001295EDDFEF746FC00286CD00123494A00
:1029200061491370464A614813700023494A137085
:1029300000F064FFFDF7F6FFFEF7B8FC5C4802F01C
:102940007DFDFFF7FABB0F9A12A9D9F80000FEF738
:10295000F1F93D4BD9F800E01B68119358F82E307F
:10296000109300284CD053480EEB4E020DF1480C4A
:1029700050F82E30510203EB4302013301EB0212F7
:102980004D498E185A4203F01F0302F01F0258BF30
:10299000534240F82E30BCE80F000FC6BCE80F00D1
:1029A0000FC69CE80F0086E80F00109B1F2B03DC6E
:1029B0000133109348F82E300F9A71463F4B404830
:1029C00043F82E200E9B0093DDE9103202F036FD15
:1029D00066E63C4802F032FDFFF7AFBB12A8FEF7F7
:1029E00005F912A8FEF736FC12A90120FEF7A2FC99
:1029F000164B1B78FCE6344802F020FDFFF79DBB28
:102A00000E9B714631480093DDE9103202F016FD4D
:102A100046E612A8FEF71EFC12A90120FEF78AFC6A
:102A20000E9B0F4A00932A49074B12681B680969DD
:102A3000284802F003FD33E6D0070020A02500203F
:102A4000692000206A2000209C070020D807002071
:102A5000D407002068200020D0740124987101243C
:102A60005C20002000000000A00700205807002084
:102A70005400002054070020500700204C0700207D
:102A80004407002064070020600700205C07002046
:102A9000480700200024744950000020B871012428
:102AA00030080020400800206C2000201023002067
:102AB000F071012440080020500800203407002055
:102AC0002C720124C87101241C7201246472012437
:102AD000FC2200209C72012438B5524D002405F5DB
:102AE000C0702C606C612C62EC6302F025FD4E49D5
:102AF0004FF480704D4A4E4B91ED005A92ED006AB2
:102B00000722D3ED006A4B494B4BC5F89041C3F8FF
:102B10000444C3F85844C3F85C44C3F88044C3F881
:102B2000844483F89044C5F84842C5F8391205F545
:102B3000147185F83D2240F20112C5F84C423F4C19
:102B4000DFED3F4AD4ED007A25EE245A9FED3D7A21
:102B500027EE866A3C4C67EEA66AC3F8000485EE51
:102B6000274A3A4886EE075AC5E99012384D0022A6
:102B700003F58161D5ED005A364D67EEA55A95ED06
:102B8000006AC5EE873A27EE866AC6EE875AD4ED0C
:102B9000006A314C84ED004A304C66EEA46AC6EE01
:102BA000074A0C6003F5826103F214440A60C0ED29
:102BB000003A86EEA76A2A482A492260C0ED004AF8
:102BC000294880ED006A03F20C40026003F5916031
:102BD00003F28C430260254A196082ED005A2449B1
:102BE000244A254B2548C0ED005AD3ED005A91EDFB
:102BF000006AD2ED006A27EE866A214967EEA66A6E
:102C0000204A67EEA57A204BC6EE075A86EE876A01
:102C1000C7EE876AC1ED005A82ED006AC3ED006A13
:102C200038BD00BF944A00207800002070000020CA
:102C30007400002080707F0F00460020CC00002030
:102C4000DB0FC94000007A44C000002020080020AB
:102C5000C8000020C4000020FC07002000803B4783
:102C60001C08002000007AC414080020F807002087
:102C700064000020600000205C000020F4070020B9
:102C8000EC070020E8070020E4070020F8B500F575
:102C9000005300244FF4807E00F5105C03F581673B
:102CA000002242F2604500F5125187ED000A064607
:102CB0004519CCE900E403F20C4C83F89044CCF8BD
:102CC000002003F5826CCCF8002003F2144CCCF801
:102CD000002045E90244C1E9004403F5916103F293
:102CE0008C430A6021462A4A1A604FF4006212F0AF
:102CF0009BFF4FF400622146B01812F095FF214669
:102D00004FF4006206F5805012F08EFF21464FF41A
:102D1000806206F5C05012F087FF21464FF4006232
:102D200006F5E05012F080FF42F2184021462022C2
:102D3000301812F079FF42F2384021462022301834
:102D400012F072FF284641F6044521460124202254
:102D5000751912F069FF07EE904A9FED0E7A9FED0C
:102D60000E0A0134F8EEE77A67EE877A87EE800A7A
:102D700012F012FAB4F5807FF7EE007AB6EE007A20
:102D800077EEC07A67EE877AE5EC017AE3D1F8BD99
:102D900000007AC4DB0FC94000007F4300F50053F8
:102DA00010B593F8904482B064B9D3F80424511C50
:102DB00000EB8202C3F8041482ED000AD3F8002469
:102DC000914201D202B010BD0146920000F50060B0
:102DD000019312F06EFF019B0122C3F8044483F8B3
:102DE000902402B010BD00BF10B5144600F500528B
:102DF00086B0D2F8000400285FD09FED446A00231B
:102E0000F0EE464AF0EE466AF0EE465AF1EC017AF0
:102E1000B0EEE77AE7EEA75AB4EEE67A36EE076A46
:102E2000F1EE10FA77FE266A63B111ED027AB7EE81
:102E3000005A67EE877AF5EEC07AF1EE10FA01D506
:102E400074EE854A01338342E0D107EE903A013BAC
:102E5000B8EEE77A07EE903A85EE870AB5EE400ABB
:102E6000F1EE10FA32D4F8EEE77AC6EE075A84EEA5
:102E7000A75AB1EEC06A02F20C4302F5826084EDFB
:102E8000006A93ED007AD0ED007A36EE477AC4ED11
:102E9000016A75EEE77A84ED025AC4ED065AB0EE87
:102EA000C77AF0EEE77A84ED057AC4ED077A83ED10
:102EB000006AC0ED005A06B010BD9FED145A85EEB1
:102EC000050AF0EE456AF0EE405AD2E705928DED24
:102ED000036ACDED024ACDED016A8DED007A0493CF
:102EE00012F096FADDED047A9DED036AF8EEE77ACA
:102EF0009DED007ADDED024AC6EE075A059ADDED3A
:102F0000016A84EEA75AB0EE406AB4E70000000000
:102F10002DE9F84F00F500559146D5F800742DEDD8
:102F20000A8B002F00F0908000F5805A00F5E052E7
:102F300001EB87045346F1EC017AB2EC017AA1422D
:102F400067EE877AE3EC017AF5D1032F4FEA570356
:102F50007AD907EE107A05F5816541F60408DFEDB0
:102F600040BAB8EEC7AAD5ED007A804400F5C0504B
:102F7000F0EE6BAA0AEB870787EE8ACA00EB830B99
:102F80000126B0EE6BBA9FED369A55460024F0EE5E
:102F9000499A07EE904A9FED337AB5EC018A3444A2
:102FA000F8EEE77A67EE877AC7EE8A8AB0EE680AAB
:102FB00012F0F2F8F0EE407AB0EE680AE8EE279AE6
:102FC00011F0EAFFAF42A8EE409AE2D129EE099A49
:102FD000D8ED006A07EE906AA9EEA99AF8EEE77AB2
:102FE00067EE8C7AB1EEC97A77EE666AA7EE27BAF9
:102FF0007AEE87AAF5EEC06AF1EE10FA01DD7BEEFB
:10300000A6BAA8EC017AD84506F10106BBD1DFEDDE
:10301000167AF4EEE7AAF1EE10FA12DD8BEE2A7AB8
:1030200089ED037AF1EE047AF4EEE7BAF1EE10FAE4
:1030300001DDF0EE67BAC9ED04BABDEC0A8BBDE85C
:10304000F88F9FED077AEBE7DFED05BA0023C9EDB6
:1030500004BAC9F80C30BDEC0A8BBDE8F88F00BF8C
:1030600000000000DB0FC94077CC2B3270B500F5B3
:10307000005482B094F8905415B9284602B070BD3F
:103080000A46064600F50061CDE90021FFF7ACFED7
:103090003046DDE90021FFF73BFFD4F85834009AB1
:1030A000591C06EB8303D2F800E0484203F50053B5
:1030B000D2F80CC001F0070100F0070058BF4142F0
:1030C00003F5836003F58763C0F800E0C3F800C030
:1030D000C4F85814D4F85C14072905DC0131002920
:1030E000C4F85C1440F3C28042F21843DFED6B7AFF
:1030F000F318B0EE677A03EB810E9C46BCEC016AD4
:10310000DCED076AF44537EE067A77EEA67AF5D15C
:1031100006EE901AF8EEE65ADFED606AB0EE666AE7
:10312000C7EE254A87EEA55AB3EC017AD3ED077AAC
:10313000734537EE647A77EEC57AA7EE076AE7EE55
:10314000A76AF1D1C6EE254A86EEA55A04F580633A
:1031500092ED016A9FED527AD3ED007A04F5816316
:10316000C2ED084AF8EE677AD3ED005A04F5916390
:10317000B4EEC76A82ED095AC7EEA56AD3ED007AAC
:10318000D4F88414F1EE10FA76EEA76AC3ED006A63
:103190000CDD04F214439FED437AD3ED007A76EE12
:1031A000677AF4EEC77AF1EE10FA3ADC002962DDB4
:1031B00042F260430020F31803EB8101F3EC017A43
:1031C000B7EE007A76EEE77AF4EEC77AF1EE10FA0F
:1031D00000D801309942F1D107EE900AF8EEE77A73
:1031E00004F28C439FED307AC2ED0A7AD3ED007A77
:1031F000F4EEC77AF1EE10FA06DD76EEE76AF5EE48
:10320000C06AF1EE10FA3ED54FF07E53D36204F25D
:1032100014420023284682ED006A84F8903402B0FC
:1032200070BDDFED227A92ED077AB4EEE77AF1EE27
:1032300010FABBDDD4F88004431C00F6181006EB2E
:103240008000C0ED006A584203F0070300F0070059
:1032500058BF43420729C4F880340FDC013104F21F
:103260008C43C4F88414C3ED006A9FE79FED0B5AAA
:10327000F0EE454A6AE7DFED097AB1E704F28C43E4
:10328000C3ED006A94E7F0EE007AF4EEE76AF1EE3F
:1032900010FA77FEA67AC2ED0B7AB8E700000000BC
:1032A0000AD7A33CA69B443C00C079C46F12033CE0
:1032B0002DE9F04107460021302212F0B5FC07F15C
:1032C000300307F160014FF07E5243F8042B8B422C
:1032D000F9D107F5F07607F1900507F5007800239E
:1032E000A5F1300446F8043B12F04CFB07EE100A3F
:1032F000FEEE007A9FED1B6AB8EEC77ADFED1A6A20
:10330000E7EE067A67EEA67AE4EC017AAC42EBD1FE
:10331000464504F13005E2D107F5207607F508753A
:1033200007F524770023A5F1200446F8043B12F0AA
:1033300029FB07EE100AFEEE007A9FED0A6AB8EE4E
:10334000C77ADFED096AE7EE067A67EEA67AE4EC63
:10335000017AAC42EBD1BE4204F12005E2D1BDE8D6
:10336000F08100BF00000030CDCCCC3D01F1300C2D
:1033700051F8043B9FED087A40F8043BF2EC017AE7
:10338000F4EEC77AF1EE10FA01D5F7EE007A8C452B
:10339000C0ED0B7AECD17047BD37863500B5D1F85A
:1033A00000C08DB0D1F828E0CDF800C06B46D1F850
:1033B00004C0CDF828E0CDF804C0D1F808C0CDF89D
:1033C00008C0D1F80CC0CDF80CC0D1F810C0CDF8B1
:1033D00010C0D1F814C0CDF814C0D1F818C0CDF881
:1033E00018C0D1F81CC0CDF81CC0D1F820C0CDF851
:1033F00020C0D1F824C0CDF824C0D1F82CC000F1F1
:103400003001CDF82CC0B0EC017AF3EC017AD0EDAC
:103410000B6A884277EEC77A87EEA67AA2EC017A29
:10342000F1D10DB000BD00BF2DE9F0410E460446BC
:10343000114630462DED028B9CB010AAFFF7AEFF6F
:1034400006F5F07006F1600106F5007C0DF1200E26
:10345000F0EC017A10AB0A46B3EC017A1CADF2EC49
:10346000016AAB42E6EE877AF6D1F5EEC07A9FEDBF
:103470003A7A3031F1EE10FA77FE877A6045EEEC59
:10348000017AE5D106F520706D4606F5247610A97F
:103490006F46F0EC017A08AB6246B3EC017AF2ECCD
:1034A000016A8B42E6EE877AF7D1B0420CF1200C2C
:1034B000E7EC017AEDD1DDED006A04AE9DED017A15
:1034C00005F11008DDED027A3746B4EEE67ADDED5F
:1034D000038A9FED218AF1EE10FA37FE267AF4EE88
:1034E000C77AF1EE10FA77FE877AF4EEE78AF1EE0A
:1034F00010FA78FEA78AB5EC010A30EE680A11F0DE
:10350000D9FC454538EE008AA7EC010AF3D1002327
:10351000DFED116A1A4696ED007AC7EE087AF4EEEE
:10352000E67AE6EC017AF1EE10FA02DDF0EE676A77
:103530001A460133042BEED10498059B06992060AE
:1035400020466360079B2261A160E3601CB0BDEC74
:10355000028BBDE8F08100BF000000002DE9F04FB4
:1035600004462DED048BB7B004F5F07504F1600747
:10357000B0EE408A0DF1680901922AAA0090264611
:10358000FFF70CFF04F50078CC46384612AC29460C
:10359000F1EC017A2AAB0246B3EC017A0DF1D80EB8
:1035A000F2EC016A7345E6EE877AF5D1F5EEC07A62
:1035B0009FED6B7AECEC017A3030F1EE10FA77FE89
:1035C000877A4145E4EC017AE2D1009A40460DF158
:1035D000180E1AAC02F5207A02F5247C5146F1EC63
:1035E000017A12AA8346B2EC017AFBEC016AA2428C
:1035F000E6EE877AF7D1614500F12000EEEC017A22
:10360000EDD1DDED066A0AA99DED077AE346DDED11
:10361000087AB4EEE67A9DED099A059406ACDFEDE2
:10362000508AF1EE10FA0491CDE9027537FE267A40
:10363000F4EEC77A0D460AAFF1EE10FA77FE877AFC
:10364000B4EEE79AF1EE10FA39FE279AB4EC010ACB
:1036500030EE490A11F02EFCBC4278EE808AA5ECCF
:10366000010AF3D10499DC46059C01F11003DDE960
:10367000027591ED007AC7EE287AE1EC017A994261
:10368000F7D136AA019BB7EE007A414602EB8303DD
:103690000A9A0EA80E920B9A0F920C9A10920D9AFB
:1036A000119253ED287A77EEC77A43ED287AF0EC41
:1036B000016A12AA0B4666EE886AD3ED007AB2EC74
:1036C000017AE6EEC77AA242E3EC017AF5D1DAEDAF
:1036D000007A203177EEE67AEAEC017AE245E6D12B
:1036E000009B22A812A903F1200C044632460EAB1F
:1036F000DFED1B7AF3EC016A203292ED787A8B428F
:10370000E6EE877AF6D1B9EC017AB5EEC07AF1EE41
:1037100010FA01DCDFED127A0436E4EC017A66453A
:10372000E4D1F0EC016A2AAA3B4666EE886AD3ED42
:10373000007A36A9B2EC017AE6EEC77A8A42E3EC67
:10374000017AF4D1D5ED007A303777EEE67AE5EC00
:10375000017A4545E5D137B0BDEC048BBDE8F08F6B
:1037600000000000F0B50D46044600F130010346AC
:103770002A4653F804CB42F804CB8B42D3F82CC032
:10378000C2F82CC0F5D104F5F07005F5F07605F11E
:10379000600104F1900E04F5007750F804CBAEF10F
:1037A00030030A4646F804CB53F804CB734542F87D
:1037B00004CBF9D1B84201F1300103F1300EECD164
:1037C00004F5207004F5087C05F5207605F5007EEB
:1037D00004F5247450F8041BACF12003724646F83B
:1037E000041B53F8041B634542F8041BF9D1A042A3
:1037F0000EF1200E03F1200CECD1F0BDF0B50C461B
:10380000054630310246234653F804CB42F804CB38
:103810008B42D3F82CC0C2F82CC0F5D104F5F0705F
:1038200005F5F07605F1600104F1900E04F50077DE
:1038300050F804CBAEF130030A4646F804CB53F8F7
:1038400004CB734542F804CBF9D1B84201F1300101
:1038500003F1300EECD104F5207604F5087005F57F
:10386000207E05F5007C04F5247456F8041BA0F1B5
:10387000200362464EF8041B53F8041B834242F8AF
:10388000041BF9D1A6420CF1200C03F12000ECD16D
:10389000F0BD00BF00F070B9F8B5054600F08CF936
:1038A00005F1A40405F1AC0754F8046F284600F0B4
:1038B0009FF9304601F028FDBC42F5D1F8BD00BFAC
:1038C000F8B5054600F05CF905F1A40405F1AC0774
:1038D00054F8046F284600F08BF9304601F014FDCF
:1038E000BC42F5D1F8BD00BF10B50446683001F008
:1038F000E7FC04F18800BDE8104001F0E1BC00BF26
:1039000010B50446403001F057FD04F1B00001F05D
:1039100095FE04F1C000BDE8104001F08FBE00BF6D
:1039200070B54FF481718AB04FF4C0624FF4E06318
:1039300000F1D8060124ADF80C1000F59675ADF82D
:1039400010203046ADF81C30049A079B0399009470
:1039500001F00CFE4FF4807340F201120094ADF8B8
:1039600010304FF4806304AC2846ADF81C30079B40
:10397000ADF80C20DDE9031201F0F8FD2046072127
:1039800005F0A2FB07AB94E8070083E8070019469F
:10399000304601F017FE07AB94E8070083E8070004
:1039A0001946284601F00EFE304601F021FE284659
:1039B0000AB0BDE8704001F01BBE00BF2DE9F04326
:1039C00040F202430225044602222DED028B8BB009
:1039D00004F118079FED1E8A04F1A406ADF800302B
:1039E00001A8009901F006FFADF800502A460099A1
:1039F0000DF1160001F0FEFE04232A4638460DEBB9
:103A00000301002501F008FF04F1680204F18803B6
:103A1000C4F8A820C4F8AC302946384656F8048FBC
:103A200002F0F2F88146204600F0E2F80023F0EEC2
:103A3000480A49461A46404601F014FC6B1C012511
:103A4000022BE9D10BB0BDEC028BBDE8F08300BFC7
:103A50006F12033BF0B504460D4695B0002700F009
:103A600089F82946204604F1B00600F079F940F6BD
:103A7000061330469FED3E0AADF8343004F1C00520
:103A80000D9901F0C3FD4FF4007328469FED380AED
:103A9000ADF834300D9901F0B9FD40F60333ADF8BF
:103AA000247004F14000ADF8143040F20163099A2B
:103AB000ADF834300D9B05999FED2D0AC4F8D06008
:103AC00009AEC4F8D45001AD01F046FC2046FFF722
:103AD00027FF2046FFF772FF284601F02DFD012346
:103AE0000DF1140E04F5C07C0F93129347F61223C8
:103AF000109713930223119395E80F008CE80F00A1
:103B00008EE80F0086E80F00BDF828300E90ADF863
:103B10003630BDF82A30D4E9625EADF83430C4E9FD
:103B2000655EBEF1000F1CD10DA904F5C87004F04C
:103B3000D5F904F1A40504F5D27004F1AC0701F045
:103B40000FFD3021204600F037F855F8046F20466D
:103B500000F04EF8304601F0D7FBAF42F5D115B07A
:103B6000F0BD72463946284612F05EF8DCE700BF29
:103B700000000000704700BF143001F041BB00BFDF
:103B800030B5054683B0143001F0F6FA05F11400A3
:103B900001F0EEFA05F114008DED010A01F0D6FAFC
:103BA000D0ED007A9DED010AF8EE677A80EE277A73
:103BB00085ED0E7A03B030BD30B5054683B01430C4
:103BC00001F0C8FA05F1140001F0D2FA05F1140071
:103BD0008DED010A01F0BAFAD0ED007A9DED010AEF
:103BE000F8EE677A80EE277A85ED0E7A03B030BD65
:103BF00090ED0E0A704700BF00B540F203308FB061
:103C000000224FF60B7340F20341ADF8080000921A
:103C100009A8ADF81030ADF824300123ADF80C1030
:103C2000029907920C92CDE90522CDE90A2202F011
:103C30004BF8002204A801230399009202F044F8F3
:103C400009A802F053F910B901200FB000BD04A873
:103C500002F04CF980F00100C0B240000FB000BD8E
:103C600070B53C4B9CB0012200240321139340F219
:103C700004530546169112941992ADF85030CDE9CF
:103C80001724FFF7B9FF012841D002284FF00102A5
:103C90002FD1314B40F601310DAE0094CDF85230AA
:103CA0004FF60B73ADF8201030460899ADF834305C
:103CB00023461094CDE91A42CDE90E4402F004F8EF
:103CC0002146304602F01EF912A905F13C0003F02E
:103CD00093F9302003224FF07E5331460F93109317
:103CE000CDE90D02EA6B05F1140001F0F5F91CB005
:103CF00070BD40F60131184B0DAEADF834100D9883
:103D0000CDF85230CDE91A4200F0A4F8DCE71022D9
:103D1000114908900DAE8DF83020104ACDF85210A0
:103D200008A90A90039009920B940494CDE91A040F
:103D300004A802F04DFB0821039B3046079105A91A
:103D4000049AADF814308DF8164006930D9400F0E7
:103D5000BDF8B9E704020404040604030704010BD8
:103D6000F0B53A4B044685B040F20112A36003F56A
:103D700081333748012503F58073ADF80C2040F2FC
:103D800002726060E36040F606630020A4F825201C
:103D9000A4F82930271D258284F8275084F82B5059
:103DA00002918DF80E0004F0CDFC064604F034FBC1
:103DB000034610BB0EB302A904F130008DF80E507B
:103DC00004F048FC072E38D12046FFF749FF04F1E4
:103DD000140001F0CDF904F114008DED010A01F099
:103DE000B5F9D0ED007A9DED010AF8EE677A80EE24
:103DF000277A84ED0E7A05B0F0BD02A904F13000F7
:103E0000019304F027FC072E019B02D1002BDBD08D
:103E100006E039462046019302F012FD019B8BB16A
:103E200004F1250002F078F804F1290002F074F89A
:103E300004F1120000F068F9C6E73946204602F0A6
:103E4000FFFCC1E7002EEBD0BEE700BF050705066B
:103E50000508050910B584B00124ADF80C0003A8CD
:103E6000ADF80E4002F058F8214603A802F040F9E0
:103E7000204604F0CFFA002103A802F039F92046C9
:103E800004F0C8FA214603A802F032F904B010BDCC
:103E9000C2F3002CFA2300B587B04CEA410C017C38
:103EA0008DF8152005AA009302238DF814C002F0A6
:103EB00029FB18B10123184607B000BD03900A2062
:103EC00004F0A8FA039B184607B000BD034630B5BE
:103ED000044685B043F8042BFA2507C983E8070098
:103EE000A1791E23009503AA1A31ADF80C302046A3
:103EF0000223C9B2217402F005FB10B1012005B004
:103F000030BD0A2004F086FA4FF4B852009502231F
:103F1000ADF80C20204603AA217C02F0F3FA002819
:103F2000ECD10A2004F076FA41F2027200950223E5
:103F3000ADF80C20204603AA217C02F0E3FA002809
:103F4000DCD10A2004F066FA042200950223ADF8C1
:103F50000C20204603AA217C02F0D4FA0028CDD1FF
:103F60000A2004F057FA062200950223ADF80C202F
:103F7000204603AA217C02F0C5FA0028BED10A20FF
:103F800004F048FA41F2082200950223ADF80C2013
:103F9000204603AA217C02F0B5FA0028AED10A20FF
:103FA00004F038FA4FF00A0200950223ADF80C2015
:103FB000204603AA217C02F0A5FA00289ED10A20FF
:103FC00004F028FA23790C220095002B217C8DF82F
:103FD0000C20204614BF622342236A448DF80D3022
:103FE000022302F08FFA002888D10A2004F012FA86
:103FF000A36800952046E268217C1343627943EA76
:104000004213227982F0010243EA82130E228DF8D4
:104010000D3002238DF80C2003AA02F073FA002859
:104020007FF46CAF0A2004F0F5F91022009502230A
:10403000ADF80C20204603AA217C02F063FA002888
:104040007FF45CAF0A2004F0E5F912210095022309
:10405000ADF80C1003AA217C204602F053FA002888
:104060007FF44CAF0A2004F0D5F901220921204643
:1040700005B0BDE83040FFF70BBF00BF70B586B09C
:1040800000240125102602A94FF480521C480194F7
:10409000CDE90256CDE904540BF0C0FF642005F0D1
:1040A0004FF9022302A94FF4805215480293059458
:1040B000CDE903650BF0B2FF042302A94FF480524F
:1040C0000F480396CDE90434032302930BF0A6FFB7
:1040D00040F23223042202A90948019310230495D7
:1040E000CDE90223019B4FF4805205930BF096FF1C
:1040F00040F6060102480BF0B3FF204606B070BD43
:104100007CDD00200000000030B51F4B89B0082284
:10411000DFF878C000214FF400641A614FF0020EFE
:1041200003920A22C3F804C04FF0200C06924022EA
:10413000054699600320196210215C620124C3E9DD
:1041400005C24FF4C072DC60DA6107229FED0C7B80
:10415000CDE900E20422CDE904016946181D02926E
:1041600083ED0A7B0BF030FF28B9284609B0BDE883
:104170003040FFF783BF204609B030BDAFF3008069
:10418000001000000000000078DD002040410052D7
:104190005E4A0023F0B514688FB00A93002C40F0FB
:1041A000B2805B4B012103260C2511600227D3F856
:1041B000D420584842F48052C3F8D420D3F8D420F5
:1041C00002F480520092009AD3F8E02042F01002EC
:1041D000C3F8E020D3F8E02002F010020192019A27
:1041E000D3F8E02042F04002C3F8E020D3F8E0200A
:1041F00002F040020292029AD3F8E02042F0080254
:10420000C3F8E020D3F8E02002F008020392039AFA
:10421000D3F8E02042F48072C3F8E020D3F8E02025
:1042200002F480720492049AD3F8E02042F08002F3
:10423000C3F8E020D3F8E02002F080020592059A4E
:10424000D3F8E02042F02002C3F8E020D3F8E020C9
:1042500002F020020692069AD3F8E02042F004020F
:10426000C3F8E0204FF68372D3F8E0300B9603F0EA
:1042700004030C9507930223079908A9CDE90823A5
:1042800006F048FD48F2371308A9234808930C9517
:104290000997CDE90A4606F03DFD4CF2037308A9E3
:1042A0001E480893CDE90974CDE90B6506F032FD8F
:1042B00040F2FF6308A91A480893CDE90974CDE9D3
:1042C0000B6506F027FD4FF60C7308A915480893F7
:1042D000CDE90974CDE90B6506F01CFD4FF63F03EF
:1042E00008A911480893CDE90974CDE90B6506F0DA
:1042F00011FD202308A90B4809970C950893CDE9D7
:104300000A4606F007FD0FB0F0BD00BF74DD0020C7
:10431000004402580010025800180258000C0258BD
:1043200000200258001C0258001402582DE9F04FDA
:104330008BB08346C8480D4600AF144602F05AFFC2
:10434000C64BD3E90621002A00F00A82002940F07A
:104350009280D3F8048008214FF002094269B8F135
:10436000000F00F09280A100EA46012A01F1070146
:1043700021F00701ADEB010D6846ADEB010D69467B
:1043800000F0F581022A00F07382002A40F0E581F6
:10439000002C00F0E281D3ED0C6A86469FEDB07AE6
:1043A0000BF1040C5E4636F922900EF1080E07EE72
:1043B000909A3CF922900232F8EEE77A944267EE46
:1043C000877A67EEA67A4EED027A07EE909AF8EEBB
:1043D000E77A67EE877A67EEA67A4EED017AE2D841
:1043E00022467962C0479D4B0022796A93ED0D6A9F
:1043F000281DDFED9C6A9C4E9FED9C7ADFED9C5A58
:10440000D1ED007A334666EE277AF4EEE67AF1EEE5
:1044100010FA0CD9F4EEC77AF1EE10FA67FE277A9B
:1044200067EEA57AFDEEE77A17EE903A1BB2D1ED72
:10443000017A45F8223066EE277AF4EEE67AF1EE5C
:1044400010FA40F20682F4EEC77A0831F1EE10FA63
:1044500067FE277A67EEA57AFDEEE77A17EE903AC7
:104460001BB240F8223002329442C9D8D5462C37CC
:10447000BD46BDE8F08FD3F8048010214FF0040949
:104480004269B8F1000F7FF46EAF1868F861002838
:10449000EDD07848C7F818D0C7E9081202F018FF25
:1044A000B9F1020F6D4BF860D7E9081200F069828C
:1044B0006846C4F35D0C012AA0EBC40085464FEAB0
:1044C0005400EE46B860AEEBC40085460EEB8C009F
:1044D0006E46ADEB010DC7E900E006EB8C003E61D6
:1044E0006E46ADEB010D78610EEB8C003146C6F8DF
:1044F00000E0706000EB8C06796278698E60396943
:1045000000EB8C0A06EB8C00C7F820D0009179698B
:104510003861CDE9011A0AEB8C010391796AC86010
:1045200000F03484022A00F02F83002A40F0138226
:10453000002C00F09984B9F1020F00F09B84601EFA
:10454000FE683A610BF1040C4008DFED456A01306A
:104550004FEA800A586A00EB86007E6AB268F66805
:104560007A61021DD7F81480C7F81490B1465E46F0
:10457000AB46D7E900E17A603A693C616446D7F816
:1045800004C036F9125093ED0C6A07EE905A34F9D4
:104590001250F8EEE77A67EEA67A67EE867AEEECCE
:1045A000017A07EE905A30F91250F8EEE77A07EEEA
:1045B000105A3CF9125067EEA67AB8EEC77A67EE49
:1045C000867A27EE267AE1EC017A07EE905A27EEFA
:1045D000067A08EB0205F8EEE77A85ED007A09EB3A
:1045E000020567EEA67A93ED0C7A043267EE877ABD
:1045F0005245C5ED007AC4D1D7F814905D463C69A8
:10460000BA68FB69D7E908109847144B3A6AB9F1C0
:10461000020F93ED0D7AD2E9006100F0798404F184
:10462000FF3CDB6AFA6834464FEA5C0CDFED0D6A4A
:1046300003EB82093B6A0CF1010C9FED0C6ADFED84
:104640000C5A09F1040E4FEA8C0C0022281D064E6C
:10465000D3E902839A4675E0C8DD0020B0DD002072
:104660000000003804FF7FBF0280FFFF04FF7F3F90
:1046700000FEFF46CCDD002000000034F4EEC67AD8
:10468000F1EE10FA66FE277A67EEA57AFDEEE77A7C
:1046900017EE903A1BB2D1ED007A45F8123067EE72
:1046A000277AF4EEE67AF1EE10FA40F26881F4EE41
:1046B000C67AF1EE10FA66FE277A67EEA57AFDEE6D
:1046C000E77A17EE903A1BB240F8123008EB02037B
:1046D000D3ED007A67EE277AF4EEE67AF1EE10FA7F
:1046E00040F24B81F4EEC67AF1EE10FA66FE277ABC
:1046F00067EEA57AFDEEE77A17EE903A1BB249F81D
:1047000012300AEB0203D3ED007A67EE277AF4EE5B
:10471000E67AF1EE10FA40F22981F4EEC67AF1EE73
:1047200010FA66FE277A67EEA57AFDEEE77A17EEB5
:10473000903A1BB24EF812300432624500F01081FC
:1047400004340431D4ED007A67EE277AF4EEE67A89
:10475000F1EE10FA92D833469DE72246C04785E62F
:1047600000297FF4F6AD2C37BD46BDE8F08F002C54
:10477000F3D0D3ED0C6A81461FED417A4FF0000E65
:104780000BF1040C5E4656F82E2009F1080982F45C
:104790000002A2F5000207EE902A5CF82E200EF12E
:1047A000020EF8EEE77A82F400027445A2F50002E8
:1047B00067EE877A67EEA67A49ED027A07EE902ACD
:1047C000F8EEE77A67EE877A67EEA67A49ED017A26
:1047D000D9D822467962C047AC4B0022796A93ED62
:1047E0000D6A281DDFEDAA6AAA4E9FEDAB7AD1EDC6
:1047F000007A334666EE277AF4EEE67AF1EE10FAA6
:104800000BD9F4EEC77AF1EE10FA67FE277AF0EED4
:10481000675AFEEEE45A15EE903AD1ED017A45F86A
:10482000223066EE277AF4EEE67AF1EE10FA18D925
:10483000F4EEC77A0831F1EE10FA67FE277AFEEE41
:10484000E47A17EE903A40F8223002329442CED801
:104850000CE640F822600232083194423FF6D0ADB7
:1048600004E640F82260023208319442BFD8FDE5E8
:10487000002C3FF472AFD3ED0C6A86469FED897A27
:1048800000220BF1040CE9465E4656F822100EF1A8
:10489000080E07EE901A5CF822100232F8EEE77A62
:1048A000944267EE877A67EEA67A4EED027A07EEBB
:1048B000901AF8EEE77A67EE877A67EEA67A4EED01
:1048C000017AE2D849462246C7F82490C0476F4B88
:1048D0000022796A93ED0D6A281DDFED6D6A6F4E37
:1048E0009FED6D7AD1ED007A334666EE277AF4EECD
:1048F000E67AF1EE10FA0BD9F4EEC77AF1EE10FA7F
:1049000067FE277AF0EE675AFEEEE05A15EE903A0F
:10491000D1ED017A45F8223066EE277AF4EEE67A98
:10492000F1EE10FA10D9F4EEC77A0831F1EE10FA70
:1049300067FE277AFEEEE07A17EE903A40F82230D2
:104940000232A242CED391E540F822600232083111
:104950009442C7D88AE5BA68FB69D7E90810984736
:10496000D7F818D02C37BD46BDE8F08F4EF812604E
:10497000043262457FF4E4AEF2E73346BFE63346E5
:10498000A2E6A000012A4FEA540E00F1070020F031
:10499000070CADEB0C0D6846ADEB0C0DC7F808E04D
:1049A000EC4600EB8E06ADEB010DC7E90006C7F83B
:1049B00024D06E46ADEB010D31463060CDF800C01D
:1049C00000EB8E060CEB8E0CC7F820D04E60CDF8B5
:1049D00004C07FF4A7AD002C00F04682D3ED0C6A32
:1049E000024679680BF1040C9FED2D7A5E4656F86D
:1049F000280080F40000A0F5000007EE900A5CF8A3
:104A0000280008F10208F8EEE77A80F40000444537
:104A1000A0F5000067EE877A67EEA67AE2EC017AED
:104A200007EE900AF8EEE77A67EE877A67EEA67AE5
:104A3000E1EC017ADBD87246FB69D7E908109847A8
:104A4000124B396AB9F1020F93ED0D7AD1E90021C9
:104A500000F0F98204F1FF3CDB6AF86814464FEA83
:104A60005C0CDFED0B6A03EB80093B6A0CF1010C77
:104A70009FED096A09F1040E281D4FEA8C0C054EC2
:104A8000D3E902839A46002369E000BFB0DD00202D
:104A900004FF7FBF7E0080FF04FF7F3F007E008019
:104AA0000000003400000030F4EEC67AF1EE10FA97
:104AB00066FE277AF0EE675AFEEEE45A15EE902A6B
:104AC000D1ED007A45F8132067EE277AF4EEE67A06
:104AD000F1EE10FA56D9F4EEC67AF1EE10FA66FE4F
:104AE000277AF0EE675AFEEEE45A15EE902A40F867
:104AF000132008EB0302D2ED007A67EE277AF4EE7A
:104B0000E67AF1EE10FA3BD9F4EEC67AF1EE10FA3D
:104B100066FE277AF0EE675AFEEEE45A15EE902A0A
:104B200049F813200AEB0302D2ED007A67EE277AE8
:104B3000F4EEE67AF1EE10FA1CD9F4EEC67AF1EE54
:104B400010FA66FE277AFEEEE47A17EE902A4EF807
:104B50001320043363453FF403AF04340431D4ED30
:104B6000007A67EE277AF4EEE67AF1EE10FA9BD837
:104B70003246A5E74EF8136004336345EDD1EFE606
:104B80003246CDE73246B2E7002C00F06D81B9F134
:104B9000020F00F09581621EFE680BF1040C38686C
:104BA0005208C7F800905FED416A01324FEA820A6D
:104BB0005A6A02EB86087A6A08F10401D2E90262B5
:104BC00039617A61B646D7F814905E467C6100225E
:104BD00064467968AB46D7F810C056F8125093ED8A
:104BE0000C6A07EE905A54F81250F8EEE77A67EE26
:104BF000A67A67EE867AE0EC017A07EE905A58F8CA
:104C00001250F8EEE77A67EEA67A67EE867AE1EC64
:104C1000017A07EE905A5CF81250B8EEE77A07EE88
:104C2000905A0EEB020527EE267AF8EEE77A27EE89
:104C3000067A67EEA67A85ED007A09EB020593ED18
:104C40000C7A043267EE877A9245C5ED007AC4D1BA
:104C5000D7F800905D467C69BA68FB69D7E908100F
:104C60009847CF4B396AB9F1020F93ED0D7AD1E92C
:104C7000002100F0A78104F1FF3CDB6AF8681446CC
:104C80004FEA5C0CDFEDCD6A03EB80093B6A0CF167
:104C9000010C9FEDCB6A09F1040E281D4FEA8C0C24
:104CA000C04ED3E902839A4600235AE0F4EEC67A56
:104CB000F1EE10FA66FE277AF0EE675AFEEEE05A41
:104CC00015EE902AD1ED007A45F8132067EE277A89
:104CD000F4EEE67AF1EE10FA56D9F4EEC67AF1EE79
:104CE00010FA66FE277AF0EE675AFEEEE05A15EEED
:104CF000902A40F8132008EB0302D2ED007A67EE09
:104D0000277AF4EEE67AF1EE10FA3BD9F4EEC67AA1
:104D1000F1EE10FA66FE277AF0EE675AFEEEE05AE0
:104D200015EE902A49F813200AEB0302D2ED007A1F
:104D300067EE277AF4EEE67AF1EE10FA1CD9F4EE7B
:104D4000C67AF1EE10FA66FE277AFEEEE07A17EEEA
:104D5000902A4EF81320043363453FF401AE043427
:104D60000431D4ED007A67EE277AF4EEE67AF1EEBC
:104D700010FA9BD83246A5E74EF81360043363451A
:104D8000EDD1EDE53246CDE73246B2E7002C6BD0EF
:104D9000611EF868F246424649080BF1040CC7F858
:104DA00000900131DFED806AD7F8109089007961B9
:104DB000596A01EB800E30465E46AB460EF10408A0
:104DC0005546A2467C6856F8121093ED0C6A81F4A1
:104DD0000001A1F5000107EE901A5CF81210F8EE40
:104DE000E77A81F40001A1F5000167EEA67A67EE8B
:104DF000867AE5EC017A07EE901A5EF81210F8EE6A
:104E0000E77A81F4000167EEA67AA1F5000167EE6A
:104E1000867AE4EC017A07EE901A58F81210B8EE90
:104E2000E77A81F40001A1F5000127EE267A07EE6A
:104E3000901A811827EE067AF8EEE77A81ED007A6B
:104E400009EB020167EEA67A93ED0C7A043267EE65
:104E5000877AC1ED007A79699142B4D1D7F8009090
:104E60005D465446BA68E7E52246FB69D7E9081073
:104E7000984775E5D3ED0C6A0BF1040C9FED4B7A66
:104E80005E46D7E9000136F922E007EE90EA3CF9E8
:104E900022E00232F8EEE77A944267EE877A67EE14
:104EA000A67AE0EC017A07EE90EAF8EEE77A67EE90
:104EB000877A67EEA67AE1EC017AE4D8FFF7A0BB27
:104EC000D3ED0C6A00229FED3A7A0BF1040C5E469A
:104ED000AE46D7E9000156F8225007EE905A5CF82A
:104EE00022500232F8EEE77A944267EE877A67EE54
:104EF000A67AE0EC017A07EE905AF8EEE77A67EED0
:104F0000877A67EEA67AE1EC017AE4D87546A3E6E3
:104F10000022DFED2A6A9FED2A6A281DDFED255A5F
:104F2000DFF894C0D6ED007A634667EE277AF4EE98
:104F3000E67AF1EE10FA0CD9F4EEC67AF1EE10FA38
:104F400066FE277A67EEA57AFDEEE77A17EE903ACD
:104F50001BB2D1ED007A0436043145F8223067EEF9
:104F6000277AF4EEE67AF1EE10FA12D9F4EEC67A68
:104F7000F1EE10FA66FE277A67EEA57AFDEEE77A83
:104F800017EE903A1BB240F8223002329442C9D850
:104F9000E6E440F822C002329442C3D8E0E400BF05
:104FA000B0DD0020007E00800000003400000038EA
:104FB0000000003000FEFF460280FFFF04FF7FBFBD
:104FC00004FF7F3F00235FED036A1FED036A281D86
:104FD000DFF8FCC0D2ED007A664667EE277AF4EE81
:104FE000E67AF1EE10FA0BD9F4EEC67AF1EE10FA89
:104FF00066FE277AF0EE675AFEEEE05A15EE906AEA
:10500000D1ED007A0432043145F8236067EE277A47
:10501000F4EEE67AF1EE10FA0FD9F4EEC67AF1EE7C
:1050200010FA66FE277AFEEEE07A17EE906A40F8F4
:10503000236002339C42CDD892E440F823C002336F
:105040009C42C7D88CE40023DFED1F6A9FED1F6AE6
:10505000281DDFF880C0D2ED007A664667EE277A19
:10506000F4EEE67AF1EE10FA0BD9F4EEC67AF1EE30
:1050700010FA66FE277AF0EE675AFEEEE45A15EE55
:10508000906AD1ED007A0432043145F8236067EE6E
:10509000277AF4EEE67AF1EE10FA0FD9F4EEC67A3A
:1050A000F1EE10FA66FE277AFEEEE47A17EE906AC9
:1050B00040F8236002339C42CDD851E440F823C02D
:1050C00002339C42C7D84BE404FF7FBF04FF7F3FFD
:1050D000007E00807E0080FF10B5194C84B096469B
:1050E000046004F1080C0FC98CE80F00D4ED047AB9
:1050F000F5EEC07A8DE80F00F1EE10FA1CDDB7EE88
:10510000006A94ED057A27EE277AC6EE276A84EDC9
:105110000D7AC4ED0C6ABEF1000F0DD0204640F8A8
:1051200018EF02F067F8074903690020064A216278
:10513000A262E36004B010BD012004B010BD00BF46
:10514000B0DD002000200030000000300068083092
:10515000704700BFB1F5807F03680A4628BF4FF44F
:105160008072B1F5807F9A6094BF00200120704763
:105170000068183002F09AB870B504688AB0A36964
:10518000E160D3B104F1180002F034F8E26884461B
:10519000EE461546BCE80F00AEE80F00BCE80F0075
:1051A000AEE80F009CE803008EE80300694604F1B6
:1051B0001800049501F020FFF0B9E369CBB104F1C8
:1051C0001C05284602F016F88446EE46E468BCE862
:1051D0000F00AEE80F00BCE80F00AEE80F009CE83F
:1051E00003008EE8030069462846049401F004FF9A
:1051F00010B900200AB070BD01200AB070BD00BF18
:1052000030B5046883B00D46E3694BB1A368002054
:10521000E26A616A9B00009004F11C0001F0ECFF5F
:10522000A3680748A26A9B00216A009004F1180055
:1052300001F0E2FF0020C4E9005003B030BD00BF20
:105240002D430024064B302003214FF07E52C3E94A
:105250000201002000211A615A61C3E9060170476A
:10526000B0DD0020F6EE006A9FED146A20EE207A91
:1052700080ED020AF7EE007A80ED036A016027EE06
:10528000267AC7EE876AF4EEE76AF1EE10FA05DCDB
:10529000B4EEE66AF1EE10FA76FE267A4FF07E5111
:1052A0004FF0000C02760022C0ED017AC0F814C065
:1052B000016143768276C0ED070A70470000000066
:1052C0000268037E128807EE902AFBEEC87A1BB1B3
:1052D000B7EE007A77EE677AD0ED056A90ED047A42
:1052E00077EEE67A437E67EE877A0BB1F1EE677A66
:1052F00090ED030A90ED017A77EEC07AA7EE270AC7
:1053000080ED030A704700BF837E80ED020ADBB99F
:10531000D0ED077A27EE800AB6EE007AF7EE007A33
:1053200020EE070A87EE807AB4EEE77AF1EE10FA03
:1053300007DCDFED077AF4EEC77AF1EE10FA77FEBC
:10534000877AC0ED017A7047DFED027AE2E700BFAD
:10535000000000006F12033B30B585B00446002505
:10536000ADF80C10ADF80820ADF8043003F050F89B
:10537000BDF80C204FF48073206004F118002283E4
:10538000BDF808206383E383A283257100F0C4FD88
:1053900004F11C0000F0C0FD9FED060A019904F124
:1053A000080000F033F94FF6FF736562238405B0FF
:1053B00030BD00BF0000000030B5044683B003F0EC
:1053C00027F8002322682371824206D104F10800E5
:1053D00003B0BDE8304000F031B9012194F820203D
:1053E000206004F118002171019200F073FE019A0F
:1053F00094F8215040EA420204F11C0084F8202075
:1054000000F068FE002340EA45000121636294F841
:10541000203084F8210000F0030003F00303022B86
:1054200007D00228D2D1002BD0D14FF0FF336362D6
:10543000CCE70028CAD16162C8E700BF0FB470B5DD
:1054400082B02B4E2B4D06AB306853F8042BC0F1C5
:1054500080012844019310F0A1FB3368C01840D0AC
:105460002A1801E0013820D012F8013D0A2BF9D0AA
:105470000D2BF7D0841C7F2C18D9802342F22442B4
:105480001C46A5F87E201C4D33602B68012B18D9D3
:1054900022461849194800F091F90028F8D13060E7
:1054A00002B0BDE8704004B0704702240D230A2208
:1054B0002B54054423466A700F4D33602B68012B33
:1054C000E6D822460B490D4800F078F90028E7D1CC
:1054D0002B68306001332B6002B0BDE8704004B02F
:1054E00070470D210A22022329701C466A70CAE700
:1054F000F0DD0020F4DD0020ECDD0020E8DD002000
:1055000010B504460021084800F0CEF8074A6300B1
:1055100007481360FFF792FF0648FFF78FFF0A2046
:10552000BDE8104002F076BFE8DD0020ECDD002091
:105530001874012428740124074B0021074AB3F88A
:1055400000C082609A884FF48073A0F804C00160A4
:10555000C280C360704700BF147001240040003057
:1055600000220A2302700371704700BF30B52DED91
:10557000028B85B09FED128A05469DF82840B0EE5B
:10558000480AADF80C100399ADF808202246ADF892
:1055900004300DF0EDFBB0EE480A2246029905F109
:1055A0001C000DF0E5FBB0EE480A2246019905F11A
:1055B000380005B0BDEC028BBDE830400DF0D8BB23
:1055C00000007A4438B50C46054691ED000A0DF00E
:1055D000F3FB94ED010A05F11C000DF0EDFB94EDD9
:1055E000020A05F13800BDE838400DF0E5BB00BF08
:1055F00010B504460DF0F2FB04F11C000DF0EEFBBB
:1056000004F13800BDE810400DF0E8BB30B50446A9
:1056100083B00D0A009102F0FBFE4FF480720099F6
:105620004FF001232060A01DA171A280E571A3604D
:1056300003B0BDE8304000F06FBC00BF10B50446B9
:1056400082B002F0E5FE002223682271834210D06E
:105650000121A37AE27A2060A01D2171019352B941
:1056600000F038FD019B40EA4300C0B27F28A072E1
:105670000DD002B010BD00F02DFDB0FA80F0019BFE
:10568000400940EA4300C0B27F28A072F1D102F085
:10569000BFFE07EE900AF8EE677AC4ED037A02B017
:1056A00010BD00BF704700BF012908B519D00229FD
:1056B00010D019B1BDE8084007F08EBC364B0A4641
:1056C000DFF8F4C035493648C3F800C00CF07EFE60
:1056D000D0B1FEE70122334933480CF077FE68B1C0
:1056E000FEE70A4630482F490CF070FE00B1FEE795
:1056F0002E492D480CF08CFEC0B1FEE72B492A48FC
:105700000CF086FE60B1FEE7284925480CF080FECB
:1057100000B1FEE7264922480CF00AFE18B3FEE766
:10572000244921480CF004FE60B1FEE721491E48DF
:105730000CF0FEFD00B1FEE71B480CF081FE0028D6
:10574000B8D0FEE718480CF07BFE024650B9124B69
:10575000DFF864C011491248C3F800C00CF036FEEF
:1057600038B1FEE7FEE70E480CF06AFE0028A1D033
:10577000FEE70E490A480CF04BFE00B1FEE70C496B
:1057800007480CF0D5FD00B1FEE705480CF058FEC7
:1057900000288FD0FEE700BF74DE00209C030020AD
:1057A0007CDE00206C03002018E10020F4040020BF
:1057B0002803002018030020A5560024084691B2B3
:1057C00008B503F0A7F8003818BF012008BD00BFD6
:1057D000014806F027BE00BF20220120014806F044
:1057E00021BE00BF20220120014806F01BBE00BFE1
:1057F0002022012000B583B04FF0000E4FF0030CC3
:105800004274ADF80410BDF8043080F810E0A0F840
:1058100002C0038003B000BD2DE9F04F4FF0000837
:10582000DFF8F4928FB0B74C03700646B64B1746BC
:1058300042600D46202241464846C4F86831C4F80B
:105840006491CDE90388CDE90588CDE90788CDE9E4
:105850000988CDE90B8810F0E7F92022414604F5CC
:10586000A170C4F83181C4F83581C4F83981C4F815
:105870003D8110F0D9F984F83071736884F848825A
:10588000002B00F084814346484604F5987E05F1DC
:10589000100AC446019708E04FF00101624503F188
:1058A000120384F8481264D90230E91855F803B09D
:1058B000E2180CF1010CCF68D1F80490D1F80880FF
:1058C00044F803B0D7604FF00007C2F80490C2F864
:1058D0000880098A078011821AF803100EF8011F48
:1058E00072680029D8D1624503F11203DCD8019F08
:1058F00094F84832FFB2002B3ED1012103233278C5
:105900000020C4F89831002384F88111C4F8743160
:105910007E4984F8803184F88831C4F88471C4E900
:1059200067334FF48023C4E95B1308210123C4E9E2
:105930005E310021C4E964019AB100200121013ADD
:1059400084F8A431C4E96C01082A0CD8DFE812F00D
:10595000FE00F900F400EF00EA00D500CF00C80017
:10596000C10084F8A4216A4803F0BEFF30B1FFBE35
:10597000FEE7019F0021FFB20123C0E7039003A9C6
:10598000634804F0E3F8002840F0A180042340F2CB
:10599000FF720B90CDE9092394F83031002B4BD0E6
:1059A000DFF878818146DFF878A14FF0070BA8F582
:1059B0008E756B7B072B07D8DFE803F08386807A30
:1059C000777D4104CDF820B0281F00F0A5FA2B7B8D
:1059D000042B3CDC022B00F3D28000F0CC800023AF
:1059E00088F8003015F8043C002B42D0022B00F060
:1059F000B280012B07D115F8033C012B00F0CB80BE
:105A0000002B00F0D6800023069306A9DAF80030B8
:105A10003F48079303F0ACFC002840F0C08009F138
:105A2000010994F830210AF1040A08F101085FFA2B
:105A300089F312359A42BCD80FB0BDE8F08F062327
:105A4000281F089300F068FA2B7B042BC2DD032388
:105A500088F800302F4600263846013600F05CFA00
:105A600098F800300437B342F6DC15F8043C002BFC
:105A7000BCD115F8032C062A00F08580072A00F017
:105A80009480022A00F09780032A00F09680002A72
:105A900000F09580012A00F09480042A00F09380A1
:105AA000052A1C4A08BF1346AEE7042308938BE778
:105AB0000323089388E70523089385E702230893C7
:105AC00082E7002308937FE7012308937CE7FFBE6A
:105AD000FEE740F2FF324FF4A073C4E96A2342E7C5
