:020000042400D6
:10000000000002208D07002489070024397D002488
:1000100089070024890700248907002400000000C4
:10002000000000000000000000000000890700241C
:10003000890700240000000089070024BD7C0024FB
:1000400089070024890700248907002489070024E0
:1000500089070024890700248907002489070024D0
:10006000890700248907002489070024E568002403
:10007000F1680024C5560024FD68002409690024A5
:1000800031770024755D0024890700248907002446
:100090008907002489070024890700248907002490
:1000A0008907002489070024890700248907002480
:1000B000A9360124B5360124C1360124B55D0024DA
:1000C00089070024C15D002489070024392F0124F9
:1000D000452F01244175002471750024A975002461
:1000E00089070024890700240000000089070024F4
:1000F0008907002489070024890700248907002430
:100100008907002489070024CD360124512F0124BA
:10011000E17500241976002489070024890700244A
:100120008907002489070024752F0124B52F012495
:100130007177002489070024890700248907002497
:1001400000000000000000000000000000000000AF
:100150008907002489070024890700245176002498
:10016000CD5D002489070024CD7C0024F17C00248F
:1001700089070024157D00248907002489070024AD
:10018000890700248907002489760024C176002489
:100190005D2F0124692F0124890700248907002489
:1001A000890700248907002489070024890700247F
:1001B0003565002489070024890700248907002465
:1001C0008907002489070024D9510024E55100241F
:1001D00089070024F151002489070024890700249D
:1001E000890700248907002489070024890700243F
:1001F000890700248907002489070024890700242F
:10020000890700248907002489070024890700241E
:10021000890700248907002489070024890700240E
:1002200089070024890700248907002400000000B2
:1002300089070024890700240000000089070024A2
:1002400089070024890700248907002489070024DE
:1002500089070024890700248907002489070024CE
:1002600089070024890700248907002489070024BE
:100270008907002489070024F97600240000000083
:100280008907002489070024890700240000000052
:080290000000000089070024B2
:1002A000034613F8012B002AFBD1181A01387047B6
:1002B00001F0FF01102A2BDB10F0070F08D010F817
:1002C000013B013A8B422DD010F0070F42B3F6D11B
:1002D000F0B441EA012141EA014122F007047FF034
:1002E00000070023F0E80256083C85EA010586EA8B
:1002F000010685FA47F5A3FA87F586FA47F6A5FAC7
:1003000087F68EB9EED1F0BC01F0FF0102F00702D2
:1003100032B110F8013B013A83EA010313B1F8D17D
:100320000020704701387047002D06BF354603385E
:10033000073815F0010F07D1013015F4807F02BF97
:10034000013015F4C03F0130F0BC0138704700BFE8
:1003500081F0004102E000BF83F0004330B54FEA76
:1003600041044FEA430594EA050F08BF90EA020FE3
:100370001FBF54EA000C55EA020C7FEA645C7FEA76
:10038000655C00F0E2804FEA5454D4EB5555B8BF99
:100390006D420CDD2C4480EA020281EA030382EA0A
:1003A000000083EA010180EA020281EA0303362D9C
:1003B00088BF30BD11F0004F4FEA01314FF4801C6F
:1003C0004CEA113102D0404261EB410113F0004F81
:1003D0004FEA03334CEA133302D0524263EB430338
:1003E00094EA050F00F0A780A4F10104D5F1200ED6
:1003F0000DDB02FA0EFC22FA05F2801841F1000131
:1004000003FA0EF2801843FA05F359410EE0A5F104
:1004100020050EF1200E012A03FA0EFC28BF4CF035
:10042000020C43FA05F3C01851EBE37101F00045EB
:1004300007D54FF0000EDCF1000C7EEB00006EEBF8
:100440000101B1F5801F1BD3B1F5001F0CD3490882
:100450005FEA30004FEA3C0C04F101044FEA4452D9
:1004600012F5800F80F09A80BCF1004F08BF5FEA60
:10047000500C50F1000041EB045141EA050130BD40
:100480005FEA4C0C404141EB0101013C28BFB1F552
:10049000801FE9D291F0000F04BF01460020B1FA9D
:1004A00081F308BF2033A3F10B03B3F120020CDA70
:1004B0000C3208DD02F1140CC2F10C0201FA0CF04E
:1004C00021FA02F10CE002F11402D8BFC2F1200CB3
:1004D00001FA02F120FA0CFCDCBF41EA0C01904069
:1004E000E41AA2BF01EB0451294330BD6FEA0404B2
:1004F0001F3C1CDA0C340EDC04F11404C4F120029D
:1005000020FA04F001FA02F340EA030021FA04F3AE
:1005100045EA030130BDC4F10C04C4F1200220FA05
:1005200002F001FA04F340EA0300294630BD21FA43
:1005300004F0294630BD94F0000F83F4801306BF09
:1005400081F480110134013D4EE77FEA645C18BFFD
:100550007FEA655C29D094EA050F08BF90EA020F94
:1005600005D054EA000C04BF1946104630BD91EA8C
:10057000030F1EBF0021002030BD5FEA545C05D18F
:100580004000494128BF41F0004130BD14F58004CE
:100590003CBF01F5801130BD01F0004545F0FE4142
:1005A00041F470014FF0000030BD7FEA645C1ABF77
:1005B000194610467FEA655C1CBF0B46024650EAAE
:1005C000013406BF52EA033591EA030F41F40021DA
:1005D00030BD00BF90F0000F04BF0021704730B560
:1005E0004FF4806404F132044FF000054FF0000135
:1005F00050E700BF90F0000F04BF0021704730B5F6
:100600004FF4806404F1320410F0004548BF4042CA
:100610004FF000013EE700BF42004FEAE2014FEA1F
:1006200031014FEA02701FBF12F07F4393F07F4FFA
:1006300081F06051704732F07F4208BF704793F0FD
:100640007F4F04BF41F40021704730B54FF4607410
:1006500001F0004521F000411CE700BF50EA010213
:1006600008BF704730B54FF000050AE050EA0102BC
:1006700008BF704730B511F0004502D5404261EB2C
:1006800041014FF4806404F132045FEA915C3FF46D
:10069000D8AE4FF003025FEADC0C18BF03325FEA0A
:1006A000DC0C18BF033202EBDC02C2F1200300FABB
:1006B00003FC20FA02F001FA03FE40EA0E0021FAE0
:1006C00002F11444BDE600BF53B94AB9002908BF7E
:1006D00000281CBF4FF0FF314FF0FF3000F00CB886
:1006E000ADF1080C6DE904CE15F0B8FFDDF804E0BB
:1006F000DDE9022304B07047704700BF0348044B94
:10070000834202D0034B03B1184770479406002080
:1007100094060020000000000548064B1B1AD90F64
:1007200001EBA301491002D0034B03B118477047F6
:1007300094060020940600200000000010B5064C2E
:10074000237843B9FFF7DAFF044B13B10448AFF342
:1007500000800123237010BD9806002000000000D7
:100760003C75012408B5054B1BB105490548AFF39D
:100770000080BDE80840FFF7CFBF00BF00000000C9
:100780009C0600203C750124FEE700BF0B4A0C4B81
:10079000934204D0D21A0B49184614F08EFF0A4A2D
:1007A0000A4B934204D0D21A0021184614F040FF9D
:1007B00014F05CFF01F0D4FBFEE700BF94060020BC
:1007C000000000206C750124D03401209806002020
:1007D000FFEE007A9FED896A894A8A4BF0EE465A0D
:1007E000B0EE675ADFF840C230B504460D461069D6
:1007F00003F1100E844A53F8041B002919DDDCEDC7
:10080000006A92ED007AF4EEC56AF1EE10FA4EDC61
:10081000F4EEE76AF1EE10FA76FEA77AB4EEE57A26
:10082000F1EE10FA3ED4B4EEC76AF1EE10FA37FEDC
:10083000066A73450CF1040C02F10402DBD1F5EEFB
:10084000C07AF1EE10FA08D99FED707A67EE877AD8
:10085000F4EEC57AF1EE10FA4CD56D4A0123116819
:10086000884256D010600122DFF8C0C10228DFF8AC
:10087000C0E11146CEF80020CCF800105BD0012872
:100880001AD0644A2340D2F800C0C3F10203BCF17D
:10089000010F75D0BCF1020F72D099426BDB844519
:1008A00023D130BDB0EE656AF0EE475AC1E7F0EEF5
:1008B000457AB0EE665AB1E7F0EE007A95ED0A7A25
:1008C000B4EEE77AF1EE10FAEBD4524AD2F800C057
:1008D000002B00F08780002C00F08480BCF1010F19
:1008E00000F085808446614545DB4B4B002110605C
:1008F000196030BDDFED497A454A75EEA75A116897
:10090000F4EEC65AF1EE10FA4CBF012300238842E0
:10091000A8D1DFF818C10228DFF814E1DCF80010D4
:10092000DEF8002001F1010102F10102CCF8001013
:10093000CEF80020A3D1B6EE007AD5ED0A7AF4EE17
:10094000C77AF1EE10FAACD4324AD2F800C0BCF14A
:10095000010F1CD02340BCF1020FC3F1020349D0A8
:10096000F5EE007A95ED077AB4EEE77AF1EE10FA3B
:1009700006D50229B9DC284A13680133136030BD5B
:100980009942F8DB244B002110601960B1E7F7EEC3
:10099000086A95ED077AF4EEE67AF1EE10FA17D8C8
:1009A000DFED1F7AD5ED056AF4EEE76AF1EE10FA95
:1009B0000ED5DFED1C7AB4EEE77AF1EE10FA07DD22
:1009C000F5EE007AB4EEE77AF1EE10FAD1D48AE7C8
:1009D000F5EE007AB4EEE77AF1EE10FAC9D44FF0F2
:1009E000020C80E7BCF1010FF9D14FF0020C8C45ED
:1009F000C1DC30BD9942BEDB30BD00BF003C1C46AF
:100A0000FC1F0020C0070020000000203D0A973F87
:100A1000F01F0020EC1F0020E41F00209A99993E4F
:100A2000333333408FC2F53DB4060020E81F002069
:100A3000E01F002090ED006AF6EE081A9FED4A2AAA
:100A400090ED043AD0ED052A26EE026A90ED074AB1
:100A50009FED460A62EEA12AD0ED016A24EE214AFA
:100A600023EE003ADFED421A91ED000A66EE826A4B
:100A700090ED027AA0EE216A91ED010ADFED3D5A78
:100A8000E0EE216AD0ED037AD0ED063A27EE257A22
:100A9000D0ED0A0A67EEA57AD0ED084A63EE823AF5
:100AA00090ED095A9FED342A64EEA54A9FED331A62
:100AB00025EE255A91ED040A60EE815AF5EE000A02
:100AC0002DED028B81ED006A91ED026AC1ED016AA4
:100AD000D1ED036AA6EE027A91ED066AE6EE827A1D
:100AE000D1ED076AE6EE213A91ED058AB0EE446A4F
:100AF000DFED231AE8EE202A81ED027AA6EEA06A45
:100B000091ED087AF0EE646AC1ED037ADFED1D7AAB
:100B1000C1ED063AE7EE026AC1ED052AB0EE457A6C
:100B2000A0EE273AD1ED097A91ED0A0AA7EE827A72
:100B300081ED076AF0EE657AE0EE217A81ED043A04
:100B4000C1ED086A81ED097A91ED0B7ABDEC028B5B
:100B5000C1ED0A7AD0ED0B7A67EE817AE7EE217A61
:100B6000C1ED0B7A704700BF6666263F3333333FD3
:100B70003333B33ECDCC0C3F6666E63E9A99593F7F
:100B80009A99193E9A99993E0021154B154A164893
:100B900010B51960154C164B1170302201601548C4
:100BA0002160197014F044FD4FF07E50124A00236A
:100BB000124C10600021124A124823601060124C3F
:100BC000124A23601160124C1248134A23600160DC
:100BD0001160124C1248134A21600360116010BD6D
:100BE00064070020680700202C0700206007002011
:100BF000F80600203007002014000020F406002032
:100C00001000002000247449F0060020E8060020AF
:100C1000EC060020E4060020E0060020DC060020B0
:100C2000D8060020D4060020784B90ED006AD0ED65
:100C3000016AD0ED021A90ED037A90ED042AD0ED0E
:100C4000057AD3ED002A93ED013AD3ED023A72EE24
:100C5000862A93ED034A33EE263AD3ED044A73EE27
:100C6000A13A93ED055A34EE074A90ED060A74EE68
:100C7000824AD0ED070A35EE275A90ED081AD3EDD7
:100C8000065A93ED076AD3ED086A75EE805A93ED24
:100C9000097A36EE206AD0ED091A76EE816AD3ED34
:100CA0000A7A90ED0A2A37EE217AC3ED086A77EEC8
:100CB000827AC3ED002A83ED097A83ED013AC3ED10
:100CC000023A83ED034AC3ED044A83ED055AC3EDAE
:100CD000065A83ED076AC3ED0A7A93ED0B7AD0EDDD
:100CE0000B6AD0ED007A37EE267ADFF858C1DCF8CF
:100CF000002083ED0B7A464B013293ED007ACCF85D
:100D00000020F4EEC77AF1EE10FA01DDC3ED007AAF
:100D1000404B93ED007AF4EEC77AF1EE10FA01D56C
:100D2000C3ED007A3C4BD0ED037A93ED007AF4EEFC
:100D3000C77AF1EE10FA01DDC3ED007A374B93ED7F
:100D4000007AF4EEC77AF1EE10FA01D5C3ED007A1D
:100D5000334BD0ED017A93ED007AF4EEC77AF1EEE1
:100D600010FA01DDC3ED007A9FED2E7AF4EEC77A1A
:100D7000F1EE10FA2FDDDFED2C7A90ED047AB4EE6F
:100D8000E77AF1EE10FA27DD2848036813B1CB1A91
:100D9000B42B39D9DFF8B0C0DCF8003030B573B30C
:100DA000DFF8A8E0224CDEF8005094ED007A4D1BED
:100DB000204A07EE905AF8EE677A77EE877AC4ED0C
:100DC000007A1468013414600133CEF80010016019
:100DD000CCF8003030BD7047DFED177A90ED077A20
:100DE000B4EEE77AF1EE10FACEDCDFED147A90ED96
:100DF000057AB4EEE77AF1EE10FAC5DC7047104AD6
:100E0000DFF848E01160DFE7704700BF30070020DF
:100E1000F406002014000020F0060020100000203E
:100E2000EC0600208FC2F53B295C0F3DE406002054
:100E3000D8060020D4060020A69B443C0AD7233CB9
:100E4000E00600202C070020E8060020DC06002039
:100E50003022002108B514F0EBFB424A1268002A48
:100E600077DD03464049414807EE902A0968F7EECE
:100E7000005A0268B8EEE76A9FED3D2A91423D486C
:100E8000C5EE866ADFF808C138BF1146D0ED064AC4
:100E900090ED044A8A1AD0ED033A90ED023A07EE3B
:100EA000902AD0ED002A3448F8EE677A9FED337A25
:100EB00090ED005A324887EE826A324AD0ED007ACD
:100EC000DCF80000D2ED005A58602F48F8EEE55AE1
:100ED0002E4A62EEA62AD0ED001A23EE263ADFF85B
:100EE000B4C063EEA63A126877EEE17A9CED001A80
:100EF00024EE264A501E64EEA64A75EE416AC3ED02
:100F0000097AC3ED002A83ED023AC3ED086AB4EE14
:100F1000C67AC3ED033A83ED044AC3ED064AF1EE07
:100F200010FA77FE067A8142C5EEA76A12D8C3EDA1
:100F30000A5AC3ED056A83ED0B6A86EE277AF7EE4F
:100F4000007AB4EEE77AF1EE10FA77FE877AC3ED15
:100F5000077A08BD891A07EE101AB8EE477A87EEAD
:100F6000026AE4E72C0700206007002064070020E5
:100F700000007A4430070020F40600206F12833A04
:100F8000F0060020E806002010000020E406002003
:100F9000EC06002014000020944B53F820301F2B47
:100FA00000B585B005DC032806D8DFE800F0BA2CD0
:100FB00068088F4803F046FF002005B000BDD1ED62
:100FC000007ADFED8C6A91ED017AF4EEE67AF1EECB
:100FD00010FA06DDDFED886AB4EEE67AF1EE10FA7B
:100FE0004BDCDFED866A864827EE267A67EEA67A26
:100FF000BDEEC77AFDEEE77A17EE102A17EE901ACB
:1010000003F020FFD8E791ED005ADFED7E7A91EDF5
:10101000044AB4EEE75A91ED0A7A91ED076AD1EDF0
:10102000056AF1EE10FAD1ED014A40F3AD80DFED33
:10103000767AF4EEE74AF1EE10FA40F3A580DFEDA0
:10104000737AB4EEE74AF1EE10FA40F39D80F0EEC9
:10105000007AB4EEE77AF1EE10FAC0F29580F4EE81
:10106000E76AF1EE10FA40F38F80DFED697AB4EEB3
:10107000E76AF1EE10FA40F1878001209DE7D1ED9B
:10108000005ADFED647AD1ED0A4AF4EEE75A91EDA9
:10109000077A91ED015AF1EE10FA14DDDFED5E7A78
:1010A000B4EEE75AF1EE10FA0DDDF0EE047AF4EE4C
:1010B000E74AF1EE10FA06D8DFED587AB4EEE77A97
:1010C000F1EE10FAD9DCDFED4D7A91ED0B6A64EEAA
:1010D000A74AD1ED056A25EE275A514865EEA75A71
:1010E00026EE276A27EE277A66EEA76AFDEEE47AF7
:1010F000BDEEC66ABDEEC77A17EE903AFDEEC57A30
:10110000FDEEE66A8DED026A8DED017A17EE902A0A
:10111000FDEEE57ACDED006A17EE901A03F092FE2F
:101120004AE7D1ED007A9FED3F6AD1ED046AF4EE13
:10113000C67A91ED017AF1EE10FA0DDD9FED3A6A73
:10114000B4EEC67AF1EE10FA06DD9FED386AF4EEE1
:10115000C66AF1EE10FA90DC9FED286A344866EE1C
:10116000866A27EE067A67EE867AFDEEE66ABDEEBF
:10117000C77AFDEEE77A16EE903A17EE102A17EED0
:10118000901A03F05FFE17E7DFED1C7AD1ED0B5AE2
:1011900024EE274A274864EEA74A25EE275A65EE33
:1011A000A75A26EE276A66EEA76A27EE277AFDEE93
:1011B000C47AFDEEE55ABDEEC66A17EE903AFDEE32
:1011C000E47AFDEEE66ACDED035ABDEEC77A8DED09
:1011D000026A17EE902AFDEEC57ACDED016A8DED1B
:1011E000007A17EE901A03F02DFEE5E6C007002006
:1011F000606A01240AD7233B0AD7A33B00007A4444
:101200004C6B0124A69BC43A4260653BA69B443CC0
:101210006666E63E17B7D1396F12833A8FC2F53D45
:10122000046B01246F12833B6F12033C0AD7233DEA
:101230007C6A0124B46A0124302210B504460846B1
:10124000002114F0F5F9564A52F82410002940F311
:10125000A580034604EB4404524801EB4102DFED54
:10126000527A00EB4420B0EE677AF0EE676A00EB4A
:101270000212B0EE676AF0EE675AB0EE675AF0EE0F
:10128000674AB0EE674AF0EE673AB0EE673AF0EEC2
:10129000672AB0EE672AD0ED001A303032EE212AEC
:1012A000904283ED002A50ED0B1A72EEA12AC3ED95
:1012B000012A50ED0A1A33EE213A83ED023A50ED3D
:1012C000091A73EEA13AC3ED033A50ED081A34EE51
:1012D000214A83ED044A50ED071A74EEA14AC3ED8A
:1012E000054A50ED061A35EE215A83ED065A50EDA7
:1012F000051A75EEA15AC3ED075A50ED041A36EEE1
:10130000216A83ED086A50ED031A76EEA16AC3EDF7
:10131000096A50ED021A37EE217A83ED0A7A50ED10
:10132000011A77EEA17AC3ED0B7AB4D101EE901ACF
:10133000F7EE000AB8EEE11AC0EE811A22EE212A79
:1013400062EEA12A23EE213A63EEA13A83ED002A50
:1013500024EE214AC3ED012A64EEA14A83ED023A4C
:1013600025EE215AC3ED033A65EEA15A83ED044AF6
:1013700026EE216AC3ED054A66EEA16A83ED065AA0
:1013800027EE217AC3ED075A67EEA17A83ED086A4A
:10139000C3ED096A83ED0A7AC3ED0B7A10BD00BF75
:1013A000C0070020E00700200000000091ED007A57
:1013B000F7EE083A90ED006A9FED5B4A36EE476A19
:1013C000D1ED017AD0ED016ADFED585AC6EE042A5C
:1013D000D1ED044A90ED047A9FED555A91ED096ADA
:1013E00091ED053A76EEE76AD0ED087A37EE647A49
:1013F000DFED504A9FED500A86EEA54AD1ED086A0E
:10140000DFED4E5AC7EE050A90ED097A9FED4C5A72
:1014100077EEE67AD0ED0A6A62EEA55A37EE467AA2
:1014200091ED0A6A87EEA41ADFED467AF6EE004ADD
:10143000E5EEA27AD0ED025AC7EE051A90ED055AF4
:1014400090ED0B7A76EEC66A91ED0B6A64EE244A53
:1014500037EE467A9FED3C6A35EE435AE4EE847AE5
:101460009FED3A4A86EEA32ADFED396ADFED394A6D
:1014700085EE233A90ED035AC7EE003A91ED030A48
:1014800090ED077A35EE405A20EEA60A21EE066A64
:1014900061EEA66AE0EE207A22EE044A63EE244A68
:1014A0002DED028B9FED2C8AE6EE017A9FED2B6AE3
:1014B000C5EE082A91ED025AE6EEA17AF1EE006A35
:1014C00075EEC55A9FED265AC5EE850A9FED255A41
:1014D000DFED255AE4EE027A23EE855A62EEA55A34
:1014E000E4EE837AD1ED074A37EE647A27EE267A66
:1014F00020EE866A67EE266AE6EE877AE5EE237AC4
:10150000E5EEA27AE6EE207AF5EE407AF1EE10FAF8
:1015100004D4B1EEE70ABDEC028B7047B0EE670A67
:10152000BDEC028B13F078BC0AD7233C8FC2753C0C
:10153000CDCC4C3D0AD7A33CCDCC4C3E9A99193F1B
:101540000000FA4300000000CDCC4C3FCDCC4C4015
:101550003333333F33333340000048449A99993E44
:101560008FC2F53DCDCC0C40CDCCCC3EDFED277A03
:101570002DE9F04F0024DFF8A0A0254E8146254D2F
:101580005746DFF89880A3462DED028BB0EE678AB0
:101590008DB0C6ED007AC6ED017AC6ED027AC6EDD1
:1015A000037AC5E90044C5E90244CAE90044CAE92E
:1015B000024458F8043B20466946002B19DDFFF72A
:1015C0003BFE69464846FFF7F1FEB7EE007AB4EEFF
:1015D000C80A86ED000A70EE076AF1EE10FAC7EE4F
:1015E000267AC5ED007AC7ED007A02D5B0EE408AC2
:1015F000A3460134043604350437042CD9D1CAF883
:1016000010B00DB0BDEC028BBDE8F08F003C1C4665
:1016100000000020B4060020FC1F0020C0070020AE
:10162000B6EE007AD1ED0A7AF4EEC77AF1EE10FA4E
:1016300009D5B6EE087AD1ED077AF4EEC77AF1EE65
:1016400010FA09DD7047B7EE087AF4EEC77AF1EECA
:1016500010FA11D8D1ED077A9FED087AF4EEC77A27
:10166000F1EE10FA08D5DFED067A91ED0B7AB4EEC3
:10167000E77AF1EE10FAE5D4FFF7AAB8CDCCCC3D6D
:10168000CDCC4C3D80F30200104B114A03EB4013CC
:10169000104910B5106008700F4C586899680F4ACF
:1016A000206011600E481969D3F80CC00D4AD3F8B8
:1016B00014E011600C4C1A7F0C49C0F800C0986906
:1016C0000B4BC4F800E008601A7010BDC86E01240E
:1016D0006C070020B80700205000002058000020B0
:1016E000540000204C00002048000020440000204E
:1016F000180000203D49F0EE406A3D4BD1ED007AE4
:101700003C4A1B7867EE807A92ED007A013B3A4AB8
:1017100067EE877AD2ED005A00B583B0032B61D80B
:10172000DFE803F05244320227EEA77A8DED010A7A
:10173000B0EE080A67EE277A27EE800A13F094FBD2
:10174000B0EE406ADDED016A2C4AB7EE007A2C4B10
:1017500092ED005AD2ED007A37EE457A93ED000A09
:1017600067EE867A2749284AD1ED005AE7EE267AB5
:1017700092ED007A77EEC07AA7EEA50A83ED000A13
:1017800020EE070A03B000BDF5EEC07AF1EE10FAC4
:1017900023DAB7EE087A27EE870ACDED016A13F057
:1017A00063FBDDED016AB0EE406ACDE7B1EE656A3C
:1017B000F4EEC67AF1EE10FAC6D4F4EEE57AF1EE64
:1017C00010FA35FEA76ABFE7B7EE006AB0EEE77A17
:1017D00037EE067A87EE876AB6E7B0EE047A27EE30
:1017E000870ADAE7B0EE676AAEE700BF680000205C
:1017F00018000020700000205C0000206400002021
:10180000700700206C00002060000020224BD3ED08
:10181000007AF8EEE77A77EEC07AF5EEC07AF1EE6C
:1018200010FA08D59FED1D7A77EE877AF5EEC07A2B
:10183000F1EE10FAF6D49FED197AF4EEC77AF1EED4
:1018400010FA08DB9FED157A77EEC77AF4EEC77AC7
:10185000F1EE10FAF6DABDEEE77A114A11484BF6CE
:10186000803C17EE103AB8EEC77A02EB83010133E1
:1018700077EEC77A91ED000A80FB0310D917C1EB10
:10188000A0210CFB113302EB830292ED007A37EEBC
:10189000407AA7EE270A7047B407002000803B4734
:1018A000000000C0F119760510B5424C2DED028BF9
:1018B00094ED008AF0EE408AB0EE480A13F070F81A
:1018C0003D4A3E4BB7EE006A92ED007AD3ED007AC6
:1018D000DFED3B4AE0EE077A9FED3A5ADFED3A5AE8
:1018E000B0EE670AFFF792FF384B9FED397AD3EDE0
:1018F000006A384A30EE664AD2ED007AE4EE246A95
:1019000026EE877AC3ED006AA0EE057A67EE277AA5
:10191000E8EEA57AF4EEC67AF1EE10FA07DCBFEE37
:10192000006AB4EEE76AF1EE10FA36FE276A2A4B37
:101930002A48D3ED006A2A4A036878EE266A2949C4
:1019400002EB8302DFED287A013382ED006AF4EEC8
:10195000E76A81FB0321DA17C2EBA1224BF6803143
:10196000F1EE10FA01FB1233036001DB76EEE76A59
:101970001E4AB7EE006A1E4BBFEE000AD2ED007A97
:10198000C4ED006A76EE675AD3ED006A67EE877A97
:10199000E5EEA87A67EEA67AF4EEC07AF1EE10FAD8
:1019A00005D4F4EEC67AF1EE10FA36FE270ABDEC45
:1019B000028B10BD900700208407002088070020BC
:1019C0000AD7233C9A99193F6666E63E94070020A1
:1019D000CDCCCC3E3C0000208C070020B40700207A
:1019E000000000C0F1197605DB0FC940400000205F
:1019F0007800002008B53A4BF0EE405A9FED395A76
:101A0000B7EE006A93ED000AFFF700FF364BF0EEE9
:101A1000403A9FED364A93ED000AFFF7F7FE344B4C
:101A2000F0EE406ADFED334A93ED000AFFF7EEFE79
:101A3000DFED317A314B26EEA77A314AD3ED006AD9
:101A4000D2ED007AA3EE857AA0EE047A37EE664AEC
:101A5000E4EE246A66EEA77AC3ED006AE5EE857AC5
:101A6000F4EEC67AF1EE10FA07DCBFEE006AB4EECF
:101A7000E76AF1EE10FA36FE276A224AF7EE006AAC
:101A8000DFF890C0BFEE000AD2ED007A1E4876EE75
:101A9000E74A9CED005A67EE877A03681B4A1C49A7
:101AA000E4EEA57A02EB8302013382ED006A81FB4A
:101AB00003C1DA174BF6803CC2EBA12267EE857AB0
:101AC0000CFB1233F4EEC07A0360F1EE10FA05D489
:101AD000F4EEE67AF1EE10FA36FEA70A08BD00BF72
:101AE0007C070020CDCC0C3F780700209A99193E46
:101AF000740700208FC2F53C9A99993E8007002018
:101B0000280000202C000020B4070020000000C0A6
:101B1000F11976057400002070B59F4C9F4EA04DC2
:101B20002DED048B82B013F031FC07EE900A237880
:101B3000F0EE006AFAEEE07A96ED008ABFEE007AE7
:101B4000022BD5ED008AA7EEA67A00F0F480237868
:101B50008DED017A032B00F0A180B8EE000A28EE8B
:101B6000000A12F0ABFEF0EE409AB0EE680A12F0F6
:101B700017FFB0EE409A38EEA80A12F011FF9FED61
:101B8000896AF0EE497AF0EE086AE0EE067A28EE0D
:101B9000A60ACDED007A12F003FF9FED836AF1EE05
:101BA000006ADDED007AE0EE067A28EEA60ACDEDB9
:101BB000007A12F0F5FEB0EE409ABBEE040A28EE71
:101BC000000A12F07BFE9FED796ADDED007ADFED11
:101BD000786AE9EE067A9DED017A27EE267AE7EE3D
:101BE000007A67EEA97AB0EE679A9FED720A28EE46
:101BF000000A12F0D5FEF7EE007A9FED6F7A9FEDA6
:101C00006F6AE0EE077A6E4BDFED6E6A93ED007A55
:101C100067EE867A87EE870A30EE280AB4EEE60A87
:101C2000F1EE10FA01DB30EE660AF7EE006A237877
:101C300085ED000A022BC6EE877A77EE887AC6ED2C
:101C4000007A1ED02378032B0ED0B7EE087AF4EE7C
:101C5000C77AF1EE10FA01DB00233360B0EE490AD7
:101C600002B0BDEC048B70BDB0EE087AF4EEC77A1A
:101C7000F1EE10FAF0DAB0EE490A02B0BDEC048BD6
:101C800070BDB1EE047AF4EEC77AF1EE10FAE3DA41
:101C9000B0EE490A02B0BDEC048B70BD9FED4A0A5C
:101CA00028EE000A12F00AFEF0EE409AB0EE680A42
:101CB00012F076FEB0EE409A38EEA80A12F070FEEE
:101CC0009FED426AF0EE497AF0EE086AE0EE067A9D
:101CD00028EEA60ACDED007A12F062FE9FED3C6A76
:101CE000F1EE006ADDED007AE0EE067A28EEA60A53
:101CF000CDED007A12F054FEB0EE409ABAEE0E0A24
:101D000028EE000A12F0DAFDDFED325ADFED326A1A
:101D10009FED326ADDED007A9DED017AE9EE257ADC
:101D200027EE267A67EE867AE7EE007A67EEA97AE2
:101D3000B0EE679A59E79FED2A0A8DED017A28EEF9
:101D4000000A12F0BBFDF0EE409AB0EE680A12F005
:101D500027FEB0EE409A38EEA80A12F021FE9FED61
:101D60001D6AF0EE497AF0EE086AE0EE067A28EE97
:101D7000A60ACDED007A12F013FEB0EE409ABAEE4C
:101D8000080A28EE000A12F099FDDFED165ADFED81
:101D9000166A9FED166ABDE7B80700209807002075
:101DA0009C070020AE47613ECDCCCC3D0AD7233DF9
:101DB000EC51383E3333333F6F12033BA0C9AC4480
:101DC0008C000020DB0FC9403333B3BE8FC2753D9A
:101DD000CDCCCC3C0AD7233C8FC2F53D6666E63EAF
:101DE0008FC2F5BD0AD7A33B0AD7A33D3333B33E19
:101DF000002A00F099802DE9F84F8A468046164661
:101E000000244A4F4A4D2DED028B1FE0D8F80030D8
:101E10004B4493ED008AB0EE480A464800F058FF64
:101E20002B78EBB12B78012B21D02B78022B6DD0A6
:101E30002B78032B71D00134DAE90023A6424A44FF
:101E40004B4482ED008A83ED008A5BD03B784FEAF9
:101E50008409002BDAD0FFF75FFEB0EE408ADAE7A4
:101E6000B0EE480AFFF746FCB0EE408AE3E7DFF841
:101E7000E8B0DBED008AB0EE680A12F091FD2E4B5F
:101E8000DFED2E6AB7EE086A93ED007A2C4BD3EDA6
:101E9000007AE0EE077AB0EE670AFFF7B7FC294B4D
:101EA000B7EE007A2848D3ED007AD0F800C037EEBC
:101EB000677A264B67EE807A2549E7EE087A93ED3C
:101EC000007A0CF1010338EE870A81FB0321DA174F
:101ED000C2EBA1221F49B4EEE60A01EB8C0167EECA
:101EE000867A81ED008A4BF68031F1EE10FA01FB23
:101EF0001233036001DB30EE660AB0EE678A8BEDC9
:101F0000000A98E7BDEC028BBDE8F88FB0EE480AF6
:101F1000FFF7CAFCB0EE408A8DE7B0EE480AFFF743
:101F200069FDB0EE408A86E7704700BFA007002039
:101F3000B807002000230020AC070020DB0FC940B9
:101F4000B00700207C000020B4070020A407002078
:101F5000F1197605000000C0A8070020FFF748BF70
:101F60002DE9F04F0021C1484FF0000ABF4DDFF8C6
:101F70008C83DFF88C93BE4FDFF888B32DED028B96
:101F80009FB001F06DFA002002F0BEFF40F6B830BD
:101F900005F044FF3021B54801F084F90321B3482E
:101FA00001F094F99FEDB30A4FF48071B24800F04C
:101FB00007FEB24801F016F9B14B1C461868FFF74E
:101FC00061FBFEF7E1FDAF4802F03CFF2368AE4A3B
:101FD0005B01AE48AE4CD15802F034FFAD49A34886
:101FE00001F05EF9AC4802F02DFFCDF834A09F4817
:101FF00001F080F99D4801F089F995F8B43023B1DA
:1020000095F8BA307F2B00F06C8395F8C43023B17B
:1020100095F8CA307F2B00F0F08395F844306BB10F
:102020006B6E002B40F350830AF10102534202F021
:10203000030A03F0030358BFC3F1000A97498E480F
:10204000C9F800A000F0ACFF0E90002840F06081BD
:10205000934B1B783BB9934B1B7823B1924B1B7866
:10206000002B40F05383D9F8002082F30202844B06
:102070008E491A60844B0A7003EB42138C495A68EC
:102080000A609A688B490A60DA688B490A601A69A3
:102090008A490A605A698A490A609A6989491B7F94
:1020A0000A60894A137005F0B7FE0D9B0646C31AF5
:1020B000B3F57A7F9BD3724B734A1B68D9F8001033
:1020C0005B0182489FED828AD258824B1B68039342
:1020D000814B1B680293814B1B690193804B1B68EA
:1020E0000093804B1B7802F0ADFED4ED0A7AD4ED5C
:1020F000045A67EE887A94ED016A65EE885A94ED89
:102100000B7AD4ED006A26EE086AFDEEE77A76488F
:1021100066EE886A27EE087ACDED007AFDEEE57A64
:10212000BDEEC77A17EE903AFDEEC67A8DED017AD4
:1021300017EE902AFDEEE67A17EE901A02F082FE74
:10214000D7ED0A7AD7ED044A67EE887A97ED015AFF
:1021500064EE884A97ED0B6A25EE085AD7ED076AB8
:10216000FDEEE77A97ED057AD7ED005A26EE086A7C
:1021700066EE886A5D48CDED007AFDEEE47A65EEA4
:10218000885A27EE087A17EE903AFDEEC57ABDEE32
:10219000C66AFDEEE66ABDEEC77A17EE902AFDEE3E
:1021A000E57A8DED036ACDED026A8DED017A17EEC9
:1021B000901A02F047FE4E4BDFED4E7A93ED037A14
:1021C0009BED035ADBED025A27EE277A9BED016A5D
:1021D00025EE275ADBED006A65EEA75A26EE276A40
:1021E000D3ED023A66EEA76A93ED014ABDEEC55AF9
:1021F000D3ED004AFDEEE55A2A4BBDEEC66A3E48D5
:10220000FDEEE66A8DED045ABDEEC77ACDED035AB8
:102210008DED026A63EEA73ACDED016A24EE274AFE
:102220008DED007A64EEA77A1B78BDEEE37A0B930E
:10223000FDEEE77A1C4B1B7817EE901A0A93D8F83C
:102240000C300993D8F808300893D8F80430079375
:10225000D8F800300693124B1B78059317EE103A0E
:10226000BDEEC47A17EE102A4EE000BF944700205E
:10227000FC06002000803B470023002010200020A7
:102280006C070020786B0124C86E0124846B012444
:10229000A02200205D1F0024906B0124D02200208A
:1022A000F81F0020F91F0020FA1F0020B8070020A7
:1022B0005000002058000020540000204C00002056
:1022C000480000204400002018000020D86C0124A1
:1022D00000007A44E81F0020EC1F0020FC1F0020B3
:1022E0002C070020680700201C6D0124406D01248C
:1022F000000000200000C842806D0124C0070020BB
:10230000F41F0020B406002002F09CFD0D966EE63E
:10231000D149D248FEF78EFB94ED007AB5EEC07A33
:10232000F1EE10FA00F11682F7EE007AB4EEE77AD9
:10233000F1EE10FA77FE877A94ED017AC4ED007A17
:10234000B5EEC07AF1EE10FA00F10182F7EE007AF4
:10235000B4EEE77AF1EE10FA77FE877A94ED027A1E
:10236000C4ED017AB5EEC07AF1EE10FA00F1E68123
:10237000F7EE007AB4EEE77AF1EE10FA77FE877A9C
:1023800094ED037AC4ED027AB5EEC07AF1EE10FA5C
:1023900000F1D181DFEDB27AB4EEE77AF1EE10FA16
:1023A00077FE877A94ED047AC4ED037AB5EEC07AAD
:1023B000F1EE10FA00F1BC81F1EE047AB4EEE77AA6
:1023C000F1EE10FA77FE877A94ED057AC4ED047A7F
:1023D000B5EEC07AF1EE10FA00F1A781F2EE047AC0
:1023E000B4EEE77AF1EE10FA77FE877A94ED067A8A
:1023F000C4ED057AB5EEC07AF1EE10FA00F19281E3
:10240000F7EE007AB4EEE77AF1EE10FA77FE877A0B
:1024100094ED077AC4ED067AB5EEC07AF1EE10FAC3
:1024200000F17D81F7EE007AB4EEE77AF1EE10FA72
:1024300077FE877A94ED087AC4ED077AB5EEC07A14
:10244000F1EE10FA00F16881F7EE007AB4EEE77A67
:10245000F1EE10FA77FE877A94ED097AC4ED087AE6
:10246000B5EEC07AF1EE10FA00F15381DFED7D7A1E
:10247000B4EEE77AF1EE10FA77FE877A94ED0A7AF5
:10248000C4ED097AB5EEC07AF1EE10FA00F15C8184
:10249000F2EE007AB4EEE77AF1EE10FA77FE877A80
:1024A00094ED0B7AC4ED0A7AB5EEC07AF1EE10FA2B
:1024B00000F14781F0EE007AB4EEE77AF1EE10FA1F
:1024C00077FE877AC4ED0B7A05F0A6FCDFED667A1D
:1024D00094ED007A654BB4EEE77A0F901978F1EE3F
:1024E00010FA00F397809FED627AD4ED016AF4EE62
:1024F000C76AF1EE10FA00F38D8094ED067AB4EE1F
:10250000E77AF1EE10FA00F3858071B3594B0F9A18
:102510001B68D31AA02B40F29680574B0F9A1B686A
:10252000D31AB3F5966F94BF002301230E9312A81C
:10253000FEF78EFC514B4FF001020DF1480EDFF813
:1025400084C11A704E4B1E68BEE80F00ACE80F0045
:10255000BEE80F00002EACE80F009EE80F008CE8EC
:102560000F0000F32381FEF70FFB464B9FED467AE9
:1025700093ED004A454A464B24EE074AD2ED006AE5
:10258000444A93ED006A66EE874ADFED437A92EDA6
:10259000005A424AA6EE274A25EE075AD2ED005AC3
:1025A0003F4A65EE875AD2ED006A3E4A26EE876AB8
:1025B00083ED004AD2ED006A3B4B26EE877AF0EEBF
:1025C000646A93ED004AE4EE276AC3ED006AF0EE18
:1025D000456A364BD3ED004AE4EEA76AC3ED006AC4
:1025E000F0EE656A324B93ED005AE5EE276AC3EDD3
:1025F000006AF0EE466A2F4BD3ED005AE5EEA76A6B
:10260000C3ED006A2C4BD3ED006AA6EEA77A83EDEA
:10261000007A1DE5002900F0A0800F9B154A19469D
:102620000D481360FEF700FB244B1B783BB1244B95
:102630001B7823B1124B1B68012B00F30A810B4B53
:102640001B78002B91D00C4B0F9A1B68D31AB3F553
:10265000966F3FF66CAF88E7A0220020D0220020C2
:1026600000409C450024F448A69B443B680700209A
:10267000A69BC43B6007002064070020F8060020EA
:102680002C070020580000209A99993E5400002001
:1026900070000020500000203333333F4C000020F6
:1026A00048000020440000206C000020680000204A
:1026B00064000020600000205C000020F91F002062
:1026C000FA1F0020FC0600203FF4B8AC0AF1030218
:1026D000534202F0030A03F0030358BFC3F1000A98
:1026E000ACE4A04A137883F001031370002B7ED072
:1026F00000239D4A1370FEF747FAD9F800109B4A51
:102700004B019B48D25802F09DFB7EE4994B1A681E
:10271000ABE4DFED997AB1E6DFED977A9CE6DFED89
:10272000967A87E6DFED947A72E6DFED937A5DE6DE
:10273000DFED917A48E6DFED907A33E6DFED8E7AD1
:102740001EE6DFED8D7ABDE6DFED8B7AA8E6DFEDE4
:102750008A7A03E6DFED887AEEE50F9A874B8848A0
:102760001A60884B884A1960012310911370302237
:1027700012F05EFF1099854B854A1960854B1960F0
:10278000854B1960854B1960854B19604FF07E535E
:1027900013600023834A1360834A1360834A1360E3
:1027A000834A1360834B844A136036E712A8FEF70E
:1027B000DDFE6C4B1B78002B7AD16B4B1B78002B0A
:1027C0003FF4D1AE7D4B1B78002B3FF4CCAE12A969
:1027D0000120FEF725FF0E9B664A00937849694B5E
:1027E00012681B680969774802F02CFBBBE6FEF70C
:1027F000CBF9754802F026FB07E4744B002153F82F
:10280000042B002A724AC8BF01319342F7D1012933
:102810001ADD0123694A00261370534A1370514B85
:102820001E70FEF7B1F96B4B6B4A1E606B4B6C4828
:102830001E606C4B1E606C4B1B6813604D4A13602E
:1028400002F000FBFFF7E9BB684802F0FBFAFFF774
:10285000E4BB12A8FEF7FCFA12A8FEF787FEB6EE5C
:10286000007ADDED1C7AF4EEC77AF1EE10FA65D548
:10287000B6EE087ADDED197AF4EEC77AF1EE10FAC9
:102880003FF7DDAE9FED5A7AF4EEC77AF1EE10FA1B
:1028900009D5DFED587A9DED1D7AB4EEE77AF1EEB9
:1028A00010FA3FF5CCAE12A90120FDF791FFC6E664
:1028B0000F9A12A9D9F80000FEF76EFB314BD9F838
:1028C00000E01B68119358F82E30109300283FD079
:1028D00049480EEB4E020DF1480C50F82E305102D3
:1028E00003EB4302013301EB021244498E185A42B2
:1028F00003F01F0302F01F0258BF534240F82E306E
:10290000BCE80F000FC6BCE80F000FC69CE80F0024
:1029100086E80F00109B1F2B03DC0133109348F84F
:102920002E300F9A7146364B364843F82E200E9BB8
:102930000093DDE9103202F085FA14E6B7EE087A6A
:10294000F4EEC77AF1EE10FAADD8DDED197A99E719
:102950000E9B71462C480093DDE9103202F072FAAA
:1029600001E600BFF81F0020F91F0020C86E0124F7
:10297000A06B0124EC1F0020000000006407002071
:10298000300700202C07002068070020E806002000
:1029900014000020E4060020E0060020DC060020F1
:1029A000D4060020F4060020F0060020EC060020EB
:1029B000D80600200024744910000020FA1F0020CF
:1029C000FC1F0020946C0124C06B0124C007002070
:1029D000D0070020E81F0020F01F0020E41F002087
:1029E000F86B0124E01F00206C070020D06B01244D
:1029F000CDCCCC3DCDCC4C3DD0070020E007002015
:102A0000C4060020246C01245C6C012438B5524DAE
:102A1000002405F5C0702C606C612C62EC6302F040
:102A20008FFA4E494FF480704D4A4E4B91ED005A4B
:102A300092ED006A0722D3ED006A4B494B4BC5F873
:102A40009041C3F80444C3F85844C3F85C44C3F845
:102A50008044C3F8844483F89044C5F84842C5F8DC
:102A6000391205F5147185F83D2240F20112C5F8BE
:102A70004C423F4CDFED3F4AD4ED007A25EE245A1C
:102A80009FED3D7A27EE866A3C4C67EEA66AC3F856
:102A9000000485EE274A3A4886EE075AC5E99012A7
:102AA000384D002203F58161D5ED005A364D67EEB1
:102AB000A55A95ED006AC5EE873A27EE866AC6EEFE
:102AC000875AD4ED006A314C84ED004A304C66EEF2
:102AD000A46AC6EE074A0C6003F5826103F214444F
:102AE0000A60C0ED003A86EEA76A2A482A492260A9
:102AF000C0ED004A294880ED006A03F20C400260F4
:102B000003F5916003F28C430260254A196082ED5F
:102B1000005A2449244A254B2548C0ED005AD3EDDC
:102B2000005A91ED006AD2ED006A27EE866A2149CB
:102B300067EEA66A204A67EEA57A204BC6EE075AD2
:102B400086EE876AC7EE876AC1ED005A82ED006A99
:102B5000C3ED006A38BD00BF944700203800002054
:102B6000300000203400002080707F0F00430020E0
:102B70008C000020DB0FC94000007A448000002058
:102B8000B007002088000020840000208C0700206F
:102B900000803B47AC07002000007AC4A407002057
:102BA0008807002024000020200000201C000020B6
:102BB000840700207C07002078070020740700208D
:102BC000F8B500F5005300244FF4807E00F5105C4A
:102BD00003F58167002242F2604500F5125187ED4E
:102BE000000A06464519CCE900E403F20C4C83F8D0
:102BF0009044CCF8002003F5826CCCF8002003F25E
:102C0000144CCCF8002045E90244C1E9004403F526
:102C1000916103F28C430A6021462A4A1A604FF4FC
:102C2000006212F005FD4FF400622146B01812F068
:102C3000FFFC21464FF4006206F5805012F0F8FCCC
:102C400021464FF4806206F5C05012F0F1FC214697
:102C50004FF4006206F5E05012F0EAFC42F2184030
:102C600021462022301812F0E3FC42F2384021467F
:102C70002022301812F0DCFC284641F6044521469B
:102C800001242022751912F0D3FC07EE904A9FED23
:102C90000E7A9FED0E0A0134F8EEE77A67EE877A36
:102CA00087EE800A11F07CFFB4F5807FF7EE007AA2
:102CB000B6EE007A77EEC07A67EE877AE5EC017AB5
:102CC000E3D1F8BD00007AC4DB0FC94000007F43A8
:102CD00000F5005310B593F8904482B064B9D3F86E
:102CE0000424511C00EB8202C3F8041482ED000A94
:102CF000D3F80024914201D202B010BD01469200E7
:102D000000F50060019312F0D8FC019B0122C3F88A
:102D1000044483F8902402B010BD00BF10B51446DF
:102D200000F5005286B0D2F8000400285FD09FED75
:102D3000446A0023F0EE464AF0EE466AF0EE465A48
:102D4000F1EC017AB0EEE77AE7EEA75AB4EEE67A54
:102D500036EE076AF1EE10FA77FE266A63B111EDDE
:102D6000027AB7EE005A67EE877AF5EEC07AF1EE96
:102D700010FA01D574EE854A01338342E0D107EEA3
:102D8000903A013BB8EEE77A07EE903A85EE870A73
:102D9000B5EE400AF1EE10FA32D4F8EEE77AC6EE5C
:102DA000075A84EEA75AB1EEC06A02F20C4302F54C
:102DB000826084ED006A93ED007AD0ED007A36EE01
:102DC000477AC4ED016A75EEE77A84ED025AC4EDE4
:102DD000065AB0EEC77AF0EEE77A84ED057AC4EDD4
:102DE000077A83ED006AC0ED005A06B010BD9FED72
:102DF000145A85EE050AF0EE456AF0EE405AD2E725
:102E000005928DED036ACDED024ACDED016A8DED9F
:102E1000007A049312F000F8DDED047A9DED036A68
:102E2000F8EEE77A9DED007ADDED024AC6EE075A2C
:102E3000059ADDED016A84EEA75AB0EE406AB4E768
:102E4000000000002DE9F84F00F500559146D5F837
:102E500000742DED0A8B002F00F0908000F5805A51
:102E600000F5E05201EB87045346F1EC017AB2EC35
:102E7000017AA14267EE877AE3EC017AF5D1032F5C
:102E80004FEA57037AD907EE107A05F5816541F6C6
:102E90000408DFED40BAB8EEC7AAD5ED007A804449
:102EA00000F5C050F0EE6BAA0AEB870787EE8ACADE
:102EB00000EB830B0126B0EE6BBA9FED369A5546B8
:102EC0000024F0EE499A07EE904A9FED337AB5EC74
:102ED000018A3444F8EEE77A67EE877AC7EE8A8A89
:102EE000B0EE680A11F05CFEF0EE407AB0EE680ACF
:102EF000E8EE279A11F054FDAF42A8EE409AE2D1D5
:102F000029EE099AD8ED006A07EE906AA9EEA99A0F
:102F1000F8EEE77A67EE8C7AB1EEC97A77EE666AF8
:102F2000A7EE27BA7AEE87AAF5EEC06AF1EE10FA9C
:102F300001DD7BEEA6BAA8EC017AD84506F10106C0
:102F4000BBD1DFED167AF4EEE7AAF1EE10FA12DD4E
:102F50008BEE2A7A89ED037AF1EE047AF4EEE7BA81
:102F6000F1EE10FA01DDF0EE67BAC9ED04BABDEC7E
:102F70000A8BBDE8F88F9FED077AEBE7DFED05BA26
:102F80000023C9ED04BAC9F80C30BDEC0A8BBDE8CA
:102F9000F88F00BF00000000DB0FC94077CC2B3258
:102FA00070B500F5005482B094F8905415B92846D5
:102FB00002B070BD0A46064600F50061CDE9002169
:102FC000FFF7ACFE3046DDE90021FFF73BFFD4F808
:102FD0005834009A591C06EB8303D2F800E04842AB
:102FE00003F50053D2F80CC001F0070100F0070010
:102FF00058BF414203F5836003F58763C0F800E0E2
:10300000C3F800C0C4F85814D4F85C14072905DCD0
:1030100001310029C4F85C1440F3C28042F2184325
:10302000DFED6B7AF318B0EE677A03EB810E9C4606
:10303000BCEC016ADCED076AF44537EE067A77EE00
:10304000A67AF5D106EE901AF8EEE65ADFED606A40
:10305000B0EE666AC7EE254A87EEA55AB3EC017A50
:10306000D3ED077A734537EE647A77EEC57AA7EE2B
:10307000076AE7EEA76AF1D1C6EE254A86EEA55AA1
:1030800004F5806392ED016A9FED527AD3ED007AE8
:1030900004F58163C2ED084AF8EE677AD3ED005A71
:1030A00004F59163B4EEC76A82ED095AC7EEA56ACA
:1030B000D3ED007AD4F88414F1EE10FA76EEA76A14
:1030C000C3ED006A0CDD04F214439FED437AD3EDA7
:1030D000007A76EE677AF4EEC77AF1EE10FA3ADC0F
:1030E000002962DD42F260430020F31803EB810106
:1030F000F3EC017AB7EE007A76EEE77AF4EEC77A6F
:10310000F1EE10FA00D801309942F1D107EE900AA1
:10311000F8EEE77A04F28C439FED307AC2ED0A7A3A
:10312000D3ED007AF4EEC77AF1EE10FA06DD76EE12
:10313000E76AF5EEC06AF1EE10FA3ED54FF07E5325
:10314000D36204F214420023284682ED006A84F818
:10315000903402B070BDDFED227A92ED077AB4EEC2
:10316000E77AF1EE10FABBDDD4F88004431C00F6D8
:10317000181006EB8000C0ED006A584203F0070308
:1031800000F0070058BF43420729C4F880340FDC21
:10319000013104F28C43C4F88414C3ED006A9FE744
:1031A0009FED0B5AF0EE454A6AE7DFED097AB1E789
:1031B00004F28C43C3ED006A94E7F0EE007AF4EE7B
:1031C000E76AF1EE10FA77FEA67AC2ED0B7AB8E75D
:1031D000000000000AD7A33CA69B443C00C079C471
:1031E0006F12033C2DE9F04107460021302212F016
:1031F0001FFA07F1300307F160014FF07E5243F8E8
:10320000042B8B42F9D107F5F07607F1900507F50D
:1032100000780023A5F1300446F8043B12F0B6F81C
:1032200007EE100AFEEE007A9FED1B6AB8EEC77A31
:10323000DFED1A6AE7EE067A67EEA67AE4EC017A29
:10324000AC42EBD1464504F13005E2D107F52076DA
:1032500007F5087507F524770023A5F1200446F843
:10326000043B12F093F807EE100AFEEE007A9FED91
:103270000A6AB8EEC77ADFED096AE7EE067A67EE0A
:10328000A67AE4EC017AAC42EBD1BE4204F120050F
:10329000E2D1BDE8F08100BF00000030CDCCCC3DD4
:1032A00000F070B9F8B5054600F08CF905F1A404FA
:1032B00005F1AC0754F8046F284600F09FF930463A
:1032C00001F026FDBC42F5D1F8BD00BFF8B50546BA
:1032D00000F05CF905F1A40405F1AC0754F8046FA3
:1032E000284600F08BF9304601F012FDBC42F5D1C2
:1032F000F8BD00BF10B50446683001F0E5FC04F1EC
:103300008800BDE8104001F0DFBC00BF10B50446E6
:10331000403001F055FD04F1B00001F093FE04F1DE
:10332000C000BDE8104001F08DBE00BF70B54FF485
:1033300081718AB04FF4C0624FF4E06300F1D806A7
:103340000124ADF80C1000F59675ADF8102030464C
:10335000ADF81C30049A079B0399009401F00AFE13
:103360004FF4807340F201120094ADF810304FF426
:10337000806304AC2846ADF81C30079BADF80C20E8
:10338000DDE9031201F0F6FD2046072105F0A0FB60
:1033900007AB94E8070083E807001946304601F0C0
:1033A00015FE07AB94E8070083E807001946284696
:1033B00001F00CFE304601F01FFE28460AB0BDE8C1
:1033C000704001F019BE00BF2DE9F04340F2024306
:1033D0000225044602222DED028B8BB004F1180762
:1033E0009FED1E8A04F1A406ADF8003001A80099F3
:1033F00001F004FFADF800502A4600990DF11600C7
:1034000001F0FCFE04232A4638460DEB030100259B
:1034100001F006FF04F1680204F18803C4F8A82053
:10342000C4F8AC302946384656F8048F02F0F0F85C
:103430008146204600F0E2F80023F0EE480A4946B3
:103440001A46404601F012FC6B1C0125022BE9D103
:103450000BB0BDEC028BBDE8F08300BF6F12033BE5
:10346000F0B504460D4695B0002700F089F82946CE
:10347000204604F1B00600F079F940F60613304614
:103480009FED3E0AADF8343004F1C0050D9901F00E
:10349000C1FD4FF4007328469FED380AADF8343073
:1034A0000D9901F0B7FD40F60333ADF8247004F137
:1034B0004000ADF8143040F20163099AADF83430A1
:1034C0000D9B05999FED2D0AC4F8D06009AEC4F894
:1034D000D45001AD01F044FC2046FFF727FF204601
:1034E000FFF772FF284601F02BFD01230DF1140EAA
:1034F00004F5C07C0F93129347F612231097139391
:103500000223119395E80F008CE80F008EE80F005E
:1035100086E80F00BDF828300E90ADF83630BDF8C3
:103520002A30D4E9625EADF83430C4E9655EBEF19C
:10353000000F1CD10DA904F5C87004F0D3F904F1F3
:10354000A40504F5D27004F1AC0701F00DFD3021A3
:10355000204600F037F855F8046F204600F04EF88A
:10356000304601F0D5FBAF42F5D115B0F0BD724643
:103570003946284612F05CF8DCE700BF0000000086
:10358000704700BF143001F03FBB00BF30B50546A7
:1035900083B0143001F0F4FA05F1140001F0ECFAF4
:1035A00005F114008DED010A01F0D4FAD0ED007A96
:1035B0009DED010AF8EE677A80EE277A85ED0E7AA6
:1035C00003B030BD30B5054683B0143001F0C6FA03
:1035D00005F1140001F0D0FA05F114008DED010A97
:1035E00001F0B8FAD0ED007A9DED010AF8EE677AA5
:1035F00080EE277A85ED0E7A03B030BD90ED0E0A8D
:10360000704700BF00B540F203308FB000224FF684
:103610000B7340F20341ADF80800009209A8ADF821
:103620001030ADF824300123ADF80C100299079248
:103630000C92CDE90522CDE90A2202F049F80022D8
:1036400004A801230399009202F042F809A802F0AD
:1036500051F910B901200FB000BD04A802F04AF9D9
:1036600080F00100C0B240000FB000BD70B53C4B0F
:103670009CB0012200240321139340F20453054619
:10368000169112941992ADF85030CDE91724FFF736
:10369000B9FF012841D002284FF001022FD1314B50
:1036A00040F601310DAE0094CDF852304FF60B7359
:1036B000ADF8201030460899ADF834302346109408
:1036C000CDE91A42CDE90E4402F002F82146304617
:1036D00002F01CF912A905F13C0003F091F9302029
:1036E00003224FF07E5331460F931093CDE90D0224
:1036F000EA6B05F1140001F0F3F91CB070BD40F65F
:103700000131184B0DAEADF834100D98CDF8523094
:10371000CDE91A4200F0A4F8DCE710221149089024
:103720000DAE8DF83020104ACDF8521008A90A903D
:10373000039009920B940494CDE91A0404A802F0B2
:103740004BFB0821039B3046079105A9049AADF86D
:1037500014308DF8164006930D9400F0BDF8B9E7CB
:1037600004020404040604030704010BF0B53A4BF9
:10377000044685B040F20112A36003F58133374857
:10378000012503F58073ADF80C2040F202726060F1
:10379000E36040F606630020A4F82520A4F8293051
:1037A000271D258284F8275084F82B5002918DF82C
:1037B0000E0004F0CBFC064604F032FB034610BBBF
:1037C0000EB302A904F130008DF80E5004F046FC4F
:1037D000072E38D12046FFF749FF04F1140001F00D
:1037E000CBF904F114008DED010A01F0B3F9D0ED2D
:1037F000007A9DED010AF8EE677A80EE277A84ED73
:103800000E7A05B0F0BD02A904F13000019304F076
:1038100025FC072E019B02D1002BDBD006E03946A8
:103820002046019302F010FD019B8BB104F12500AD
:1038300002F076F804F1290002F072F804F11200A7
:1038400000F066F9C6E73946204602F0FDFCC1E704
:10385000002EEBD0BEE700BF0507050605080509E9
:1038600010B584B00124ADF80C0003A8ADF80E40EB
:1038700002F056F8214603A802F03EF9204604F073
:10388000CDFA002103A802F037F9204604F0C6FA69
:10389000214603A802F030F904B010BDC2F3002C99
:1038A000FA2300B587B04CEA410C017C8DF8152055
:1038B00005AA009302238DF814C002F027FB18B16B
:1038C0000123184607B000BD03900A2004F0A6FAB1
:1038D000039B184607B000BD034630B5044685B0CB
:1038E00043F8042BFA2507C983E80700A1791E23B2
:1038F000009503AA1A31ADF80C3020460223C9B254
:10390000217402F003FB10B1012005B030BD0A2084
:1039100004F084FA4FF4B85200950223ADF80C205D
:10392000204603AA217C02F0F1FA0028ECD10A20FB
:1039300004F074FA41F2027200950223ADF80C20F3
:10394000204603AA217C02F0E1FA0028DCD10A20FB
:1039500004F064FA042200950223ADF80C202046FE
:1039600003AA217C02F0D2FA0028CDD10A2004F06B
:1039700055FA062200950223ADF80C20204603AA32
:10398000217C02F0C3FA0028BED10A2004F046FAD6
:1039900041F2082200950223ADF80C20204603AA2C
:1039A000217C02F0B3FA0028AED10A2004F036FAE6
:1039B0004FF00A0200950223ADF80C20204603AA1E
:1039C000217C02F0A3FA00289ED10A2004F026FAF6
:1039D00023790C220095002B217C8DF80C202046A9
:1039E00014BF622342236A448DF80D30022302F093
:1039F0008DFA002888D10A2004F010FAA3680095F7
:103A00002046E268217C1343627943EA421322791B
:103A100082F0010243EA82130E228DF80D30022358
:103A20008DF80C2003AA02F071FA00287FF46CAF25
:103A30000A2004F0F3F9102200950223ADF80C20BF
:103A4000204603AA217C02F061FA00287FF45CAFD3
:103A50000A2004F0E3F9122100950223ADF80C10BE
:103A600003AA217C204602F051FA00287FF44CAFD3
:103A70000A2004F0D3F901220921204605B0BDE84F
:103A80003040FFF70BBF00BF70B586B000240125A2
:103A9000102602A94FF480521C480194CDE9025629
:103AA000CDE904540BF0BEFF642005F04DF902236C
:103AB00002A94FF48052154802930594CDE903659D
:103AC0000BF0B0FF042302A94FF480520F48039675
:103AD000CDE90434032302930BF0A4FF40F2322318
:103AE000042202A90948019310230495CDE9022379
:103AF000019B4FF4805205930BF094FF40F60601B2
:103B000002480BF0B1FF204606B070BD7CDA002001
:103B100030B51F4B89B00822DFF878C000214FF480
:103B200000641A614FF0020E03920A22C3F804C027
:103B30004FF0200C0692402205469960032019623E
:103B400010215C620124C3E905C24FF4C072DC603D
:103B5000DA6107229FED0C7BCDE900E20422CDE97A
:103B600004016946181D029283ED0A7B0BF030FFB9
:103B700028B9284609B0BDE83040FFF785BF204688
:103B800009B030BDAFF3008000100000000000005D
:103B900078DA0020404100525E4A0023F0B51468F4
:103BA0008FB00A93002C40F0B2805B4B01210326BA
:103BB0000C2511600227D3F8D420584842F48052D3
:103BC000C3F8D420D3F8D42002F480520092009A93
:103BD000D3F8E02042F01002C3F8E020D3F8E02050
:103BE00002F010020192019AD3F8E02042F0400264
:103BF000C3F8E020D3F8E02002F040020292029ADB
:103C0000D3F8E02042F00802C3F8E020D3F8E02027
:103C100002F008020392039AD3F8E02042F4807283
:103C2000C3F8E020D3F8E02002F480720492049AF2
:103C3000D3F8E02042F08002C3F8E020D3F8E0207F
:103C400002F080020592059AD3F8E02042F02002AB
:103C5000C3F8E020D3F8E02002F020020692069A92
:103C6000D3F8E02042F00402C3F8E0204FF683725C
:103C7000D3F8E0300B9603F004030C95079302236E
:103C8000079908A9CDE9082306F048FD48F2371343
:103C900008A9234808930C950997CDE90A4606F030
:103CA0003DFD4CF2037308A91E480893CDE9097441
:103CB000CDE90B6506F032FD40F2FF6308A91A4812
:103CC0000893CDE90974CDE90B6506F027FD4FF6A1
:103CD0000C7308A915480893CDE90974CDE90B6563
:103CE00006F01CFD4FF63F0308A911480893CDE9E3
:103CF0000974CDE90B6506F011FD202308A90B48D6
:103D000009970C950893CDE90A4606F007FD0FB018
:103D1000F0BD00BF74DA00200044025800100258C1
:103D200000180258000C025800200258001C0258CB
:103D3000001402582DE9F04F8BB08346C8480D4659
:103D400000AF144602F05AFFC64BD3E90621002A01
:103D500000F00A82002940F09280D3F80480082104
:103D60004FF002094269B8F1000F00F09280A10003
:103D7000EA46012A01F1070121F00701ADEB010D2F
:103D80006846ADEB010D694600F0F581022A00F0AE
:103D90007382002A40F0E581002C00F0E281D3ED2F
:103DA0000C6A86469FEDB07A0BF1040C5E4636F93C
:103DB00022900EF1080E07EE909A3CF92290023202
:103DC000F8EEE77A944267EE877A67EEA67A4EEDD0
:103DD000027A07EE909AF8EEE77A67EE877A67EE56
:103DE000A67A4EED017AE2D822467962C0479D4B11
:103DF0000022796A93ED0D6A281DDFED9C6A9C4EC6
:103E00009FED9C7ADFED9C5AD1ED007A334666EE49
:103E1000277AF4EEE67AF1EE10FA0CD9F4EEC77ACE
:103E2000F1EE10FA67FE277A67EEA57AFDEEE77AE3
:103E300017EE903A1BB2D1ED017A45F8223066EECA
:103E4000277AF4EEE67AF1EE10FA40F20682F4EE0A
:103E5000C77A0831F1EE10FA67FE277A67EEA57A85
:103E6000FDEEE77A17EE903A1BB240F822300232AC
:103E70009442C9D8D5462C37BD46BDE8F08FD3F85B
:103E8000048010214FF004094269B8F1000F7FF45B
:103E90006EAF1868F8610028EDD07848C7F818D0E0
:103EA000C7E9081202F018FFB9F1020F6D4BF86074
:103EB000D7E9081200F069826846C4F35D0C012A54
:103EC000A0EBC40085464FEA5400EE46B860AEEB66
:103ED000C40085460EEB8C006E46ADEB010DC7E9C4
:103EE00000E006EB8C003E616E46ADEB010D7861A3
:103EF0000EEB8C003146C6F800E0706000EB8C06DB
:103F0000796278698E60396900EB8C0A06EB8C0067
:103F1000C7F820D0009179693861CDE9011A0AEB20
:103F20008C010391796AC86000F03484022A00F0A1
:103F30002F83002A40F01382002C00F09984B9F1FD
:103F4000020F00F09B84601EFE683A610BF1040CC6
:103F50004008DFED456A01304FEA800A586A00EBFD
:103F600086007E6AB268F6687A61021DD7F814800E
:103F7000C7F81490B1465E46AB46D7E900E17A60D7
:103F80003A693C616446D7F804C036F9125093EDA3
:103F90000C6A07EE905A34F91250F8EEE77A67EEA1
:103FA000A67A67EE867AEEEC017A07EE905A30F93F
:103FB0001250F8EEE77A07EE105A3CF9125067EE0D
:103FC000A67AB8EEC77A67EE867A27EE267AE1EC13
:103FD000017A07EE905A27EE067A08EB0205F8EE12
:103FE000E77A85ED007A09EB020567EEA67A93ED94
:103FF0000C7A043267EE877A5245C5ED007AC4D157
:10400000D7F814905D463C69BA68FB69D7E9081097
:104010009847144B3A6AB9F1020F93ED0D7AD2E941
:10402000006100F0798404F1FF3CDB6AFA683446F1
:104030004FEA5C0CDFED0D6A03EB82093B6A0CF181
:10404000010C9FED0C6ADFED0C5A09F1040E4FEAEA
:104050008C0C0022281D064ED3E902839A4675E097
:10406000C8DA0020B0DA00200000003804FF7FBF6B
:104070000280FFFF04FF7F3F00FEFF46CCDA0020F6
:1040800000000034F4EEC67AF1EE10FA66FE277AEC
:1040900067EEA57AFDEEE77A17EE903A1BB2D1ED06
:1040A000007A45F8123067EE277AF4EEE67AF1EE00
:1040B00010FA40F26881F4EEC67AF1EE10FA66FE6C
:1040C000277A67EEA57AFDEEE77A17EE903A1BB2F3
:1040D00040F8123008EB0203D3ED007A67EE277A3E
:1040E000F4EEE67AF1EE10FA40F24B81F4EEC67A85
:1040F000F1EE10FA66FE277A67EEA57AFDEEE77A12
:1041000017EE903A1BB249F812300AEB0203D3EDD6
:10411000007A67EE277AF4EEE67AF1EE10FA40F2D2
:104120002981F4EEC67AF1EE10FA66FE277A67EE80
:10413000A57AFDEEE77A17EE903A1BB24EF81230F0
:104140000432624500F0108104340431D4ED007A69
:1041500067EE277AF4EEE67AF1EE10FA92D833465B
:104160009DE72246C04785E600297FF4F6AD2C374F
:10417000BD46BDE8F08F002CF3D0D3ED0C6A81462C
:104180001FED417A4FF0000E0BF1040C5E4656F81D
:104190002E2009F1080982F40002A2F5000207EEC0
:1041A000902A5CF82E200EF1020EF8EEE77A82F4E7
:1041B00000027445A2F5000267EE877A67EEA67AE0
:1041C00049ED027A07EE902AF8EEE77A67EE877AF1
:1041D00067EEA67A49ED017AD9D822467962C047BE
:1041E000AC4B0022796A93ED0D6A281DDFEDAA6AB7
:1041F000AA4E9FEDAB7AD1ED007A334666EE277A70
:10420000F4EEE67AF1EE10FA0BD9F4EEC77AF1EE9D
:1042100010FA67FE277AF0EE675AFEEEE45A15EEC2
:10422000903AD1ED017A45F8223066EE277AF4EE25
:10423000E67AF1EE10FA18D9F4EEC77A0831F1EE09
:1042400010FA67FE277AFEEEE47A17EE903A40F80D
:10425000223002329442CED80CE640F8226002327C
:10426000083194423FF6D0AD04E640F822600232B5
:1042700008319442BFD8FDE5002C3FF472AFD3ED76
:104280000C6A86469FED897A00220BF1040CE94600
:104290005E4656F822100EF1080E07EE901A5CF8F2
:1042A00022100232F8EEE77A944267EE877A67EEE0
:1042B000A67A4EED027A07EE901AF8EEE77A67EEEC
:1042C000877A67EEA67A4EED017AE2D84946224611
:1042D000C7F82490C0476F4B0022796A93ED0D6AAE
:1042E000281DDFED6D6A6F4E9FED6D7AD1ED007A7E
:1042F000334666EE277AF4EEE67AF1EE10FA0BD941
:10430000F4EEC77AF1EE10FA67FE277AF0EE675AFC
:10431000FEEEE05A15EE903AD1ED017A45F82230E2
:1043200066EE277AF4EEE67AF1EE10FA10D9F4EEA2
:10433000C77A0831F1EE10FA67FE277AFEEEE07ACE
:1043400017EE903A40F822300232A242CED391E5E5
:1043500040F82260023208319442C7D88AE5BA6830
:10436000FB69D7E908109847D7F818D02C37BD4615
:10437000BDE8F08F4EF81260043262457FF4E4AE7F
:10438000F2E73346BFE63346A2E6A000012A4FEA31
:10439000540E00F1070020F0070CADEB0C0D684641
:1043A000ADEB0C0DC7F808E0EC4600EB8E06ADEB6C
:1043B000010DC7E90006C7F824D06E46ADEB010D2C
:1043C00031463060CDF800C000EB8E060CEB8E0C51
:1043D000C7F820D04E60CDF804C07FF4A7AD002C04
:1043E00000F04682D3ED0C6A024679680BF1040CAA
:1043F0009FED2D7A5E4656F8280080F40000A0F567
:10440000000007EE900A5CF8280008F10208F8EEB8
:10441000E77A80F400004445A0F5000067EE877A53
:1044200067EEA67AE2EC017A07EE900AF8EEE77AF8
:1044300067EE877A67EEA67AE1EC017ADBD87246FE
:10444000FB69D7E908109847124B396AB9F1020F96
:1044500093ED0D7AD1E9002100F0F98204F1FF3CDF
:10446000DB6AF86814464FEA5C0CDFED0B6A03EB7D
:1044700080093B6A0CF1010C9FED096A09F1040EF9
:10448000281D4FEA8C0C054ED3E902839A4600237F
:1044900069E000BFB0DA002004FF7FBF7E0080FF2C
:1044A00004FF7F3F007E00800000003400000030E9
:1044B000F4EEC67AF1EE10FA66FE277AF0EE675A4D
:1044C000FEEEE45A15EE902AD1ED007A45F813205D
:1044D00067EE277AF4EEE67AF1EE10FA56D9F4EEAA
:1044E000C67AF1EE10FA66FE277AF0EE675AFEEE13
:1044F000E45A15EE902A40F8132008EB0302D2ED9F
:10450000007A67EE277AF4EEE67AF1EE10FA3BD9FC
:10451000F4EEC67AF1EE10FA66FE277AF0EE675AEC
:10452000FEEEE45A15EE902A49F813200AEB030236
:10453000D2ED007A67EE277AF4EEE67AF1EE10FA21
:104540001CD9F4EEC67AF1EE10FA66FE277AFEEE7A
:10455000E47A17EE902A4EF81320043363453FF4B3
:1045600003AF04340431D4ED007A67EE277AF4EE19
:10457000E67AF1EE10FA9BD83246A5E74EF81360C2
:1045800004336345EDD1EFE63246CDE73246B2E77C
:10459000002C00F06D81B9F1020F00F09581621ED0
:1045A000FE680BF1040C38685208C7F800905FED04
:1045B000416A01324FEA820A5A6A02EB86087A6A35
:1045C00008F10401D2E9026239617A61B646D7F88E
:1045D00014905E467C61002264467968AB46D7F849
:1045E00010C056F8125093ED0C6A07EE905A54F82A
:1045F0001250F8EEE77A67EEA67A67EE867AE0EC7C
:10460000017A07EE905A58F81250F8EEE77A67EE02
:10461000A67A67EE867AE1EC017A07EE905A5CF8AA
:104620001250B8EEE77A07EE905A0EEB020527EE2D
:10463000267AF8EEE77A27EE067A67EEA67A85ED17
:10464000007A09EB020593ED0C7A043267EE877A63
:104650009245C5ED007AC4D1D7F800905D467C69DB
:10466000BA68FB69D7E908109847CF4B396AB9F1A6
:10467000020F93ED0D7AD1E9002100F0A78104F13A
:10468000FF3CDB6AF86814464FEA5C0CDFEDCD6A4C
:1046900003EB80093B6A0CF1010C9FEDCB6A09F139
:1046A000040E281D4FEA8C0CC04ED3E902839A46B3
:1046B00000235AE0F4EEC67AF1EE10FA66FE277A8D
:1046C000F0EE675AFEEEE05A15EE902AD1ED007A30
:1046D00045F8132067EE277AF4EEE67AF1EE10FA49
:1046E00056D9F4EEC67AF1EE10FA66FE277AF0EEAD
:1046F000675AFEEEE05A15EE902A40F8132008EBB8
:104700000302D2ED007A67EE277AF4EEE67AF1EE54
:1047100010FA3BD9F4EEC67AF1EE10FA66FE277A6B
:10472000F0EE675AFEEEE05A15EE902A49F8132093
:104730000AEB0302D2ED007A67EE277AF4EEE67A0E
:10474000F1EE10FA1CD9F4EEC67AF1EE10FA66FE1C
:10475000277AFEEEE07A17EE902A4EF81320043303
:1047600063453FF401AE04340431D4ED007A67EEC2
:10477000277AF4EEE67AF1EE10FA9BD83246A5E7F6
:104780004EF8136004336345EDD1EDE53246CDE7D5
:104790003246B2E7002C6BD0611EF868F246424602
:1047A00049080BF1040CC7F800900131DFED806A75
:1047B000D7F8109089007961596A01EB800E304674
:1047C0005E46AB460EF104085546A2467C6856F894
:1047D000121093ED0C6A81F40001A1F5000107EEBF
:1047E000901A5CF81210F8EEE77A81F40001A1F556
:1047F000000167EEA67A67EE867AE5EC017A07EEAD
:10480000901A5EF81210F8EEE77A81F4000167EE74
:10481000A67AA1F5000167EE867AE4EC017A07EE4C
:10482000901A58F81210B8EEE77A81F40001A1F559
:10483000000127EE267A07EE901A811827EE067AF5
:10484000F8EEE77A81ED007A09EB020167EEA67ACD
:1048500093ED0C7A043267EE877AC1ED007A7969BC
:104860009142B4D1D7F800905D465446BA68E7E566
:104870002246FB69D7E90810984775E5D3ED0C6A25
:104880000BF1040C9FED4B7A5E46D7E9000136F937
:1048900022E007EE90EA3CF922E00232F8EEE77AF5
:1048A000944267EE877A67EEA67AE0EC017A07EE2B
:1048B00090EAF8EEE77A67EE877A67EEA67AE1EC9F
:1048C000017AE4D8FFF7A0BBD3ED0C6A00229FED7C
:1048D0003A7A0BF1040C5E46AE46D7E9000156F871
:1048E000225007EE905A5CF822500232F8EEE77A36
:1048F000944267EE877A67EEA67AE0EC017A07EEDB
:10490000905AF8EEE77A67EE877A67EEA67AE1ECDE
:10491000017AE4D87546A3E60022DFED2A6A9FED0E
:104920002A6A281DDFED255ADFF894C0D6ED007AFB
:10493000634667EE277AF4EEE67AF1EE10FA0CD9C8
:10494000F4EEC67AF1EE10FA66FE277A67EEA57AE3
:10495000FDEEE77A17EE903A1BB2D1ED007A0436FD
:10496000043145F8223067EE277AF4EEE67AF1EE6C
:1049700010FA12D9F4EEC67AF1EE10FA66FE277A32
:1049800067EEA57AFDEEE77A17EE903A1BB240F893
:10499000223002329442C9D8E6E440F822C0023202
:1049A0009442C3D8E0E400BFB0DA0020007E00806B
:1049B00000000034000000380000003000FEFF4618
:1049C0000280FFFF04FF7FBF04FF7F3F00235FEDF6
:1049D000036A1FED036A281DDFF8FCC0D2ED007AE0
:1049E000664667EE277AF4EEE67AF1EE10FA0BD916
:1049F000F4EEC67AF1EE10FA66FE277AF0EE675A08
:104A0000FEEEE05A15EE906AD1ED007A04320431E0
:104A100045F8236067EE277AF4EEE67AF1EE10FAB5
:104A20000FD9F4EEC67AF1EE10FA66FE277AFEEEA2
:104A3000E07A17EE906A40F8236002339C42CDD8AA
:104A400092E440F823C002339C42C7D88CE4002390
:104A5000DFED1F6A9FED1F6A281DDFF880C0D2EDD1
:104A6000007A664667EE277AF4EEE67AF1EE10FAFF
:104A70000BD9F4EEC67AF1EE10FA66FE277AF0EE64
:104A8000675AFEEEE45A15EE906AD1ED007A0432D0
:104A9000043145F8236067EE277AF4EEE67AF1EE0A
:104AA00010FA0FD9F4EEC67AF1EE10FA66FE277A04
:104AB000FEEEE47A17EE906A40F8236002339C42DF
:104AC000CDD851E440F823C002339C42C7D84BE410
:104AD00004FF7FBF04FF7F3F007E00807E0080FFD9
:104AE00010B5194C84B09646046004F1080C0FC947
:104AF0008CE80F00D4ED047AF5EEC07A8DE80F0053
:104B0000F1EE10FA1CDDB7EE006A94ED057A27EE9F
:104B1000277AC6EE276A84ED0D7AC4ED0C6ABEF1E1
:104B2000000F0DD0204640F818EF02F067F8074953
:104B300003690020064A2162A262E36004B010BD4E
:104B4000012004B010BD00BFB0DA0020002000300A
:104B50000000003000680830704700BFB1F5807F6A
:104B600003680A4628BF4FF48072B1F5807F9A60CF
:104B700094BF0020012070470068183002F09AB8F6
:104B800070B504688AB0A369E160D3B104F118007C
:104B900002F034F8E2688446EE461546BCE80F00A1
:104BA000AEE80F00BCE80F00AEE80F009CE8030081
:104BB0008EE80300694604F11800049501F020FF17
:104BC000F0B9E369CBB104F11C05284602F016F8F0
:104BD0008446EE46E468BCE80F00AEE80F00BCE88F
:104BE0000F00AEE80F009CE803008EE80300694662
:104BF0002846049401F004FF10B900200AB070BDEB
:104C000001200AB070BD00BF30B5046883B00D4606
:104C1000E3694BB1A3680020E26A616A9B000090DF
:104C200004F11C0001F0ECFFA3680748A26A9B0096
:104C3000216A009004F1180001F0E2FF0020C4E9AD
:104C4000005003B030BD00BF353D0024064B30207E
:104C500003214FF07E52C3E90201002000211A61B6
:104C60005A61C3E906017047B0DA0020F6EE006A27
:104C70009FED146A20EE207A80ED020AF7EE007AAA
:104C800080ED036A016027EE267AC7EE876AF4EEAC
:104C9000E76AF1EE10FA05DCB4EEE66AF1EE10FA1E
:104CA00076FE267A4FF07E514FF0000C02760022FD
:104CB000C0ED017AC0F814C0016143768276C0ED80
:104CC000070A7047000000000268037E128807EEA2
:104CD000902AFBEEC87A1BB1B7EE007A77EE677ABE
:104CE000D0ED056A90ED047A77EEE67A437E67EEC2
:104CF000877A0BB1F1EE677A90ED030A90ED017AB5
:104D000077EEC07AA7EE270A80ED030A704700BF4E
:104D1000837E80ED020ADBB9D0ED077A27EE800AA8
:104D2000B6EE007AF7EE007A20EE070A87EE807A78
:104D3000B4EEE77AF1EE10FA07DCDFED077AF4EE75
:104D4000C77AF1EE10FA77FE877AC0ED017A7047E4
:104D5000DFED027AE2E700BF000000006F12033BC4
:104D600030B585B004460025ADF80C10ADF808202C
:104D7000ADF8043003F050F8BDF80C204FF4807308
:104D8000206004F118002283BDF808206383E383C8
:104D9000A283257100F0C4FD04F11C0000F0C0FDE9
:104DA0009FED060A019904F1080000F033F94FF66F
:104DB000FF736562238405B030BD00BF00000000B2
:104DC00030B5044683B003F027F80023226823712E
:104DD000824206D104F1080003B0BDE8304000F083
:104DE00031B9012194F82020206004F118002171CC
:104DF000019200F073FE019A94F8215040EA4202B9
:104E000004F11C0084F8202000F068FE002340EA32
:104E100045000121636294F8203084F8210000F0FD
:104E2000030003F00303022B07D00228D2D1002B8A
:104E3000D0D14FF0FF336362CCE70028CAD1616262
:104E4000C8E700BF0FB470B582B02B4E2B4D06AB38
:104E5000306853F8042BC0F180012844019310F00E
:104E6000A1FB3368C01840D02A1801E0013820D0D7
:104E700012F8013D0A2BF9D00D2BF7D0841C7F2CA2
:104E800018D9802342F224421C46A5F87E201C4DEE
:104E900033602B68012B18D922461849194800F0B5
:104EA00091F90028F8D1306002B0BDE8704004B03C
:104EB000704702240D230A222B54054423466A70AE
:104EC0000F4D33602B68012BE6D822460B490D4865
:104ED00000F078F90028E7D12B68306001332B60AF
:104EE00002B0BDE8704004B070470D210A220223D1
:104EF00029701C466A70CAE7F0DA0020F4DA002054
:104F0000ECDA0020E8DA002010B504460021084859
:104F100000F0CEF8074A630007481360FFF792FFDE
:104F20000648FFF78FFF0A20BDE8104002F076BF69
:104F3000E8DA0020ECDA0020106E0124206E012453
:104F4000074B0021074AB3F800C082609A884FF4EB
:104F50008073A0F804C00160C280C360704700BFC6
:104F60001C6A01240040003000220A2302700371F1
:104F7000704700BF30B52DED028B85B09FED128AD2
:104F800005469DF82840B0EE480AADF80C1003998C
:104F9000ADF808202246ADF804300DF0EDFBB0EE80
:104FA000480A2246029905F11C000DF0E5FBB0EE1F
:104FB000480A2246019905F1380005B0BDEC028B84
:104FC000BDE830400DF0D8BB00007A4438B50C463F
:104FD000054691ED000A0DF0F3FB94ED010A05F191
:104FE0001C000DF0EDFB94ED020A05F13800BDE860
:104FF00038400DF0E5BB00BF10B504460DF0F2FBE4
:1050000004F11C000DF0EEFB04F13800BDE8104087
:105010000DF0E8BB30B5044683B00D0A009102F0F4
:10502000FBFE4FF4807200994FF001232060A01D19
:10503000A171A280E571A36003B0BDE8304000F02B
:105040006FBC00BF10B5044682B002F0E5FE00223E
:1050500023682271834210D00121A37AE27A206072
:10506000A01D2171019352B900F038FD019B40EA67
:105070004300C0B27F28A0720DD002B010BD00F076
:105080002DFDB0FA80F0019B400940EA4300C0B218
:105090007F28A072F1D102F0BFFE07EE900AF8EE71
:1050A000677AC4ED037A02B010BD00BF704700BF3D
:1050B000012908B519D0022910D019B1BDE808405E
:1050C00007F08EBC364B0A46DFF8F4C03549364847
:1050D000C3F800C00CF07EFED0B1FEE701223349D8
:1050E00033480CF077FE68B1FEE70A4630482F4996
:1050F0000CF070FE00B1FEE72E492D480CF08CFE3E
:10510000C0B1FEE72B492A480CF086FE60B1FEE7ED
:10511000284925480CF080FE00B1FEE726492248C8
:105120000CF00AFE18B3FEE7244921480CF004FEF7
:1051300060B1FEE721491E480CF0FEFD00B1FEE71C
:105140001B480CF081FE0028B8D0FEE718480CF090
:105150007BFE024650B9124BDFF864C01149124879
:10516000C3F800C00CF036FE38B1FEE7FEE70E488B
:105170000CF06AFE0028A1D0FEE70E490A480CF0A8
:105180004BFE00B1FEE70C4907480CF0D5FD00B11D
:10519000FEE705480CF058FE00288FD0FEE700BF60
:1051A00074DB00205C0300207CDB00202C0300204B
:1051B00018DE0020B4040020E8020020D8020020FD
:1051C000AD500024084691B208B503F0A7F80038A6
:1051D00018BF012008BD00BF014806F027BE00BF70
:1051E000201F0120014806F021BE00BF201F012022
:1051F000014806F01BBE00BF201F012000B583B090
:105200004FF0000E4FF0030C4274ADF80410BDF8DF
:10521000043080F810E0A0F802C0038003B000BDA5
:105220002DE9F04F4FF00008DFF8F4928FB0B74C43
:1052300003700646B64B174642600D462022414693
:105240004846C4F86831C4F86491CDE90388CDE9D3
:105250000588CDE90788CDE90988CDE90B8810F0EC
:10526000E7F92022414604F5A170C4F83181C4F861
:105270003581C4F83981C4F83D8110F0D9F984F83A
:105280003071736884F84882002B00F084814346B3
:10529000484604F5987E05F1100AC446019708E0D7
:1052A0004FF00101624503F1120384F8481264D9FA
:1052B0000230E91855F803B0E2180CF1010CCF6880
:1052C000D1F80490D1F8088044F803B0D7604FF0CB
:1052D0000007C2F80490C2F80880098A078011828A
:1052E0001AF803100EF8011F72680029D8D1624520
:1052F00003F11203DCD8019F94F84832FFB2002B6F
:105300003ED10121032332780020C4F898310023D4
:1053100084F88111C4F874317E4984F8803184F8AE
:105320008831C4F88471C4E967334FF48023C4E939
:105330005B1308210123C4E95E310021C4E9640143
:105340009AB100200121013A84F8A431C4E96C012A
:10535000082A0CD8DFE812F0FE00F900F400EF0094
:10536000EA00D500CF00C800C10084F8A4216A4833
:1053700003F0BEFF30B1FFBEFEE7019F0021FFB288
:105380000123C0E7039003A9634804F0E3F8002871
:1053900040F0A180042340F2FF720B90CDE9092375
:1053A00094F83031002B4BD0DFF878818146DFF85C
:1053B00078A14FF0070BA8F58E756B7B072B07D8EC
:1053C000DFE803F08386807A777D4104CDF820B052
:1053D000281F00F0A5FA2B7B042B3CDC022B00F3EA
:1053E000D28000F0CC80002388F8003015F8043C0F
:1053F000002B42D0022B00F0B280012B07D115F810
:10540000033C012B00F0CB80002B00F0D680002362
:10541000069306A9DAF800303F48079303F0ACFC86
:10542000002840F0C08009F1010994F830210AF108
:10543000040A08F101085FFA89F312359A42BCD8D0
:105440000FB0BDE8F08F0623281F089300F068FA1C
:105450002B7B042BC2DD032388F800302F46002667
:105460003846013600F05CFA98F800300437B34251
:10547000F6DC15F8043C002BBCD115F8032C062AE9
:1054800000F08580072A00F09480022A00F09780BF
:10549000032A00F09680002A00F09580012A00F08F
:1054A0009480042A00F09380052A1C4A08BF134602
:1054B000AEE7042308938BE70323089388E70523CB
:1054C000089385E70223089382E7002308937FE788
:1054D000012308937CE7FFBEFEE740F2FF324FF462
:1054E000A073C4E96A2342E740F2FF124FF49073BD
:1054F000C4E96A233BE7FF224FF48073C4E96A23BF
:1055000035E77F22E023C4E96A2330E7B8E00020D2
:10551000404100300020024024E200200000B84F4B
:1055200000410030D8E10020486F01243F22C02311
:10553000C4E96A231BE71F22A023C4E96A2316E7F4
:105540000F228023C4E96A2311E707226023C4E9FC
:105550006A230CE703224023C4E96A2307E715F80E
:10556000033C042B15D0052B1BD0F3B1012B1ED00F
:10557000022B20D0032B7FF44AAF164B48E70123C0
:1055800088F800306AE7022388F8003066E7124B9B
:105590003EE7124B3CE7FFB201210323B3E6104B79
:1055A00036E7104B34E7FFBEFEE70F4B30E70F4BFB
:1055B0002EE70F4B2CE70F4B2AE70F4B28E70F4B3B
:1055C00026E70F4B24E70F4B22E70F4B20E70F4B4B
:1055D0001EE700BF002090360800900C1000C0109D
:1055E0002000F014000180210004002A0008302E61
:1055F0008000501D001060320002B0250040C03A0B
:105600000080F03E00002143000052470000844B20
:10561000044BD3F8643103EB41000F2988BF1846CF
:10562000704700BFB8E00020224B02689A4200D0C9
:105630007047214A0021214BD2F8D800DFF880C002
:1056400040F0200000B583B0C3F8D0C14FF0090C82
:10565000C3E975C1C2F8D8004FF4806CD2F8D80005
:1056600093F8482200F0200082F00102019003F537
:10567000E8701202C3E9771CC3F8EC214FF4006C08
:10568000019A4FF40052C3F8E4C1C3F8E821C3E91A
:105690007C1104F08BF9094B08B1FFBEFEE703F55E
:1056A000B67203F5E871C3F80822C3F8B81103B065
:1056B00000BD00BF0020024000440258B8E00020B6
:1056C00040000240014804F0C7BC00BF88E200204F
:1056D00000B593B00180ADF80410C9B2DDF850C038
:1056E0000B29C0F80CC0C0E901233FD090F801E0BD
:1056F000BEF10F0F3AD8022A3CD0032A04D0A2F1FF
:105700000102B2FA82F25209012B0E9205D0A3F1E6
:105710000203B3FA83F35B095B00BCF1020F0F9342
:1057200026D0BCF1030F23D0ACF10103B3FA83F30D
:105730005B090A2910930ED8624B4A1E03EB8123A2
:105740000361092A00F2AE80DFE802F09D8E7F70CF
:1057500061524334251600231A46036101230DA923
:10576000104603FA0EF30D9304F0D8FF13B000BDFA
:105770006346DEE71122C7E7534B544AD3F8E010E3
:1057800041F48061C3F8E010D3F8E03003F48063A3
:105790000C930C9BE2E74C4B4D4AD3F8E01041F4DC
:1057A0000071C3F8E010D3F8E03003F400730B93FA
:1057B0000B9BD3E7444B474AD3F8E01041F4807188
:1057C000C3F8E010D3F8E03003F480730A930A9B27
:1057D000C4E73D4B404AD3F8E01041F08001C3F8E4
:1057E000E010D3F8E03003F080030993099BB5E79C
:1057F000354B3A4AD3F8E01041F04001C3F8E010CD
:10580000D3F8E03003F040030893089BA6E72E4B43
:10581000334AD3F8E01041F02001C3F8E010D3F888
:10582000E03003F020030793079B97E7264B2D4AB0
:10583000D3F8E01041F01001C3F8E010D3F8E030E5
:1058400003F010030693069B88E71F4B264AD3F804
:10585000E01041F00801C3F8E010D3F8E03003F0A5
:1058600008030593059B79E7174B204AD3F8E0100E
:1058700041F00401C3F8E010D3F8E03003F0040372
:105880000493049B6AE7104B194AD3F8E01041F0E7
:105890000201C3F8E010D3F8E03003F002030393F1
:1058A000039B5BE7084B074AD3F8E01041F0010186
:1058B000C3F8E010D3F8E03003F001030293029B39
:1058C0004CE700BF0000025800440258002802586C
:1058D0000024025800200258001C025800180258E8
:1058E0000014025800100258000C02580008025818
:1058F0000004025808B5012143780069994089B233
:1059000005F022FA003818BF012008BD90F801C048
:1059100001230A46006903FA0CF189B205F01ABAAC
:105920008378022B30B504468FB039D0032B00F0BA
:10593000D180A3F10102B2FA82F25209E3780A920D
:10594000012B05D0A3F10203B3FA83F35B095B00DB
:1059500000222046CDE90B3203F0CAF80546204666
:1059600003F0CEF823780990082B13D8DFE803F072
:105970002D405366798C9F051A00574BD3F8E020D1
:1059800042F08002C3F8E020D3F8E03003F0800357
:105990000793079B09A9284604F0C0FE0FB030BD4D
:1059A0001122CBE74C4B09A92846D3F8E02042F45A
:1059B0008072C3F8E020D3F8E03003F480730893DA
:1059C000089B04F0ABFE0FB030BD434B09A928463D
:1059D000D3F8E02042F00102C3F8E020D3F8E03031
:1059E00003F001030093009B04F098FE0FB030BD5C
:1059F000394B09A92846D3F8E02042F00202C3F847
:105A0000E020D3F8E03003F002030193019B04F09F
:105A100085FE0FB030BD304B09A92846D3F8E020F1
:105A200042F00402C3F8E020D3F8E03003F00403AE
:105A30000293029B04F072FE0FB030BD264B09A901
:105A40002846D3F8E02042F00802C3F8E020D3F85B
:105A5000E03003F008030393039B04F05FFE0FB0F4
:105A600030BD1D4B09A92846D3F8E02042F01002B2
:105A7000C3F8E020D3F8E03003F010030493049B54
:105A800004F04CFE0FB030BD134B09A92846D3F8E3
:105A9000E02042F02002C3F8E020D3F8E03003F029
:105AA00020030593059B04F039FE0FB030BD0A4B6F
:105AB00009A92846D3F8E02042F04002C3F8E020CC
:105AC000D3F8E03003F040030693069B04F026FE73
:105AD0000FB030BD1A4631E70044025838B50546CC
