:020000042400D6
:10000000000002204916002445160024E165002462
:100010004516002445160024451600240000000063
:100020000000000000000000000000004516002451
:1000300045160024000000004516002465650024D4
:1000400045160024451600244516002445160024B4
:1000500045160024451600244516002445160024A4
:100060004516002445160024451600248D51002411
:1000700099510024513E0024A5510024B15100247F
:10008000D95F002419460024451600244516002493
:100090004516002445160024451600244516002464
:1000A0004516002445160024451600244516002454
:1000B000012301240D23012419230124594600247E
:1000C000451600246546002445160024911B012492
:1000D0009D1B0124E95D0024195E0024515E00246B
:1000E0004516002445160024000000004516002493
:1000F0004516002445160024451600244516002404
:10010000451600244516002425230124A91B01249B
:10011000895E0024C15E0024451600244516002493
:100120004516002445160024CD1B01240D1C012476
:1001300019600024451600244516002445160024A5
:1001400000000000000000000000000000000000AF
:10015000451600244516002445160024F95E0024A7
:100160007146002445160024756500249965002415
:1001700045160024BD6500244516002445160024BC
:100180004516002445160024315F0024695F0024D1
:10019000B51B0124C11B012445160024451600246B
:1001A0004516002445160024451600244516002453
:1001B000DD4D002445160024451600244516002474
:1001C00045160024451600243D39002449390024F1
:1001D00045160024553900244516002445160024F0
:1001E0004516002445160024451600244516002413
:1001F0004516002445160024451600244516002403
:1002000045160024451600244516002445160024F2
:1002100045160024451600244516002445160024E2
:100220004516002445160024451600240000000051
:100230004516002445160024000000004516002441
:1002400045160024451600244516002445160024B2
:1002500045160024451600244516002445160024A2
:100260004516002445160024451600244516002492
:100270004516002445160024A15F0024000000005C
:1002800045160024451600244516002400000000F1
:080290000000000045160024E7
:1002A0004B1C012B98BF70472DE9F003911C9B0854
:1002B000B1F80480B1F802900A8831F802CC804489
:1002C000814402448444D9F80070D8F8006015686D
:1002D000DCF80040C9F80060C8F80070CCF80050A5
:1002E0001460D9F80470D8F804605568DCF804404C
:1002F000C9F80460C8F80470CCF8045054600831A0
:10030000013BD5D1BDE8F00370474B1C012B98BFD2
:1003100070472DE9F003911C9B08B1F80480B1F8F7
:1003200002900A8831F802CC00EB580800EB59091A
:1003300000EB520200EB5C0CD9F80070D8F80060BA
:100340001568DCF80040C9F80060C8F80070CCF807
:10035000005014600831013BDFD1BDE8F003704765
:10036000034613F8012B002AFBD1181A01387047F5
:1003700001F0FF01102A2BDB10F0070F08D010F856
:10038000013B013A8B422DD010F0070F42B3F6D15A
:10039000F0B441EA012141EA014122F007047FF073
:1003A00000070023F0E80256083C85EA010586EACA
:1003B000010685FA47F5A3FA87F586FA47F6A5FA06
:1003C00087F68EB9EED1F0BC01F0FF0102F0070212
:1003D00032B110F8013B013A83EA010313B1F8D1BD
:1003E0000020704701387047002D06BF354603389E
:1003F000073815F0010F07D1013015F4807F02BFD7
:10040000013015F4C03F0130F0BC0138704700BF27
:1004100081F0004102E000BF83F0004330B54FEAB5
:1004200041044FEA430594EA050F08BF90EA020F22
:100430001FBF54EA000C55EA020C7FEA645C7FEAB5
:10044000655C00F0E2804FEA5454D4EB5555B8BFD8
:100450006D420CDD2C4480EA020281EA030382EA49
:10046000000083EA010180EA020281EA0303362DDB
:1004700088BF30BD11F0004F4FEA01314FF4801CAE
:100480004CEA113102D0404261EB410113F0004FC0
:100490004FEA03334CEA133302D0524263EB430377
:1004A00094EA050F00F0A780A4F10104D5F1200E15
:1004B0000DDB02FA0EFC22FA05F2801841F1000170
:1004C00003FA0EF2801843FA05F359410EE0A5F144
:1004D00020050EF1200E012A03FA0EFC28BF4CF075
:1004E000020C43FA05F3C01851EBE37101F000452B
:1004F00007D54FF0000EDCF1000C7EEB00006EEB38
:100500000101B1F5801F1BD3B1F5001F0CD34908C1
:100510005FEA30004FEA3C0C04F101044FEA445218
:1005200012F5800F80F09A80BCF1004F08BF5FEA9F
:10053000500C50F1000041EB045141EA050130BD7F
:100540005FEA4C0C404141EB0101013C28BFB1F591
:10055000801FE9D291F0000F04BF01460020B1FADC
:1005600081F308BF2033A3F10B03B3F120020CDAAF
:100570000C3208DD02F1140CC2F10C0201FA0CF08D
:1005800021FA02F10CE002F11402D8BFC2F1200CF2
:1005900001FA02F120FA0CFCDCBF41EA0C019040A8
:1005A000E41AA2BF01EB0451294330BD6FEA0404F1
:1005B0001F3C1CDA0C340EDC04F11404C4F12002DC
:1005C00020FA04F001FA02F340EA030021FA04F3EE
:1005D00045EA030130BDC4F10C04C4F1200220FA45
:1005E00002F001FA04F340EA0300294630BD21FA83
:1005F00004F0294630BD94F0000F83F4801306BF49
:1006000081F480110134013D4EE77FEA645C18BF3C
:100610007FEA655C29D094EA050F08BF90EA020FD3
:1006200005D054EA000C04BF1946104630BD91EACB
:10063000030F1EBF0021002030BD5FEA545C05D1CE
:100640004000494128BF41F0004130BD14F580040D
:100650003CBF01F5801130BD01F0004545F0FE4181
:1006600041F470014FF0000030BD7FEA645C1ABFB6
:10067000194610467FEA655C1CBF0B46024650EAED
:10068000013406BF52EA033591EA030F41F4002119
:1006900030BD00BF90F0000F04BF0021704730B59F
:1006A0004FF4806404F132044FF000054FF0000174
:1006B00050E700BF90F0000F04BF0021704730B535
:1006C0004FF4806404F1320410F0004548BF40420A
:1006D0004FF000013EE700BF42004FEAE2014FEA5F
:1006E00031014FEA02701FBF12F07F4393F07F4F3A
:1006F00081F06051704732F07F4208BF704793F03D
:100700007F4F04BF41F40021704730B54FF460744F
:1007100001F0004521F000411CE700BF50EA010252
:1007200008BF704730B54FF000050AE050EA0102FB
:1007300008BF704730B511F0004502D5404261EB6B
:1007400041014FF4806404F132045FEA915C3FF4AC
:10075000D8AE4FF003025FEADC0C18BF03325FEA49
:10076000DC0C18BF033202EBDC02C2F1200300FAFA
:1007700003FC20FA02F001FA03FE40EA0E0021FA1F
:1007800002F11444BDE600BF53B94AB9002908BFBD
:1007900000281CBF4FF0FF314FF0FF3000F00CB8C5
:1007A000ADF1080C6DE904CE14F0D6F9DDF804E0E3
:1007B000DDE9022304B07047704700BF0348044BD3
:1007C000834202D0034B03B1184770470406002050
:1007D00004060020000000000548064B1B1AD90F34
:1007E00001EBA301491002D0034B03B11847704736
:1007F00004060020040600200000000010B5064C8E
:10080000237843B9FFF7DAFF044B13B10448AFF381
:1008100000800123237010BD0806002000000000A6
:100820002440022408B5054B1BB105490548AFF328
:100830000080BDE80840FFF7CFBF00BF0000000008
:100840000C06002024400224D1ED017AF0EE006A6B
:1008500091ED006AB6EE004A77EEA77AB0F800C0D4
:10086000436902F110000CF1FF3CB0EE677A1033DF
:10087000D6EE267AA6EE267A67EE847A27EE047AFA
:10088000C2ED017A82ED007A01F1100201EBCC0198
:10089000083912ED027A0830D1ED036ABCF1010C7F
:1008A000D1ED027A03F1080352ED014AA1F10801EA
:1008B00037EEC75A13ED046A77EE877A53ED035A81
:1008C00034EEE67A02F1080276EEA46AE6EE057AE4
:1008D000A5EE857AE5EEA67AA6EE667A67EE847ACC
:1008E00027EE047A40ED047A00ED037AD1D1704707
:1008F000D1ED007AB6EE004AD1ED016AB0F800C041
:1009000037EEA67A436977EEE67ABCF1010C27EE62
:10091000047A67EE847A82ED007AC2ED017A34D0EF
:1009200001F1100001EBCC0110331032083910ED49
:10093000027A0832D1ED036ABCF1010CD1ED027AE2
:1009400003F1080350ED014AA1F1080137EE675A9F
:1009500013ED046A77EE877A53ED035A34EEE67AA4
:1009600000F1080076EEA46AE6EE457AA5EE857AF7
:10097000E5EEE67AA6EE667A67EE847A27EE047AEA
:1009800042ED047A02ED037AD1D170472DE9F041AE
:100990001D46038A044616465B0803804DB1FFF7E7
:1009A000A7FF2A46314620460123BDE8F04100F06A
:1009B0004FBB0F462A46012300F04AFB3246394618
:1009C0002046BDE8F041FFF73FBF00BF4B08018262
:1009D000B3F5806F038011D0B3F5006F0BD14FF4E6
:1009E0006E6C0C490C4A0D4BA0F80CC04361C0E979
:1009F0000121002070474FF0FF3070474FF4E16C49
:100A00000749084A084BA0F80CC04361C0E901211E
:100A10000020704738AF012408DB0124384F01243F
:100A2000F8CC0124081B0224388F012403882DE907
:100A3000F0410F4601EB8305D9080446D0F8048045
:100A40004FEA53062DED088B00F0AA8007F1100342
:100A500007EB860E05EB860C08F1100003EB011185
:100A60000EF1100E0CF1100C05F1100252ED042ADB
:100A70000CF1100C12ED033A103052ED023A103224
:100A80001CED082A10335CED075A0EF1100E12ED22
:100A9000054A5CED067A5CED056A13ED081A53ED24
:100AA000071A13ED066A71EE22BA13ED057A31EEDC
:100AB00083BA5EED084A76EE23AA1EED075A37EE9A
:100AC00004AA5EED060A74EE829A1EED050A35EE62
:100AD000259A70EEA78A43ED08BA30EE268A03ED18
:100AE00007BA31EE621A43ED06AA71EEC31A03ED9E
:100AF00005AA32EE642A4EED089A0EED079A75EEBD
:100B0000C55A4EED068A37EE447A0EED058A36EE6A
:100B1000636A50ED084A77EEE07A10ED075A76EEF8
:100B2000C06A22EE244A8B4261EE852A25EE413AC4
:100B300064EEE53AE1EE242AA1EEA43AF0EE444A4E
:100B4000E2EE053AE5EE854A42ED082A02ED073A63
:100B50004CED083A4CED074A10ED065A50ED055A97
:100B600067EE854A27EE253A65EEC63A25EE664AD7
:100B7000A6EE053AB0EE646AA6EEA56AF0EE636AE8
:100B800002ED063AE7EE056AB0EE447AA7EEA57AE2
:100B900042ED056A0CED056A0CED067A7FF466AF4E
:100BA00042463846B1B2022300F0D6FA6268B1B2CA
:100BB00028460223BDEC088BBDE8F04100F0CCBA1A
:100BC00003880A46D1ED007A5B08D1ED015A2DE980
:100BD000F04F2DED028B8FB002EB830644685F0867
:100BE0000D9101EBC30196ED007A06F1080991ED34
:100BF000006A01EB830591ED015A77EE866A96ED66
:100C0000013A77EEC67A0C9035EE856A02F108005B
:100C100075EEC55A0A9477EE263A039076EEC76AC7
:100C2000104675EEC74A0B9737EE257AD5ED005A78
:100C300033EE274A029673EEA53A099136EE435AEF
:100C400077EEC37A95ED013AC2ED003A74EEA54A0B
:100C5000D6ED013A76EEE56A37EE657AD5ED015AC2
:100C600036EE236A34EE434A35EE435A36EE256AB1
:100C700077EE837A82ED016A01F1080286ED004A7F
:100C8000069205F10802C6ED014AC1ED006A81ED48
:100C9000015AC5ED007A0792BA1E2746083485ED41
:100CA000017A07F11806049407F110040596560816
:100CB0000194089600F03581029A05EB830300F158
:100CC000100607F12008A2F10C0402F110000A46F8
:100CD0000C3BDDF804A00C3902F1100EA5F10C0C50
:100CE000303705F11002DDF820B01EED027ABBF1BD
:100CF000010B56ED027AA4F1080450ED026A06F1E8
:100D0000080677EE872A12ED025A5EED013A77EE79
:100D1000C77A56ED035A0AF1080A36EEA24A52ED96
:100D2000014A35EEA37A10ED016A75EEE35A00F13F
:100D3000080034EE054AA1F1080136EE272A08F131
:100D4000100877EEC67A0EF1080E06ED044A37EE6B
:100D5000466A10ED034A75EEE61A72EEE62AACF129
:100D6000080C37EE047A07F1180776EEA56A52ED03
:100D7000015A36EE644A02F1080237EE257AA3F1F1
:100D8000080336EEC56A32EE642A06ED037A77EE82
:100D9000A47A9CED041A72EEC52AD4ED045A71EEC1
:100DA000851AD1ED043A75EE816A9CED033AD4EDD3
:100DB000034A75EEC15A93ED040A34EE837A91ED3D
:100DC000035A33EEA61AD3ED030A33EEC08A74EE4B
:100DD000C34A31EE001A35EEC53A76EEE36A77EE95
:100DE000453A84ED041A33EE203A93ED031A30EEBF
:100DF000C55A73EEE03AD1ED030A78EE248A37EE55
:100E0000207A35EE655A76EEC06A37EE017A78EED2
:100E1000644A84ED037A1AED047A5AED035A23EEFC
:100E2000071A67EE680A21EEA58A25EEC20AE3EEEC
:100E3000250AB0EE413AB0EE481AA8EEA53AF0EE17
:100E4000405AA2EE071AE1EE875A00ED041A40ED6F
:100E5000035A81ED033AC1ED040A18ED077A58ED03
:100E6000085A64EE071A26EE873A27EE622A27EE22
:100E7000637AE2EEA51AF0EE422AA6EEE57AF0EEEB
:100E8000436AE4EE252AE3EEE56A4EED041A4EEDE0
:100E9000032A8CED047ACCED036A57ED0C6A17ED4A
:100EA0000B7A65EE265A67EE673A26EE073A26EE8B
:100EB000E44AE6EE263AA7EEA63AF0EE446AF0EEF1
:100EC000657AE5EE076AE4EE877A42ED033A02EDD1
:100ED000043AC3ED046AC3ED037A7FF406AF089BBE
:100EE00009F10809059C5A1E019B18340399103317
:100EF0000498083103EB021308300193D30002EB8E
:100F000042021844994404EBC20204900592069AE6
:100F10001A4408320692CA1808330392079A1A44F0
:100F200007920399069ED1ED007AD6ED005A99ED0D
:100F3000007A37EEA56A079BD6ED014A77EEE57A8F
:100F4000D3ED003A77EE062A91ED015A93ED013A7E
:100F500036EE476A75EE245AD9ED016A35EE645AC9
:100F6000BDF82C4072EEA32A0A9A36EEA74A0D98D5
:100F700075EE474AC1ED002A77EEE67AD9ED012AEF
:100F800075EEE66A37EE057A75EEA25A34EEA35A8C
:100F9000D3ED014A34EE434A75EEA45A37EE637A34
:100FA00036EE636AC1ED015A76EEC36A049977EEB4
:100FB000837AD1ED015AD1ED003A65EE254A0199C7
:100FC00065EEC45AE4EE234AE5EE235AC9ED004A21
:100FD000C9ED015AD1ED015AD1ED004A26EEA55ACC
:100FE000059965EEC65AA6EE245AE6EEA45A86ED99
:100FF000005AC6ED015AD1ED016AD1ED005A2146E1
:1010000027EE266A66EEE76AA7EEA56AE7EE256A8E
:1010100083ED006AC3ED016A042300F09DF80C9E85
:10102000029821467268042300F096F809987268C5
:101030002146042300F090F80423726821462846D4
:101040000FB0BDEC028BBDE8F04F00F085B800BFDB
:10105000012A2DE9F041064617460C4698460588B8
:1010600054D0B5F5807F60D02ED8402D44D064D8C0
:10107000102D33D0202D58D0B8F1000F04D0B26815
:101080002046B189FFF70CF9012F30D17DB307EE6F
:10109000905AB7EE007A04F108010023F8EE677A5F
:1010A000C7EE276A11ED027A013351ED017A08315A
:1010B0009D4227EE267A67EEE67A01ED047A41ED4D
:1010C000037AEFD1BDE8F081B5F5006F2DD010D8CF
:1010D000B5F5007F10D0B5F5806F30D12146304690
:1010E000FFF7A4FCB8F1000FC9D1012FCFD0BDE8A4
:1010F000F081B5F5805F22D1012372682946204630
:1011000000F02AF8B8F1000FEFD0B8E7DDB101F137
:101110000C03002253ED027A01320833F1EE677AB4
:10112000954243ED047AF5D19BE721463046FFF71F
:1011300047FDB8F1000FD8D0A1E7802DCED0B8F18F
:10114000000FD2D09BE7002BD1D082688189204646
:10115000FFF7A6F8CBE700BF2DE9F04F2DED108B80
:101160008FB08B468E469FEDA76A0A9300F1080365
:101170000B900C920D934FEADE014FF000084FEAFE
:10118000CE03C1EBC102099101EB4109019201EBD0
:10119000810A0B9A02EB411C02EBC10702EB01151D
:1011A000019902EBCA0602EB091402EBC90002EB3B
:1011B000C1019CED004AF04496ED002AD4ED005A9E
:1011C000C34591ED003A92ED007A97ED005AD5EDC6
:1011D000007A37EE041AD0ED006A75EE022A77EE37
:1011E000A53A76EE834A35EE425A76EEC36A37EE7A
:1011F000447A77EEE57A32EEA44A71EE235A72EE23
:10120000E42A75EE664A35EE265A75EE846A75EE66
:10121000C45AF0EE471AC2ED006A31EE631ACCED03
:10122000005AA4EE867AD6ED018AE4EEC61A91ED54
:10123000010AB0EE672AD2ED016AE5EE067ADCED2E
:10124000019A94ED018AA5EE462AD7ED015A76EE71
:10125000E90A90ED014A76EEA96AD5ED013A35EE3C
:10126000E83A34EE40AA73EEC84A75EEA85A33EE57
:101270004A9AF0EE608A33EE0A3AB0EE605AF0EE27
:10128000640A73EE883AA9EE065AE3EE064A34EE93
:10129000004AE9EE468AE3EE460A36EEE33A76EE97
:1012A000A36A75EEC43A75EE845A37EE240A33EE1B
:1012B000628A36EEA59A35EE674A37EE647A72EEA8
:1012C000832A82ED019A31EE233A1A4476EEE56ADA
:1012D00031EE631A77EE857A71EEA03ACCED016AB1
:1012E00071EEE04A85ED003A38EEC25A84ED001AFC
:1012F00072EE285A85ED018A9C44C4ED012A1D44F2
:1013000087ED000A1C4481ED007AC6ED003AC0ED7D
:10131000004A87ED014A1F44C1ED017A194486ED68
:10132000015A1E44C0ED015A18443FF642AF0999D4
:10133000072940F282810D9A02EB4110089002EBDE
:10134000C10002EB0111079002EBCA0005914FF0BA
:10135000010A069002EB09110198049102EBC0000A
:1013600002EBC9024FF00009029003920A9AD0469C
:1013700091440B9A02EBCA0C0C9AA9EB890102EB7F
:10138000C902D2ED00FA02EBC90292ED00FA02EBBB
:10139000C902D2ED00EA02EBC90292ED00EA02EBCB
:1013A000C902D2ED00DA02EBC90292ED00DA02EBDB
:1013B000C902D2ED00CA02EB011292ED01CA02EBA2
:1013C000C902D2ED01BA02EBC90292ED01BA02EBF9
:1013D000C902D2ED01AA02EBC90292ED01AA02EB09
:1013E000C902D2ED019A02EBC902DDE90276D2ED23
:1013F000017A089ACDED017ADDE90454DDE90601B0
:1014000002E000BFF304353F92ED005AF044D0ED06
:10141000003A95ED002AC345D6ED000AD7ED005AF3
:10142000DCED007AD1ED004A30EEA53A94ED007A79
:1014300037EE854A74EEA36A77EE022A74EEE34A29
:1014400077EEC57A76EE833A34EE225A76EEC36AA8
:1014500070EEE50ADCED015A35EE233A37EE427ABA
:1014600034EE624A8CED003A35EE635A90ED010A93
:1014700097ED011AD2ED018AD5ED012A91ED013ADD
:1014800075EEE83A96ED012A75EEA85A94ED018AB8
:1014900073EE401A33EE003A38EE620A38EE228AD2
:1014A00072EE412A32EE012A35EEC81A75EE885ADC
:1014B00033EE428A33EE023A34EE082A75EEC38ADE
:1014C00075EE835A34EE484A31EE668ACCED015A05
:1014D00076EE816AF0EE475A9C4434EEE01A74EEE0
:1014E000A04A31EEE23A71EEA21A6AEEA82AE4EEC0
:1014F000C65AA4EE867AF0EE634AEEEE052A65EE51
:101500006A0AB0EE675AE3EE464AE3EE063AE1EEC7
:10151000067AB0EE403AC2ED002AA1EE860AA1EEAC
:10152000465A2BEE881AA1EEC63A62EE6B1AAFEE5F
:10153000021A29EEA62A37EE809AEEEE280A77EEF6
:10154000C07A73EEC78A37EE237AADEE042A64EED2
:10155000692A9DED014A34EEE50AC2ED010A75EEF5
:10156000A45A84ED001A67EEC44A1A4424EE074ACE
:10157000EFEE081A35EE038AACEEA74A35EE435A71
:101580006AEE007AECEE874AEDEE262AC4ED011AE7
:10159000EDEE887A85ED002A68EE4A6A1C442BEE4F
:1015A000257A25EE4B8A69EE4C3AAEEE857AC5ED8A
:1015B000012A2CEE283A1D44B0EE485AEFEEA83A24
:1015C000AFEE893AEDEE806AAEEEA55AC1ED013A72
:1015D00081ED003A194487ED004AC7ED014A1F44E6
:1015E000C0ED007AC0ED016A184486ED007A86ED00
:1015F000015A1E443FF608AF089A0AF1010A083260
:101600000892079A08320792069A08320692059ABB
:1016100008320592049A08320492039A083203921F
:10162000029A08320292099A52457FF49FAE0A9BB1
:101630009646DB009BB20A939DE50FB0BDEC108B84
:10164000BDE8F08FFEE700BF0B4A0C4B934204D07D
:10165000D21A0B49184612F02AFB0A4A0A4B934247
:1016600004D0D21A0021184612F0DCFA12F0F8FA6F
:1016700000F04CF8FEE700BF040600200000002048
:1016800054400224B817012008060020AAB32DE90F
:10169000F0470F468146904600242DED028BD9F885
:1016A0000030A60015494FF0010A03EB84031448EB
:1016B0000134144D93ED008AB0EE480A00F032FA7E
:1016C000DFF838E0DFF840C048B185F800A0BEE898
:1016D0000F00DEF80050ACE80F00CCF80050A04539
:1016E000D7E900233244334482ED008A83ED008A37
:1016F000D5D1BDEC028BBDE8F087704724060020F1
:101700003806002054BD002040BD002000B5002157
:1017100083B02D4800F0F0FA002001F0DBFF40F626
:10172000B83004F0CFFF3021274800F01FFA032122
:10173000254800F02FFA9FED250A4FF480712448C8
:1017400000F08AF8234801F063FF1F4800F036FAE2
:10175000214D22491C48224C00F006FA214801F094
:1017600057FF2B7800229FED207A204843B394ED59
:10177000025A94ED006A25EE075AD4ED047AD4EDAE
:10178000015A67EE877AD4ED036A65EE875A2A70AC
:1017900026EE077ABDEEC56AFDEEE66AFDEEE77A53
:1017A000BDEEC77A16EE103ABDEEE56ACDED006AE1
:1017B000CDED017A17EE101A16EE102A01F028FF6F
:1017C000322004F07FFFCCE7602A002000803B47F6
:1017D00038060020083B022454BD00208D1600244A
:1017E00040BD00202C3B022400007A443C3B0224F4
:1017F00038B5154C002504F5C0702560656125627B
:10180000E56301F083FF11490722114BC4F8391237
:1018100004F5147184F83D2240F20112C4F840121C
:10182000C4F8442203F224420A49C4F89051C4F88F
:101830004852C4F84C52C3F81854C3F81C54C3F8A7
:101840002054116038BD00BF602A002080707F0FD7
:101850003826002000803B47F8B500F500530746C6
:10186000002441F2180003F224420E4638182DEDF0
:10187000028BC3F8181482ED000A4FF40062C3F81B
:1018800020142146C3F81C4412F0CCF941F618008C
:101890004FF480622146381812F0C4F94FF4006208
:1018A000214607F1180012F0BDF94FF400622146FD
:1018B00007F6180012F0B6F996B3731EF7EE007A29
:1018C000B6EE007A41F6184206EE903A012E3A44FE
:1018D000B8EE668AC7EE886A77EEE67A67EE877AB0
:1018E000C2ED007A1CD041F61C4501247D1907EE9B
:1018F000904A0134B8EEE70ADFED117A20EE270AAC
:1019000011F00AFEC0EE086AA642F7EE007AB6EEC3
:10191000007A77EEE67A67EE877AE5EC017AE6D12F
:10192000B1B23846FFF752F810B9BDEC028BF8BDE2
:10193000BDEC028B0348BDE8F84012F06BB900BF64
:10194000DB0FC940703B022470B500F500550C4612
:10195000D5F818642DED028B84B0002E00F0BB800A
:1019600041F218019FED6E7A411801EB86020B4699
:10197000F3EC017A9342A7EEA77AF9D107EE906AC9
:10198000731EF8EEE75A08EE103A87EE250AB5EE18
:10199000400AF1EE10FA00F1B380F1EEC07A9FED4B
:1019A000607A0B46C4ED007AF3EC017AF0EEE77A48
:1019B000F4EEC77AF1EE10FA37FE877A9342F3D14C
:1019C000012E9FED576A84ED017A17D000F5805300
:1019D00093ED067A41F21C03C318F0EE477AB3EC9C
:1019E000017AF7EE006A67EE277AF5EEC07AF1EE3B
:1019F00010FA01D536EE266A9342EED1F8EEC87A97
:101A000005F2244300F1180E41F6184286EE277ABB
:101A1000D3ED007A0EEB860C8218734687EEA58A0A
:101A200084ED027AF1EC017AB2EC017A67EE877A02
:101A3000E3EC017A9C45F5D10023714600F61802CB
:101A40000090FEF7A3FFD5F82034DFED355A032BC5
:101A50004FEA53053CD9009841F61C01B0EE655A97
:101A60000123F0EE654A00F502624118D2ED017AD9
:101A700007EE103AD2ED006A013367EEA77A08321A
:101A8000B8EEC76A91ED007AAB42E6EEA67A26EE92
:101A9000086AF1EEE76A76EEC77AE1EC016AE6EEF3
:101AA000864A35EE265AE7EEA75ADFD1B5EEC05A80
:101AB000F1EE10FA09DDC4EE857AC4ED037AC4EDC7
:101AC000045A04B0BDEC028B70BDDFED157AF4E76B
:101AD000F0EE657AF1E7DFED127A05F2244300F1CA
:101AE000180E87EEA77AD3ED006AC1ED017AC1ED39
:101AF000027A86EEA78AF1EEC77AC1ED007A9BE7FB
:101B0000CDE902200191CDED005A11F01FFE01999F
:101B1000F0EE407ADDED005ADDE902203FE700BF3C
:101B20000000000000F5005200B5D2F81C3483B06C
:101B3000D2F818E4734509D30192FFF705FF00239B
:101B40000120019AC2F81C3403B000BD03F2064C18
:101B5000013300EB8C0C9E45C2F81C348CED000A5E
:101B6000EAD9002003B000BD00F058B9F8B5054629
:101B700000F074F905F1A40405F1AC0754F8046F02
:101B8000284600F087F9304601F0EAFCBC42F5D166
:101B9000F8BD00BFF8B5054600F044F905F1A4040E
:101BA00005F1AC0754F8046F284600F073F930468D
:101BB00001F0D6FCBC42F5D1F8BD00BF183002F0F0
:101BC000D9B800BF70B54FF481718AB04FF4C062CC
:101BD0004FF4E06300F1D8060124ADF80C1000F5D5
:101BE0009675ADF810203046ADF81C30049A079B6E
:101BF0000399009401F0A4FD4FF4807340F20112A8
:101C00000094ADF810304FF4806304AC2846ADF872
:101C10001C30079BADF80C20DDE9031201F090FDAC
:101C20002046072105F0A8FB07AB94E8070083E8EE
:101C300007001946304601F0AFFD07AB94E80700F6
:101C400083E807001946284601F0A6FD304601F05A
:101C5000B9FD28460AB0BDE8704001F0B3BD00BF31
:101C60002DE9F04340F202430225044602222DED05
:101C7000028B8BB004F118079FED1E8A04F1A406B5
:101C8000ADF8003001A8009901F06AFEADF80050EF
:101C90002A4600990DF1160001F062FE04232A463F
:101CA00038460DEB0301002501F06CFE04F16802DB
:101CB00004F18803C4F8A820C4F8AC30294638469B
:101CC00056F8048F02F06AF88146204600F0E2F8E8
:101CD0000023F0EE480A49461A46404601F012FC3D
:101CE0006B1C0125022BE9D10BB0BDEC028BBDE8CA
:101CF000F08300BF6F12033BF0B504460D4695B06C
:101D0000002700F089F82946204604F1B00600F0CB
:101D100079F940F6061330469FED3E0AADF83430AF
:101D200004F1C0050D9901F05BFD4FF400732846E6
:101D30009FED380AADF834300D9901F051FD40F6B1
:101D40000333ADF8247004F14000ADF8143040F2D4
:101D50000163099AADF834300D9B05999FED2D0A6A
:101D6000C4F8D06009AEC4F8D45001AD01F020FC35
:101D70002046FFF727FF2046FFF772FF284601F0B5
:101D8000C5FC01230DF1140E04F5C07C0F931293D2
:101D900047F61223109713930223119395E80F002F
:101DA0008CE80F008EE80F0086E80F00BDF82830A1
:101DB0000E90ADF83630BDF82A30D4E9625EADF849
:101DC0003430C4E9655EBEF1000F1CD10DA904F5E5
:101DD000C87004F0DBF904F1A40504F5D27004F135
:101DE000AC0701F0A7FC3021204600F037F855F889
:101DF000046F204600F04EF8304601F0B1FBAF42D0
:101E0000F5D115B0F0BD72463946284611F00AFFEB
:101E1000DCE700BF00000000704700BF143001F095
:101E20003FBB00BF30B5054683B0143001F0F4FA73
:101E300005F1140001F0ECFA05F114008DED010A32
:101E400001F0D4FAD0ED007A9DED010AF8EE677A40
:101E500080EE277A85ED0E7A03B030BD30B50546A9
:101E600083B0143001F0C6FA05F1140001F0D0FA85
:101E700005F114008DED010A01F0B8FAD0ED007AF9
:101E80009DED010AF8EE677A80EE277A85ED0E7AED
:101E900003B030BD90ED0E0A704700BF00B540F2B0
:101EA00003308FB000224FF60B7340F20341ADF8C0
:101EB0000800009209A8ADF81030ADF824300123D5
:101EC000ADF80C10029907920C92CDE90522CDE9EC
:101ED0000A2202F05DF8002204A80123039900926F
:101EE00002F056F809A802F065F910B901200FB008
:101EF00000BD04A802F05EF980F00100C0B240000D
:101F00000FB000BD70B53C4B9CB0012200240321F2
:101F1000139340F204530546169112941992ADF8AA
:101F20005030CDE91724FFF7B9FF012841D002282E
:101F30004FF001022FD1314B40F601310DAE00942C
:101F4000CDF852304FF60B73ADF82010304608999B
:101F5000ADF8343023461094CDE91A42CDE90E4451
:101F600002F016F82146304602F030F912A905F1C8
:101F70003C0003F099F9302003224FF07E533146A4
:101F80000F931093CDE90D02EA6B05F1140001F0F7
:101F9000F3F91CB070BD40F60131184B0DAEADF831
:101FA00034100D98CDF85230CDE91A4200F0A4F863
:101FB000DCE71022114908900DAE8DF83020104A50
:101FC000CDF8521008A90A90039009920B9404943A
:101FD000CDE91A0404A802F051FB0821039B304606
:101FE000079105A9049AADF814308DF816400693B0
:101FF0000D9400F0BDF8B9E70402040404060403DC
:102000000704010BF0B53A4B044685B040F20112CB
:10201000A36003F581333748012503F58073ADF8DC
:102020000C2040F202726060E36040F6066300201C
:10203000A4F82520A4F82930271D258284F82750EC
:1020400084F82B5002918DF80E0004F0D3FC064664
:1020500004F03AFB034610BB0EB302A904F13000B2
:102060008DF80E5004F04EFC072E38D12046FFF7B5
:1020700049FF04F1140001F0CBF904F114008DEDD7
:10208000010A01F0B3F9D0ED007A9DED010AF8EEF6
:10209000677A80EE277A84ED0E7A05B0F0BD02A94A
:1020A00004F13000019304F02DFC072E019B02D1B6
:1020B000002BDBD006E039462046019302F018FDE4
:1020C000019B8BB104F1250002F08AF804F129008C
:1020D00002F086F804F1120000F066F9C6E739460E
:1020E000204602F005FDC1E7002EEBD0BEE700BFA1
:1020F000050705060508050910B584B00124ADF8EB
:102100000C0003A8ADF80E4002F06AF8214603A8BF
:1021100002F044F9204604F0D5FA002103A802F0A9
:102120003DF9204604F0CEFA214603A802F036F924
:1021300004B010BDC2F3002CFA2300B587B04CEAFE
:10214000410C017C8DF8152005AA009302238DF81F
:1021500014C002F02DFB18B10123184607B000BDD2
:1021600003900A2004F0AEFA039B184607B000BDA6
:10217000034630B5044685B043F8042BFA2507C959
:1021800083E80700A1791E23009503AA1A31ADF850
:102190000C3020460223C9B2217402F009FB10B1B1
:1021A000012005B030BD0A2004F08CFA4FF4B8527B
:1021B00000950223ADF80C20204603AA217C02F0F2
:1021C000F7FA0028ECD10A2004F07CFA41F20272FE
:1021D00000950223ADF80C20204603AA217C02F0D2
:1021E000E7FA0028DCD10A2004F06CFA04220095FA
:1021F0000223ADF80C20204603AA217C02F0D8FA75
:102200000028CDD10A2004F05DFA062200950223B1
:10221000ADF80C20204603AA217C02F0C9FA002860
:10222000BED10A2004F04EFA41F2082200950223A2
:10223000ADF80C20204603AA217C02F0B9FA002850
:10224000AED10A2004F03EFA4FF00A0200950223B4
:10225000ADF80C20204603AA217C02F0A9FA002840
:102260009ED10A2004F02EFA23790C220095002B2F
:10227000217C8DF80C20204614BF622342236A443F
:102280008DF80D30022302F093FA002888D10A203D
:1022900004F018FAA36800952046E268217C1343F5
:1022A000627943EA4213227982F0010243EA8213FF
:1022B0000E228DF80D3002238DF80C2003AA02F0B7
:1022C00077FA00287FF46CAF0A2004F0FBF91022A3
:1022D00000950223ADF80C20204603AA217C02F0D1
:1022E00067FA00287FF45CAF0A2004F0EBF91221B2
:1022F00000950223ADF80C1003AA217C204602F0C1
:1023000057FA00287FF44CAF0A2004F0DBF90122D1
:102310000921204605B0BDE83040FFF70BBF00BFE4
:1023200070B586B000240125102602A94FF4805212
:102330001C480194CDE90256CDE904540CF09EF9F5
:10234000642005F055F9022302A94FF48052154884
:1023500002930594CDE903650CF090F9042302A9DA
:102360004FF480520F480396CDE9043403230293BF
:102370000CF084F940F23223042202A909480193A7
:1023800010230495CDE90223019B4FF4805205935D
:102390000CF074F940F6060102480CF091F9204661
:1023A00006B070BD64BD002030B51F4B89B0082257
:1023B000DFF878C000214FF400641A614FF0020E7C
:1023C00003920A22C3F804C04FF0200C0692402268
:1023D000054699600320196210215C620124C3E95B
:1023E00005C24FF4C072DC60DA6107229FED0C7BFE
:1023F000CDE900E20422CDE904016946181D0292EC
:1024000083ED0A7B0CF010F928B9284609B0BDE825
:102410003040FFF785BF204609B030BDAFF30080E4
:10242000001000000000000060BD0020404100528C
:102430005E4A0023F0B514688FB00A93002C40F078
:10244000B2805B4B012103260C2511600227D3F8D3
:10245000D420584842F48052C3F8D420D3F8D42072
:1024600002F480520092009AD3F8E02042F0100269
:10247000C3F8E020D3F8E02002F010020192019AA4
:10248000D3F8E02042F04002C3F8E020D3F8E02087
:1024900002F040020292029AD3F8E02042F00802D1
:1024A000C3F8E020D3F8E02002F008020392039A78
:1024B000D3F8E02042F48072C3F8E020D3F8E020A3
:1024C00002F480720492049AD3F8E02042F0800271
:1024D000C3F8E020D3F8E02002F080020592059ACC
:1024E000D3F8E02042F02002C3F8E020D3F8E02047
:1024F00002F020020692069AD3F8E02042F004028D
:10250000C3F8E0204FF68372D3F8E0300B9603F067
:1025100004030C9507930223079908A9CDE9082322
:1025200006F028FF48F2371308A9234808930C95B2
:102530000997CDE90A4606F01DFF4CF2037308A97E
:102540001E480893CDE90974CDE90B6506F012FF2A
:1025500040F2FF6308A91A480893CDE90974CDE950
:102560000B6506F007FF4FF60C7308A91548089392
:10257000CDE90974CDE90B6506F0FCFE4FF63F038B
:1025800008A911480893CDE90974CDE90B6506F057
:10259000F1FE202308A90B4809970C950893CDE973
:1025A0000A4606F0E7FE0FB0F0BD00BF58BD0020A0
:1025B000004402580010025800180258000C02583B
:1025C00000200258001C0258001402582DE9F04F58
:1025D0008BB08346C8480D4600AF144602F062FF38
:1025E000C64BD3E90621002A00F00A82002940F0F8
:1025F0009280D3F8048008214FF002094269B8F1B3
:10260000000F00F09280A100EA46012A01F10701C3
:1026100021F00701ADEB010D6846ADEB010D6946F8
:1026200000F0F581022A00F07382002A40F0E58173
:10263000002C00F0E281D3ED0C6A86469FEDB07A63
:102640000BF1040C5E4636F922900EF1080E07EEEF
:10265000909A3CF922900232F8EEE77A944267EEC3
:10266000877A67EEA67A4EED027A07EE909AF8EE38
:10267000E77A67EE877A67EEA67A4EED017AE2D8BE
:1026800022467962C0479D4B0022796A93ED0D6A1C
:10269000281DDFED9C6A9C4E9FED9C7ADFED9C5AD5
:1026A000D1ED007A334666EE277AF4EEE67AF1EE63
:1026B00010FA0CD9F4EEC77AF1EE10FA67FE277A19
:1026C00067EEA57AFDEEE77A17EE903A1BB2D1EDF0
:1026D000017A45F8223066EE277AF4EEE67AF1EEDA
:1026E00010FA40F20682F4EEC77A0831F1EE10FAE1
:1026F00067FE277A67EEA57AFDEEE77A17EE903A45
:102700001BB240F8223002329442C9D8D5462C3749
:10271000BD46BDE8F08FD3F8048010214FF00409C6
:102720004269B8F1000F7FF46EAF1868F8610028B5
:10273000EDD07848C7F818D0C7E9081202F020FF9A
:10274000B9F1020F6D4BF860D7E9081200F0698209
:102750006846C4F35D0C012AA0EBC40085464FEA2D
:102760005400EE46B860AEEBC40085460EEB8C001C
:102770006E46ADEB010DC7E900E006EB8C003E6153
:102780006E46ADEB010D78610EEB8C003146C6F85C
:1027900000E0706000EB8C06796278698E603969C0
:1027A00000EB8C0A06EB8C00C7F820D00091796909
:1027B0003861CDE9011A0AEB8C010391796AC8608E
:1027C00000F03484022A00F02F83002A40F01382A4
:1027D000002C00F09984B9F1020F00F09B84601E78
:1027E000FE683A610BF1040C4008DFED456A0130E8
:1027F0004FEA800A586A00EB86007E6AB268F66883
:102800007A61021DD7F81480C7F81490B1465E466D
:10281000AB46D7E900E17A603A693C616446D7F893
:1028200004C036F9125093ED0C6A07EE905A34F951
:102830001250F8EEE77A67EEA67A67EE867AEEEC4B
:10284000017A07EE905A30F91250F8EEE77A07EE67
:10285000105A3CF9125067EEA67AB8EEC77A67EEC6
:10286000867A27EE267AE1EC017A07EE905A27EE77
:10287000067A08EB0205F8EEE77A85ED007A09EBB7
:10288000020567EEA67A93ED0C7A043267EE877A3A
:102890005245C5ED007AC4D1D7F814905D463C6925
:1028A000BA68FB69D7E908109847144B3A6AB9F13E
:1028B000020F93ED0D7AD2E9006100F0798404F102
:1028C000FF3CDB6AFA6834464FEA5C0CDFED0D6AC8
:1028D00003EB82093B6A0CF1010C9FED0C6ADFED02
:1028E0000C5A09F1040E4FEA8C0C0022281D064EEA
:1028F000D3E902839A4675E0B0BD002098BD002060
:102900000000003804FF7FBF0280FFFF04FF7F3F0D
:1029100000FEFF46B4BD002000000034F4EEC67A8D
:10292000F1EE10FA66FE277A67EEA57AFDEEE77AF9
:1029300017EE903A1BB2D1ED007A45F8123067EEEF
:10294000277AF4EEE67AF1EE10FA40F26881F4EEBE
:10295000C67AF1EE10FA66FE277A67EEA57AFDEEEA
:10296000E77A17EE903A1BB240F8123008EB0203F8
:10297000D3ED007A67EE277AF4EEE67AF1EE10FAFC
:1029800040F24B81F4EEC67AF1EE10FA66FE277A39
:1029900067EEA57AFDEEE77A17EE903A1BB249F89A
:1029A00012300AEB0203D3ED007A67EE277AF4EED9
:1029B000E67AF1EE10FA40F22981F4EEC67AF1EEF1
:1029C00010FA66FE277A67EEA57AFDEEE77A17EE33
:1029D000903A1BB24EF812300432624500F010817A
:1029E00004340431D4ED007A67EE277AF4EEE67A07
:1029F000F1EE10FA92D833469DE72246C04785E6AD
:102A000000297FF4F6AD2C37BD46BDE8F08F002CD1
:102A1000F3D0D3ED0C6A81461FED417A4FF0000EE2
:102A20000BF1040C5E4656F82E2009F1080982F4D9
:102A30000002A2F5000207EE902A5CF82E200EF1AB
:102A4000020EF8EEE77A82F400027445A2F5000265
:102A500067EE877A67EEA67A49ED027A07EE902A4A
:102A6000F8EEE77A67EE877A67EEA67A49ED017AA3
:102A7000D9D822467962C047AC4B0022796A93EDDF
:102A80000D6A281DDFEDAA6AAA4E9FEDAB7AD1ED43
:102A9000007A334666EE277AF4EEE67AF1EE10FA23
:102AA0000BD9F4EEC77AF1EE10FA67FE277AF0EE52
:102AB000675AFEEEE45A15EE903AD1ED017A45F8E8
:102AC000223066EE277AF4EEE67AF1EE10FA18D9A3
:102AD000F4EEC77A0831F1EE10FA67FE277AFEEEBF
:102AE000E47A17EE903A40F8223002329442CED87F
:102AF0000CE640F822600232083194423FF6D0AD35
:102B000004E640F82260023208319442BFD8FDE565
:102B1000002C3FF472AFD3ED0C6A86469FED897AA4
:102B200000220BF1040CE9465E4656F822100EF125
:102B3000080E07EE901A5CF822100232F8EEE77ADF
:102B4000944267EE877A67EEA67A4EED027A07EE38
:102B5000901AF8EEE77A67EE877A67EEA67A4EED7E
:102B6000017AE2D849462246C7F82490C0476F4B05
:102B70000022796A93ED0D6A281DDFED6D6A6F4EB4
:102B80009FED6D7AD1ED007A334666EE277AF4EE4A
:102B9000E67AF1EE10FA0BD9F4EEC77AF1EE10FAFC
:102BA00067FE277AF0EE675AFEEEE05A15EE903A8D
:102BB000D1ED017A45F8223066EE277AF4EEE67A16
:102BC000F1EE10FA10D9F4EEC77A0831F1EE10FAEE
:102BD00067FE277AFEEEE07A17EE903A40F8223050
:102BE0000232A242CED391E540F82260023208318F
:102BF0009442C7D88AE5BA68FB69D7E908109847B4
:102C0000D7F818D02C37BD46BDE8F08F4EF81260CB
:102C1000043262457FF4E4AEF2E73346BFE6334662
:102C2000A2E6A000012A4FEA540E00F1070020F0AE
:102C3000070CADEB0C0D6846ADEB0C0DC7F808E0CA
:102C4000EC4600EB8E06ADEB010DC7E90006C7F8B8
:102C500024D06E46ADEB010D31463060CDF800C09A
:102C600000EB8E060CEB8E0CC7F820D04E60CDF832
:102C700004C07FF4A7AD002C00F04682D3ED0C6AAF
:102C8000024679680BF1040C9FED2D7A5E4656F8EA
:102C9000280080F40000A0F5000007EE900A5CF820
:102CA000280008F10208F8EEE77A80F400004445B5
:102CB000A0F5000067EE877A67EEA67AE2EC017A6B
:102CC00007EE900AF8EEE77A67EE877A67EEA67A63
:102CD000E1EC017ADBD87246FB69D7E90810984726
:102CE000124B396AB9F1020F93ED0D7AD1E9002147
:102CF00000F0F98204F1FF3CDB6AF86814464FEA01
:102D00005C0CDFED0B6A03EB80093B6A0CF1010CF4
:102D10009FED096A09F1040E281D4FEA8C0C054E3F
:102D2000D3E902839A46002369E000BF98BD0020E2
:102D300004FF7FBF7E0080FF04FF7F3F007E008096
:102D40000000003400000030F4EEC67AF1EE10FA14
:102D500066FE277AF0EE675AFEEEE45A15EE902AE8
:102D6000D1ED007A45F8132067EE277AF4EEE67A83
:102D7000F1EE10FA56D9F4EEC67AF1EE10FA66FECC
:102D8000277AF0EE675AFEEEE45A15EE902A40F8E4
:102D9000132008EB0302D2ED007A67EE277AF4EEF7
:102DA000E67AF1EE10FA3BD9F4EEC67AF1EE10FABB
:102DB00066FE277AF0EE675AFEEEE45A15EE902A88
:102DC00049F813200AEB0302D2ED007A67EE277A66
:102DD000F4EEE67AF1EE10FA1CD9F4EEC67AF1EED2
:102DE00010FA66FE277AFEEEE47A17EE902A4EF885
:102DF0001320043363453FF403AF04340431D4EDAE
:102E0000007A67EE277AF4EEE67AF1EE10FA9BD8B4
:102E10003246A5E74EF8136004336345EDD1EFE683
:102E20003246CDE73246B2E7002C00F06D81B9F1B1
:102E3000020F00F09581621EFE680BF1040C3868E9
:102E40005208C7F800905FED416A01324FEA820AEA
:102E50005A6A02EB86087A6A08F10401D2E9026232
:102E600039617A61B646D7F814905E467C610022DB
:102E700064467968AB46D7F810C056F8125093ED07
:102E80000C6A07EE905A54F81250F8EEE77A67EEA3
:102E9000A67A67EE867AE0EC017A07EE905A58F847
:102EA0001250F8EEE77A67EEA67A67EE867AE1ECE2
:102EB000017A07EE905A5CF81250B8EEE77A07EE06
:102EC000905A0EEB020527EE267AF8EEE77A27EE07
:102ED000067A67EEA67A85ED007A09EB020593ED96
:102EE0000C7A043267EE877A9245C5ED007AC4D138
:102EF000D7F800905D467C69BA68FB69D7E908108D
:102F00009847CF4B396AB9F1020F93ED0D7AD1E9A9
:102F1000002100F0A78104F1FF3CDB6AF868144649
:102F20004FEA5C0CDFEDCD6A03EB80093B6A0CF1E4
:102F3000010C9FEDCB6A09F1040E281D4FEA8C0CA1
:102F4000C04ED3E902839A4600235AE0F4EEC67AD3
:102F5000F1EE10FA66FE277AF0EE675AFEEEE05ABE
:102F600015EE902AD1ED007A45F8132067EE277A06
:102F7000F4EEE67AF1EE10FA56D9F4EEC67AF1EEF6
:102F800010FA66FE277AF0EE675AFEEEE05A15EE6A
:102F9000902A40F8132008EB0302D2ED007A67EE86
:102FA000277AF4EEE67AF1EE10FA3BD9F4EEC67A1F
:102FB000F1EE10FA66FE277AF0EE675AFEEEE05A5E
:102FC00015EE902A49F813200AEB0302D2ED007A9D
:102FD00067EE277AF4EEE67AF1EE10FA1CD9F4EEF9
:102FE000C67AF1EE10FA66FE277AFEEEE07A17EE68
:102FF000902A4EF81320043363453FF401AE0434A5
:103000000431D4ED007A67EE277AF4EEE67AF1EE39
:1030100010FA9BD83246A5E74EF813600433634597
:10302000EDD1EDE53246CDE73246B2E7002C6BD06C
:10303000611EF868F246424649080BF1040CC7F8D5
:1030400000900131DFED806AD7F810908900796136
:10305000596A01EB800E30465E46AB460EF104081D
:103060005546A2467C6856F8121093ED0C6A81F41E
:103070000001A1F5000107EE901A5CF81210F8EEBD
:10308000E77A81F40001A1F5000167EEA67A67EE08
:10309000867AE5EC017A07EE901A5EF81210F8EEE7
:1030A000E77A81F4000167EEA67AA1F5000167EEE8
:1030B000867AE4EC017A07EE901A58F81210B8EE0E
:1030C000E77A81F40001A1F5000127EE267A07EEE8
:1030D000901A811827EE067AF8EEE77A81ED007AE9
:1030E00009EB020167EEA67A93ED0C7A043267EEE3
:1030F000877AC1ED007A79699142B4D1D7F800900E
:103100005D465446BA68E7E52246FB69D7E90810F0
:10311000984775E5D3ED0C6A0BF1040C9FED4B7AE3
:103120005E46D7E9000136F922E007EE90EA3CF965
:1031300022E00232F8EEE77A944267EE877A67EE91
:10314000A67AE0EC017A07EE90EAF8EEE77A67EE0D
:10315000877A67EEA67AE1EC017AE4D8FFF7A0BBA4
:10316000D3ED0C6A00229FED3A7A0BF1040C5E4617
:10317000AE46D7E9000156F8225007EE905A5CF8A7
:1031800022500232F8EEE77A944267EE877A67EED1
:10319000A67AE0EC017A07EE905AF8EEE77A67EE4D
:1031A000877A67EEA67AE1EC017AE4D87546A3E661
:1031B0000022DFED2A6A9FED2A6A281DDFED255ADD
:1031C000DFF894C0D6ED007A634667EE277AF4EE16
:1031D000E67AF1EE10FA0CD9F4EEC67AF1EE10FAB6
:1031E00066FE277A67EEA57AFDEEE77A17EE903A4B
:1031F0001BB2D1ED007A0436043145F8223067EE77
:10320000277AF4EEE67AF1EE10FA12D9F4EEC67AE5
:10321000F1EE10FA66FE277A67EEA57AFDEEE77A00
:1032200017EE903A1BB240F8223002329442C9D8CD
:10323000E6E440F822C002329442C3D8E0E400BF82
:1032400098BD0020007E008000000034000000389F
:103250000000003000FEFF460280FFFF04FF7FBF3A
:1032600004FF7F3F00235FED036A1FED036A281D03
:10327000DFF8FCC0D2ED007A664667EE277AF4EEFE
:10328000E67AF1EE10FA0BD9F4EEC67AF1EE10FA06
:1032900066FE277AF0EE675AFEEEE05A15EE906A67
:1032A000D1ED007A0432043145F8236067EE277AC5
:1032B000F4EEE67AF1EE10FA0FD9F4EEC67AF1EEFA
:1032C00010FA66FE277AFEEEE07A17EE906A40F872
:1032D000236002339C42CDD892E440F823C00233ED
:1032E0009C42C7D88CE40023DFED1F6A9FED1F6A64
:1032F000281DDFF880C0D2ED007A664667EE277A97
:10330000F4EEE67AF1EE10FA0BD9F4EEC67AF1EEAD
:1033100010FA66FE277AF0EE675AFEEEE45A15EED2
:10332000906AD1ED007A0432043145F8236067EEEB
:10333000277AF4EEE67AF1EE10FA0FD9F4EEC67AB7
:10334000F1EE10FA66FE277AFEEEE47A17EE906A46
:1033500040F8236002339C42CDD851E440F823C0AA
:1033600002339C42C7D84BE404FF7FBF04FF7F3F7A
:10337000007E00807E0080FF10B5194C84B0964618
:10338000046004F1080C0FC98CE80F00D4ED047A36
:10339000F5EEC07A8DE80F00F1EE10FA1CDDB7EE05
:1033A000006A94ED057A27EE277AC6EE276A84ED47
:1033B0000D7AC4ED0C6ABEF1000F0DD0204640F826
:1033C00018EF02F06FF8074903690020064A2162EE
:1033D000A262E36004B010BD012004B010BD00BFC4
:1033E00098BD002000200030000000300068083048
:1033F000704700BFB1F5807F03680A4628BF4FF4CD
:103400008072B1F5807F9A6094BF002001207047E0
:103410000068183002F0A2B870B504688AB0A369D9
:10342000E160D3B104F1180002F03CF8E268844690
:10343000EE461546BCE80F00AEE80F00BCE80F00F2
:10344000AEE80F009CE803008EE80300694604F133
:103450001800049501F028FFF0B9E369CBB104F13D
:103460001C05284602F01EF88446EE46E468BCE8D7
:103470000F00AEE80F00BCE80F00AEE80F009CE8BC
:1034800003008EE8030069462846049401F00CFF0F
:1034900010B900200AB070BD01200AB070BD00BF95
:1034A00030B5046883B00D46E3694BB1A3680020D2
:1034B000E26A616A9B00009004F11C0001F0F4FFD5
:1034C000A3680748A26A9B00216A009004F11800D3
:1034D00001F0EAFF0020C4E9005003B030BD00BF96
:1034E000CD250024064B302003214FF07E52C3E946
:1034F0000201002000211A615A61C3E906017047E8
:1035000098BD0020F6EE006A9FED146A20EE207A46
:1035100080ED020AF7EE007A80ED036A016027EE83
:10352000267AC7EE876AF4EEE76AF1EE10FA05DC58
:10353000B4EEE66AF1EE10FA76FE267A4FF07E518E
:103540004FF0000C02760022C0ED017AC0F814C0E2
:10355000016143768276C0ED070A704700000000E3
:10356000837E80ED020ADBB9D0ED077A27EE800A70
:10357000B6EE007AF7EE007A20EE070A87EE807A40
:10358000B4EEE77AF1EE10FA07DCDFED077AF4EE3D
:10359000C77AF1EE10FA77FE877AC0ED017A7047AC
:1035A000DFED027AE2E700BF000000006F12033B8C
:1035B00030B585B004460025ADF80C10ADF80820F4
:1035C000ADF8043003F07CF8BDF80C204FF48073A4
:1035D000206004F118002283BDF808206383E38390
:1035E000A283257100F0FCFD04F11C0000F0F8FD41
:1035F0009FED060A019904F1080000F0F1F84FF67A
:10360000FF736562238405B030BD00BF0000000079
:103610000FB470B582B02B4E2B4D06AB306853F80B
:10362000042BC0F180012844019310F057FA33684D
:10363000C01840D02A1801E0013820D012F8013D0E
:103640000A2BF9D00D2BF7D0841C7F2C18D980239E
:1036500042F224421C46A5F87E201C4D33602B68A4
:10366000012B18D922461849194800F05DF90028A5
:10367000F8D1306002B0BDE8704004B07047022459
:103680000D230A222B54054423466A700F4D3360E4
:103690002B68012BE6D822460B490D4800F044F96F
:1036A0000028E7D12B68306001332B6002B0BDE801
:1036B000704004B070470D210A22022329701C4675
:1036C0006A70CAE7D8BD0020DCBD0020D4BD002050
:1036D000D0BD002010B504460021084800F09AF83B
:1036E000074A630007481360FFF792FF0648FFF799
:1036F0008FFF0A20BDE8104002F0E4BFD0BD0020DB
:10370000D4BD0020803B0224903B0224074B0021C3
:10371000074AB3F800C082609A884FF48073A0F81B
:1037200004C00160C280C360704700BFF44E012432
:103730000040003000220A2302700371704700BF6E
:1037400030B52DED028B85B09FED128A05469DF8B0
:103750002840B0EE480AADF80C100399ADF80820E7
:103760002246ADF804300DF033FEB0EE480A224692
:10377000029905F11C000DF02BFEB0EE480A22461E
:10378000019905F1380005B0BDEC028BBDE8304071
:103790000DF01EBE00007A4438B50C46054691ED8A
:1037A000000A0DF039FE94ED010A05F11C000DF040
:1037B00033FE94ED020A05F13800BDE838400DF003
:1037C0002BBE00BF10B504460DF038FE04F11C00FE
:1037D0000DF034FE04F13800BDE810400DF02EBEAF
:1037E00030B5044683B00D0A009102F069FF4FF432
:1037F000807200994FF001232060A01DA171A2806A
:10380000E571A36003B0BDE8304000F0E9BC00BF43
:10381000704700BF012908B519D0022910D019B18D
:10382000BDE8084007F008BF364B0A46DFF8F4C091
:1038300035493648C3F800C00DF0F8F8D0B1FEE7BE
:103840000122334933480DF0F1F868B1FEE70A462A
:1038500030482F490DF0EAF800B1FEE72E492D4817
:103860000DF006F9C0B1FEE72B492A480DF000F92A
:1038700060B1FEE7284925480DF0FAF800B1FEE7EF
:10388000264922480DF084F818B3FEE72449214860
:103890000DF07EF860B1FEE721491E480DF078F882
:1038A00000B1FEE71B480DF0FBF80028B8D0FEE79A
:1038B00018480DF0F5F8024650B9124BDFF864C015
:1038C00011491248C3F800C00DF0B0F838B1FEE756
:1038D000FEE70E480DF0E4F80028A1D0FEE70E49FF
:1038E0000A480DF0C5F800B1FEE70C4907480DF095
:1038F0004FF800B1FEE705480DF0D2F800288FD050
:10390000FEE700BF5CBE0020CC02002064BE0020A9
:103910009C02002000C10020240400205802002046
:103920004802002011380024084691B208B503F07F
:1039300049F9003818BF012008BD00BF014807F051
:10394000A1B800BF08020120014807F09BB800BFE2
:1039500008020120014807F095B800BF08020120C5
:1039600000B583B04FF0000E4FF0030C4274ADF879
:103970000410BDF8043080F810E0A0F802C0038005
:1039800003B000BD2DE9F04F4FF00008DFF8F492CE
:103990008FB0B74C03700646B64B174642600D46D3
:1039A000202241464846C4F86831C4F86491CDE904
:1039B0000388CDE90588CDE90788CDE90988CDE9F7
:1039C0000B8810F02FF92022414604F5A170C4F8AD
:1039D0003181C4F83581C4F83981C4F83D8110F0D3
:1039E00021F984F83071736884F84882002B00F064
:1039F00084814346484604F5987E05F1100AC44682
:103A0000019708E04FF00101624503F1120384F8C9
:103A1000481264D90230E91855F803B0E2180CF1E5
:103A2000010CCF68D1F80490D1F8088044F803B0B5
:103A3000D7604FF00007C2F80490C2F80880098AE6
:103A4000078011821AF803100EF8011F726800290E
:103A5000D8D1624503F11203DCD8019F94F84832B3
:103A6000FFB2002B3ED10121032332780020C4F89D
:103A70009831002384F88111C4F874317E4984F8A8
:103A8000803184F88831C4F88471C4E967334FF415
:103A90008023C4E95B1308210123C4E95E310021BE
:103AA000C4E964019AB100200121013A84F8A431EB
:103AB000C4E96C01082A0CD8DFE812F0FE00F90016
:103AC000F400EF00EA00D500CF00C800C10084F880
:103AD000A4216A4804F0DAF930B1FFBEFEE7019F85
:103AE0000021FFB20123C0E7039003A9634804F05B
:103AF0005DFB002840F0A180042340F2FF720B9090
:103B0000CDE9092394F83031002B4BD0DFF87881D0
:103B10008146DFF878A14FF0070BA8F58E756B7B17
:103B2000072B07D8DFE803F08386807A777D41048E
:103B3000CDF820B0281F00F053FB2B7B042B3CDC7E
:103B4000022B00F3D28000F0CC80002388F80030F4
:103B500015F8043C002B42D0022B00F0B280012B60
:103B600007D115F8033C012B00F0CB80002B00F0AF
:103B7000D6800023069306A9DAF800303F48079361
:103B800003F09AFD002840F0C08009F1010994F883
:103B900030210AF1040A08F101085FFA89F31235AD
:103BA0009A42BCD80FB0BDE8F08F0623281F0893B7
:103BB00000F016FB2B7B042BC2DD032388F80030BA
:103BC0002F4600263846013600F00AFB98F80030F0
:103BD0000437B342F6DC15F8043C002BBCD115F8D1
:103BE000032C062A00F08580072A00F09480022A20
:103BF00000F09780032A00F09680002A00F095805C
:103C0000012A00F09480042A00F09380052A1C4ABF
:103C100008BF1346AEE7042308938BE703230893FA
:103C200088E70523089385E70223089382E70023AA
:103C300008937FE7012308937CE7FFBEFEE740F28D
:103C4000FF324FF4A073C4E96A2342E740F2FF1247
:103C50004FF49073C4E96A233BE7FF224FF480736B
:103C6000C4E96A2335E77F22E023C4E96A2330E709
:103C7000A0C3002040410030002002400CC50020BD
:103C80000000B84F00410030C0C40020383C02247E
:103C90003F22C023C4E96A231BE71F22A023C4E9F3
:103CA0006A2316E70F228023C4E96A2311E707225B
:103CB0006023C4E96A230CE703224023C4E96A2392
:103CC00007E715F8033C042B15D0052B1BD0F3B1E7
:103CD000012B1ED0022B20D0032B7FF44AAF164BB2
:103CE00048E7012388F800306AE7022388F80030AB
:103CF00066E7124B3EE7124B3CE7FFB2012103237C
:103D0000B3E6104B36E7104B34E7FFBEFEE70F4B30
:103D100030E70F4B2EE70F4B2CE70F4B2AE70F4BEB
:103D200028E70F4B26E70F4B24E70F4B22E70F4BFB
:103D300020E70F4B1EE700BF002090360800900CD4
:103D40001000C0102000F014000180210004002A9F
:103D50000008302E8000501D001060320002B02597
:103D60000040C03A0080F03E00002143000052476E
:103D70000000844B10B5084C40F2FF724FF0011167
:103D8000204604F0B5F914F83C2C54F8081C2046E1
:103D9000BDE8104003F0E8BE0CC50020044BD3F88A
:103DA000643103EB41000F2988BF1846704700BFFC
:103DB000A0C30020224B02689A4200D07047214ADB
:103DC0000021214BD2F8D800DFF880C040F020005D
:103DD00000B583B0C3F8D0C14FF0090CC3E975C179
:103DE000C2F8D8004FF4806CD2F8D80093F848227B
:103DF00000F0200082F00102019003F5E870120249
:103E0000C3E9771CC3F8EC214FF4006C019A4FF41E
:103E10000052C3F8E4C1C3F8E821C3E97C1104F0FF
:103E2000F1FB094B08B1FFBEFEE703F5B67203F5DF
:103E3000E871C3F80822C3F8B81103B000BD00BF91
:103E40000020024000440258A0C30020400002406D
:103E5000014804F02DBF00BF70C50020464B02682A
:103E60009A4200D07047F0B5444C85B094F848327F
:103E70000BB905B0F0BD94F83011002951D004F50C
:103E8000A07504F10C0704F59876002215E003F004
:103E900001012B80A7F1080016F8113C0392019351
:103EA00000F07CFA019B039A012B22D894F8301180
:103EB0000132123793B2994231D916F8013F0235D7
:103EC000002BF5D0D4F864310021287833F812C0E3
:103ED000D4F8683103EB021323F810C02B880133A8
:103EE0009BB2D8B2029030789842D0D80B4602915B
:103EF000CFE7029B381F0392C3F3400100F04EFA54
:103F0000019A029B022A039AC3F38001CED038465D
:103F1000019200F043FA94F83011019AC8E794F83E
:103F2000483283F001031648092100221B024FF496
:103F30008065C4F8D821C4F8EC314FF40053C4F8BC
:103F4000DC21C4F8E831C4E974014FF400610D4884
:103F5000C4E97851C4E97C2204F054FB08B1FFBEE7
:103F6000FEE794F83021D4F86411074805B0BDE8A5
:103F7000F04003F0F9BD00BF00200240A0C30020C4
:103F80004000024070C500200CC50020704700BFF3
:103F900000B593B00180ADF80410C9B2DDF850C08F
:103FA0000B29C0F80CC0C0E901233FD090F801E014
:103FB000BEF10F0F3AD8022A3CD0032A04D0A2F156
:103FC0000102B2FA82F25209012B0E9205D0A3F13E
:103FD0000203B3FA83F35B095B00BCF1020F0F939A
:103FE00026D0BCF1030F23D0ACF10103B3FA83F365
:103FF0005B090A2910930ED8624B4A1E03EB8123FA
:104000000361092A00F2AE80DFE802F09D8E7F7026
:1040100061524334251600231A46036101230DA97A
:10402000104603FA0EF30D9305F0A4F913B000BD8A
:104030006346DEE71122C7E7534B544AD3F8E0103A
:1040400041F48061C3F8E010D3F8E03003F48063FA
:104050000C930C9BE2E74C4B4D4AD3F8E01041F433
:104060000071C3F8E010D3F8E03003F400730B9351
:104070000B9BD3E7444B474AD3F8E01041F48071DF
:10408000C3F8E010D3F8E03003F480730A930A9B7E
:10409000C4E73D4B404AD3F8E01041F08001C3F83B
:1040A000E010D3F8E03003F080030993099BB5E7F3
:1040B000354B3A4AD3F8E01041F04001C3F8E01024
:1040C000D3F8E03003F040030893089BA6E72E4B9B
:1040D000334AD3F8E01041F02001C3F8E010D3F8E0
:1040E000E03003F020030793079B97E7264B2D4A08
:1040F000D3F8E01041F01001C3F8E010D3F8E0303D
:1041000003F010030693069B88E71F4B264AD3F85B
:10411000E01041F00801C3F8E010D3F8E03003F0FC
:1041200008030593059B79E7174B204AD3F8E01065
:1041300041F00401C3F8E010D3F8E03003F00403C9
:104140000493049B6AE7104B194AD3F8E01041F03E
:104150000201C3F8E010D3F8E03003F00203039348
:10416000039B5BE7084B074AD3F8E01041F00101DD
:10417000C3F8E010D3F8E03003F001030293029B90
:104180004CE700BF000002580044025800280258C3
:104190000024025800200258001C0258001802583F
:1041A0000014025800100258000C0258000802586F
:1041B0000004025808B5012143780069994089B28A
:1041C00005F0EEFB003818BF012008BD90F801C0D3
:1041D00001230A46006903FA0CF189B205F0E6BB37
:1041E0008378022B30B504468FB039D0032B00F012
:1041F000D180A3F10102B2FA82F25209E3780A9265
:10420000012B05D0A3F10203B3FA83F35B095B0032
:1042100000222046CDE90B3203F0BEF805462046C9
:1042200003F0C2F823780990082B13D8DFE803F0D5
:104230002D405366798C9F051A00574BD3F8E02028
:1042400042F08002C3F8E020D3F8E03003F08003AE
:104250000793079B09A9284605F08CF80FB030BDDD
:104260001122CBE74C4B09A92846D3F8E02042F4B1
:104270008072C3F8E020D3F8E03003F48073089331
:10428000089B05F077F80FB030BD434B09A92846CD
:10429000D3F8E02042F00102C3F8E020D3F8E03088
:1042A00003F001030093009B05F064F80FB030BDEC
:1042B000394B09A92846D3F8E02042F00202C3F89E
:1042C000E020D3F8E03003F002030193019B05F0F6
:1042D00051F80FB030BD304B09A92846D3F8E02083
:1042E00042F00402C3F8E020D3F8E03003F0040306
:1042F0000293029B05F03EF80FB030BD264B09A992
:104300002846D3F8E02042F00802C3F8E020D3F8B2
:10431000E03003F008030393039B05F02BF80FB084
:1043200030BD1D4B09A92846D3F8E02042F0100209
:10433000C3F8E020D3F8E03003F010030493049BAB
:1043400005F018F80FB030BD134B09A92846D3F873
:10435000E02042F02002C3F8E020D3F8E03003F080
:1043600020030593059B05F005F80FB030BD0A4BFF
:1043700009A92846D3F8E02042F04002C3F8E02023
:10438000D3F8E03003F040030693069B04F0F2FFFD
:104390000FB030BD1A4631E70044025870B50646EA
:1043A0000D4602F0F9FF0446304602F0FDFF2A1EDA
:1043B0000146204618BF0122BDE8704005F0F6BA5C
:1043C000026800231221032A70B586B00446CDE9A5
:1043D0000113039301D804230493201D02F0DCFF92
:1043E0000646201D02F0E0FF69460090304604F0CA
:1043F000C1FFA01D02F0D0FF0546A01D02F0D4FFB2
:1044000069460090284604F0B5FF06B070BD00BFB5
:10441000684A0368934200B58DB029D0664A93423A
:104420005CD0664A934200F09B80654A934201D07B
:104430000DB000BD634B6448D3F8E02042F00202A7
:10444000C3F8E020D3F8E02002F002020A920A9AB0
:10445000FFF7B6FF5B4BD3F8F42042F08002C3F8BD
:10446000F420D3F8F43003F080030B930B9BDFE7C9
:10447000544B5648D3F8E02042F00202C3F8E02043
:10448000D3F8E02002F002020192019AFFF798FFB0
:104490004C4B00221F20D3F8E81041F4001C1146B9
:1044A000C3F8E8C0D3F8E8C00CF4001CCDF808C08D
:1044B000DDF808C0D3F8D8C04CF0010CC3F8D8C060
:1044C000D3F8D83003F001030393039B03F0F0FE0D
:1044D0001F200DB05DF804EB03F01ABF394B3C48C8
:1044E000D3F8E02042F08002C3F8E020D3F8E020C7
:1044F00002F080020492049AD3F8E02042F0020213
:10450000C3F8E020D3F8E02002F002020592059AF9
:10451000FFF756FF2B4B00222120D3F8E81041F47F
:10452000800C1146C3F8E8C0D3F8E8C00CF4800C46
:10453000CDF818C0DDF818C0D3F8D8C04CF0010C85
:10454000C3F8D8C0D3F8D83003F001030793079B12
:1045500003F0AEFE21200DB05DF804EB03F0D8BEF1
:104560001C48FFF72DFF174B00224820D3F8E8C066
:1045700011464CF4000CC3F8E8C0D3F8E8C00CF4C2
:10458000000CCDF820C0DDF820C0D3F8D8C04CF026
:10459000010CC3F8D8C0D3F8D83003F00103099355
:1045A000099B03F085FE48200DB05DF804EB03F095
:1045B000AFBE00BF0054004000580040005C004007
:1045C000001C00580044025878C80020F0C50020A4
:1045D000C8C60020A0C700200D4B002210210D48A6
:1045E0004FF0FF0C5A6019801A8180F800C05A61A0
:1045F0001983DA611A84DA6219865A631A875A644F
:10460000C3E90322C3E90922C3E90F22704700BFAF
:1046100000000020ECC50020EFF3108272B60C4BB6
:104620001978090603D50AB962B67047704700B514
:104630001B78D820074983B05BB2019200FB0310BE
:1046400004F036FB019A02B962B603B000BD00BFA8
:10465000ECC5002004C60020014806F0F1B800BFF8
:104660007CC60020014806F0EBB800BF54C700200C
:10467000014806F0E5B800BF2CC80020F0B50C6872
:10468000D825414E87B004FB05F5032C06EB050346
:1046900003605FDCCA68012A5CD857D00F460868FF
:1046A0009C464968BA680DF1180EFB68ACE80F002B
:1046B000D822364B02FB04613A7C01918CF8002031
:1046C000D1F808C00FCB0EE90F000EEB8403019A5E
:1046D000BCF1010F53F8103CC2F88C3048D0BCF14B
:1046E000020F3AD0BCF1000F09D102F081F9284B3A
:1046F000019A98420CBF274B274BC2F89030D82321
:104700003A7C2649012003FB04F452008C3533190E
:104710009834C3F894200022C3E92602C3F8A020ED
:10472000A8190A510C446260C3F8AC2005F06AFE77
:1047300080B90146A81906F095F858B90146A8199C
:1047400006F0BCF8003818BF012004E00A7C103ADB
:10475000672AA3D9012007B0F0BD02F049F90C4B3C
:10476000019A98420CBF0E4B0E4BC2F89030C6E730
:1047700002F03EF9064B019A98420CBF0A4B0B4BD4
:10478000C2F89030BBE700BFF0C50020FC4E01240A
:10479000000E27075F4390608A62E030FCC500206E
:1047A000200BA0101A0980102D0FB0303211D0202C
:1047B0002DE9F041056882B0884616461F4605F18E
:1047C0008C04204606F04AF82028FAD1EB687BB921
:1047D0004FEA48012046089C3B46324689B2009485
:1047E00005F070FE003818BF012002B0BDE8F0816E
:1047F000089B3A463146204605F032FFF2E700BFFB
:10480000044B10221A7483F8E82083F8C02183F83F
:1048100098227047F0C5002010B5002396B04FF4E1
:104820008071062204460D9308921593CDE90E136C
:10483000CDE91033CDE9133302F0DCF807282DD091
:1048400004F1100341F2883208A91846019307F0D9
:1048500073F828B1012384F85C30012016B010BD34
:10486000022201234FF0100C08A905934FF4800396
:104870000198CDF810C0CDE902220022CDE906232F
:1048800005224FF08073089202AA119341F28833F7
:1048900007F0E8F90028DDD116B010BD032384F835
:1048A0005C30DAE70000000030B50023A7B04FF01D
:1048B00080724FF480750446ADF80E301D93259339
:1048C000CDE920320122CDE91E53CDE923332292D6
:1048D000002942D0F02200F1100518ABADF80E20EF
:1048E000C02041F2883219461890284607F024F873
:1048F00028B1012384F85C30012027B030BD41F29B
:1049000088320DF10E01284607F096F8034600287C
:10491000EFD14FF480710522284601250A9210221A
:1049200012930F93179304930795CDE910139FEDFE
:104930001E7B4FF08071CDE91533139141F288331E
:104940000AA9CDE905526A448DED087B07F08AF982
:104950000028D2D084F85C50CEE718AB612100F17A
:10496000100541F28832189119462846019306F045
:10497000E3FF0028BDD141F288320DF10E01284637
:1049800007F0E0F80028B4D1BDF80E20204622F050
:10499000780242F04002ADF80E20FFF73DFF019B88
:1049A00000289DD0A5E700BF0000000000004000E7
:1049B0002DE9F04D0023AAB04FF4807501248DF845
:1049C00007304FF080782193074613931B9322956D
:1049D0001C94CDF89480CDE92333CDE92643CDE96D
:1049E0002833CDE91453CDE91633CDE91933062325
:1049F0000E9301F0FFFF072807D041F288320EA97D
:104A000007F1100006F098FF30B1012387F85C3001
:104A100001202AB0BDE8F08D02234FF0000B4FF4C7
:104A2000800C08AA0EA907F110000B94CDF85C8049
:104A3000CDE9083310230A9305230E9341F28833FE
:104A4000CDE90CBC07F00EF90028DED141F2883226
:104A500007F110001CA906F06FFF0028D5D14023F4
:104A600041F288320DF1070107F110008DF807308F
:104A700006F0E2FF0028C8D1402305204FF0000ACD
:104A80004FF4800B1C901CA902AA07F1100005949A
:104A9000CDF89480CDE902331023049341F288339A
:104AA000CDE906AB07F0DEF803460028ADD10520BE
:104AB000102213930EA90E9007F110000A9208AA73
:104AC0001B931495CDF85C800B94CDE91533CDE99B
:104AD0001933CDE9083441F28833CDE90CAB07F046
:104AE000C1F8002895D087F85C4091E700000000ED
:104AF0002DE9F0415E4CA4B00E46046001F07AFF4F
:104B0000072800F0A680306825467168B26807C59E
:104B1000B389284620F8043B237B94F80D80019349
:104B200006F0EAFED8B9019B0126E061012B514B4A
:104B3000C4E9056623610CBF4FF400034FF48013F2
:104B400093FAA3F3B3FA83F34FF48077013B6762E0
:104B5000C4E90B00281D236206F04EFE38B1012384
:104B600084F85C300127384624B0BDE8F081662324
:104B70000D90159041F2883208A90893CDE90E7086
:104B8000CDE91000CDE91300281D06F0D5FE002860
:104B9000E5D1992341F2883208A9281D089306F02F
:104BA000CBFE0028DBD105231E901B9002AA169392
:104BB0004FF08073239016A91F931023059604933A
:104BC00041F288339FED267BCDE91C70CDE92100B1
:104BD000CDE90206281D8DED067B07F043F800287D
:104BE000BDD101992046FFF75FFE0028B7D12046CE
:104BF000FFF7DEFE07460028B1D1B8F1000FB2D1B1
:104C00004FF4807308AA16A9281D1C93EB231A974A
:104C100016934FF440631D934FF4005319934FF4D0
:104C200040431E93A023189306231B934FF08053F9
:104C30009FED0D7B23934FF04073CDE921771F93B8
:104C40008DED087B07F0A2F800288CD084F85C601A
:104C500088E7032384F85C3084E700BFAFF300806B
:104C60000000000000004000000000000000000004
:104C700050C90020005000522DE9F0478CB03E4B47
:104C80000024026800AF9A42FC62C7E90744C7E902
:104C9000094403D03037BD46BDE8F087374B40F6B6
:104CA00009213748EA46D3F8D42007F11405354ED8
:104CB00007F11A0842F48042C3F8D420D3F8D42074
:104CC00002F480423A603A68D3F8E02042F04002B1
:104CD000C3F8E020D3F8E02002F040027A607A685E
:104CE000D3F8E02042F02002C3F8E020D3F8E0201F
:104CF00002F02002BA60BA68D3F8E02042F0100255
:104D0000C3F8E020D3F8E02002F01002FA60FA685D
:104D1000D3F8E02042F00202C3F8E020D3F8E030FC
:104D2000786103F0020339833B613B6956F8040F55
:104D300002F032FB8146306802F036FB0223F86154
:104D400007F11C014846C7E908340323BB6215F884
:104D5000013BFB6204F00EFB4545E7D100225C20DD
:104D6000114603F0A5FA5C2003F0D2FA3037D5469D
:104D7000BD46BDE8F08700BF005000520044025815
:104D80000A0A0909ACC90020114B02689A4200D0F6
:104D90007047104A70B5D2F8D4300F4C23F48043DA
:104DA00004F11806C2F8D43054F8040F02F0F4FAF3
:104DB0000546206802F0F8FA0146284604F0D2FCC5
:104DC000B442F1D15C20BDE8704003F0AFBA00BF3F
:104DD0000050005200440258ACC90020014807F0BE
:104DE0005FB800BF60C90020074B1A1D03F1020C19
:104DF000981D03F108019A6603F10A02C3E9183C01
:104E0000C3E91B015A67704750C900202DE9F041E2
:104E1000821D05468AB0031D05F10A010830CDE95F
:104E2000052305F10C02AB69CDE907010992002BBE
:104E30003AD0EF69B7FA87F77F090123022205AE5E
:104E40004FF006080393CDE9012356F8044B2B7964
:104E50002278934216D02B68EBB1012B02D1EAB134
:104E60000A230493204602F09FFA0090204602F0A5
:104E700093FA694604F07EFA0AAB9E42E5D10AB085
:104E8000BDE8F081697963789942E4D1002FF3D0CD
:104E90002B68002BE1D1CDF81080E3E76378022B7B
:104EA0000CBF08230A23DCE70127C6E7AE49024608
:104EB00003688B4200B58DB000F08A8020318B42B0
:104EC00000F08680A9498B4204D020318B4201D06A
:104ED0000DB000BDA64B0092D3F8E010A54841F0FC
:104EE0000101C3F8E010D3F8E01001F001010791CF
:104EF0000799D3F8E01041F00801C3F8E010D3F8A7
:104F0000E01001F0080108910899D3F8E01041F091
:104F10004001C3F8E010D3F8E01001F0400109911E
:104F20000999D3F8F01041F40001C3F8F010D3F858
:104F3000F01001F400010A910A99FFF767FF8C4B0A
:104F4000009AD3F8D800D2F800C08B4940F0010293
:104F5000D1F85C02C3F8D820D3F8D83003F00103AD
:104F60000B93824B0B9A9C4500F0BB80D1F88032AA
:104F7000013B18BF01239A01002840F0E1807F48DF
:104F800001F22C434FF0580C01F54771C1F81001A4
:104F90000020019100935862C3E901C24FF4806C74
:104FA0004FF48052C3E9030C5A614FF4804C4FF424
:104FB00080721846C3E906C24FF400321A6203F049
:104FC00021FBDDE90031002800F0A180FFBEFEE7F3
:104FD000674B0092D3F8E010674841F00101C3F835
:104FE000E010D3F8E01001F0010102910299D3F82A
:104FF000E01041F01001C3F8E010D3F8E01001F028
:10500000100103910399D3F8E01041F04001C3F877
:10501000E010D3F8E01001F0400104910499D3F8B6
:10502000F01041F48001C3F8F010D3F8F01001F44F
:10503000800105910599FFF7E9FE4D4B009AD3F8E1
:10504000D810D2F800E041F00101DFF81CC14A4855
:10505000C3F8D810E645D3F8D830026803F001034E
:105060000693069B2DD0436A013B18BF012399018B
:10507000002A5BD1414A4FF0580C00F5E873C0F8A4
:10508000D02100F1C0020020019200935862C3E9D0
:1050900001C14FF4806C4FF48051C3E9030C596196
:1050A0004FF4804C4FF480711846C3E906C14FF4A9
:1050B0000031196203F0A6FADDE9003210B3FFBE39
:1050C000FEE7036A013B18BF0123990122BB2C4A6A
:1050D0004FF0570C00F5AC73C0F8582100F12802CE
:1050E000D1E7D1F87C32013B18BF01239A0188BB7C
:1050F000234801F56D734FF0570C01F52171C1F88C
:10510000300145E7C2E920339A630DB000BDC1E923
:10511000203399630DB000BD1A4A4FF0590C00F5C9
:10512000AC73C0F8582100F12802ACE7164A4FF0E2
:105130005A0C00F5E873C0F8D02100F1C002A2E7D4
:10514000114801F22C434FF05A0C01F54771C1F898
:1051500010011DE70B4801F56D734FF0590C01F577
:105160002171C1F8300113E704580140045C01408B
:105170000044025824CC0020C8C900202800024066
:10518000100002405800024070000240014803F045
:105190008FBD00BF20CB0020014803F089BD00BFB8
:1051A00098CB0020014803F083BD00BF7CCD0020D8
:1051B000014803F07DBD00BFF4CD00201A4A03680A
:1051C000934200B509D02032934206D0174A934249
:1051D00015D02032934212D000BD154B0022D3F8D7
:1051E00054E2C3F85822BEF1000FF5D0D3F84802BC
:1051F000D3E9931273465DF804EB520818470C4B41
:105200000022D3F8B0E4C3F8B424BEF1000FE3D019
:10521000D3F8AC24D3F8A814D3F8A40452087346E6
:105220005DF804EB184700BF04580140045C0140DE
:10523000C8C90020184A0368934200B509D020323B
:10524000934206D0154A934216D02032934213D08F
:1052500000BD134BD3E9942E5208C3F85822BEF177
:10526000000FF5D0D3E99201734601EB820100EB08
:1052700082005DF804EB1847094BD3F8AC24D3F84F
:10528000B0E45208C3F8B424BEF1000FE0D0D3F864
:10529000A814D3F8A404E7E704580140045C0140D3
:1052A000C8C90020000000002DE9F047D1F800C077
:1052B0004FF41777764D86B007FB0CF7BCF1010F62
:1052C00005EB0708C0F8008000F39C804FF0000950
:1052D00007F512730E460C4645F803902B44C6465C
:1052E000C3F80490C8F8509265A3D3E9002366A1DF
:1052F000D1E90001CDE902230DEB8C03CDE90401D6
:105300009A681B69009201930FCCAEE80F000FCC96
:10531000AEE80F00009A019B94E80300C8F828202B
:105320008EE80300C8F8C0303369042B0DD8DFE8DD
:1053300003F07D87910374004FF417734BF68032AE
:1053400003FB0C539A64C3F8E020B269316A002A67
:1053500054D000294FF0010214BF032102214FF461
:10536000177303FB0C53C3E90B12F269716A002A2D
:105370004CD1891A18BF012170694FF417730228A4
:1053800003FB0C53C3E9311206D8424B13F80090CB
:10539000414B53F820309A464FF4177300223F498F
:1053A00007F1280003FB0CF3284403F1380403F150
:1053B000500C03F1D0060A510C44626003F1E8047A
:1053C0002B445A645A6341F80C208C44CCF80420D6
:1053D000DA658A510E447260C3F8DC20C3F8CC2031
:1053E0000A510C4451466260C3F8F42002234A4635
:1053F00008F0BCFE002837D0FFBEFEE7891A18BFB0
:105400000121ACE7012006B0BDE8F08700294FF08C
:10541000010214BF03210221AEE74FF41773204AA3
:1054200003FB0C539A64C3F8E0208EE74FF4177324
:105430004FF4FA5203FB0C539A64C3F8E02084E75C
:105440004FF417734FF47A5203FB0C539A64C3F86A
:10545000E0207AE74FF417734FF4FA4203FB0C5342
:105460009A64C3F8E02070E707F1C00002234A46BF
:105470005146284408F07AFE0028C4D0FFBEFEE75B
:1054800004580140045C014024580140245C014060
:10549000C8C90020983C02248C3C0224CCC90020BE
:1054A000007701000068704770B5046882B0154647
:1054B0000E46C4F85032C4E992129AB2069BC4F860
:1054C0005432A369012B24D0636A0192012B10D0BE
:1054D000294604F1C00008F017FF236A019A012B46
:1054E0000FD0294604F1280008F00EFF002002B07A
:1054F00070BD04F1C00008F08DFF236A019A012BF2
:10550000EFD1314604F1280008F084FF002002B0FA
:1055100070BD236A0192012B10D0294604F12800A6
:1055200008F0F2FE636A019A012B0FD0294604F1BC
:10553000C00008F0E9FE002002B070BD04F12800B0
:1055400008F068FF636A019A012BEFD1314604F13C
:10555000C00008F05FFF002002B070BD03681B6947
:10556000042B05D8044A02EB830393ED000A70472D
:105570009FED020A704700BF783C022400803B4741
:105580000368D3F858027047204B02680169F0B5F0
:10559000D3F88C5083B0C368ADB25D1BB2B1A942E1
:1055A00014D082680446174602EB010010D2691A33
:1055B000CDE9000100F0C0FF0023DDE90001D4E9DE
:1055C0000062B047E3682561AB421AD003B0F0BD7A
:1055D000591ACDE9001000F0AFFF0023D4E90062B2
:1055E000DDE90010B0472946384600F0A5FF00234A
:1055F0003846626829462668B047E3682561AB42B1
:10560000E4D10023236103B0F0BD00BF00000240DD
:105610002DE9F0470446884691461E4600F13405C0
:10562000284609F0ADFA2028FAD10023C4E9323324
:10563000C4E93533C4F8DC30C4F8E430C4F844318C
:10564000C4F85431C4F85C31C4E953334FF4806377
:10565000C4F8D030C4F848314FF44033C4F8E030D7
:10566000C4F85831414BC4F8C03003F57A73C4F81C
:1056700038314023C4F84031E369072B0BD8DFE809
:1056800003F00460444B5259676E2923C4F8C430B8
:105690002A23C4F83C3104F59C77384602F0B2FF67
:1056A00008B1FFBEFEE7C4F8A870C4F87051EFF36C
:1056B00010839A4672B62E4A94F91C302D4F1370FF
:1056C000089B2D4C3B60099B23600EB11846B047E8
:1056D0001FFA89F24146284609F010F828B9BAF1B4
:1056E000000F00D162B6BDE8F087FF23204A137097
:1056F00000233B602360089B13B101210998984760
:105700000120BAF1000FEED1ECE72D23C4F8C4302C
:105710002E23C4F83C31BEE73F23C4F8C4304023F5
:10572000C4F83C31B7E74123C4F8C4304223C4F87D
:105730003C31B0E74723C4F8C4304823C4F83C31B7
:10574000A9E72B23C4F8C4302C23C4F83C31A2E7CA
:105750004F23C4F8C4305023C4F83C319BE7512395
:10576000C4F8C4305223C4F83C3194E788000240A6
:1057700088CE002084CE002080CE00202DE9F04786
:105780000446884691461E4600F13405284609F035
:10579000F7F92028FAD10023C4E93233C4E93533BC
:1057A000C4F8DC30C4F8E430C4F84431C4F85431EF
:1057B000C4F85C31C4E953334FF48063C4F8D0308B
:1057C000C4F848314FF44033C4F8E030C4F85831DD
:1057D000414BC4F8C03003F57A73C4F83831402324
:1057E000C4F84031E369072B0BD8DFE803F004600D
:1057F000444B5259676E2923C4F8C4302A23C4F895
:105800003C3104F1C007384602F0FCFE08B1FFBE8F
:10581000FEE7C4F8AC70C4F8F850EFF310839A4672
:1058200072B62E4A94F91C302D4F1370089B2D4CE4
:105830003B60099B23600EB11846B0471FFA89F2FE
:105840004146284608F0A6FF28B9BAF1000F00D15A
:1058500062B6BDE8F087FF23204A137000233B6047
:105860002360089B13B10121099898470120BAF1E0
:10587000000FEED1ECE72D23C4F8C4302E23C4F87A
:105880003C31BEE73F23C4F8C4304023C4F83C3168
:10589000B7E74123C4F8C4304223C4F83C31B0E731
:1058A0004723C4F8C4304823C4F83C31A9E72B236C
:1058B000C4F8C4302C23C4F83C31A2E74F23C4F809
:1058C000C4305023C4F83C319BE75123C4F8C430A2
:1058D0005223C4F83C3194E78800024088CE00206F
:1058E00084CE002080CE0020F0B585B0EFF3108686
:1058F00072B6002947D1FF23254A264C237013682E
:1059000023B100201060244A1068984723781B06B2
:1059100026D5224F0025224C05E001351C3407F521
:10592000D877092D1CD0A369012B1DD0002BF4D1F1
:10593000216838460029F0D02269E3680392626941
:105940000192039A00922289FFF718FF0028E4D100
:10595000C5EBC505124A02EB850342F825005860E5
:1059600006B962B605B0F0BD61680029D5D063699B
:105970003846019323690093E3682289FFF748FEC4
:105980000028CAD1E4E7039109F0F4FD0399B2E7D6
:1059900084CE002088CE002080CE0020C0CE002003
:1059A00048000020F0B50346002189B002201A7E8D
:1059B00005910B2ACDE90301D9694FEA4104264636
:1059C00025D1997E0B2902D1002009B0F0BDDFF866
:1059D00044C1721C4E485CF8222090F800C092F836
:1059E00000E0DC7EF445264668D071457CD092F814
:1059F00003E0F44573D0714500F0828092F806E030
:105A0000E64577D0714534D0012009B0F0BD414959
:105A10003F4851F8241090F800C091F800E05D7EF6
:105A2000F4452F463AD072453ED091F803E0F44554
:105A30003FD072454DD091F806E0E64543D072451F
:105A4000E2D1CA79BA42DFD1063103F1180289786E
:105A5000019310460092069101F09EFC04460098C6
:105A600001F0A2FC02A90290204603F083FC019BF6
:105A7000A7E7D179B142C7D106321A3392781846D6
:105A80000093069201F088FC0446009801F08CFC1B
:105A900002A90290204603F06DFC95E74C7845780A
:105AA000AC42C2D07245C0D191F801E0BE45BCD134
:105AB000CBE70C794578AC42BBD1BCE7447855784C
:105AC000AC4292D193E7407891F807C08445B6D1B3
:105AD0009AE791F804E0BE45ADD10331B5E71479FA
